:4000000000100020110000000D0200000D02000008B500F0B5F900F0FBF80000F8B572B680220021D2003E4801F0EBF980223D48D200002101F0E5F90022141C3A49FF257C
:4000400057580C313E1C081C6300AE433D4001336419CB186100013141188B4206D0581E00781D78801905700233F6E704320C2AE4D1C0222D4B92041A602D4A2D4B802164
:400080001A6099232C4A1B0413602C4A8905116002213C202A4A2B4C13602B4A13780B432A4913700B788343283803430B701621137804300B4313704022254B1A60C0220D
:4000C000244B52031A600322234B1A60234A244B1A6080222368D2021343236000F062FD2268204B204913402360204A204B1A601022204B1A60204B20321A6080221F4B59
:4001000012061A6000231E4A236011601D491E4A11601E491E4A11601E4A1360F8BDC04600300F4000400F402014000004000140EEEE00000C00014010500F4018500F4083
:4001400030500F4000010B4000700F4001700F40000104400801044000030440A40D000008030440FFFFFBFF0E0000800600008004010B400C0202402002024008010B40A8
:400180000000024076010080400002403F0100C0800002400C020B4010B5064C2378002B07D1054B002B02D0044800E000BF0123237010BDF0000020000000001C140000B8
:4001C00008B5084B002B03D00748084900E000BF07480368002B00D108BD064B002BFBD09847F9E7000000001C140000F4000020D00000200000000008B500F063FB0120D1
:40020000182100F03FFB00F0DFFAFEE7FEE7000070B51049104B01394A1C15D000221E685C689D68A018AA4203D0B058A0500432F8E7021CDC68151AA54202D0002520C224
:40024000F9E710330139E7E701F0ACF8FFF7D4FFFEE7C046010000009814000008B500239A000D49032B01D80C4989580C4801338150302BF4D1FFF7D1FE0022094B1A6022
:40028000094B1A68002A00D11A6080220121D20513680B43136008BD0D0200000000000000000020C8000020C0000020004770B5051C0E1C141C002802D0002000F044FC2F
:4002C0000020002C05D0013CAB191B5DC018C0B2F7E770BD013808B50B282FD8C901494201F04CF806080A0C0E10141216191B20174B13E0174B16E0174B0AE0174B12E036
:40030000174B0BE0174B09E0174B02E0174B00E0174BC91816E0174B05E0174BC9180878C0B213E0154BC9180A7848788B7800021B041843CB7810431B0606E0002000F048
:4003400003FC00210B7848780002184308BDC046C07F0000C17F0000C57F0000C97F0000D07F0000D17F0000D67F0000D27F0000D47F0000D87F0000DC7F0000E07F00003E
:400380000C4B10B51A68102313400B4A00D113601368802B0DD100240220211C1460FFF799FFA04205D0211C0220FFF793FFFFF77DFF10BD00030B40C0000020F8B5061C1D
:4003C0000320311CFFF786FF041C311C0420FFF781FF0134E401271800240320311CFFF779FF251C0130C001B84209D203785A1ED2B2FD2A00D801251C19E4B20130F3E736
:400400000120311CFFF766FF6442E4B20623844203D16A4255416D422B40181CF8BD0000F0B5C64CA544029000F076FC62B600250A2301950393029AFF23002A00D0131C9E
:4004400096210AAC201C490004AA00F081FC029B002B03D0039B013BDBB20393039B002B02D00028E7D102E0002800D08AE004AB1988062900D879E122780423012A52D158
:40048000E678A07836020643F21D8A4200D96FE1962149008A4200D96AE1A2195179107992798C46172A3ED10022F3189BB2002B09D0A0AFA249FF187F183F78013BD219D2
:4004C00092B29BB2F3E763465242190292B201430823914227D160E0342B00D0CBE0019B012B00D042E1032E00D03FE155A80021802200F086FF80251F2155AB581904AB8B
:40050000AD19F21EC918ADB200F072FF832D00D026E1A57960792D020543FF2D00D829E1012301930A23002404AA0AA8548001224370230AC37000230270221D847092B2C2
:40054000002A09D0A0A97E4E891889190978013A5B189BB292B2F3E7A0AA7A4912195B4251189BB20B7078491B0A51180B70774B0734D31817221A7004AB9A1CA1B296239A
:4005800000F018FC029B002B00D154E7019B012B00D012E1012301934DE763782779181C31380A282ED96A4A1468002C26D0019A012A25D104AAD68007AE13710BAF002175
:4005C0000C22301C069700F01CFFB76005A8311CA0472623B488FF339C4202D9B368BB4207D0B268002A01D1002C04D13368DBB29AE70E2397E70E23141C95E7052393E794
:40060000052390E700F0C4FE0B001900CFFF68FF3D00CFFF4100530068FF63008D00019B012B00D0A2E0002E00D09FE0301CFFF7C5FE43424341237170E0019B012B00D0F9
:4006400094E0012E00D091E0002F00D08EE0414B1B681B68DA0BD2B2DB09DBB2002A01D080235B0023711B0A6371FF23A3710023E371042458E7019B012B77D1022E75D995
:400680003AE7019B012B71D191E0019B012B6DD12C33AC19FF339C426ADC55AB58190BA9321C00F0A5FE0023A5B21C1C3CE7002E5CD107AB191C284A351C11CA11C10BAADC
:4006C00003CB03C2012308240193331C2CE7019B012B4BD1032E49D1A37964791B021C43FF2C00D91EE739026118C90100208022FFF7DDFD061C002F0DD1FF2C0BD1391CD9
:400700000520FFF7E7FD391C361A0620FFF7E2FDF6B2361AF6B276420AAB1E710023012402E70020FFF74AFE002802D180220B4B1A6000F009FB00F009FA17E07CFDFFFF2D
:40074000A7FDFFFFACFDFFFFADFDFFFFAEFDFFFF0C010020D40000203C140000C000002001230025019302332C1CDDE60423DAE60323D8E6134B1B681A68D3099BB25206C2
:4007800001D001339BB23F02E81980B2984204D20123002501930933E6E755A900F0B4F80028F5D10123051C0193031CDCE70025029BAB4200D13EE6ECE6A1239B009D44E4
:4007C000F0BDC046D400002038B50020FFF7F6FD431E98410625144C4042236805401A680020C03AC021FFF762FD63681B78181AC0B2984203D123681B68002B02D1002097
:4008000000F0A2F9094C2368402B01D0002D03D000202060FFF704FEC820FFF701FE8023236000F093F938BDD4000020C0000020802200210C4BD2041A601A681A600B4A76
:4008400011601A681A600C22094B1A60094B0B3A1A60094B30321A60084BCD321A60084B7F3A1A607047C04600010540080105402401054038010540280105401401054079
:400880000C01054038B50D1C041CAC4000F032F8024B1C6000F032F838BDC0460800054010B5012400F026F8054A13682343136000F024F8201C1821FFF7E4FF10BDC046B7
:4008C0000000054010B5054C2378002B03D1FFF7AFFF01232370FFF7E3FF10BD100100200230800804D0C0460138FDD1C046C046C0467047EFF3108072B6704780F3108812
:400900007047C046C046C046F0B50024ADB008940994FF2800D9AEE0A14200D1ABE0039080220CA800F064FD0222211C01940AAB9000C058002802D009180443019201320D
:40094000222AF4D1002903D1002C00D096E000E0002402947F224E494E4D0A914E4F5A604E4A2B603A60C0462B6805911B0F06920F2B02D12B68DBB205E02A680023120F02
:400980000A2A00D02B680893089E002E00D07CE0FFF7B0FF424A434B116809961960089B04900792002B19D13F4A03990A920A9A09040A430AA90A9229603C49354A39609C
:4009C000C0462968090F0F2902D11368DBB204E01168090F0A2900D013680893089E002E3DD1002C3BD00CA8311C802200F009FD019B029A0AAC9B001A51059B069A0A9324
:400A00007F2363602C60234B3A60C0462A68120F0F2A02D11E68F6B204E01A68120F0A2A00D01E680896089B002B18D1204A03990A920A9A08041F4910430A90154A2C60D2
:400A40003960C0462968090F0F2902D11368DBB204E01168090F0A2900D013680893099B002B04D10F4A079912680A6009930498FFF744FF09E00423089306E0019A01244A
:400A8000920098589950029064E708982DB0F0BDB6D7000008000040040000400400008008010B4014010020B6D8000005000080B6D90000060000801F2800D901BE034B49
:400AC0008000C318186819607047C0464000002038B5041C0D1E032D00D901BE1F2C00D901BEFFF707FFA308074A9B009B180322144094400634A240A5401968914329434D
:400B00001960FFF7FBFE38BD00E400E01F2318401E3B8340181C014B1860704700E100E01F2318401E3B8340181C014B1860704780E100E01F2318401E3B8340181C014B92
:400B40001860704780E200E001BE7047034A044913689BB20B4313607047C0460CED00E00400FA0510B5041C8022074B1202944205D91868FFF7B4FE044BE418F4E7586823
:400B80006043FFF7ADFE10BDDC0000200080FFFF08B5034B1B7A5843FFF7A2FE08BDC046DC000020F0B5051C87B0FFF7A3FEEB1E049003932D2B5CD8314B1B789D4204D8F5
:400BC000304B1C78304BE4B21EE0304B1B789D4204D82F4B1C782F4BE4B215E02E4B1B789D4204D82D4B1C782D4BE4B20CE02D4B1B789D4204D82C4B1C782C4BE4B203E06D
:400C00002B4B1C782B4BE4B21B78039ADBB20193294B2A4F9A5C059302922F2A04D92A2D02D919263E6008E03F233E681E40029BB34205D2214B029A1A600520FFF750FE57
:400C40001C4B1F4AED182B780520DBB213601D4B019A1C601C4B1A60FFF79AFF029BB34208D9059B039A05209B5C3B60FFF738FE00E001BE0498FFF741FE07B0F0BDC0467B
:400C8000C0F1FF0FC1F1FF0FC2F1FF0FC3F1FF0FC4F1FF0FC5F1FF0FC6F1FF0FC7F1FF0FC8F1FF0FC9F1FF0FCAF1FF0FCBF1FF0FCCF1FF0FCDF1FF0F441400002CFF0B4099
:400CC00028FF0B401CFF0B4020FF0B400D4B1B685B0615D50C4B1B68DB0609D50B4B1A68002A0DD00A490A6000220A490A6006E0084B074A18681168884201D012681A6066
:400D00007047C0464C0F07406400074018010020B4010020A401002010B5094C4021201D00F07CF8201C0021443000F059F8054800F0C0F80023236000F098F810BDC046BA
:400D400018010020CD0C000008B500F09DF808BDF8B5051C0C1C161C0120002D22D0002920D00A275F431020002F1BD00E490B78034212D000200D4A13689BB23380087051
:400D80001060221C9C4200D91A1C094992B2281C043100F02DFB002004E00120FFF7E2FE013FE0E7F8BDC046AC010020B00100201801002038B5031C0C1C0120002B0BD082
:400DC000002909D0054D1180281C191C4430221C00F00EFB00202C6038BDC0461801002038B5002810D0041C0D1C0B20FFF798FE064B074A1C60074B0B201D600023136067
:400E0000054A1360FFF782FE38BDC046C0010020A4010020B4010020A801002038B500280ED0041C0D1C0B20FFF77AFE0022054B0B201C60044B1D60044B1A60FFF766FE5E
:400E400038BDC046BC010020B8010020B00100208021054A08B5136809060B4313600B20FFF754FE08BDC0460000074010B5054C2378002B03D100F041F801232370FFF7ED
:400E8000E7FF10BD9C01002008B50B20FFF748FE00F0A0F8054A0B2013685B005B0813600022034B1A60FFF745FE08BD00000740880F0740014B58607047C0469C01002065
:400EC00080200A4B40001A6802420AD0084A1268520406D41A680749114019601A6802431A600222044B1A607047C0460000074060000740FFFEFFFF6C0007400C2110B50C
:400F000000241D4A0B2013680B4313601B4B1C4A1C601C4B1C491A601C4B1D4A13601D4A14601D4A11601D4A13601D4B1C60FFF7F7FD0B200321FFF7CBFD1A490B20FFF704
:400F4000BBFD4C22184BFF321C60184B1C60184B1A60184B3C3A1C60174BFF3A1C60174B1C60174B1A70174B1C70174B1C60174B1C60174B1C7010BD7000074000000740E6
:400F800077080040600007401000FE00070100800003074004030740100307400002074004020740E10F0000C80E0740880E0740480F0740080F0740C80F0740880F0740CB
:400FC000C5010020AC010020A4010020B0010020C40100201022014B1A707047C5010020F8B5BF4B1B68002B00D09847BD4B1B68DB0702D50022BC4B1A602020BB4B1A784B
:40100000024219D1BA4A11680222FF32114213D01978B84AC90706D511781E38814311701178073004E0117881431170902110780143117000221A701A78920600D54EE1CE
:4010400010241978214000D125E10222A8480168114234D0A849A94D0A60A9490D320C6809682240A74C0904C90F26788A18A149964204D904260A7832430A7004E0277801
:401080002E68D21BB21A2A602D689F4A156000229E4D2A60802522709D4C6D0222682A43226025689B4A2A40226002240A78A2430A700A78013C22430A7010221A700822DC
:4010C0000168114232D08C490A60934A1168890414D59249096809070CD09149914D0C682D682C19904D2D68EDB225700C6801340C60EEE714688D49214011608C4A7D4999
:401100001568141CAA0603D540250A782A430A700025884A1560884A226020240A78A2430A700A78103C22430A701C700268520639D50121814A1160814A6E491068102234
:4011400010420BD0714802606F4A10686B4A106002200A7802430A7012221DE0794A704812680068121A0420072A0ED96A48082A05D1A024026824022243026007E0802418
:401180000268A4012243026008206A4A106020200A7802430A7011221A706B4A564B1A6001226A4B1A600822694B1968114225D0644B5B481B680168083B5B1A0124934216
:4011C00001D90024131C002B0CD0564902680968013B8A1854490968C9B21170026801320260F0E7002C07D080204B4900020A6802430A604F4A136008221FE01B685B070F
:401200001ED5494B46491A684E4B08681B6898420CD201204D4BD2B2186042480B680068C3181A700B6801330B6006E0FFF748FE4021304A13780B43137004223C4B1A60C1
:40124000444B1B68DB064AD5434B19682C4B1A680F231340082B1AD0284A404B14681B683F489C4208D21368CB181B78DBB20360136801331360E9E7FF23224A0360137828
:401280000A2BE3D813780133DBB21370DEE71022344B1A6023E0344802685200520802601C701D4B214A1C6822401A601C682F4A22401A601F4B204A1960144B1960294B57
:4012C0001A602B4A1A4B1A601F4A0B4B1A60294A294B1A6080220368120613430360F8BDA00100208C0E0740880E0740C50100204C0F0740AC010020400F0740A8010020C0
:4013000008020740C4010020A4010020880F074004020740FFFFFEFF6000074008030740B0010020BC01002040030740FF5FFFFFC00F0740C80F0740ED0F0000800E0740FA
:4013400064000740B8010020FF0F00006C000740CC0F07408C0F0740C0010020B401002040020740800F074000000740FFFCFFFFF307000017030000000F074002B47146F8
:4013800049084900095C49008E4402BC7047C04603B47146490840004900095E49008E4403BC70470E4B70B500251E1C0D4CE41AA410A54204D0AB00F35898470135F8E7CB
:4013C00000F058F8084B00251E1C084CE41AA410A54204D0AB00F35898470135F8E770BD80140000801400008014000088140000002310B5934203D0CC5CC4540133F9E7E7
:4014000010BD031C8218934202D019700133FAE77047000000150000630000000000000001330F4003410F4004430F40E61062048E04D84018808C40C608E6089311C80470
:4014400011320101030405060708090A0B0C0E0F101112131415161718191B1C1D1E1F2021222325262728292A2B2E2F3031323334350000F8B5C046F8BC08BC9E46704771
:40148000C10100005D020000F8B5C046F8BC08BC9E46704799010000A8140000D000002020000000D80000000000000014140000181400000000E02EC05D00001800000070
:4014C00000366E0100000000000000000000000000000000000000000000000000000000000000000000000000000000000000000000000000000000000000000000000047
:4015000000000000000000000000000000000000000000000000000000000000000000000000000000000000000000000000000000000000000000000000000000000000AB
:40154000000000000000000000000000000000000000000000000000000000000000000000000000000000000000000000000000000000000000000000000000000000006B
:40158000000000000000000000000000000000000000000000000000000000000000000000000000000000000000000000000000000000000000000000000000000000002B
:4015C00000000000000000000000000000000000000000000000000000000000000000000000000000000000000000000000000000000000000000000000000000000000EB
:407FC0000000000000000000000000000000000000000000010000000000000000000000000000000000000000000000000000000000000000000000000000000000000080
:0200000490303A
:02000000A094CA
:0200000490402A
:200000000000000000000000000000000000000000000000000000000000000000000000E0
:0200000490501A
:0C000000000204C81193110104CEB227C5
:0200000490600A
:0100000001FE
:00000001FF