:400000000008002011000000750100007501000008B500F05FFE00F06BF900F0ADF8000038B572B6EE22184B12021A60174A184B04251A600C22174B174C1A609022174BAA
:4000400012011A60DB22164B52001D60154B18201A601123236000F071FDC021124A134BC9001A60124B134A1A60134A1160134A1A604122124B1D60124B1A60124B013A3C
:400080001A600023236038BD00010240FF090000000302400001044030001040080104400003044008030440005FEA00040301400000014041FF00800003014040FF00805E
:4000C000280003400C010140000101400000000000000000000000000000000000000000000000000000000000000000000000000000000000000000000000000000000005
:4001000010B5064C2378002B07D1054B002B02D0044800E000BF0123237010BD98000020000000000414000008B5084B002B03D00748084900E000BF07480368002B00D17B
:4001400008BD064B002BFBD09847F9E700000000041400009C000020780000200000000008B500F081FB0120182100F05DFB00F0E3FAFEE7FEE7000070B51049104B0139D3
:400180004A1C15D000221E685C689D68A018AA4203D0B058A0500432F8E7021CDC68151AA54202D0002520C2F9E710330139E7E701F0ECF8FFF7D4FFFEE7C04601000000F9
:4001C000341400000121104A10B51368141C8B43136000239A000D49032B01D80C4989580C4801338150192BF4D1FFF719FF0022094B1A60094B1A68002A00D11A6001226C
:4002000023681343236010BD000010407501000000000000000000207000002068000020004770B5051C0E1C141C002802D0002000F02CFD0020002C05D0013CAB191B5DDB
:40024000C018C0B2F7E770BD013808B50B2830D88901494201F086F806090B0D0F111513171A1C21FF239B0113E0164B16E0164B0AE0164B12E0164B0BE0164B09E0164BFA
:4002800002E0164B00E0164BC91816E0154B05E0154BC9180878C0B213E0144BC9180A7848788B7800021B041843CB7810431B0606E0002000F0EAFC00210B78487800027E
:4002C000184308BDC13F0000C53F0000C93F0000D03F0000D13F0000D63F0000D23F0000D43F0000D83F0000DC3F0000E03F00000C4B10B51A68102313400B4A00D113606C
:400300001368802B0DD100240220211C1460FFF79BFFA04205D0211C0220FFF795FFFFF77FFF10BD5400034068000020F8B5061C0320311CFFF788FF041C311C0420FFF7EF
:4003400083FF0134A401271800240320311CFFF77BFF251C01308001B84209D203785A1ED2B2FD2A00D801251C19E4B20130F3E70120311CFFF768FF6442E4B206238442AE
:4003800003D16A4255416D422B40181CF8BD0000F0B5C64CA544029000F0CAFC62B600250A2301950393029AFF23002A00D0131C96210AAC201C490004AA00F0D5FC029BC1
:4003C000002B03D0039B013BDBB20393039B002B02D00028E7D102E0002800D08AE004AB1988062900D879E122780423012A52D1E678A07836020643F21D8A4200D96FE188
:40040000962149008A4200D96AE1A2195179107992798C46172A3ED10022F3189BB2002B09D0A0AFA249FF187F183F78013BD21992B29BB2F3E763465242190292B2014302
:400440000823914227D160E0342B00D0CBE0019B012B00D042E1032E00D03FE155A80021402200F0C2FF40251F2155AB581904ABAD19F21EC918ADB200F0AEFF432D00D0A7
:4004800026E1A57960792D020543FF2D00D829E1012301930A23002404AA0AA8548001224370230AC37000230270221D847092B2002A09D0A0A97E4E891889190978013A23
:4004C0005B189BB292B2F3E7A0AA7A4912195B4251189BB20B7078491B0A51180B70774B0734D31817221A7004AB9A1CA1B2962300F06CFC029B002B00D154E7019B012B3E
:4005000000D012E1012301934DE763782779181C31380A282ED96A4A1468002C26D0019A012A25D104AAD68007AE13710BAF00210C22301C069700F058FFB76005A8311C26
:40054000A0472623B488FF339C4202D9B368BB4207D0B268002A01D1002C04D13368DBB29AE70E2397E70E23141C95E7052393E7052390E700F000FF0B001900CFFF68FF60
:400580003D00CFFF4100530068FF63008D00019B012B00D0A2E0002E00D09FE0301CFFF7C5FE43424341237170E0019B012B00D094E0012E00D091E0002F00D08EE0414B47
:4005C0001B681B689A0BD2B29B09DBB2002A01D080235B0023711B0A6371FF23A3710023E371042458E7019B012B77D1022E75D93AE7019B012B71D191E0019B012B6DD1D1
:400600002C33AC19FF339C426ADC55AB58190BA9321C00F0E1FE0023A5B21C1C3CE7002E5CD107AB191C284A351C11CA11C10BAA03CB03C2012308240193331C2CE7019B4D
:40064000012B4BD1032E49D1A37964791B021C43FF2C00D91EE739026118890100204022FFF7DFFD061C002F0DD1FF2C0BD1391C0520FFF7E9FD391C361A0620FFF7E4FDA9
:40068000F6B2361AF6B276420AAB1E710023012402E70020FFF74AFE002802D180220B4B1A6000F05DFB00F0F3FA17E07CFDFFFFA7FDFFFFACFDFFFFADFDFFFFAEFDFFFF75
:4006C000B40000207C000020081400006800002001230025019302332C1CDDE60423DAE60323D8E6134B1B681A6893099BB2920601D001339BB23F02E81980B2984204D2A4
:400700000123002501930933E6E755A900F0D0F80028F5D10123051C0193031CDCE70025029BAB4200D13EE6ECE6A1239B009D44F0BDC0467C00002038B50020FFF7F6FD79
:40074000431E98410625144C4042236805401A680020C03AC021FFF764FD63681B78181AC0B2984203D123681B68002B02D1002000F08CFA094C2368402B01D0002D03D020
:4007800000202060FFF704FEC820FFF701FE8023236000F07DFA38BD7C000020680000200A4B1B689B039B0F012B05D1084BC3185A1E9341C01805E0002B03D1031C5A1E2F
:4007C0009341C01A034B80B218607047000105400100FFFF0C0105408022002108B50C4BD2041A601A687F201A600A4A11601A681A600C22084B1A60084B0B3A1A60084B22
:4008000030321A60074BCD321A60FFF7C9FF08BD00010540080105402401054038010540280105401401054038B50D1C041CAC4000F034F8024B1C6000F034F838BDC0462C
:400840000800054010B5012400F028F8054A13682343136000F026F8201C1821FFF7E4FF10BDC0460000054010B5054C2378002B03D1FFF7B1FF01232370FFF7E3FF10BD68
:40088000B8000020000000000230800804D0C0460138FDD1C046C046C0467047EFF3108072B6704780F310887047C046C046C046F0B500279DB008970997FF2800D9F6E0A9
:4008C000B94200D1F3E0049040220CA800F084FD0222391C01970AAB9000C058002802D00918074301920132122AF4D1002903D1002F00D0DEE000E0002702973F2272492E
:40090000724C0A9172485A60724A23600260C046236806911B0F039007920F2B02D12368DBB205E022680023120F0A2A00D023680893089D002D00D0C3E0FFF7AFFF664E2C
:4009400066493268664B0A601B680590DB0FDB074B60644B1B6809959B00099818338B600D1C00281ED1302B06D12D3B1A4203D112091A40012A13D0022000F02DF9AB686A
:40098000302B02D0302000F0D9F800F0B5F8002000F0C4F8302233689343203A1343336000230893089B002B1AD14F4A04990A920A9A09040A430AA90A92039821604B4944
:4009C000424A0160C0462168090F0F2902D11368DBB204E01168090F0A2900D013680893089D002D3FD1002F3DD0291C0CA8402200F0FBFC019B029A0AAF9B00DA51069B0A
:400A0000039A0A933F2307997B6027602F4B1160C0462268120F0F2A02D11D68EDB204E01A68120F0A2A00D01D680895089B002B19D12F4A04990A920A9A080410430A9098
:400A40002C4903982760214A0160C0462168090F0F2902D11368DBB204E01168090F0A2900D013680893099B002B1CD11B4CA068302808D1226803331A4206D1120913400E
:400A8000012B02D10DE000F059F803202368184000F044F8236833606368002B01D100F035F8002309930598FFF7FCFE09E00423089306E0019A0127920098589950029037
:400AC0001CE708981DB0F0BDB6D7000008001040040010400400008028000340BC00002030000340080F0340B6D8000005000080B6D90000060000808021034A0906136868
:400B00000B4313607047C04630000340024A13685B005B08136070473000034010B5041CFFF7BCFE032304490A689A43234013430B60FFF7B7FE10BD28000340F8B5182857
:400B400004D01023021C9A43202A37D1041CFFF7A5FE0726071C7F20194D1A4A2B681A49B3432B60194BE3181B78DBB21360184A1368B3431360174A0B68A2181278834322
:400B8000024013430B604D38FFF77EFE182C11D9231C2A681C3B9B08B2433340134332202B60FFF771FE183C2868A4083440B04304432C60381CFFF775FE00E001BEF8BD67
:400BC000080F03400C0F0340180F0340CDF1FF0F100F0340B4F1FF0F10B5041CFFF75EFE032323400C2404499B000A68A24313430B60FFF757FE10BD28000340082800D976
:400C000001BE034B8000C318186819607047C0464000002038B5041C0D1E032D00D901BE082C00D901BEFFF739FEA308074A9B009B180322144094400634A240A540196824
:400C4000914329431960FFF72DFE38BD00E400E01F2318401E3B8340181C014B1860704700E100E01F2318401E3B8340181C014B1860704780E100E01F2318401E3B83405F
:400C8000181C014B1860704780E200E001BE7047034A044913689BB20B4313607047C0460CED00E00400FA0510B5041C8022074B1202944205D91868FFF7E6FD044BE418CC
:400CC000F4E758686043FFF7DFFD10BD840000200080FFFF014A024B1A6070476588EDAC380003400D4B1B685B0615D50C4B1B68DB0609D50B4B1A68002A0DD00A490A60D0
:400D000000220A490A6006E0084B074A18681168884201D012681A607047C0464C0F064064000640C8000020640100205401002010B5094C4021201D00F07CF8201C00215F
:400D4000443000F059F8054800F0C0F80023236000F098F810BDC046C8000020E50C000008B500F09DF808BDF8B5051C0C1C161C0120002D22D0002920D00A275F4310206C
:400D8000002F1BD00E490B78034212D000200D4A13689BB2338008701060221C9C4200D91A1C094992B2281C043100F015FB002004E00120FFF778FF013FE0E7F8BDC046B0
:400DC0005C01002060010020C800002038B5031C0C1C0120002B0BD0002909D0054D1180281C191C4430221C00F0F6FA00202C6038BDC046C800002038B5002810D0041C1E
:400E00000D1C0520FFF72EFF064B074A1C60074B05201D6000231360054A1360FFF718FF38BDC0467001002054010020640100205801002038B500280ED0041C0D1C05206A
:400E4000FFF710FF0022054B05201C60044B1D60044B1A60FFF7FCFE38BDC0466C01002068010020600100208021054A08B5136809060B4313600520FFF7EAFE08BDC0467D
:400E80000000064010B5054C2378002B03D100F041F801232370FFF7E7FF10BD4C01002008B50520FFF7DEFE00F096F8054A052013685B005B0813600022034B1A60FFF714
:400EC000DBFE08BD00000640880F0640014B58607047C0464C01002080200A4B40001A6802420AD0084A1268520406D41A680749114019601A6802431A600222044B1A6068
:400F00007047C0460000064060000640FFFEFFFF6C00064010B500241A4B1B4A1C601B4B1B491A601B4B1C4A052013601B4A14601B4A11601B4A13601B4B1C60FFF792FE95
:400F400005200321FFF766FE18490520FFF756FE4C22174BFF321C60164B1A60164B3C3A1C60164BFF3A1C60154B1C60154B1A70154B1C70154B1C60154B1C60154B1C70E7
:400F800010BDC0460000064077080040600006401000FE00070100800003064004030640100306400002064004020640E50F0000880E0640480F0640080F0640C80F0640B3
:400FC000880F0640750100205C0100205401002060010020740100201022014B1A70704775010020F8B5BA4B1B68002B00D09847B84B1B68DB0702D50022B74B1A602020F5
:40100000B64B1A78024219D1B54A11680222FF32114213D01978B34AC90706D511781E38814311701178073004E0117881431170902110780143117000221A701A78920649
:4010400000D543E110201A78024200D12AE10222A3480168114234D0A349A44D0A60A4490D320C6809682240A24C0904C90F26788A189C49964204D904260A7832430A70C4
:4010800004E027782E68D21BB21A2A602D689A4A15600022994D2A6080252270984C6D0222682A4322602568964A2A40226002240A78A2430A700A78013C22430A70102221
:4010C0001A7008220168114232D087490A608E4A1168890414D58D49096809070CD08C498C4D0C682D682C198B4D2D68EDB225700C6801340C60EEE71468884921401160A4
:40110000874A78491568141CAA0603D540250A782A430A700025834A1560834A226020240A78A2430A700A78103C22430A701C70026852063ED501217C4A11607C4A694960
:401140001068102210420BD06C4802606A4A1068664A106002200A7802430A7012221DE0744A6B4812680068121A0420072A0ED96548082A05D1A024026824022243026017
:4011800007E080240268A401224302600820654A106020200A7802430A70112208211A70654A514B1A60654A13680B4313600122634B1A600822634B1968114225D05D4BDC
:4011C00053481B680168083B5B1A0124934201D90024131C002B0CD04E4902680968013B8A184D490968C9B21170026801320260F0E7002C07D08020434900020A68024371
:401200000A60484A136008221FE01B685B071ED5414B3F491A68474B08681B6898420CD20120474BD2B218603A480B680068C3181A700B6801330B6006E0FFF74DFE402160
:40124000284A13780B4313700422354B1A603E4B1B68DB063AD53D4B1968254B1A680F231340082B1AD0214A394B14681B6839489C4208D21368CB181B78DBB20360136864
:4012800001331360E9E7FF231A4A036013780A2BE3D813780133DBB21370DEE710222E4B1A6013E02D490A68520052080A601870154B1A4A186802401A601868284A0240ED
:4012C0001A6080220B68120613430B60F8BDC046500100208C0E0640880E0640750100204C0F06405C010020400F064058010020080206407401002054010020880F0640A5
:4013000004020640FFFFFEFF6000064008030640600100206C01002040030640FF5FFFFFC00F0640C80F0640ED0F0000800E06406400064068010020FF0F0000480F06409C
:401340006C000640CC0F06408C0F0640700100206401002040020640800F064000000640FFFCFFFF02B4714649084900095C49008E4402BC7047C04603B471464908400006
:401380004900095E49008E4403BC70470E4B70B500251E1C0D4CE41AA410A54204D0AB00F35898470135F8E700F032F8084B00251E1C084CE41AA410A54204D0AB00F358DC
:4013C00098470135F8E770BD1C1400001C1400001C14000024140000002310B5934203D0CC5CC4540133F9E710BD031C8218934202D019700133FAE770470000801400000A
:40140000DA000000000000009A11480A00320101F8B5C046F8BC08BC9E46704729010000C5010000F8B5C046F8BC08BC9E467047010100004814000078000020200000000F
:40144000E00000000000000000000000FC1300000014000000007017E02E00000C000000001BB70000000000000000000000000000000000000000000000000000000000F6
:40148000000000000000000000000000000000000000000000000000000000000000000000000000000000000000000000000000000000000000000000000000000000002C
:4014C00000000000000000000000000000000000000000000000000000000000000000000000000000000000000000000000000000000000000000000000000000000000EC
:4015000000000000000000000000000000000000000000000000000000000000000000000000000000000000000000000000000000000000000000000000000000000000AB
:40154000000000000000000000000000000000000000000000000000000000000000000000000000000000000000000000000000000000000000000000000000000000006B
:403FC00000000000000000000000000000000000000000000100000000000000000000000000000000000000000000000000000000000000000000000000000000000000C0
:0200000490303A
:020000005A3D67
:0200000490402A
:200000000000000000000000000000000000000000000000000000000000000000000000E0
:0200000490501A
:0C00000000020A48119A00010A4E6BD75A
:0200000490600A
:0100000001FE
:00000001FF