:4000000000100020110000001D2000001D20000008B504F0E3F802F009F8C04610B5174C12232360182004F055F880225200144B1A60144B144A1A60FE210902134A11602B
:40004000134A1A60002213490A6013491960C02000011249086012491960124B1A604232114B1A60023A114B1A600132104B1A600232104B1A601123236010BD300010402C
:40008000080301400000014042FF00800003014040FF00800403014041FF00800C03014043FF0080280003400C01014008010140040101400001014008B572B6CC22D204A1
:4000C000154B1A609922154B1A60154A154B1A602F22154B1A605032144B1A600E23144A13601449144A11600621144A1160E531134A11600431134A1160052212490A60DB
:4001000012481349086013490A60134A1360FFF785FF01F0EFFF08BD00000240000102400F0F00000003024000000440180004400001044031040000080104401801044041
:40014000000204401802044000030440B60D000008030440180304401804044010B5064C2378002B07D1054B002B02D0044800E000BF0123237010BD100200200000000020
:40018000C851000008B5084B002B03D00748084900E000BF07480368002B00D108BD064B002BFBD09847F9E700000000C851000014020020880000200000000010B50C1C74
:4001C000052844D88000284B1B589F460120002100F0D6FF0220211C00F0D2FF0320002100F0CEFF3FE00320002100F0C9FF0420211C00F0C5FF0520002100F0C1FF32E00B
:400200000520002100F0BCFF0620211C00F0B8FF0720002100F0B4FF25E00720002100F0AFFF0820211C00F0ABFF0920002100F0A7FF18E00920002100F0A2FF0A20211CD4
:4002400000F09EFF0B20002100F09AFF0BE00B20002100F095FF0C20211C00F091FF0D20002100F08DFF10BDD451000010B5244B984211D199420FD00C1C01F009F8011CDB
:400280009620800004F0E2FB011C201C04F04EFB01301C4B18802FE0502903D80122194B1A8029E00B1C783B3C2B03D80222154B1A8021E00B1CDC3B3C2B03D80322114BA8
:4002C0001A8019E00B1C413BFF3B3C2B03D804220C4B1A8010E00B1CA53BFF3B3C2B03D80522084B1A8007E0074B9C466144502902D80622034B1A80024B188810BDC046CB
:40030000FFFF00002C020020F8FDFFFF08B5074B984208D8272804D9282104F007FB80B202E0012000E00F2008BDC0467F02000070B5061C0D1C00F0ABFF011C0F2004F070
:4003400085FB84B200F098FF002820D0012C10D9301C311CFFF78AFF0021221CFFF72EFF281C291CFFF782FF0B49221CFFF726FF0DE0301CFFF7CAFFC0B2002100F000FF51
:40038000281CFFF7C3FFC0B2034900F0F9FE281CFFF7BCFF70BDC046FF0F000010B504F018F8041C002003F0F9FF0020002100F079FF201C04F011F810BDC04670B590B058
:4003C00068460021402204F0BAFE002416E00D4EE500A85D02F026F975196B7898420BD0084DE600705D02F01DF9C2B2AB195A70705D596801F0B4F90134E4B2062CE6D990
:4004000010B070BD8C000020F0B55F4656464D46E0B486B062B600F0E7FE03F003FF01F08DFEAB4800218022920004F088FE002305930025A74B9A4699460027012403F0F0
:4004400049FD03F089FFC6B203F03CFD331C203B5F2B3DD801F018F8002802D1013001F0D3F96B1C9A4A56557D2E03D08022920093422CD1964B1B787B2B07D1944D281C33
:4004800004F080FE431EEA5C7D2A05D002209249924A01F00DF812E08D480022C254013001F02EFA002805D1023000218C4A00F0FFFF04E0002000218A4A00F0F9FF8448CD
:4004C00000218022920004F03AFE002500E01D1C002C06D000F01AFC002802D0012000F071FC02F08DFA0028A9D101F055FE1128A5D0FFF763FF002002F0BEF8039086B2C5
:40050000744B9E4203D1994503D0002402E0002400E00124E4B2002C3DD0002F33D100F0ABFE002802D0002000F03AFE6E4B9A46382753235246D355039B1904090C4846FF
:40054000FFF794FE5346DA5D4B4600936749331C01F066F900F0CEFB002810D000F0FCFB013080B20E2104F067FA8BB20593D8B200F0F8FB10239A46564B994603E0102336
:400580009A46544B994600F0C1FB002857D0002000F018FC53E0002F28D0039B1904090C4846FFF763FE0490FFF7F8FE4E4B9B463827DA5D4B46009304984D49331C01F089
:4005C0002FF95B46DA5D4B46009304984949331C01F026F900F09AFB002807D0002000F0DFFD6B46187D444900F0BEFF394B9E4224D04E4522D0994507D04E4501D95221E8
:4006000000E04C213823384AD154039B1B041B0C48460393191CFFF78BFE071E57450DD048460399FFF722FE38232F4AD25C4B4600933049331C01F0F3F8BA46B14603F01D
:400640008BFEC6B2331C203B5F2B3DD800F01CFF002802D1013001F0D7F86B1C1C4A56557D2E03D08022920093422CD1184B1B787B2B07D1164D281C04F084FD431EEA5CE6
:400680007D2A05D002201249144A00F011FF12E00F480022C254013001F032F9002805D1023000210E4A00F003FF04E0002000210C4A00F0FDFE064800218022920004F07D
:4006C0003EFD002500E01D1C02F0F2F9271CB6E6A0050020FFFF0000DC580000EC5100000C5200002C5200008C000020385200003C520000445200005052000010B5354C73
:400700002188152000F03CFD6188162000F038FDA188172000F034FD2188C94389B2122000F02EFD6188C94389B2132000F028FDA188C94389B2142000F022FD264B1B7881
:40074000002B24D0234B1B88244A934203D90022214B1A703CE01F4A528820498A4207D91C4A0133FF3313800023538093802FE0184B9B8819498B4205D9164B80325A80A7
:4007800000229A8024E04033124A938020E0114B1B88002B03D101220F4B1A7018E00D4A5288002A07D10B4A013BFF3B13800C4B538093800CE0074B9B88002B05D1054B9A
:4007C000803A5A80064A9A8002E0403B014A938010BDC0462E020020C8000020FE0F0000FF0F000010B5094C0620211C00F0C8FC0720211C00F0C4FC0820211C00F0C0FCC4
:400800000920211C00F0BCFC10BDC046FF0F000010B50D4C1520211C00F0B2FC1620002100F0AEFC1720002100F0AAFC1220211C00F0A6FC1320002100F0A2FC1420002184
:4008400000F09EFC10BDC046FF0F000010B51520002100F095FC0B4C1620211C00F090FC1720002100F08CFC1220002100F088FC1320211C00F084FC1420002100F080FCF3
:4008800010BDC046FF0F000010B51520002100F077FC1620002100F073FC094C1720211C00F06EFC1220002100F06AFC1320002100F066FC1420211C00F062FC10BDC0461F
:4008C000FF0F000038B5254AD38801339BB2D3809B0641D11289224853009B18195CC3185A7889189A788B18002B02D100221B4B1A811B4D194C23895A00D318E95C1520D0
:4009000000F03EFC23895A00D318E95C122000F037FC23895A00D318EB185978162000F02FFC23895A00D318EB185978132000F027FC23895A00D318EB189978172000F0B5
:400940001FFC23895A00D318EB189978142000F017FC23890133238138BDC0462E0200207852000010B50E4B5889013080B258810D2104F061F889B200290FD1084C207B9E
:4009800000F0FEFBA089013080B20F2104F054F888B2A081C0B2034900F0F2FB10BDC0462E020020FF0F000010B5002409E0E0B2194B9B7B5B00194AD318198B00F0E0FB35
:4009C0000134062CF3DD072409E0E0B2144B5B785B00124AD318198B00F0D2FB01340E2CF3DD0D4A937B013393730D4A5378013353700C4C1520211C00F0C2FB1620211C04
:400A000000F0BEFB1220211C00F0BAFB1320211C00F0B6FB10BDC0462E02002078520000C8000020FF0F000038B50E4AD37B591CD1730D4C5B00E318188B00F0BDFB0B4D67
:400A4000AB785B00E318198B152000F099FBAB785A1CAA705B00E318198B152000F090FB38BDC0462E02002078520000C800002038B50E4A137C591C11740D4C5B00E318C9
:400A8000188B00F099FB0B4DEB785B00E318198B162000F075FBEB785A1CEA705B00E318198B162000F06CFB38BDC0462E02002078520000C800002038B50E4A537C591C84
:400AC00051740D4C5B00E318188B00F075FB0B4D2B795B00E318198B172000F051FB2B795A1C2A715B00E318198B172000F048FB38BDC0462E02002078520000C800002000
:400B000038B5324B588A013080B25882142103F093FF89B2002958D1002000F04DFB2C4CA0792C4D291C00F02BFB207A291C00F027FBA37A002B09D0254AD388013B9BB2C3
:400B4000D38011890131118193723EE0204AD3880133D3801389013B9BB21381073B59424B41DBB29372002B2FD0184C207D0130C0B2032103F060FF2175002000F028FB94
:400B8000237D012B0ED0002B02D0022B14D01CE0104C1520211C00F0F3FA1220211C00F0EFFA12E00B4C1620211C00F0E9FA1320211C00F0E5FA08E0064C1720211C00F022
:400BC000DFFA1420211C00F0DBFA38BD2E020020C8000020FF0F000038B5011C284B188B013080B21883002904D003F025FF89B2002943D1234B9B89002B17D0204B9B7ED9
:400C0000C02B29D11F4AD2890D2A03D900221D4B9A8121E01B490A8A013292B20A820132CA81887C164A90768B7415E0154B9B7CC02B11D1134A128A012A02D1114B9A81C9
:400C40000AE01049CA89013A92B2CA81013A0A820B4A907E937688740A4C207C084B9A7E511C9976084D5200AA18118BA37C5A1CA2745B00EB181A8B00F086FA38BDC046EE
:400C80002E020020C80000207852000008B5054B5B7D002B01D0102000E00420FFF79CFF08BDC046C800002008B52123044AD35C002B01D0022000E00020FFF78DFF08BDF6
:400CC000C800002070B50A4A440023189B00D3181D1C1E7D0E705E7D14354E70AD788D70DB698B6020188000101883694B6070BDC8000020014BD87E7047C0462E020020CE
:400D0000014BD8767047C0462E020020014B187F7047C0462E02002010B5041C0A4B587F0D280ED8002C01D0084900E0084900F01BFC054B5B7F5A00D3189B00054AD31826
:400D40009C75014B1C7710BD2E0200209054000050520000C8000020014B587F7047C0462E02002010B5041E0D2C05D903200F490F4A00F09DFB17E043001B189B000D4A0F
:400D8000D3189B7D002B09D00B4900F0EDFB63001B199B00074AD31800229A75074B5C77201C074900F0E0FB10BDC0469C540000A8540000C8000020505200002E0200204C
:400DC000C054000008B5154B5A7F0D2A24D853009B189B001249CB185B7D83421CD153009B189B00CB189B7D002B0CD1101C0D4900F0BAFB094B5B7F5A00D3189B00084A22
:400E0000D31801229A75054B5B7F5A00D3189B00034AD3189B69984708BDC0462E020020C8000020CC540000162801D880B200E01720172800D9DAE080006D4B1B589F468B
:400E40006C4A09050B0D9189090B090319439181CDE0684A09050B0DD189090B09031943D181C4E0634A09050B0D118A090B090319431182BBE05F4A09050B0D518A090BC7
:400E8000090319435182B2E05A4A09050B0D918A090B090319439182A9E0564A09050B0DD18A090B09031943D182A0E0514A09050B0D118B090B09031943118397E04D4A7D
:400EC00009050B0D518B090B0903194351838EE0484A09050B0D918B090B09031943918385E0444A09050B0DD18B090B09031943D1837CE03F4A09050B0D118C090B0903C1
:400F00001943118473E03B4A09050B0D518C090B0903194351846AE0364A09050B0D918C090B09031943918461E0324A09050B0DD18C090B09031943D18458E02D4A090528
:400F40000B0D118D090B0903194311854FE0294A09050B0D518D090B09031943518546E0244A09050B0D918D090B0903194391853DE0204A09050B0DD18D090B09031943C0
:400F8000D18534E01B4A09050B0D118E090B0903194311862BE0174A09050B0D518E090B09031943518622E0124A09050B0D918E090B09031943918619E00E4A09050B0D19
:400FC000D18E090B09031943D18610E0094A09050B0D118F090B09031943118707E0054A09050B0D518F090B0903194351877047BC550000A0070020C28D604B1205110D54
:401000009A89120B12030A439A81828D1205110DDA89120B12030A43DA81428D1205110D1A8A120B12030A431A82028D1205110D5A8A120B12030A435A82C28C1205110D29
:401040009A8A120B12030A439A82828C1205110DDA8A120B12030A43DA82428C1205110D1A8B120B12030A431A83028C1205110D5A8B120B12030A435A83C28B1205110DE5
:401080009A8B120B12030A439A83828B1205110DDA8B120B12030A43DA83428B1205110D1A8C120B12030A431A84028B1205110D5A8C120B12030A435A84C28A1205110DA1
:4010C0009A8C120B12030A439A84828A1205110DDA8C120B12030A43DA84428A1205110D1A8D120B12030A431A85028A1205110D5A8D120B12030A435A85C2891205110D5D
:401100009A8D120B12030A439A8582891205110DDA8D120B12030A43DA8542891205110D1A8E120B12030A431A8602891205110D5A8E120B12030A435A86C2881205110D18
:401140009A8E120B12030A439A8682881205110DDA8E120B12030A43DA8642881205110D1A8F120B12030A431A8702881205110D5A8F120B12030A435A877047A0070020D4
:4011800008B5FFF751FE08BD38B5041C151CFFF74BFE0134E0B2291CFFF746FE38BDC04638B5051C002404E0E0B2291CFFF73CFE0134172CF8DD38BD38B5051C002404E035
:4011C000E0B2291CFFF730FE01340E2CF8DD38BD38B5051C0F2404E0E0B2291CFFF724FE0134172CF8DD38BD7047C04610B500E001300378202BFBD02D2B02D101300124C0
:4012000005E02B2B02D10130002400E0002400230278303A092A05D89900CB185B009B180130F5E7002C01D0584200E0181C10BDF8B50E1C041C0D1C0E4F1537013F201CDC
:40124000291C0A22002303F0F3FC30323A70201C291C0A22002303F0EBFC041C0D1C0B1C0343EBD1002E02DA013F2D333B70381CF8BDC04650020020014B18787047C04661
:4012800084010020014B18707047C04684010020062070477047C046014B9869D969704750020020014B9861D961704750020020004870471C56000038B5041C002511E0C5
:4012C0006B005B199B00094AD3185968201C03F060FF002805D06B005D19AD00034B585D03E00135082DEBDD092038BD5C56000038B5041C002513E06B005B199B000A4A80
:40130000D318196F201C03F044FF002807D06B005D19AD00044B5D196C23E85C03E00135012DE9DD022038BD5C56000038B5041C002512E06B005B199B000A4AD3189968EF
:40134000201C03F026FF002806D06B005D19AD00044B5D19287903E00135012DEADD022038BDC046DC56000038B5041C002512E06B005B199B000A4AD318196A201C03F03B
:4013800008FF002806D06B005D19AD00044B5D19287F03E00135022DEADD032038BDC046DC56000038B5041C002513E06B005B199B000A4AD318596C201C03F0EAFE0028ED
:4013C00007D06B005D19AD00044B5D194023E85C03E00135032DE9DD042038BDDC56000030B585B0051C00240DE0E0B201A9FFF769FC0399281C03F0CCFE002802D001AB9C
:40140000187803E001340D2CEFDD0E2005B030BD38B5041C002513E06B005B199B000A4AD318596F201C03F0B4FE002807D06B005D19AD00044B5D197023E85C03E0013566
:40144000022DE9DD032038BDDC56000038B5041C002512E06B005B199B000A4AD3189969201C03F096FE002806D06B005D19AD00044B5D19287D03E00135042DEADD05205F
:4014800038BDC0465C570000014B18787047C0467002002010B5041CFFF7F6FF002806D002F018FD201C02F06DFF02F00BFD10BDF0B5474680B488B080460E1C019203AF4A
:4014C0003A1C234B503313CB13C211CB11C2214C0434201C00218022920003F030FE1E49231C0A1C23CA23C323CA23C31188198092789A7043469B00D959201C03F027FE8A
:40150000201C03F03FFE201814490E2203F00EFE201C311C03F01BFE201C03F033FE20180F49132203F002FE201C019903F00FFE201C03F027FE20180A49032203F0F6FD0E
:40154000201CFFF7A7FF08B004BC9046F0BDC0465C57000070020020C0570000DC570000EC5700000058000070B584B00D1C01A9FFF7A8FB184C0434201C00218022920076
:4015800003F0DDFD1549231C0A1C43CA43C343CA43C3116819609188998092799A710399201C03F0D4FD201C03F0ECFD20180C490E2203F0BBFD201C291C03F0C8FD201CAA
:4015C00003F0E0FD20180749032203F0AFFD201CFFF760FF04B070BD70020020045800002458000000580000F0B557464E464546E0B4504BDB8A9846002693E04E4C04345D
:40160000201C00218022920003F099FD4B49231C0A1C23CA23C323CA23C312781A70301C0021FFF705FE011C201C03F090FD201C03F0A8FD20184249092203F077FD414BE9
:401640009946B500AF197F004F44B0239A46BA44534658880021FFF7EBFD011C201C03F076FD201C03F08EFD201837490E2203F05DFD534698880021FFF7DAFD011C201C25
:4016800003F065FD201C03F07DFD20182F49152203F04CFD534698790021FFF7C9FD011C201C03F054FD201C03F06CFD201828490A2203F03BFD534618890021FFF7B8FD47
:4016C000011C201C03F043FD201C03F05BFD20182049142203F02AFDB837B8780021FFF7A7FD011C201C03F032FD201C03F04AFD201819490A2203F019FDF8780021FFF7C5
:4017000097FD011C201C03F022FD201C03F03AFD20181249032203F009FD201CFFF7BAFE0136B6B2464500D268E71CBC90469946A246F0BD305F000070020020345800008F
:4017400050580000DC0700205C5800006C5800008458000090580000A458000000580000F8B5071C0D1C161C204C0434201C00218022920003F0E3FC201C03F003FD201895
:401780001B491E2203F0D2FC381C0021FFF750FD011C201C03F0DBFC201C03F0F3FC201814490B2203F0C2FC201C291C03F0CFFC201C03F0E7FC20180F490D2203F0B6FCA3
:4017C000002E01D00D4900E00D49084C0434201C03F0BDFC201C03F0D5FC20180949032203F0A4FC201CFFF755FEF8BD70020020B058000018580000D05800003C520000AE
:401800003852000000580000014B18707047C04670020020014B18797047C04670040020F0B591B0051C0E1CFFF736FD02F0BEFD2B48043000218022920003F080FC684655
:401840000021402203F07BFC264BDB8A1F1C3F2B00D93F27BFB200240EE00020211C00F0F3FE002803D031236A46135502E030236A4613550134A4B2BC42EED3184C043466
:401880001949231C0A1C83CA83C383CA83C312781A70E917281CFFF7CBFC011C201C03F056FC201C03F06EFC201810490D2203F03DFC201C311C03F04AFC201C03F062FCB4
:4018C00020180B49032203F031FC201CFFF7E2FDFFF7A0FF002801D0FFF786FE11B0F0BD70020020305F0000385900005459000000580000014B18717047C04670040020B3
:40190000F0B593B0041C2C2103F02EFC002806D10230211CC94AFFF7CBFD002077E3451CFFF7CAFC082800D96BE38000C44B1B589F460220211CC34AFFF7BAFD002066E39F
:4019400063001B199B00C04AD31859689A680020FFF7AEFD013400E00024082CF0DD002409E0E0B20FA9FFF7ADF9119A0020B749FFF79EFD01340D2CF3DD012047E3281C66
:401980002C2103F0F1FB002806D10230211CB04AFFF78EFD00203AE301303A2103F0E4FB002806D10230211CA94AFFF781FD00202DE3451C281CFFF7F5FC01280BD00028BA
:4019C00004D002280CD003280FD013E00120FFF797F901201BE30020FFF792F9012016E30020FFF799F9012011E30120FFF794F901200CE3281CFFF7F3FC0E2803D0FFF7F6
:401A0000B1F9012003E30220211C914AFFF750FD0020FCE2281C2C2103F0A6FB002806D10230211C8B4AFFF743FD0020EFE201303A2103F099FB002806D10230211C854A9B
:401A4000FFF736FD0020E2E20130FFF7E1FC01280BD0002802D002280ED014E00320211C7D4AFFF725FD0120D1E20320211C7A4AFFF71EFD0120CAE20320211C764AFFF730
:401A800017FD0120C3E20220211C744AFFF710FD0020BCE2281CFFF7D9FC061E042E00D9D4E180006E4B1B589F460020FFF778FB0120ACE2281C2C2103F056FB002806D1DE
:401AC0000230211C624AFFF7F3FC00209FE201303A2103F049FB002806D10230211C614AFFF7E6FC002092E201303A2103F03CFB002806D10230211C5A4AFFF7D9FC00204A
:401B000085E2451C281C2C2103F02EFB002806D10230211C534AFFF7CBFC002077E200230370471C281CFFF761FB0190381C3A2103F01AFB002806D10230211C4A4AFFF720
:401B4000B7FC002063E2471C381C2C2103F00CFB002806D10230211C444AFFF7A9FC002055E200230370451C381CFFF73FFB071C281C3A2103F0F8FA002806D10230211CD1
:401B8000394AFFF795FC002041E20130FFF72EFB041C012E0ED16B4699881520FFF7F0FAB9B21620FFF7ECFAA1B21720FFF7E8FA01202CE26B4699881220FFF7E1FAB9B225
:401BC0001320FFF7DDFAA1B21420FFF7D9FA01201DE2281C2C2103F0C7FA002806D10230211C1B4AFFF764FC002010E201303A2103F0BAFA002806D10230211C1C4AFFF7F8
:401C000057FC002003E201303A2103F0ADFA002806D10230211C174AFFF74AFC0020F6E1461C301C2C2103F09FFA002824D10230211C104AFFF73CFC0020E8E164590000E3
:401C400024560000805900005C5600008859000094590000B4590000D0590000E859000048560000085A0000285A00004C5A0000705A00008C5A000000230370451C301CFF
:401C8000FFF7B4FA061E0E2E06D90220211CD14AFFF70EFC0020BAE1281C3A2103F064FA002806D10230211CCB4AFFF701FC0020ADE10130FFF79AFA011CF0B289B2FFF74D
:401CC0005FFA0120A3E1281C2C2103F04DFA002806D10230211CC14AFFF7EAFB002096E101302C2103F040FA002806D10230211CBA4AFFF7DDFB002089E101303A2103F03C
:401D000033FA002806D10230211CB44AFFF7D0FB00207CE1002303930493059306930793089309930A930B930C930D930E930130222103F019FA002806D10230211CA74A86
:401D4000FFF7B6FB002062E1451C281CFFF74EFA03AB5885281C2D2103F006FA002806D10230211C9D4AFFF7A3FB00204FE1451C281CFFF73BFA03AB9885281C2D2103F00D
:401D8000F3F9002806D10230211C944AFFF790FB00203CE1451C281CFFF728FA03ABD885002614E0281C2D2103F0DEF9002806D10230211C894AFFF77BFB002027E1451CB9
:401DC000281CFFF713FA720003ABD05201360E2EE8DD281C2D2103F0C7F9002806D10230211C7E4AFFF764FB002010E1451C281CFFF7FCF903AB9884281C2D2103F0B4F9B5
:401E0000002806D10230211C744AFFF751FB0020FDE0451C281CFFF7E9F903ABD884281C2D2103F0A1F9002806D10230211C6B4AFFF73EFB0020EAE00130FFF7D7F903ABB0
:401E40001885181CFFF7D8F80120E0E00220211C634AFFF72DFB0020D9E0281C2C2103F083F9002806D10230211C5E4AFFF720FB0020CCE001303A2103F076F9002806D107
:401E80000230211C574AFFF713FB0020BFE00130FFF72EFA002806D0012809D10020FFF729FD0120B3E00120FFF724FD0120AEE00220211C4B4AFFF7FBFA0020A7E0281C5E
:401EC0002C2103F051F9002806D10230211C464AFFF7EEFA00209AE001303A2103F044F9002806D10230211C3F4AFFF7E1FA00208DE00130FFF71AFA002806D0012809D195
:401F00000020FFF781FC012081E00120FFF77CFC01207CE00220211C334AFFF7C9FA002075E0281C2C2103F01FF9002806D10230211C2E4AFFF7BCFA002068E001303A2154
:401F400003F012F9002806D10230211C274AFFF7AFFA00205BE0451C281CFFF705FA012804D0002807D002280AD02BE00020FFF789F901204BE00120FFF784F9012046E026
:401F8000281C2C2103F0F0F8002806D10230211C164AFFF78DFA002039E001303A2103F0E3F8002806D10230211C104AFFF780FA00202CE00130FFF719F980B2FFF76AF9AF
:401FC000012024E00220211C084AFFF771FA00201DE0C046A45A0000285A0000B85A0000D85A0000B4590000F05A0000105B0000FFF75EF9021C01200649FFF759FA0120BC
:4020000005E00220211C044AFFF752FA002013B0F0BDC0462C5B0000345B000008B503F059F803680C2B00D1FEE7FEE770B50F4E0F4D13E029686B68AC68002202E001C9CB
:4020400001C30432A242FAD1E868002202E0002102C304328242FAD11035013E002EE9D103F03EF8FEF7D0F9FEE7C046010000004063000008B500230AE0032B03D89A0069
:402080000949505800E009489900094A885001331F2BF2D9FEF710F80022064B1A6080229205054B1A6008BD000000001D200000000000208000002008ED00E00B4B1B688B
:4020C000002803D080221206134301E05B005B08064A1360064B1B68002802D02022134301E020229343024A13607047002002402800034008B580225201044B1A60112223
:40210000034B1A600120FFF7D9FF08BD94020B40C0020B4008B5084B1B78002B06D100F049FA00F0C3FA0122034B1A7000F06AF800F0C8FE08BDC0467804002038B5FFF763
:40214000E9FF051E02D100F009FE051C002D02D100F0F6FD051C002D02D100F0A9FC051C002D12D102F035F9041C07E002F01EF8201C02F032F902F02CF9041C00F040FCB4
:402180000028F3D1201C02F028F900F0EFFA00F0D3FA281C38BDC04670B5184E0024002528E06B0902339B00154AD3185A681F232B40DA40131CDB071AD5737E012B02D02D
:4021C000022B09D011E0301C00F0AAF8041C281C311C00F0B9F90BE0301C00F07DF8041C281C311C00F016F902E0002001F0BAFE2C360135072DD4D9201C70BD305F00004F
:40220000DC07002070B500230BE01F48191D890000220A509A1C920082180121494251600133002BF1D0194C082328E06668227E154B5B1900211975012A04D0002A1CD0C8
:40224000032A08D919E02069002816D0F179E28A02F075FF11E02369002B01D0F2791A706168002307E01A1C083252008A180120404250800133002BF5D02C342B1C5D1E26
:40228000002BD3D170BDC046DC070020305F000010B582B0041C131C428868460280228A081C694602F0CEFA6B461B8863806B469B7823716B46DB7863716B461B79A37151
:4022C00002B010BD0B884A889B1A0022CA8002799A4200DACB807047F0B583B0C7688468C38A4668027E00920022019211E0381C211C009A00F0ECFA301C211C009A00F0EC
:4023000081FA0190301C211CFFF7DCFF0A3402372B1C5D1E002BEAD1019803B0F0BDC046F0B55F4656464D46E0B482B08246037E062B02D10122934601E00022934652461D
:40234000D26891465246946856680093576A00250023019321E04846211C009A00F0B8FA2088318A3A1C02F099FA301C391C2A1CFFF78EFF0C37301C211C009A00F042FA88
:402380000190301C211CFFF79DFF0A345B46002B02D102339C46E14401355346DB8AAB42D9D8019802B01CBC91469A46A346F0BDF0B5CA8A8D684F680B69012125E00C1CAE
:4023C000044003D17E88BA79B21802E07A88BE79921BEE88B24201D3002200E00A1CA24202D01E78013E1E70A24202D01C78002C07D188431043002A01D1FA7900E001229D
:402400001A7049000A3501336246541EA446002AD5D1F0BD38B5041C0A7E134B1B181D7D012A04D1281CFFF7C3FF051C02E0002001F098FD0C4B1B191D7563091F22144052
:402440001E3AA240141C002D06D1074904339B005A58A2435A5005E0034A04339B0099580C439C5038BDC046DC070020F0B5474680B482B08446CB8A8A684D6808698046C8
:402480006046002803D16C88A879201802E06C88A879201A0024012609E0D388984201D3002300E0331C1C430A3276003B1C5F1E002BF2D1002C0BD043461B78002B02D07A
:4024C000013B4246137043461B78002B04D104E0EB794246137000E06446002C23D00E1C6B88AA799A1ACF8A8868391C01F00CF9002822D0337E022B1FD1316A01A83A1C73
:4025000001F050F900220BE0530002A98C466344043B1988131C08335B00EB18598001329042F1D809E0002007E0031C08335B00EB18012252425A8001300028F5D0201CFB
:4025400002B004BC9046F0BD38B5041C0A7E184B1B181D7D012A04D0002A0CD0032A05D909E0281CFFF724FF051C07E0281CFFF77DFF051C02E0002001F0F4FC0C4B1B19FE
:402580001D7563091F2214401E3AA240141C002D06D1074904339B005A58A2435A5005E0034A04339B0099580C439C5038BDC046DC07002038B5174C201C0021A2225200C6
:4025C00002F0BDFD144B2380B0235B006380593BFF3BA383073BA377E377201C20300F497031922202F0A2FD0D490C1C103408230CE0A268E38A04E00B78537201310A32BE
:40260000031C581E002BF7D12C342B1C5D1E002BEFD138BDDC0700209053000020600000205F000007280BD81F220240012393401A1C430904339B0002495858104000E020
:4026400000207047DC07002007280DD82C234343074AD318DB8C8B4208D9064B1818037D01208840184002E0002000E000207047205F0000DC07002007280ED82C234343DF
:40268000084AD31828331B78023B012B07D82C23584310184369588A02E0034800E002487047C046205F0000FFFF00000023024A9380024A13607047DC0700205C050020FA
:4026C000C9B2062902D08318002119715300195AC3185980821800231372704770B52C2358430A4B18188B005918490083685C18067E012305E0201C311C2A1CFFF7E0FF3C
:402700002B1C5D1E002BF6D170BDC046305F000038B5051C2C234343064AD318DB8A04E0281C211CFFF7DAFF231C5C1E002BF7D138BDC046305F000010B5082303E0201C27
:40274000FFF7E6FF231C5C1E002BF8D110BDC04630B5012306E0D3B2062B02D063005D5A1D52231C5C1E002BF5D130BDF0B5474680B4082333E02C237B431C4AD3185A68A3
:402780009046DB8A27E02C237B43184AD318B400A41964009A6894466444D968081C7500AD19AD005A6A944665441A7E062A01D070000818211CFFF7CBFF2C237B430B4A08
:4027C000D3185B7E012B05D120884346198A2A1C02F058F8331C5E1E002BD4D13B1C5F1E002BC8D104BC9046F0BDC046305F00009840031C534380204000801A41435818B1
:40280000000A7047F0B583B0071C0E1C019201233BE06300985BF3185988884205D3431A321900251572012201E00B1A0022002A11D17D799D420ED233191B7A3A7A934232
:4028400005D3301C0199221CFFF73AFF1CE032190133137218E03D799D4204D27D799D4212D9002A10D16B461B79062B0CD0090235192B79194302220823FFF7B9FF020A4B
:402880006300F3185A802871231C5C1E002BC0D1002003B0F0BDC046F0B583B0061C0F1C019201230EE06B461B79062B09D06500E85BA95B80220023FFF79AFF80B2A853F6
:4028C000E853231C5C1E002BEDD103B0F0BDC04608B5FFF7E1FF08BD024A1168024B0B401360704700020B40FFFFF8FD06230B737047C04608B5064A1368F0218B43136038
:40290000044A1368EF398B43136000F083FD08BD00040240A8020B4008B5064B1968064A0A401A601968054A0A401A6001F060FA08BDC04600040240FFF0FFFFFF0FFFFF69
:4029400070B50E1C0C8801F09BFA051E9F2D09D9FF235B009C4205D9201C284902F06CF800291FD09F2D07D9FE2C05D9201CFF2102F062F8002917D09F2D07D97E2C05D929
:40298000201C7F2102F058F800290FD09F2D0FD93E2C0FD9201C3F2102F04EF800290BD000240AE0042408E0032406E0022404E0002402E0002400E00124631E032B01D827
:4029C000102000E00020002C10D0002810D064235843291C01F0AAFF002301E0013340000928FBD90A2804D9013B02E0002300E00023DBB21B012343337370BDFF010000E0
:402A0000024B9B68802018407047C046DC07002010B5174B9B68DB030FD407280FD8430902339B00124AD3185A681F230340DA40131CDB0705D4012404E0112402E001249A
:402A400000E00024002C10D12C234343094AD3185B7E022B02D101F0DDF906E0012B02D100F0EAFC01E001246442201C10BDC046DC070020305F000008B50B4B9B68DB0396
:402A80000DD40A4B1B78012B05D0022B09D101F0FDF8002007E000F055FC002003E0112001E00120404208BDDC0700206005002010B50F4B9B681B0618D40024012040421C
:402AC00011E0201CFFF7A4FF00280BD1062C03D80122084B5A7002E00022064B5A70FFF7CBFF04E00134072CEBD900E0112010BDDC0700206005002070B52C2358432E4BE2
:402B0000C458CB00591A89006418267EA57E206803680F21B1408B430360052A4BD89200264B9B589F4601F054FC61680B680722AA4093430622AA40151C1D430D6001F096
:402B40004CFCA1680B68607E0122824093430B6031E001F03EFC61680B680722AA4093430B6001F03AFCA1680B68607E0122824093430B601FE0201C00F0CAFB1BE02268A5
:402B800011680423B3401E1C0E431660626811680623AB401D1C0D4315600CE0226811680623B3401E1C0E43166061680B680722AA4093430B6070BD305F0000E46200008E
:402BC00010B5124B1B7883421ED0041C012B02D1FFF790FE03E0022B01D1FFF79DFE012C05D100F015FA0122084B1A700CE0022C05D100F001FF0222044B1A7004E0032C65
:402C000002D00022014B1A7010BDC0466005002030B500200D4B16E019680A681C69A2430A605C6822689D7E0721A9408A43111C0622AA400A43226099680A685C69A243E6
:402C40000A601C3301300F28E6D930BD2461000010B5174A93780133DBB293709078C0B2FFF7D6FE041E09D1114B9B78072B02D100220F4B5A70FFF7FFFE15E00C4B9B78C1
:402C8000072B0AD10B4A7933916899430B021B0A040623439360002406E006498B681B021B0A020613438B60002CD2D110BDC04660050020DC07002008B501F013F908BD1C
:402CC000074A084B1A6001380002074B1860054B1B68002BFBDB054A024B1A607047C04640000040000001400003014040FF0080034A13681B0B1B0301381843106070477F
:402D000000020B4070B5072801D8002500E00125002D11D1041C2C234343084AD3185E7E022E02D1282100F03BFF012E04D1201C552100F069FC051C281C70BD305F00002F
:402D400038B50024002504E0201CFFF7DBFF05430134072CF8D9281C38BDC046F0B5474680B488B001ACFA239B002380414B638096235B01A3805523E3733F4B997F3F4829
:402D800001F0D4FDA08100F043F900223C4BDA70FFF7A2FD002398460026002437E02C237343384AD3185B7E012B2FD12B337343D3185F680C233B8001ADA889324901F0A8
:402DC000B5FDF872301C552100F01EFC3B1C0A332B6101336B61281C01F0C6FC80462B4B984200D9062401AB9B89244A934205D8FB7A012B0AD80223FB7207E0244A93428C
:402E000004D8FB7A072B01D80823FB720136072EC5D901221A4BDA70013201AB9A73002621E02C237343174AD3185B7E012B19D12B337343D3185D682B1C0A3301AF0593DF
:402E40000133069343460393EB89FB802B1C10330793301C552100F0D7FB0443381C01F0B7FC28800136072EDBD9201C08B004BC9046F0BDE5070000DC070020C05D000085
:402E800060050020305F0000DC050000870D010080BB000010B500240FE02C236343084AD31859685B7E012B03D1201CFFF71EFD02E0201CFFF744FD0134072CEDD910BD0C
:402EC000305F000008B5FFF7E5FFFFF7A1FE0020FFF776FE002008BD70B500251AE02C236B430E4AD3185B7E012B12D12B336B439E58002406E0E000001B8000301800F07D
:402F000069FA01342C236B43044AD3189B7DA342F1D80135072DE2D970BDC046305F000010B50F4B1B68702293431C1C0D4B997F0D4801F0FBFC0D4B984204D82023234370
:402F4000074A13600BE0084B984204D830232343034A136003E040232343014A136010BD88010020DC07002000366E01001BB700034A044B1A60C1225204034B1A607047F8
:402F800000008301C0010B40C4010B40064A136806490B431360064A064B1A60C1225204054B1A607047C046A8020B400100001000008301C0010B40C4010B4070B50D1CC7
:402FC000161C04880123A3401C1C013CA00000194000642101F0AAFC01302B18A34200D9231C854201D3281A00E00020864203D39E4203D9062002E0062000E0002070BD7F
:4030000001390843014B18607047C04600020B4010B5FFF761FF0024284B1C60284B1C60284B1C60284B1C60284B1C60284B1C60284B1C6028490C60284B1C6028480368CE
:40304000F0229343903A13430360264A1368802040010343136080225200234B1A60234A136823480343136080235B04214A13602148224A10600B60214A224B1A60FFF7A0
:4030800077FF214B987FFFF71BFEFFF749FF1F4B1B681F4A13431F4A1360482001F090F90F221D4B1A601D4B1C60053A1C4B1A60C02212031B4B1A6010BDC046F4000B4060
:4030C000B4020B40C0020B4020030B4084010B4088020B4080020B4084020B4080010B400004024094020B40A0020B40A8020B4001000010A4020B404112000088010B4013
:403100000000030190020B40DC070020880100200010008000000B4000030B40F0010B4010030B4004020B4038B5041C01F051F90A490B687F25AB43094A1278A418A47A97
:4031400023430B6007490B68AB43074C2468A218527A13430B6001F040F938BDC0010B40FC620000C4010B402009002008B5021C01238B40581E002A02D0111C01F0D6FB9A
:40318000024B1B78012B00D1800808BD6305002008B50A4B1B782C225343094AD3185B68D97A084B1B78012B03D10748FFF728FF02E0081CFFF79CFD08BDC0466205002047
:4031C000305F0000630500200000060208B5031CC07A19881A7BFFF7C9FF0004000C014B186008BD14030B4010B50A2000F0A6FE0124324B1C60182001F0E2F80023304A6A
:403200001360304A136006222F4B1A60FA322F4B1A60802252042E4B1A602E4B1C60832252002D4B1A60033AFF3A2C4B1A60013A2B4B1A60F0235B0000E0013B264A126823
:40324000520701D4002BF8D1002B02D10822244B1A6000241A4B1C601A4B1C60832252001D4B1A600A2000F073FE0A2000F05CFE154B1C60154B1C60154B1C605022154BF7
:403280001A604F3A174B1A600C4B1C60164A1368802149040B4313600222104B1A60F0235B0000E0013B114A1268520701D0002BF8D10F4A0A4B1A6010BDC04680010B4095
:4032C000B0020B40B4020B4088020B4080020B4084020B40F0010B40F0000B40F8000B4040030B408C010B4000020B4000000B400103000008B5044A044B91680B4393600D
:40330000FFF772FF08BDC046DC0700208000010070B5041C857E067E01F05BF823681B680F22B24093431A1C0423B3401343666832680721A9408A4332602268136001F054
:403340004CF870BDF8B5144F3B78144D2C267343EB185868124C002323703B787343EB189968227893009B185B00CB180D4A1360FFF7DAFE3B785E4370592178CA00531AC9
:403380009B00C018084B1860FFF7C2FF074800F0A9FDFFF7AFFFF8BD62050020305F00006805002020090020240900205944000008B52C235843054BC058CB00591A89002E
:4033C0004018034B1860FFF7A3FF08BD305F00002409002038B5041C007EA57E21680B680F22824093430B6000F0F3FF61680B680722AA4093431A1C0623AB4013430B6086
:4034000000F0EBFFA1680B68607E0122824093430B6038BD08B5064B1B78012B06D1054B1868FFF7D7FF0022014B1A7008BDC0466C05002024090020F8B5041C104E2C27DE
:403440003B1C4343F3185D680120FFF7B9FBFFF7E1FFE4B20B490C700B787B439A590A4B1A600A4A7F2390689843031C906009780B439360281CFFF7A9FEFFF789FEF8BDE8
:40348000305F00006205002024090020DC07002038B52C234343124AD3185D68C9B2114C21709968227893009B185B00CB180E4A1360FFF7C1FF281CFFF736FE20780B4A74
:4034C000C300181A800013689C4660441060FFF71FFF0122064B1A70064800F003FD38BD305F00006805002020090020240900206C050020E1430000074B1A687F210A407C
:40350000064802431A60064A13680B40802109040B4313607047C046C0010B4000008301C4010B40F0B5474680B482B0071C0E1C90462D4A13782C214B432C49CB185B68E9
:403540000193402333701078C0B2294B1978C9B2FFF79EFFFFF7D0FF4025FFF7CBFE254A00E0013A244B1B7A5BB2002B01DA002AF7D1224B1B681C88BC4202D23378AB4329
:4035800033706D0833782B4333700198FFF7CCFD002DE2D1144B1B782C225343134A9858134B1978CA00531A9B00C018144B1860FFF710FF0022134B1A70FFF7E7FC0198EB
:4035C000391C221CFFF7FAFC43461A7833789A4201D242461370094B1B6832785A7202B004BC9046F0BDC04662050020305F00006805002033330000DC070020200900202F
:40360000240900206C050020F0B54F4680B484B0051C89462C234343364AD3185F68012303AA137038888340181C01384843642101F07CF90190EAB22F4B1A702F4800F0C1
:4036400051FC3C1C0A3400222D4B1A7000260AE00198211C03AAFFF765FF0643284A13780133DBB213702C236B43224AD318244A12789B7E9342EBD803AB1B7801335B08F7
:40368000BB7200221E4B1A7022E02C236B43194AD3189A681A4B1B789C00E41864001419184B1C60637AB87A83420AD31B1AD8B260724B4658436330642101F037F9607200
:4036C00001E0002363720E4A13780133DBB213702C236B43074AD318094A12789B7E9342D3D80022064B1A70301C04B004BC9146F0BDC046305F000062050020E14300009A
:403700006805002020090020F0B50024244B1C70041C002600230BE0E588954206D9AE4204D21F4E3371012737702E1C0A3401338B42F1D31A4B1C78002C2FD01D1C1B7994
:403740009A00D21852008618F6886E81002B0ED18A00511849000A394118C988298101339900CB185B00C318DB88AB8116E001398B4207D10A3A8218D288094B1A81C288D0
:403780009A810BE00A3A8218D188054A118101339900CB185B00C318DB889381201CF0BD70050020F0B5474680B482B080460F1C019200262CE01A4B9B191C79002C07D110
:4037C00073009B195B00164AD31800221A810AE0019B013B9C4206D173009B195B00104AD31800229A817500AB195B000C4AD3189A891989501A5B89C9185118784301F0E6
:4038000025F97C4300197F30000A434658530136034B1878B042CED802B004BC9046F0BD70050020C37A0288981E504380B2704708B5344B1A68344B1B78D3185B7A334A68
:403840001343334A13600022324B5A80324A334B1A600122324B1A601123324A136080214904314A1160314A13600622304B1A60304A314B1A60314A314B1A60314A324B1A
:403880001A60F0235B0000E0013B2F4A1268D20701D5002BF8D12C4B1B68DB0703D5C2229200294B1A60294BD97F294801F03EF8284B984204D9264B984203D8302302E06D
:4038C000202300E04023244A1343144A1360234A234B1A60002312490B6012490B6012490B6023201149086011490B6012490B6013490B60832149001A4B1960124B1A60EA
:4039000008BDC04620090020FC620000800E4301C0010B40800500202010048000000B4080010B4080020B4084020B40C0020B4088020B4001010100B0020B401010000027
:40394000B4020B400303000040030B40DC07002000366E01001BB70000100C80010300008C010B40F0000B4008B50A2000F0E6FA83225200154B1A60154B1A6892B2154B77
:403980005A80154A11685A888A1892B25A805A88198893B28B4203D90E4A13889BB253800E4B1B6898470E4B9B681B0609D40D4A0D4B1A60C02292000C4B1A600C4A0D4BFE
:4039C0001A600A2000F0B0FA08BDC046F0000B40D0000B4080050020D4000B408C010020DC0700202010048000000B408C010B40800E4301C0010B4010B583225200414BF7
:403A00001A600023404A13600221404A1160404A1360404A13604049404A1160C02189003F4A11603F49404A1160404A13604049404A11605021404A1160404A1360404AF5
:403A40001360404A1360404A1360404A136040490A688020400102430A6032213D4A1160802149043C4A11603C490A688020400502430A603A4A13603A4A136023213A4AE0
:403A800011601439394A11600B39394A1160394A1360394A1360C2229200384B1A6000F098FC374C2268374B1340236000F095FC00F08FFC2268344B1340236000F08DFC80
:403AC00000F087FC314C2268314B1340C022D2001343236000F081FC00F07BFC22682D4B1340C022D2011343236000F076FC2A4BD87FFFF7E5F8FFF78BF82848FFF7DCF885
:403B000010BDC046F0000B40F4000B40F8000B4080010B4084010B40411F1E0088010B408C010B40800E4301C0010B40C4010B40AA000500F0010B4000020B4004020B40B8
:403B400080020B4084020B4088020B4090020B4094020B40A0020B40A4020B40A8020B40B0020B40B4020B40C0020B4000030B4010030B4014030B4020030B4040030B402C
:403B8000080404403FFEFFFFFFF1FFFF00040240FFF0FFFFFF0FFFFFDC07002069390000F0B583B001900F1C2C264643244B9E19B36800937068FFF735FE224B18801888BF
:403BC0007843642100F0B2FE041C737E022B34D12A33019A53431A4AD3189A7EDF7E5743009B002205E000211980403159720A330132BA42F7D32026402500E01E1C01988A
:403C0000FEF706FFFEF738FF0F4B1B7A5BB2002BFADB009B00210AE01A88A24202D95A7AAA435A725A7A32435A720A330131B942F2D37308DBB2351EE0D103B0F0BDC04618
:403C4000305F000080050020DC07002010B541680A68847E0623A34013430B6001680A68007E0423834013430B6010BD10B541680B68847E0722A24093430B6001680A6883
:403C8000007E0623834013430B6010BD10B5104B1B68104A99681160DA7E0F4CA280987EE0801A68A260C300181A80001018E060FFF7CCFFA068FFF7D9FF084A084B1A603B
:403CC000084A802391680B439360FFF7B1FD10BD640500202009002080050020253D00008C010020DC0700200268136801698B431360704710B50268136801698B431360FF
:403D000041680B68847E0722A24093431A1C0623A34013430B608268136841698B43136010BDC04610B52C4B19682C4B1B782C4C228860885B00121A5A52E068FFF7D4FF49
:403D4000A388013B9BB2A380002B0CD0244BD8681C30D860FFF77AFF1F4A13680A331360FFF766FD37E01E4AD388013B9BB2D380002B1DD0141C9068FFF7BCFFA0681C30DB
:403D8000A060FFF773FF174B1A68D37EA3801068E060937EDA00D31A9B00C018E060FFF755FF0D4A13680A331360FFF741FD12E00B4B9868FFF79EFF0B4B1B78002B02D03F
:403DC000FEF746FF07E0094BDA880132DA80802299689143996010BD20090020FC620000800500206405002061050020DC07002010B5074B1B8A002B08D0054CE068FFF776
:403E000073FFA068FFF776FF0023238210BDC0468005002038B5041C0220FEF7D1FEFFF7E7FFE2B20F4B1A702C2060430E4BC0180E4B18604568EC7A2A880D4B1A60281C4A
:403E4000FFF7F0FC0B4B18802A7B013C2405230D14041C43084B1C60084BD87FFEF730FF38BDC04662050020305F00006405002014030B408005002000020B40DC07002032
:403E80002C235843024B18184368D87A7047C046305F0000014B98667047C0460000002010B5041C00F095FA044A1168044B0B40A4051C43146000F090FA10BD08E400E0D7
:403EC000FFFF3FFF8022D200014B1A607047C04600E100E08022D200014B1A607047C04680E100E010B5041CFFF7F4FF201CFFF7D1FF0320FFF7D4FFFFF7E4FF10BDC0462E
:403F0000024A1168024B0B401360704700000740FFFFFFBF034B18688023DB05184000D001207047000007401F2318401E3B8340181C014B1860704700E100E01F2318409F
:403F40001E3B8340181C014B1860704780E100E01F2318401E3B8340181C014B1860704780E200E001BE704738B5041C0D1C0F2802D90020FFF7F6FFA400034B9C46644449
:403F80002068256038BDC0464000002070B5041C0E1E032E02D90020FFF7E4FF0F2C02D90020FFF7DFFF03252540ED00063500F010FAA408A400074B9C466444236803228E
:403FC000AA409343AE40351C1D43256000F005FA70BDC04600E400E010B5041C06E0084B586800F0EDF9074B9C46644480231B029C42F4D8024B9868604300F0E1F910BD76
:40400000940100200080FFFF30B583B000F0DCF8002848D000F0DDF9041C244B1B6807221A409200131C1833214A12681207920FD3401A1C1F4B19681F4B19401F4B534334
:404040008020C00184466344DB0B013B5B055B0D0B43A02149031943192A02D8184A13430BE0184BD31818781A3A174B9B5CC318FF2B00D9FF239B050B430E4A1360134D69
:404080002B680193302000F06DFA114A13688021C9050B4313601420FFF79EFF019B2B60201C00F09AF903B030BDC046080F0340280003400800074000F800C040420F007C
:4040C0000000D43FCDF1FF0F006300003000104000000740F0B583B0041E182C0BD01C2809D0202807D0242805D0282803D02C2801D0302849D100F06CF90190FFF70AFFA2
:40410000002803D0FFF7FCFE012600E00026214A136807218B4313601F4BE3181B78DBB21E4A13601E4A13688B4313601D4803687F229343191C1C4BE3181B7813400B4382
:404140000360322000F03CF9182C16D9114F3B680725AB431A1C231C1C3B9B082B4013433B60322000F02CF93A68AA43231C183B9B082C1C1C4014433C60012E01D1FFF791
:4041800043FF019800F029F902E00020FFF7EAFE03B0F0BD080F0340CDF1FF0F0C0F0340100F0340180F0340B4F1FF0F08B500F010F9044A136804218B43136030BF00F00B
:4041C0000CF908BD10ED00E0034B1B68002B01DA012000E00020704700000740014A024B1A6070476588EDAC3800034008B50720FFF79AFE08BDC04608B500F09BF808BD16
:4042000008B500F01FF808BD08B5054A1368802109060B431360FFF7E9FFFFF7EDFF08BD0000084008B5064B1B78002B04D1FFF7E7FF0122024B1A70FFF7E6FF08BDC04613
:404240009405002010B5214A214B1A600024214B1C60214A214B1A60214B224A13600721214A1160214A14600639214A1160214A1360214B1C600422204B1A600720FFF7DB
:404280005DFE07200321FFF781FE07201C49FFF76BFE1C4B1C601C4B1C601C4B1C601C4B1C6044221B4B1A601B4B243A1A601A681A4B1A801A4B1C601A4B1C601A4B1C70B4
:4042C0001A4B1C601A4B1C6010BDC0460F08000200000840400008400102000048000840070000800003084004030840100308404400084000020840040208405000084075
:4043000085460000880E0840C80E0840480F0840080F0840C80F0840880F08409C050020300900202C090020B8090020340900202809002005490B68F0229343603A134323
:404340000B60034B1A88034B1A607047000102409C050020880F084008B500F047F9002802D000F029F900E00020054B1A68D8239B001A4203D01A1C014B1A60002008BD0F
:40438000C00F084038B5051C002402E000F042F90134285D0028F9D138BDC0460004000C014B18607047C04608010640024B18680004000C7047C046080106400000000037
:4043C0000230800803D001300238FCD1C046C0467047EFF3108072B6704780F31088704783225200144B1A60144B1B78DA3A5343134AD3185B68134A12681204120C1988FF
:4044000001238B40013B9A4206D20F4B19680F4B1B785B00CA5205E00B4A11680B4A127852008B520A4BDA880132DA80094A99680A409A607047C046F0000B406205002042
:40444000305F0000D0000B4020090020FC620000DC0700207FFFFEFF70B5384D2A78384C2C235A431059374A1678F1008A1B9200801883214900344A11602A785343E3186A
:404480005B68324A12681204120C198801238B40013B9A4206D22E4B19682E4B1B785B00CA5205E02A4A11682A4A127852008B52FEF790FF214C227821492C235A438A1890
:4044C000506822785343CB189B7D1E4A1278013B93421CD91B4C23780133DBB22370174D2B782C225343CB189968227893009B185B00CB18164A1360FEF716FE2878C0B2B0
:404500002178C9B2FEF754FFFEF76EFE15E000220C4B1A70104A114B91680B409360104A1278012A02D1FEF793FB06E00A4A80218B439360D3880133D38070BD6205002042
:40454000305F000068050020F0000B40D0000B4020090020FC620000DC070020FFFFFEFF6105002038B5041CFFF733FF051C102C05D8104A136803218B43136016E0202CB3
:4045800007D80C490B6803229343023A13430B600CE0302C07D807490B6803229343013A13430B6002E00020FFF7DCFC281CFFF714FF38BD30001040094B1A68094B1B683C
:4045C0009A420BD0074B1B680133812B00D10023054AD05CC0B2034A136000E000207047300900202C090020BC090020074B1B68074A1268934203D3054A1068181A04E03C
:40460000034A10681B1A8133181C7047300900202C090020144B1A68144B1B689A4208D1134B1B681F221340102B02D0114B186019E00D4B1A680132802A00D100220B4B6C
:404640001B689A42FBD002230B490B60C0B20B49885405490A600A4A1268134203D1084A11680B431360704734090020280900200802084040020840800F084038090020D6
:40468000880F084008B5274B1B68002B00D09847254B1B685B071DD5244B1B680133812B00D10023224A1268934205D1214B1B682022214B1A7006E01E4A1268D2B21F4916
:4046C000CA541A4A13601E4B1B68DB06E4D104221C4B1A601C4B1B689B0721D51B4B1A681B4B1B689A4213D0194B1B680133802B00D10023174AD25CD2B217490A60144A35
:404700001360164B1B681F221340102BE6D104E0134A136802218B4313600222114B1A6008BDC04698050020CC0F0840300900202C09002040030840B8090020BC090020D8
:4047400008030840C00F08408C0F08403409002028090020380900204002084008020840880F0840800F084070B5041CFA26036980881D78E37BB60058431349704300F02F
:40478000D5F875436188684300F0D0F8051C2088311C684300F0CAF8A3890C49584300F0C5F8013063691022082809D80822042806D80422022803D801D1187001E00122EF
:4047C0001A70281C70BDC046F049020000E1F50538B5041C63698089197800F0A7F8051C60880304181A23691978A388594300F09DF8A37B1149DD40684300F097F8E388CB
:404800000A21584300F092F800230D4AA16810258A425B410222D31A62325343984203D9013DEDB24008F9E74B236421584300F07DF8A4692080281C38BDC046A08601001C
:40484000A761000010B50024A34200D00C880088131C800080B2824200D2031C9AB2A24200D2231C9AB20B805308FF2B01D9FF2300E0DBB28B70CB70D308FF2B00D9FF23A4
:404880000B7110BD8B0813800F2393720023C90851809080D0801081D3727047937A30B594885B00041B9080DBB2002C01DB937202E00133937264420F23957A1D40538834
:4048C00095729C4203D2012B03D9013B00E0013353800F2D05D0002D03D053889D00AC4204D90023D0801081D3721DE0D488844201D9D08003E01489844200D21081D07AFA
:40490000092802D80130D0720EE01089D488001B80B2834204D989088B4203D9013B00E0013353805388138030BD0000002243088B4274D303098B425FD3030A8B4244D3F2
:40494000030B8B4228D3030C8B420DD3FF22090212BA030C8B4202D31212090265D0030B8B4219D300E0090AC30B8B4201D3CB03C01A5241830B8B4201D38B03C01A52410A
:40498000430B8B4201D34B03C01A5241030B8B4201D30B03C01A5241C30A8B4201D3CB02C01A5241830A8B4201D38B02C01A5241430A8B4201D34B02C01A5241030A8B42D1
:4049C00001D30B02C01A5241CDD2C3098B4201D3CB01C01A524183098B4201D38B01C01A524143098B4201D34B01C01A524103098B4201D30B01C01A5241C3088B4201D3C6
:404A0000CB00C01A524183088B4201D38B00C01A524143088B4201D34B00C01A5241411A00D20146524110467047FFE701B5002000F0FCF802BDC0460029F7D003B5FFF75F
:404A400075FF0EBC4243891A1847C04603460B437FD4002243088B4274D303098B425FD3030A8B4244D3030B8B4228D3030C8B420DD3FF22090212BA030C8B4202D31212A5
:404A8000090265D0030B8B4219D300E0090AC30B8B4201D3CB03C01A5241830B8B4201D38B03C01A5241430B8B4201D34B03C01A5241030B8B4201D30B03C01A5241C30A87
:404AC0008B4201D3CB02C01A5241830A8B4201D38B02C01A5241430A8B4201D34B02C01A5241030A8B4201D30B02C01A5241CDD2C3098B4201D3CB01C01A524183098B4245
:404B000001D38B01C01A524143098B4201D34B01C01A524103098B4201D30B01C01A5241C3088B4201D3CB00C01A524183088B4201D38B00C01A524143088B4201D34B00DD
:404B4000C01A5241411A00D201465241104670475DE0CA0F00D04942031000D34042534000229C4603098B422DD3030A8B4212D3FC22890112BA030A8B420CD38901921152
:404B80008B4208D3890192118B4204D389013AD0921100E08909C3098B4201D3CB01C01A524183098B4201D38B01C01A524143098B4201D34B01C01A524103098B4201D3B4
:404BC0000B01C01A5241C3088B4201D3CB00C01A524183088B4201D38B00C01A5241D9D243088B4201D34B00C01A5241411A00D20146634652415B10104601D34042002B33
:404C000000D54942704763465B1000D3404201B5002000F00BF802BD0029F8D003B5FFF715FF0EBC4243891A1847C0467047C046002B15D1002A13D1002906DB01DC002877
:404C400006D00020C043410802E080210906002007B4024801A14018029003BDD1FFFFFF03B4684601B5029800F006F8019B9E4602B00CBC7047C046F0B583B0161C1F1C82
:404C80000090019100F058F8041C0D1C221C2B1C301C391C00F026F8009A019B121A8B410899201C0A604B60291C03B0F0BDC046F0B5141C83B01D1C0090019100F034F9CA
:404CC000221C2B1C061C0F1C00F00CF8009A019B121A8B410899301C0A604B60391C03B0F0BDC046F0B54F46464605042D0C2C1CC0B41704160C3F0C9946030C7C43754352
:404D00005F4373437D19260CAD199C46AF4203D980235B029846C4444B465143434324042E0C240C2D0466442C1959188919201C0CBC90469946F0BDF0B544465F465646B2
:404D40004D46F0B41C1C85B0002900DAA9E00F1C0021061C8846101C191C002C00DA97E0341C3D1C82468946B94273D870D04946504600F085F98346391C301C00F080F9BD
:404D80005B46181A031C8346203B9C4600D59CE00023002251460092019363469940019151468140019B0091BB4200D983E000D17EE0009A019B341C3D1CA41A9D41634683
:404DC000002B00DA9AE0002600270296039701369E400396012686400296002800D171E00099019AD30799464B464E081E435708002301220CE0AF4201D1A6420AD8A41B26
:404E0000BD4124196D410138A4185D41002806D0AF42F0D9013824196D410028F8D12022029E039F5B46524236196F4199185AD4281CC8402C1C5B46DC40002968DB041CB5
:404E40008C40231C59468840021CB61A9F4103E0B0428CD90026002741464B1E9941002300910193009A019B002554429D41331C6340181C3B1C6B40191C009B019CC0181D
:404E8000614105B03CBC90469946A246AB46F0BD4346DB430C1C9846131C00215842A1415EE7002746428F4101214942884652E7B14200D87DE700260027029603970028A1
:404EC00000D08DE7029E039FC6E720215346091ACB400022191C0023009201934B4683400B4301935CE75A4620239B1A2A1C9A40201C131C5A46D04018439BE72026002741
:404F0000331A0026029603970127DF40039761E75B4620215D46C91A031CAC40CB40191C231C0B438EE7C046F0B545464E465746E0B4041C82B00D1C914698468B4262D8BC
:404F40005FD04146484600F09BF8291C061C201C00F096F82023311A5B428A46C81865D44B4683401F1C4B468B401E1CAF4258D855D0A41BBD41002800DA77E0002200236F
:404F80000092019301328240019201238B40009300293CD0FB079846404672087B080243012600270CE0AB4201D1A2420AD8A41A9D4124196D410139A4197D41002906D0EA
:404FC000AB42F0D9013924196D410029F8D120220098019953465242001969419E183AD42F1CF7405346DD40002E29DB3C1CB440231C5446A7403A1C801A9941009001915A
:4050000005E082429DD900230024009301940098019902B01CBC90469946A246F0BDA342A7D90022002300920193B1E720224B46521AD3401A1C43468B401F1C174392E78A
:40504000534620245646E41A3B1CB540E3401C1C2B1C2343CDE7524620239B1A2A1C9A40271C131C5246D7401F43BBE720230022581A0023009201930132C240019284E789
:4050800010B5002903D100F007F8203002E0081C00F002F810BDC0461C2101231B04984201D3000C10391B0A984201D3000A08391B09984201D30009043902A2105C40180B
:4050C0007047C04604030202010101010000000000000000014B18687047C046080200200E4B70B500251E1C0D4CE41AA410A54204D0AB00F35898470135F8E701F00EF9AC
:40510000084B00251E1C084CE41AA410A54204D0AB00F35898470135F8E770BD28630000286300002863000030630000002310B5934203D0CC5CC4540133F9E710BD031CE1
:405140008218934202D019700133FAE77047021C10B51378002B01D00132FAE7CC5CD4540133002CFAD110BD021CC9B21378002B03D08B4204D00132F8E7181C002900D1D0
:40518000101C70470023C25C0133002AFBD1581E704710B50378021C002B05D10978181C00290FD00FE001321378002B08D00023C85C002806D0D45C8442F4D10133F7E796
:4051C000181C00E0101C10BD000000006CFBFF7F010000004E020000CC010000E6010000000200001A02000034020000696E76616C69642073746172742D656E64206368E0
:405200006172616374657228732900006661696C656420746F20657865637574652074686520636F6D6D616E6400000065786563757465640000000075700000646F776EF9
:4052400000000000706F736974696F6E0000000073746F7070696E6700000000425430004254310042543300425434004254350042543600425438009400D34B008200008C
:40528000FF00FF00FFFF00FF7F00FF00000000000008320864089608C808FA082C095E098F09C009F109220A520A820AB10AE00A0F0B3D0B6B0B980BC50BF10B1C0C470CE5
:4052C000710C9A0CC30CEB0C120D390D5F0D830DA70DCA0DED0D0E0E2E0E4E0E6C0E8A0EA60EC10EDC0EF50E0D0F240F3A0F4F0F630F760F870F980FA70FB50FC20FCD0F58
:40530000D80FE10FE90FF00FF50FF90FFD0FFE0FFF0FFE0FFD0FF90FF50FF00FE90FE10FD80FCD0FC20FB50FA70F980F870F760F630F4F0F3A0F240F0D0FF50EDC0EC10E6C
:40534000A60E8A0E6C0E4E0E2E0E0E0EED0DCA0DA70D830D5F0D390D120DEB0CC30C9A0C710C470C1C0CF10BC50B980B6B0B3D0B0F0BE00AB10A820A520A220AF109C009A6
:405380008F095E092C09FA08C8089608640832080008CD079B07690737070507D306A10670063F060E06DD05AD057D054E051F05F004C204940467043A040E04E303B803E1
:4053C0008E0365033C031403ED02C602A0027C02580235021202F101D101B1019301750159013E0123010A01F200DB00C500B0009C0089007800670058004A003D00320043
:4054000027001E0016000F000A0006000200010000000100020006000A000F0016001E00270032003D004A0058006700780089009C00B000C500DB00F2000A0123013E01AD
:40544000590175019301B101D101F1011202350258027C02A002C602ED0214033C0365038E03B803E3030E043A0467049404C204F0041F054E057D05AD05DD050E063F06F3
:405480007006A106D3060507370769079B07CD077374617274696E67000000006669726D7761726500000000696E76616C696420616E696D6174696F6E2069640000000049
:4054C00073656C6563746564000000007374617274656400736C6F77206272656174686572000000666173742062726561746865720000006C6566742D7269676874000029
:4055000032206C656473000072656420696E74656E73697479000000677265656E20696E74656E7369747900626C756520696E74656E7369747900007265642D7768697444
:405540006520696E74656E7369747900677265656E2D77686974652020696E74656E736974790000626C75652D77686974652020696E74656E73697479000000616C6C20C3
:40558000636F6C6F727300007261696E626F7720636F6C6F727300003420666978207768697465204C4544732061742066756C6C20696E74656E736974790000DE0F0000B5
:4055C000CC0F0000BA0F0000A80F0000960F0000840F0000720F0000600F00004E0F00003C0F00002A0F0000180F0000060F0000F40E0000E20E0000D00E0000BE0E00006F
:40560000AC0E00009A0E0000880E0000760E0000640E0000520E0000400E0000302E3037000000007E190000141A000032190000941A0000581900005A1E0000BE1E000086
:40564000221F0000F01F0000AA1A0000B41A0000B41A0000D21B0000C61C000000000000885900006C5B0000010000008C5B0000985B000002000000B05B0000BC5B000004
:4056800004000000E05B0000DC58000003000000E85B0000EC5B000005000000F85B0000005C000006000000245C0000305C0000070000004C5C0000545C000008000000BD
:4056C0002C5B0000785C000001000000505D0000F85D000000000000785D0000145E000001000000505D0000D05D000000000000785D0000E45D000001000000505D000066
:40570000585D000000000000785D0000805D000002000000A05D0000AC5D000000000000305E0000385E000001000000585E0000605E000002000000805E0000885E00009B
:4057400003000000985E0000A05E000000000000B45E0000BC5E000001000000D85E0000E05E000002000000FC5E00000C5F000000000000905C0000985C000001000000E9
:40578000A85C0000B85C000002000000D85C0000E85C000003000000085D0000145D000004000000305D00003C5D0000485B00004C5B0000545B00005C5B0000645B0000E5
:4057C0007B226576656E74223A22616C61726D222C202274797065223A220000222C2022736F75726365223A22000000222C20226465736372697074696F6E223A2200003E
:40580000227D00007B226576656E74223A22616E696D6174696F6E222C20226E616D65223A220000222C2022616374696F6E223A220000007B226576656E74223A2273657C
:405840006E736F72222C20226964223A000000002C2022726177223A000000002C2022626173656C696E65223A0000002C20226275636B657420626173656C696E65223AE1
:40588000000000002C202264696666223A0000002C2022626173656C696E65207265736574223A002C202249444143223A0000007B226576656E74223A22707573682062DB
:4058C0007574746F6E222C20226964223A000000222C20227374617465223A22000000007B226576656E74223A22666C6173682067656F6D65747279222C2022636865638C
:405900006B73756D223A00002C2022666972737420726F77223A00002C20226C61737420726F77223A0000002C202273697A65223A0000007D0000007B226576656E742208
:405940003A22627574746F6E222C20226964223A000000002C2022616374696F6E223A220000000063616E27742066696E6420636F6D6D6120696E20636F6D6D616E64005B
:405980004649584D45210000616E696D6174696F6E000000756E737570706F7274656420616E696D6174696F6E20616374696F6E00000000756E737570706F72746564205D
:4059C00073656E736F7220616374696F6E000000626F6F746C6F616465722069732064697361626C65640000756E737570706F7274656420626F6F746C6F6164657220615B
:405A00006374696F6E00000063616E2774207061727365207265642066726F6D2052474220636F6C6F72000063616E277420706172736520677265656E2066726F6D205259
:405A4000474220636F6C6F720000000063616E27742070617273656420677265656E2066726F6D2052474220636F6C6F7200000063616E2774207061727365204C45442096
:405A8000696E64657820636F6C6F720063616E2774207061727365204C454420696E646578000000696E76616C6964206C656420696E64657800000063616E277420706128
:405AC000727365204C454420737472697020636F6D6D616E64000000756E737570706F72746564206C656420616374696F6E0000756E737570706F727465642074656C65C7
:405B00006D6574727920616374696F6E00000000756E737570706F7274656420747261636B657220616374696F6E000076657273696F6E00756E737570706F727465642034
:405B4000636F6D6D616E64006C6F6700696E666F000000007761726E696E67006572726F72000000666174616C0000007365742074686520616E696D6174696F6E207061B2
:405B800072616D657465727300000000626F6F746C6F6164657200006A756D7020696E20626F6F6C6F61646572206D6F6465000063617073656E7365000000007365742F3B
:405BC000676574207468652063617073656E736520636F6E66696775726174696F6E000068656C70000000006C656400736574206C6564287329000073656E736F7200001D
:405C0000656E61626C652F64697361626C652073656E736F72732074656C656D657472696573000074656C656D65747279000000656E61626C652F64697361626C65207431
:405C4000656C656D6574726965730000747261636B6572007365742F6765742074686520747261636B657220636F6E66696775726174696F6E000000676574207468652088
:405C800061637475616C2076657273696F6E0000636C656172000000636C65617220616C6C206C656473000073657420636F6C6F72206C65667400007365742074686520F2
:405CC000636F6C6F72206F6620746865206C656674204C454400000073657420636F6C6F72207269676874007365742074686520636F6C6F72206F66207468652072696702
:405D00006874204C4544000073657420776869746500000073657420746865207768697465204C454420696E74656E73697479007365742073747269700000007365742011
:405D4000746865204C454420737472697000000064697361626C650064697361626C652066696E67657220747261636B6572206F6E204C4544730000656E61626C65000080
:405D8000656E61626C652066696E67657220747261636B6572206F6E204C45447300000073657420627574746F6E000073657420746865206E756D626572206F66206C6F22
:405DC000676963616C20627574746F6E7300000064697361626C652074656C656D65747269657300656E61626C652074656C656D657472696573000064697361626C6520BF
:405E000073656E736F72732074656C656D65747269657300656E61626C652073656E736F72732074656C656D65747269657300006175746F0000000073657420616E696D71
:405E40006174696F6E20696E206175746F6D61746963206D6F6465006D616E75616C000073657420616E696D6174696F6E20696E206D616E75616C206D6F64650000000060
:405E800073746F700000000073746F7020616E696D6174696F6E0000726573756D650000726573756D6520616E696D6174696F6E000000007374617274000000656E74659A
:405EC0007220696E20626F6F746C6F61646572206D6F6465000000006578697400000000657869742066726F6D20626F6F746C6F61646572206D6F64650000006765742071
:405F0000666C6173682067656F00000067657420666C6173682067656F6D6574727900002020202020202020202020202020000024610000FC0700208E0800209C04002020
:405F40005805002001000700020107005802000000640000E80400207C040020E861000010080020D408002098040020540500200900010001020101000000000000000067
:405F800000000000000000002062000022080020DE08002094040020500500200100010001020101000000000000000000000000000000005862000034080020E8080020B5
:405FC000900400204C05002001000100010101000000000000000000DC040020000000007462000046080020F20800208C04002048050020010001000101010000000000F7
:4060000000000000D0040020000000009062000058080020FC080020880400204405002001000100010101000000000000000000C404002000000000AC6200006A08002034
:4060400006090020840400204005002001000100010101000000000000000000B804002000000000C86200007C08002010090020800400203C0500200100010001010100F2
:406080000000000000000000AC040020000000000E00640028280A031E6420040000A0000000FFFF6400500028280A031E6420500000A00000006400640028280A031E64B3
:4060C00020500000A00000000C00640028280A031E6420040000A00000000C00640028280A031E6420040000A00000000C00640028280A031E6420040000A00000000C004B
:40610000640028280A031E6420040000A00000000C00640028280A031E6420040000A0000000000000020240080204400002044004020440000F0000040000000802060000
:406140000002024008020440000204400402044000F00000080000000C030900000202400802044000020440040204400000F0002000000014050F00000202400802044001
:4061800000020440040204400000000F400000001806120000020240080204400002044004020440000000F0800000001C07150000020240080204400002044004020440E4
:4061C000F00000000200000004010300000202400802044000020440040204400F0000000100000000000000000002400800044000000440040004400000000F400000000A
:40620000180612000000024008000440000004400400044000000F001000000010040C00000002400800044000000440040004400000F0002000000014050F000000024041
:4062400008000440000004400400044000000F001000000010040C000000024008000440000004400400044000F00000080000000C0309000000024008000440000004400B
:4062800004000440000F0000040000000802060000000240080004400000044004000440F00000000200000004010300000002400800044000000440040004400F00000036
:4062C000010000000000000000010240080104400001044004010440000F00000400000008020600262B0000522B0000B62B0000762B00007E2B00009C2B0000000000009C
:40630000EEDBC9B9AA9B8E82766B60564D443B332C241D17100A040043000000F8B5C046F8BC08BC9E4670478501000075200000F8B5C046F8BC08BC9E4670475D0100003D
:406340005063000088000020880100003008000000000000010000005C520000020000006052000003000000645200000400000068520000050000006C520000060000005E
:40638000705200000700000074520000530000000180808080000600070001010100020001008000000100008D0C0000D454000001010000A90C0000E454000002000000B4
:4063C00065090000F454000003000000A90900003C55000004000000010B000000550000050000001108000008550000060000004D08000018550000070000008908000061
:406400002855000008000000290A00003855000009000000710A00004C5500000A000000B90A0000645500000B000000FD0600007C5500000C000000C508000088550000D7
:406440000D000000E5070000985500000100000002000004253D000001000000010000000000E02EC05D00001800000000366E0100000000000000000000000000000000E3
:406480000000000000000000000000000000000018630000000000000000000000000000000000000000000000000000000000000000000000000000000000000000000061
:4064C00000000000000000000000000000000000A80100200000000000000000000000000000000000000000000000000000000000000000000000000000000000000000D3
:40650000000000000000000000000000000000000000000000000000000000000000000000000000000000000000000000000000000000000000000000000000000000005B
:40654000000000000000000000000000000000000000000000000000000000000000000000000000000000000000000000000000000000000000000000000000000000001B
:4065800000000000000000000000000000000000000000000000000000000000000000000000000000000000000000000000000000000000000000000000000000000000DB
:4065C000000000000000000000000000000000000000000000000000000000000000000000000000000000000000000000000000000000000000000000000000000000009B
:0200000490303A
:02000000AB242F
:0200000490402A
:200000000000000000000000000000000000000000000000000000000000000000000000E0
:0200000490501A
:0C0000000002190B11A90000192ABCCD48
:0200000490600A
:0100000001FE
:00000001FF