:4000000000100020110000006D0100006D01000008B500F06DFF00F0F7F900F0AFF8C04610B50B4C12232360182000F0EBFEE0221201084B1A60084A084B1A600022084BB2
:400040001A604032074B1A601123236010BDC046300010400003014040FF008000000140280003400001014008B572B6EE221202084B1A60EE22084B1A60D8221201074BBB
:400080001A600322064B1A602132064B1A60FFF7C7FF08BD0003024000040240080304400004044008040440000000000000000000000000000000000000000000000000C5
:4000C0000000000000000000000000000000000000000000000000000000000000000000000000000000000000000000000000000000000000000000000000000000000000
:4001000010B5064C2378002B07D1054B002B02D0044800E000BF0123237010BD18010020000000007416000008B5084B002B03D00748084900E000BF07480368002B00D188
:4001400008BD064B002BFBD09847F9E700000000741600001C010020900000200000000008B562B600F006FCFEE7C04608B501F03FFA03680C2B00D1FEE7FEE770B50F4EE5
:400180000F4D13E029686B68AC68002202E001C901C30432A242FAD1E868002202E0002102C304328242FAD11035013E002EE9D101F024FAFFF7D4FFFEE7C04601000000D2
:4001C0004817000008B500230AE0032B03D89A000C49505800E00C4899000C4A885001331F2BF2D9FFF740FF0022094B1A60094B1B68002B01D1074B1A6080229205064BA3
:400200001A6008BD000000006D01000000000020880000208000002008ED00E0002306E04218013A12789B189BB2013989B20029F6D1584280B2704730B5002307E01C18A1
:400240002478E4B2CD5CAC4205D101339BB29342F5D3002000E0022030BDC0460047C04608B58022024B1A6000F042FD08BDC04680000020F0B583B00D1C6B469E1DDA8058
:4002800001230B704870141CAA70130ACB70171DB9B2281CFFF7C2FFE855631D000AE854A31D1722EA540734A1B2281C321C962300F0B2FE03B0F0BD70B5051C0E1C141CF8
:4002C000002802D0002000F0D9FC002004E0013CAB191B5D1818C0B2002CF8D170BDC04608B50C2857D880003A4B1B589F46C9014942394B9C466144012351E0C901494251
:40030000364B9C46614404234AE0C9014942344B9C466144022343E0C9014942314B9C46614404233CE0C90149422F4B9C466144012335E0C90149422C4B9C466144012320
:400340002EE0C90149422A4B9C466144022327E0C9014942274B9C466144022320E0C9014942254B9C466144022319E0C9014942224B9C466144042312E0C9014942204BF3
:400380009C46614401230BE0C90149421D4B9C466144042304E0002000F070FC02230021012B02D10878C0B200E00020022B03D10A78487800021043042B0AD10A784B78BE
:4003C0001B021A4388780004031C1343C8780006184308BD78160000C07F0000C17F0000C57F0000C97F0000D07F0000D17F0000D67F0000D27F0000D47F0000D87F00001C
:40040000DC7F0000E07F000008B50D4B1B68DB0602D400220B4B1A600A4B1B68802B0ED10022084B1A6002200021FFF759FF002805D002200021FFF753FFFFF70FFF08BD8E
:40044000540003408000002070B5051C0320291CFFF746FF441CE4010420291CFFF740FF24180320291CFFF73BFF0130C0010023002608E001784A1ED2B2FD2A00D80126F7
:400480005B18DBB20130A042F4D35B42DCB20120291CFFF725FF844203D1002E03D1062002E0062000E0002070BDC046F0B55F4656464D464446F0B4B44CA544051C00F019
:4004C00059FD62B600239B4698460A240027002D01D1FF2300E02B1C52A896214900AC4A02AEB446624400F061FD002D01D0013CE4B2002C01D00028E9D1002800D025E2D2
:40050000A34B02AA944663441B88062B24D952AA1278012A22D152A9CA78120289780A43171C111C07329A421AD896235B009A4218D87A1D52AB9E5C3202381D1E5C16435B
:4005400006315B5C172B0FD181B252A8FFF766FEB0420BD100260AE0042608E0042606E0032604E0032602E0042600E00826002E00D08BE152AB1A7991465A78131C313B56
:40058000D9B2142900D956E18B008249CB589F464346012B00D07BE1012F00D07BE14B46002B00D07AE14846FFF74EFF002800D077E14B46D9014942774B9C46614453A886
:4005C000382201F041F85622B9E14346012B00D06AE1002F00D06AE10020FFF735FF4342434152AA13710122A9E14346012B00D060E1032F02D0832F00D05EE152AA937938
:400600001B02527913439A46032F08D0FA1E07A84821FF3102AB9C46614401F015F84B46002B00D04CE118025044C0015346FF2B00D90A26002E00D045E107A98022FFF7A0
:40064000FBFD061C00227AE14346012B00D03CE1012F00D03CE14B46002B00D03BE14F4B1B681B68DA0BD2B2914502D15B041B0E05E0914501D9002301E080235B0052AAAF
:4006800013711B0A5371FF2393710023D371042255E1342A0DD14346012B00D01EE1032F00D01EE107A800214C3200F0D6FF80239B464346012B00D016E1022F00D816E110
:4006C00007A85844FA1E4821FF3102AB9C46614400F0BAFF3B1C5B449BB2832B00D009E152AA93791B02527913439B46FF2B00D90A26002E00D003E14B461802584480B2C1
:40070000264B1B681A68D3099BB2520601D001339BB2984200D2F6E007A900F0D9F9002800D00A2600239B468027002207E14346012B00D108E10426002200E14346012B4E
:4007400000D0E6E05B46DB1996225200934200D9E2E007A8584453A93A1C00F075FF5B46DB199BB29B460022E9E0002F00D0D6E004AA0B4B03CB03C253AA04AB03CB03C29A
:4007800000239B46013398460822D8E084FDFFFF6E020000AC160000C07F000094000020001700004346012B00D0BBE0032F00D0BBE052AA93791B02527913439A464B4612
:4007C00019025144C9015346FF2B00D90A26002E00D0ADE000208022FFF76EFD01904B461B0253449BB24A46002A10D1FF2B0ED105200021FFF774FD019B1B1ADBB2994654
:4008000006200021FFF76CFD4B461B1AD8B2424252AB1A71012292E00020FFF715FE002802D18022514B1A6000F0BCFB00F060FA0426002283E04E4B1B68002B7AD041468D
:4008400001297AD102A90A704F8053AA039200210491059104AE069202A8311C9847B2882623FF339A4203D953AB0699994207D0069B002B01D1002A05D1049BDEB25EE04A
:400880000E2600225BE00E26002258E0002256E00426002253E00426002250E00C2600224DE00C2600224AE00426002247E00426002244E00426002241E0042600223EE00D
:4008C000092600223BE0002239E00426002236E00426002233E00426002230E0042600222DE0042600222AE00426002227E00426002224E000239B468027032600221EE0EE
:40090000802700221BE000239B4680270A26002215E00426002212E0032600220FE0042600220CE00426002209E00426002206E0002204E00526002201E005260022301C1D
:4009400052A9FFF797FC01E000239B46002D00D1BDE54346012B00D1B9E59F239B009D443CBC90469946A246AB46F0BD800000203401002038B50020FFF766FD002801D085
:40098000062400E00024154D2B681A68C03A0020C021FFF791FC6B681B78C01AC0B24042C0B2834204D10D4B1B681B68002B02D1002000F063F90A4B1B68402B01D0002CCC
:4009C00005D00022064B1A600020FFF76FFD6420FFF76CFDFFF744FC38BDC046940000208000002082B00F4B00930F4B01930F4B6A461A600E490F4A1160C0461B681B0FE6
:400A00000F2B04D1094B1B68FF20184008E0074B1B681B0F0A2B02D0044B186800E0002002B07047B6E90000380100200800104016000080040010400C4B0D4A1A600D497B
:400A40000D4A1160C0461B681B0F0F2B04D1074B1B68FF20184008E0044B1B681B0F0A2B02D0024B186800E00020704708001040B6E80000150000800400104082B00F4BC6
:400A800000930F4B01930F4B6A461A600E490F4A1160C0461B681B0F0F2B04D1094B1B68FF20184008E0074B1B681B0F0A2B02D0044B186800E0002002B07047B6EA00003A
:400AC0003801002008001040170000800400104030B5A5B0002323932293FF2860D800295ED0041C02A8802200F0AEFD2F4B00937F2301932E4B6A461A602E492E4A11608F
:400B0000C0461B681B0F0F2B04D1294B1B68FF22134008E0264B1B681B0F0A2B02D0244B1B6800E000232393239B002B3AD100F0F0F9051CFFF756FF2290229B002B02D12A
:400B4000FFF77AFF2390239B002B1FD11B4B0093009B200418430090154B6A461A601849154A1160C0461B681B0F0F2B04D1104B1B68FF22134008E00D4B1B681B0F0A2BE6
:400B800002D00B4B1B6800E000232393229B002B02D1FFF773FF2290281C00F0BEF901E004232393239825B030BDC046B6D70000080010400400008004001040B6D8000085
:400BC0000500008038B5041C00F0A3F9051C102C05D8104A136803218B43136016E0202C07D80C490B6803229343023A13430B600CE0302C07D807490B6803229343013A62
:400C000013430B6002E0002000F038F8281C00F084F938BD30001040024A1168024B0B401360704700000740FFFFFFBF034B18688023DB05184000D0012070470000074089
:400C40001F2318401E3B8340181C014B1860704700E100E01F2318401E3B8340181C014B1860704780E100E01F2318401E3B8340181C014B1860704780E200E001BE70478B
:400C800038B5041C0D1C0F2802D90020FFF7F6FFA400034B9C4664442068256038BDC0464000002070B5041C0E1E032E02D90020FFF7E4FF0F2C02D90020FFF7DFFF032555
:400CC0002540ED00063500F024F9A408A400074B9C46644423680322AA409343AE40351C1D43256000F019F970BDC04600E400E0034A13681B041B0C02490B4313607047D0
:400D00000CED00E00400FA0510B5041C06E0084B586800F0F5F8074B9C46644480231B029C42F4D8024B9868604300F0E9F810BD9C0000200080FFFF30B583B000F0CEF840
:400D4000002848D000F0E5F8041C244B1B6807221A409200131C1833214A12681207920FD3401A1C1F4B19681F4B19401F4B53438020C00184466344DB0B013B5B055B0D73
:400D80000B43A02149031943192A02D8184A13430BE0184BD31818781A3A174B9B5CC318FF2B00D9FF239B050B430E4A1360134D2B6801933020FFF705FF114A1368802130
:400DC000C9050B4313601420FFF79EFF019B2B60201C00F0A2F803B030BDC046080F0340280003400800074000F800C040420F000000D43FCDF1FF0F08170000300010402F
:400E000000000740F0B583B0041E182C0BD01C2809D0202807D0242805D0282803D02C2801D0302849D100F074F80190FFF7FEFE002803D0FFF7F0FE012600E00026214AE5
:400E4000136807218B4313601F4BE3181B78DBB21E4A13601E4A13688B4313601D4803687F229343191C1C4BE3181B7813400B430360322000F044F8182C16D9114F3B68E1
:400E80000725AB431A1C231C1C3B9B082B4013433B60322000F034F83A68AA43231C183B9B082C1C1C4014433C60012E01D1FFF743FF019800F031F802E00020FFF7DEFEC5
:400EC00003B0F0BD080F0340CDF1FF0F0C0F0340100F0340180F0340B4F1FF0F034B1B68002B01DA012000E00020704700000740014A024B1A6070476588EDAC38000340CF
:400F00000230800803D001300238FCD1C046C0467047EFF3108072B6704780F3108870470F4B1B685B0619D50E4B1B68DB060BD50D4B1B68002B11D00C4A136000230C4A24
:400F40001360094A136009E0094B1A68074B1B689A4203D0054B1A68054B1A607047C0464C0F08406400084050010020E8010020DC01002010B5094C201D402100F082F8B4
:400F8000201C4430002100F05FF8054800F0D4F80023236000F0AAF810BDC04650010020210F000008B500F0B1F808BDF8B5071C0E1C151C002825D0002925D09C00E4184B
:400FC00064001BE0114B1B78DB0613D5104B1A682A8000220D490A701A602B881A1CB34200D9321C92B2381C0A49043100F02CFB00200AE00120FFF787FE013C002CE1D1EA
:40100000102002E0012000E00120F8BDF0010020E00100205001002038B5031C0C1C00280CD000290CD01180064D281C4430191C221C00F009FB2C60002002E0012000E075
:40104000012038BD5001002038B5002810D00D1C041C0720FFF7FEFD064B1C60064B1D600023064A1360064A13600720FFF7E8FD38BDC046EC010020E8010020DC0100203F
:40108000F401002038B500280ED00D1C041C0720FFF7E0FD054B1C60054B1D600022054B1A600720FFF7CCFD38BDC046F8010020E4010020E001002008B50720FFF7C0FDC9
:4010C00008BDC04608B500F0A3F808BD08B500F039F808BD08B5044A1368802109060B431360FFF7E9FF08BD0000084008B5064B1B78002B04D1FFF7E9FF0122024B1A701A
:40110000FFF7E8FF08BDC046D401002008B50720FFF7A0FDFFF7D6FF054A13685B005B0813600022034B1A600720FFF79DFD08BD00000840880F0840014B58607047C04687
:40114000D401002010B500241B4B1C601B4A1C4B1A601C4B1C4A13601C4A14601C491D4A11601D4A13601D4B1C600720FFF772FD07200321FFF796FD07201949FFF780FDF8
:40118000184B1C60184B1C604C22FF32174B1A60174B1C60174B1C60174B1C603C3AFF3A164B1A70164B1C70164B1C60164B1C60164B1C7010BDC046000008407708004054
:4011C000600008400701008000030840040308401000FE001003084000020840040208401D120000C80E0840880E0840480F0840080F0840C80F0840880F0840FD010020DF
:40120000F0010020DC010020E0010020FC0100201022014B1A707047FD01002010B5CF4B1B68002B00D09847CD4B1B68DB0702D50022CC4B1A60CC4B1B789B061FD4CB4B0E
:401240001A680223FF331A4219D0C74B1B78DB0709D5C74B1A7802218A431A70197809220A431A7008E0C24B1A7820218A431A70197890220A431A700022BB4B1A70BA4B4A
:401280001B789B0600D567E1B74B1B78DB0600D44CE1B64B1B689B073ED50222B54B1A60B54A13681F211940136880221202134000D00123CB18B14A1278D2B29A4205D95E
:4012C000AB4A117804230B43137006E0AB4A12789B1AAB490A68D31A0B60A94B1A68A94B1A600023A84A1360A44A1370A74B1A68802149020A431A601968A54A0A401A6068
:401300009B4B1A7802218A431A70197801220A431A701022944B1A70944B1B681B0737D50822944B1A609B4B1B689B040CD414E0994B1A68994909688A1899490968C9B27D
:4013400011701A6801321A60964B1B68DB06EFD1904A1168944B0B401360944B1B689B0604D5834A117840230B4313700022904B1A60904A8D4B1A607D4B1A7820218A4357
:401380001A70197810220A431A70774B10221A70764B1B685B0646D50122874B1A60874B1B68DB060FD50F32774B1A60754B1A68734B1A606E4A117802230B4313701222E0
:4013C000694B1A7024E07E4B1B68734A12689B1A072B03D80422764B1A6011E0082B06D16C4A1368A02109020B43136008E0694A1368802189010B43136008226C4B1A60EF
:401400005B4A117820230B4313701122564B1A706C4A584B1A606C4A116808230B43136001226A4B1A606A4B1B681B072AD5644B1B68594A1068181A0838082802D9002485
:4014400008200EE001240CE0534B1A68534909688A1853490968C9B211701A6801321A6001380028F0D1002C08D04A4A1368802109020B43136000224D4B1A6008224B4BA8
:401480001A6024E0524B1B685B0720D5444B1B68414A11684A4A126891420DD201214B4A11603D4A11683D4800684118DBB20B7013680133136007E00222444B1A602C4A3F
:4014C000117840230B4313700422384B1A60414B1B68DB0620D43FE0294B1A683E4B1B689A420CD2264B1A683C4909688A181278D2B23B490A601A6801321A600CE0FF228A
:40150000374B1A601D4B1B78DBB20A2B04D81B4A13780133DBB21370174B1B681F221340082BD9D10F3A2F4B1A6015E02E4A13685B005B08136010210B4B1970154B186846
:4015400019490140196018682849014019601368802109060B43136010BDC046D80100208C0E0840880E0840FD0100204C0F0840F0010020400F084008020840FC01002054
:40158000F4010020DC010020880F084004020840FFFFFEFF60000840E0010020F80100204003084008030840FF5FFFFFC00F0840C80F0840ED0F0000800E08406400084041
:4015C000E4010020FF0F0000480F08406C000840CC0F08408C0F0840E8010020EC01002040020840800F084000000840FFFCFFFF014B18687047C046100100200E4B70B58F
:4016000000251E1C0D4CE41AA410A54204D0AB00F35898470135F8E700F084F8084B00251E1C084CE41AA410A54204D0AB00F35898470135F8E770BD301700003017000017
:401640003017000038170000002310B5934203D0CC5CC4540133F9E710BD031C8218934202D019700133FAE77047000000180000780000000000000096030000EE02000055
:40168000FC0200000A03000018030000260300003403000050030000420300005E0300006C0300007A03000088030000CA0500004806000036080000920600002E0700000C
:4016C000360800003C0700006A07000092060000A407000018080000900500003608000036080000360800003608000036080000360800003608000036080000EA05000021
:40170000A911071900320101EEDBC9B9AA9B8E82766B60564D443B332C241D17100A040043000000F8B5C046F8BC08BC9E46704729010000C5010000F8B5C046F8BC08BC9F
:401740009E46704701010000581700009000002088000000E8000000000000006C16000070160000010000000000E02EC05D00001800000000366E0100000000000000004C
:4017800000000000000000000000000000000000000000000000000020170000000000000000000000000000000000000000000000000000000000000000000000000000F2
:4017C000000000000000000000000000000000000000000000000000B000002000000000000000000000000000000000000000000000000000000000000000000000000019
:401800000010002011180000E5310000E531000008B5034B83F3088802F0DCFE01F0EAFC0010002010B5174C12232360182002F04DFE80225200144B1A60144B144A1A60E6
:40184000FE210902134A1160134A1A60002213490A6013491960E02000011249086012491960124B1A604232114B1A60023A114B1A600132104B1A600232104B1A601123CC
:40188000236010BD30001040080301400000014042FF00800003014040FF00800403014041FF00800C03014043FF0080280003400C01014008010140040101400001014062
:4018C00008B572B6F0221205164B1A60164A174B1A60EE22164B1A60AE3A164B1A60C0225203154B1A604122144B1A60D8221204134B1A600123134A13601349134A1160C2
:40190000134A13600322134B1A60A232FF32124B1A609D3AFF3A114B1A60FFF783FF01F0D5FC08BD000002400FEE0000000302400004024000000440080004401800044063
:401940000802044000030440860D0000080304401803044000040440080404401804044010B5064C2378002B07D1054B002B02D0044800E000BF0123237010BDD80100202F
:40198000000000003C56000008B5084B002B03D00748084900E000BF07480368002B00D108BD064B002BFBD09847F9E7000000003C560000DC010020900000200000000088
:4019C00010B5354C2188152001F002FB6188162001F0FEFAA188172001F0FAFA2188C94389B2122001F0F4FA6188C94389B2132001F0EEFAA188C94389B2142001F0E8FAD4
:401A0000264B1B78002B24D0234B1B88244A934203D90022214B1A703CE01F4A528820498A4207D91C4A0133FF3313800023538093802FE0184B9B8819498B4205D9164B5C
:401A400080325A8000229A8024E04033124A938020E0114B1B88002B03D101220F4B1A7018E00D4A5288002A07D10B4A013BFF3B13800C4B538093800CE0074B9B88002B61
:401A800005D1054B803A5A80064A9A8002E0403B014A938010BDC046F401002094000020FE0F0000FF0F000010B5094C0620211C01F08EFA0720211C01F08AFA0820211C5C
:401AC00001F086FA0920211C01F082FA10BDC046FF0F000010B50D4C1520211C01F078FA1620002101F074FA1720002101F070FA1220211C01F06CFA1320002101F068FAF8
:401B00001420002101F064FA10BDC046FF0F000010B51520002101F05BFA0B4C1620211C01F056FA1720002101F052FA1220002101F04EFA1320211C01F04AFA1420002199
:401B400001F046FA10BDC046FF0F000010B51520002101F03DFA1620002101F039FA094C1720211C01F034FA1220002101F030FA1320002101F02CFA1420211C01F028FA50
:401B800010BDC046FF0F000038B5254AD38801339BB2D3809B0641D11289224853009B18195CC3185A7889189A788B18002B02D100221B4B1A811B4D194C23895A00D318A4
:401BC000E95C152001F004FA23895A00D318E95C122001F0FDF923895A00D318EB185978162001F0F5F923895A00D318EB185978132001F0EDF923895A00D318EB1899787F
:401C0000172001F0E5F923895A00D318EB189978142001F0DDF923890133238138BDC046F40100204856000010B50E4B5889013080B258810D2103F029FA89B200290FD1A9
:401C4000084C207B01F0C4F9A089013080B20F2103F01CFA88B2A081C0B2034901F0B8F910BDC046F4010020FF0F000010B5002409E0E0B2194B9B7B5B00194AD318198B26
:401C800001F0A6F90134062CF3DD072409E0E0B2144B5B785B00124AD318198B01F098F901340E2CF3DD0D4A937B013393730D4A5378013353700C4C1520211C01F088F98A
:401CC0001620211C01F084F91220211C01F080F91320211C01F07CF910BDC046F40100204856000094000020FF0F000038B50E4AD37B591CD1730D4C5B00E318188B01F07D
:401D000083F90B4DAB785B00E318198B152001F05FF9AB785A1CAA705B00E318198B152001F056F938BDC046F4010020485600009400002038B50E4A137C591C11740D4C89
:401D40005B00E318188B01F05FF90B4DEB785B00E318198B162001F03BF9EB785A1CEA705B00E318198B162001F032F938BDC046F4010020485600009400002038B50E4AEB
:401D8000537C591C51740D4C5B00E318188B01F03BF90B4D2B795B00E318198B172001F017F92B795A1C2A715B00E318198B172001F00EF938BDC046F401002048560000E9
:401DC0009400002038B5324B588A013080B25882142103F05BF989B2002958D1002001F013F92C4CA0792C4D291C01F0F1F8207A291C01F0EDF8A37A002B09D0254AD388B7
:401E0000013B9BB2D38011890131118193723EE0204AD3880133D3801389013B9BB21381073B59424B41DBB29372002B2FD0184C207D0130C0B2032103F028F92175002089
:401E400001F0EEF8237D012B0ED0002B02D0022B14D01CE0104C1520211C01F0B9F81220211C01F0B5F812E00B4C1620211C01F0AFF81320211C01F0ABF808E0064C172091
:401E8000211C01F0A5F81420211C01F0A1F838BDF401002094000020FF0F000038B5011C284B188B013080B21883002904D003F0EDF889B2002943D1234B9B89002B17D081
:401EC000204B9B7EC02B29D11F4AD2890D2A03D900221D4B9A8121E01B490A8A013292B20A820132CA81887C164A90768B7415E0154B9B7CC02B11D1134A128A012A02D1EA
:401F0000114B9A810AE01049CA89013A92B2CA81013A0A820B4A907E937688740A4C207C084B9A7E511C9976084D5200AA18118BA37C5A1CA2745B00EB181A8B01F04CF8DA
:401F400038BDC046F4010020940000204856000008B5054B5B7D002B01D0102000E00420FFF79CFF08BDC0469400002008B52123044AD35C002B01D0022000E00020FFF748
:401F80008DFF08BD9400002070B50A4A440023189B00D3181D1C1E7D0E705E7D14354E70AD788D70DB698B6020188000101883694B6070BD94000020014BD8767047C0466A
:401FC000F4010020014B187F7047C046F401002010B5041C0A4B587F0D280ED8002C01D0084900E0084900F0CDF9054B5B7F5A00D3189B00054AD3189C75014B1C7710BDB5
:40200000F4010020605800006C5800009400002010B5041E0D2C05D903200F490F4A00F055F917E043001B189B000D4AD3189B7D002B09D00B4900F0A5F963001B199B00D1
:40204000074AD31800229A75074B5C77201C074900F098F910BDC0467858000084580000940000206C580000F40100209C58000008B5154B5A7F0D2A24D853009B189B00F7
:402080001249CB185B7D83421CD153009B189B00CB189B7D002B0CD1101C0D4900F072F9094B5B7F5A00D3189B00084AD31801229A75054B5B7F5A00D3189B00034AD31818
:4020C0009B69984708BDC046F401002094000020A858000038B5041C002511E06B005B199B00094AD3185968201C03F08CFA002805D06B005D19AD00034B585D03E0013571
:40210000082DEBDD092038BDD059000038B5041C002513E06B005B199B000A4AD318196F201C03F070FA002807D06B005D19AD00044B5D196C23E85C03E00135012DE9DD2A
:40214000022038BDD059000038B5041C002512E06B005B199B000A4AD3189968201C03F052FA002806D06B005D19AD00044B5D19287903E00135012DEADD022038BDC046A9
:40218000505A000038B5041C002512E06B005B199B000A4AD318196A201C03F034FA002806D06B005D19AD00044B5D19287F03E00135022DEADD032038BDC046505A0000E9
:4021C00038B5041C002513E06B005B199B000A4AD318596C201C03F016FA002807D06B005D19AD00044B5D194023E85C03E00135032DE9DD042038BD505A000030B585B018
:40220000051C00240DE0E0B201A9FFF7BDFE0399281C03F0F8F9002802D001AB187803E001340D2CEFDD0E2005B030BD38B5041C002513E06B005B199B000A4AD318596FF2
:40224000201C03F0E0F9002807D06B005D19AD00044B5D197023E85C03E00135022DE9DD032038BD505A000038B5041C002512E06B005B199B000A4AD3189969201C03F04F
:40228000C2F9002806D06B005D19AD00044B5D19287D03E00135042DEADD052038BDC046D05A0000014B18787047C0461402002010B5041CFFF7F6FF002806D002F006F885
:4022C000201C00F0AFFC01F0F9FF10BDF0B5474680B488B080460E1C019203AF3A1C234B503313CB13C211CB11C2214C0434201C00218022920003F05CF91E49231C0A1C8B
:4023000023CA23C323CA23C31188198092789A7043469B00D959201C03F053F9201C03F06BF9201814490E2203F03AF9201C311C03F047F9201C03F05FF920180F4913225A
:4023400003F02EF9201C019903F03BF9201C03F053F920180A49032203F022F9201CFFF7A7FF08B004BC9046F0BDC046D05A000014020020345B0000505B0000605B0000DF
:40238000745B000070B584B00D1C01A9FFF7FCFD184C0434201C00218022920003F009F91549231C0A1C43CA43C343CA43C3116819609188998092799A710399201C03F023
:4023C00000F9201C03F018F920180C490E2203F0E7F8201C291C03F0F4F8201C03F00CF920180749032203F0DBF8201CFFF760FF04B070BD14020020785B0000985B0000A0
:40240000745B0000F8B5071C0D1C161C204C0434201C00218022920003F0CBF8201C03F0EBF820181B491E2203F0BAF8381C002100F0A2FE011C201C03F0C3F8201C03F0E9
:40244000DBF8201814490B2203F0AAF8201C291C03F0B7F8201C03F0CFF820180F490D2203F09EF8002E01D00D4900E00D49084C0434201C03F0A5F8201C03F0BDF82018D2
:402480000949032203F08CF8201CFFF711FFF8BD14020020B45B00008C5B0000D45B0000A85B0000B05B0000745B0000014B18707047C04614020020014B18717047C046A6
:4024C00014040020F0B593B0041C2C2103F086F8002806D10230211CC94AFFF7F7FE002077E3451CFFF7F6FD082800D96BE38000C44B1B589F460220211CC34AFFF7E6FE2A
:40250000002066E363001B199B00C04AD31859689A680020FFF7DAFE013400E00024082CF0DD002409E0E0B20FA9FFF72DFD119A0020B749FFF7CAFE01340D2CF3DD0120C1
:4025400047E3281C2C2103F049F8002806D10230211CB04AFFF7BAFE00203AE301303A2103F03CF8002806D10230211CA94AFFF7ADFE00202DE3451C281CFFF721FE012851
:402580000BD0002804D002280CD003280FD013E00120FFF711FD01201BE30020FFF70CFD012016E30020FFF713FD012011E30120FFF70EFD01200CE3281CFFF71FFE0E28CA
:4025C00003D0FFF725FD012003E30220211C914AFFF77CFE0020FCE2281C2C2102F0FEFF002806D10230211C8B4AFFF76FFE0020EFE201303A2102F0F1FF002806D102308B
:40260000211C854AFFF762FE0020E2E20130FFF70DFE01280BD0002802D002280ED014E00320211C7D4AFFF751FE0120D1E20320211C7A4AFFF74AFE0120CAE20320211C59
:40264000764AFFF743FE0120C3E20220211C744AFFF73CFE0020BCE2281CFFF705FE061E042E00D9D4E180006E4B1B589F46002000F0BEFC0120ACE2281C2C2102F0AEFF37
:40268000002806D10230211C624AFFF71FFE00209FE201303A2102F0A1FF002806D10230211C614AFFF712FE002092E201303A2102F094FF002806D10230211C5A4AFFF762
:4026C00005FE002085E2451C281C2C2102F086FF002806D10230211C534AFFF7F7FD002077E200230370471C281C00F023FD0190381C3A2102F072FF002806D10230211C1B
:402700004A4AFFF7E3FD002063E2471C381C2C2102F064FF002806D10230211C444AFFF7D5FD002055E200230370451C381C00F001FD071C281C3A2102F050FF002806D11B
:402740000230211C394AFFF7C1FD002041E2013000F0F0FC041C012E0ED16B469988152000F036FCB9B2162000F032FCA1B2172000F02EFC01202CE26B469988122000F086
:4027800027FCB9B2132000F023FCA1B2142000F01FFC01201DE2281C2C2102F01FFF002806D10230211C1B4AFFF790FD002010E201303A2102F012FF002806D10230211C91
:4027C0001C4AFFF783FD002003E201303A2102F005FF002806D10230211C174AFFF776FD0020F6E1461C301C2C2102F0F7FE002824D10230211C104AFFF768FD0020E8E13B
:40280000685C000098590000845C0000D05900008C5C0000985C0000B85C0000D45C0000EC5C0000BC5900000C5D00002C5D0000505D0000745D0000905D0000002303706A
:40284000451C301C00F076FC061E0E2E06D90220211CD14AFFF73AFD0020BAE1281C3A2102F0BCFE002806D10230211CCB4AFFF72DFD0020ADE1013000F05CFC011CF0B2D4
:4028800089B200F0A5FB0120A3E1281C2C2102F0A5FE002806D10230211CC14AFFF716FD002096E101302C2102F098FE002806D10230211CBA4AFFF709FD002089E101303A
:4028C0003A2102F08BFE002806D10230211CB44AFFF7FCFC00207CE1002303930493059306930793089309930A930B930C930D930E930130222102F071FE002806D10230B8
:40290000211CA74AFFF7E2FC002062E1451C281C00F010FC03AB5885281C2D2102F05EFE002806D10230211C9D4AFFF7CFFC00204FE1451C281C00F0FDFB03AB9885281C24
:402940002D2102F04BFE002806D10230211C944AFFF7BCFC00203CE1451C281C00F0EAFB03ABD885002614E0281C2D2102F036FE002806D10230211C894AFFF7A7FC002046
:4029800027E1451C281C00F0D5FB720003ABD05201360E2EE8DD281C2D2102F01FFE002806D10230211C7E4AFFF790FC002010E1451C281C00F0BEFB03AB9884281C2D211C
:4029C00002F00CFE002806D10230211C744AFFF77DFC0020FDE0451C281C00F0ABFB03ABD884281C2D2102F0F9FD002806D10230211C6B4AFFF76AFC0020EAE0013000F0FA
:402A000099FB03AB1885181C00F01EFA0120E0E00220211C634AFFF759FC0020D9E0281C2C2102F0DBFD002806D10230211C5E4AFFF74CFC0020CCE001303A2102F0CEFDA6
:402A4000002806D10230211C574AFFF73FFC0020BFE00130FFF75AFB002806D0012809D10020FFF729FD0120B3E00120FFF724FD0120AEE00220211C4B4AFFF727FC0020D6
:402A8000A7E0281C2C2102F0A9FD002806D10230211C464AFFF71AFC00209AE001303A2102F09CFD002806D10230211C3F4AFFF70DFC00208DE00130FFF746FB002806D0C2
:402AC000012809D10020FFF7F1FC012081E00120FFF7ECFC01207CE00220211C334AFFF7F5FB002075E0281C2C2102F077FD002806D10230211C2E4AFFF7E8FB002068E07D
:402B000001303A2102F06AFD002806D10230211C274AFFF7DBFB00205BE0451C281CFFF731FB012804D0002807D002280AD02BE0002000F045FB01204BE0012000F040FBF0
:402B4000012046E0281C2C2102F048FD002806D10230211C164AFFF7B9FB002039E001303A2102F03BFD002806D10230211C104AFFF7ACFB00202CE0013000F0DBFA80B226
:402B800000F024FB012024E00220211C084AFFF79DFB00201DE0C046A85D00002C5D0000BC5D0000DC5D0000B85C0000F45D0000145E000000F012FB021C01200649FFF747
:402BC00085FB012005E00220211C044AFFF77EFB002013B0F0BDC046305E0000385E000010B58024A4000548211C01F0B5FD0448211C01F0CFFD01F00BFD10BD1C040020F3
:402C00001C06002008B501F079FDC006C00F08BD08B501F0DFFD01F08BFD08BD004870471C06002038B5041C02F0E6FC021C1148211C02F0B5FC00F0CBFA041C0D1C012074
:402C400001F0CEFD0AE000F0C3FA1022002312196B41994206D801D1904203D801F04EFDC307F0D501F0B0FD01F04EFD002001F0B7FD38BD1C040020162801D880B200E0D5
:402C80001720172800D9DAE080006D4B1B589F466C4A09050B0D9189090B090319439181CDE0684A09050B0DD189090B09031943D181C4E0634A09050B0D118A090B090318
:402CC00019431182BBE05F4A09050B0D518A090B090319435182B2E05A4A09050B0D918A090B090319439182A9E0564A09050B0DD18A090B09031943D182A0E0514A0905A9
:402D00000B0D118B090B09031943118397E04D4A09050B0D518B090B0903194351838EE0484A09050B0D918B090B09031943918385E0444A09050B0DD18B090B09031943AC
:402D4000D1837CE03F4A09050B0D118C090B09031943118473E03B4A09050B0D518C090B0903194351846AE0364A09050B0D918C090B09031943918461E0324A09050B0D99
:402D8000D18C090B09031943D18458E02D4A09050B0D118D090B0903194311854FE0294A09050B0D518D090B09031943518546E0244A09050B0D918D090B090319439185FE
:402DC0003DE0204A09050B0DD18D090B09031943D18534E01B4A09050B0D118E090B0903194311862BE0174A09050B0D518E090B09031943518622E0124A09050B0D918E3E
:402E0000090B09031943918619E00E4A09050B0DD18E090B09031943D18610E0094A09050B0D118F090B09031943118707E0054A09050B0D518F090B0903194351877047F2
:402E4000246200006C080020C28D604B1205110D9A89120B12030A439A81828D1205110DDA89120B12030A43DA81428D1205110D1A8A120B12030A431A82028D1205110D44
:402E80005A8A120B12030A435A82C28C1205110D9A8A120B12030A439A82828C1205110DDA8A120B12030A43DA82428C1205110D1A8B120B12030A431A83028C1205110D88
:402EC0005A8B120B12030A435A83C28B1205110D9A8B120B12030A439A83828B1205110DDA8B120B12030A43DA83428B1205110D1A8C120B12030A431A84028B1205110D44
:402F00005A8C120B12030A435A84C28A1205110D9A8C120B12030A439A84828A1205110DDA8C120B12030A43DA84428A1205110D1A8D120B12030A431A85028A1205110DFF
:402F40005A8D120B12030A435A85C2891205110D9A8D120B12030A439A8582891205110DDA8D120B12030A43DA8542891205110D1A8E120B12030A431A8602891205110DBB
:402F80005A8E120B12030A435A86C2881205110D9A8E120B12030A439A8682881205110DDA8E120B12030A43DA8642881205110D1A8F120B12030A431A8702881205110D77
:402FC0005A8F120B12030A435A8770476C08002008B5FFF751FE08BD38B5041C151CFFF74BFE0134E0B2291CFFF746FE38BDC04638B5051C002404E0E0B2291CFFF73CFE9B
:403000000134172CF8DD38BD38B5051C002404E0E0B2291CFFF730FE01340E2CF8DD38BD38B5051C0F2404E0E0B2291CFFF724FE0134172CF8DD38BD7047C04670B590B08C
:4030400068460021402202F0B4FA002416E00D4EE500A85D00F0D0FA75196B7898420BD0084DE600705D00F0C7FAC2B2AB195A70705D5968FFF7C6F90134E4B2002CE6D095
:4030800010B070BD5001002010B562B6FFF7D4FFFFF7A6FD00F038F9FFF7B4FD00282DD0FFF700F9002802D10130FFF7FFF9FFF7B5FD041C03787B2B06D102F09DFA0138FB
:4030C000201803787D2B05D002201649164AFFF7FDF811E000230370601CFFF7F3F9002805D102300021114AFFF7F0F804E0002000210F4AFFF7EAF8FFF78AFDFEF762FF3C
:40310000002802D00120FEF7B3FF00F09BFB0028C2D100F021F91128BED0FFF78FFF00F0C9FBB9E7E05B000084620000A4620000C462000010B500E001300378202BFBD02F
:403140002D2B02D10130012405E02B2B02D10130002400E0002400230278303A092A05D89900CB185B009B180130F5E7002C01D0584200E0181C10BDF8B50E1C041C0D1C21
:403180000E4F1537013F201C291C0A22002301F089FF30323A70201C291C0A22002301F081FF041C0D1C0B1C0343EBD1002E02DA013F2D333B70381CF8BDC0462008002072
:4031C000014B18707047C046580100207047C046014B9869D96970472008002000487047D462000008B502F0AFF903680C2B00D1FEE7FEE770B50F4E0F4D13E029686B687C
:40320000AC68002202E001C901C30432A242FAD1E868002202E0002102C304328242FAD11035013E002EE9D102F094F9FFF72CFFFEE7C046010000007463000008B5002355
:403240000AE0032B03D89A000C49505800E00C4899000C4A885001331F2BF2D9FEF730FB0022094B1A60094B1B68002B01D1074B1A6080229205064B1A6008BD00180000EF
:40328000E531000000000020880000208000002008ED00E00B4B1B68002803D080221206134301E05B005B08064A1360064B1B68002802D02022134301E020229343024ACA
:4032C00013607047002002402800034008B50122024B1A600120FFF7DDFF08BDC0020B4008B5084B1B78002B06D100F051F900F095F90122034B1A7000F052F800F0B8FB36
:4033000008BDC0464008002038B5FFF7E9FF051E02D100F011FB051C002D02D100F0CAFA051C002D12D101F070FA041C07E001F039F9201C01F06DFA01F067FA041C00F01C
:4033400081FA0028F3D1201C01F063FA00F0C2F900F0A6F9281C38BD70B50F4E0024002515E06B0902339B000C4AD3185A681F232B40DA40131CDB0707D5301C00F062F898
:40338000041C281C311C00F0D7F820360135002DE7D0201C70BDC046E0620000A808002070B500230BE01348191D890000220A509A1C920082180121494251600133002B44
:4033C000F1D00D4C012310E06668227E094B5B1900211975012A06D12069002803D0F179E28A02F0E6F820342B1C5D1E002BEBD170BDC046A8080020E062000010B582B055
:40340000041C131C428868460280228A081C694601F042FD6B461B8863806B469B7823716B46DB7863716B461B79A37102B010BD0B884A889B1A0022CA8002799A4200DA9E
:40344000CB807047F0B55F4656464D46E0B482B08246037E062B02D10122934601E0002293465246D26891465246946856680093D76900250023019321E04846211C009AD6
:4034800000F0CEF92088318A3A1C01F031FD301C391C2A1CFFF7B2FF0C37301C211C009A00F058F90190301C211CFFF7C1FF0A345B46002B02D102339C46E1440135534690
:4034C000DB8AAB42D9D8019802B01CBC91469A46A346F0BDF0B5CA8A8D684F680B69012125E00C1C044003D17E88BA79B21802E07A88BE79921BEE88B24201D3002200E0CE
:403500000A1CA24202D01E78013E1E70A24202D01C78002C07D188431043002A01D1FA7900E001221A7049000A3501336246541EA446002AD5D1F0BD38B5041C0A7E134BB4
:403540001B181D7D012A04D1281CFFF7C3FF051C02E0002000F002FF0C4B1B191D7563091F2214401E3AA240141C002D06D1074904339B005A58A2435A5005E0034A043316
:403580009B0099580C439C5038BDC046A808002038B5164D281C00213C2202F00AF8144B2B80B0235B006B80593BFF3BEB82073B2B76104C281C1A30211C2431122201F090
:4035C000EFFF221C043401230CE0A168E38A04E013784B7201320A31031C581E002BF7D120342B1C5D1E002BEFD138BDA808002086520000DC62000000280BD11F2202405C
:40360000012393401A1C430904339B0002495858104000E000207047A80800200023024A9380024A13607047A808002058080020C9B2062902D08318002119715300195A9D
:40364000C3185980821800231372704770B54001094B18188B005918490083685C18067E012305E0201C311C2A1CFFF7E1FF2B1C5D1E002BF6D170BDE062000038B5051CAC
:403680004301064AD318DB8A04E0281C211CFFF7DDFF231C5C1E002BF7D138BDE062000010B5012303E0201CFFF7E8FF231C5C1E002BF8D110BDC04630B5012306E0D3B233
:4036C000062B02D063005D5A1D52231C5C1E002BF5D130BDF0B5474680B4012328E07301164AD3185A689046DB8A1DE07301134AD318A900491949009A685718D968081C76
:403700006A0052199200DC69A4181A7E062A01D068000818391CFFF7CFFF38884346198A221C01F0D9FB2B1C5D1E002BDED1331C5E1E002BD3D104BC9046F0BDE06200003D
:403740009840031C534380204000801A41435818000A7047F0B583B0071C0E1C019201233BE06300985BF3185988884205D3431A321900251572012201E00B1A0022002AE9
:4037800011D17D799D420ED233191B7A3A7A934205D3301C0199221CFFF74AFF1CE032190133137218E03D799D4204D27D799D4212D9002A10D16B461B79062B0CD0090242
:4037C00035192B79194302220823FFF7B9FF020A6300F3185A802871231C5C1E002BC0D1002003B0F0BDC046F0B583B0061C0F1C019201230EE06B461B79062B09D0650018
:40380000E85BA95B80220023FFF79AFF80B2A853E853231C5C1E002BEDD103B0F0BDC04608B5FFF7E1FF08BD024A1168024B0B401360704700020B40FFFFF8FD06230B73B7
:403840007047C046024B9B68802018407047C046A808002010B50F4B9B68DB030FD400280FD1430902339B000A4AD3185A681F230340DA40131CDB0705D4012404E01124E7
:4038800002E0012400E00024002C01D100F0A0FB201C10BDA808002008B5054B9B68DB0303D400F01BFB002000E0112008BDC046A808002010B50C4B9B681B0612D40024BA
:4038C000012040420BE0201CFFF7C4FF002805D10022064B1A70FFF7DFFF04E00134002CF1D000E0112010BDA80800205C0800207047C046074A084B1A6001380002074BD6
:403900001860054B1B68002BFBDB054A024B1A607047C04640000040000001400003014040FF0080034A13681B0B1B03013818431060704700020B40F0B5474680B488B0F2
:4039400001ACFA239B002380394B638096235B01A3805523E373374B197E374801F010FBA0810022354B5A70FFF75EFF002398460024002730E06301314AD3185D680C2344
:403980002B8001AEB0892F4901F0FAFAE872201C552100F0FFFB2B1C0A33336101337361301C01F00BFA8046274B984200D9062701AB9B89204A934205D8EB7A012B0AD848
:4039C0000223EB7207E0214A934204D8EB7A072B01D80823EB720134002CCCD00122174B5A70013201AB9A7300241AE06301144AD3185E68331C0A3301AD059301330693E2
:403A000043460393F389EB80331C10330793201C552100F0BFFB0743281C01F003FA30800134002CE2D0381C08B004BC9046F0BDE5070000A8080020C05D00005C0800200D
:403A4000E0620000DC050000870D010080BB000010B5002407E06301044AD3185968201CFFF7ECFE0134002CF5D010BDE062000008B5FFF7EDFF00F097F8002008BDC046CB
:403A800070B5002512E06B010A4A9E58002406E0E000001B8000301800F068FA01346B01044AD3189B7DA342F2D80135002DEAD070BDC046E062000010B50F4B1B6870228E
:403AC00093431C1C0D4B197E0D4801F059FA0D4B984204D820232343074A13600BE0084B984204D830232343034A136003E040232343014A136010BD5C010020A8080020C4
:403B000000366E01001BB700034A044B1A60C1225204034B1A60704700008301C0010B40C4010B40064A136806490B431360064A064B1A60C1225204054B1A607047C046EA
:403B4000A8020B400100001000008301C0010B40C4010B4070B50D1C161C04880123A3401C1C013CA00000194000642101F008FA01302B18A34200D9231C854201D3281A58
:403B800000E00020864203D39E4203D9062002E0062000E0002070BD01390843014B18607047C04600020B4010B5FFF769FF0024284B1C60284B1C600122284B1A60284B55
:403BC0001C60284B1C60284B1C60284B1C60284A1460284B1C6028490868284B0340C020C00103430B6026490B688020400103430B601021234B196023490B6823480343A2
:403C00000B6080235B0422490B602248224908601360224A224B1A60FFF776FF214B187EFFF768FEFFF748FF1F4B1B681F4A13431F4A1360482000F0DFFD0F221D4B1A6069
:403C40001D4B1C60053A1D4B1A60C02212031C4B1A6010BDF4000B40B4020B40C0020B4020030B4084010B4088020B4080020B4084020B4080010B4000040240FF0FFFFF7E
:403C800094020B40A0020B40A8020B4001000010A4020B404112000088010B400000030190020B40A80800205C0100200010008000000B4000030B40F0010B4010030B4027
:403CC00004020B4038B5041C00F09FFD0A490B687F25AB43094A1278A418A47A23430B6007490B68AB43074C2468A218527A13430B6000F08EFD38BDC0010B403063000014
:403D0000C4010B40E408002008B5021C01238B40581E002A02D0111C01F032F9024B1B78012B00D1800808BD5D08002008B5094B1B785B01084AD3185B68D97A074B1B78FB
:403D4000012B03D10648FFF727FF02E0081CFFF7E9FD08BD5F080020E06200005D0800200000060208B5031CC07A19881A7BFFF7CBFF0004000C014B186008BD14030B40D5
:403D800010B50A2000F0D6FA0124324B1C60182000F032FD0023304A1360304A136006222F4B1A600A322F4B1A60802252042E4B1A602E4B1C60832252002D4B1A60033A90
:403DC000FF3A2C4B1A60013A2B4B1A60F0235B0000E0013B264A1268520701D4002BF8D1002B02D10822244B1A6000241A4B1C601A4B1C60832252001D4B1A600A2000F0EE
:403E0000A3FA0A2000F08CFA154B1C60154B1C60154B1C605022154B1A604F3A174B1A600C4B1C60164A1368802149040B4313600222104B1A60F0235B0000E0013B114AC5
:403E40001268520701D0002BF8D10F4A0A4B1A6010BDC04680010B40B0020B40B4020B4088020B4080020B4084020B40F0010B40F0000B40F8000B4040030B408C010B4052
:403E800000020B4000000B400103000008B5044A044B91680B439360FFF772FF08BDC046A80800208000010070B5041C857E067E00F0ABFC23681B680F22B24093431A1CAF
:403EC0000423B3401343666832680721A9408A4332602268136000F09CFC70BD70B5144E3378144D5B01EB185868134C0023237033785B01EB189968227893009B185B00BB
:403F0000CB180E4A1360FFF7DDFE33785B0158592178CA00531A9B00C018094B1860FFF7C3FF084800F0DAF9FFF7B0FF70BDC0465F080020E06200005E080020E40800203D
:403F4000E80800208D48000008B54001054BC058CB00591A89004018034B1860FFF7A4FF08BDC046E0620000E808002038B5041C007EA57E21680B680F22824093430B607D
:403F800000F043FC61680B680722AA4093431A1C0623AB4013430B6000F03BFCA1680B68607E0122824093430B6038BD08B5064B1B78012B06D1054B1868FFF7D7FF0022A4
:403FC000014B1A7008BDC04660080020E808002070B5041C0E4E4301F3185D68FFF7E6FFE4B20C490C700B785B019A590A4B1A600A4A7F2390689843031C906009780B4349
:404000009360281CFFF7AEFEFFF790FE70BDC046E06200005F080020E8080020A808002038B54301124AD3185D68C9B2114C21709968227893009B185B00CB180E4A1360B7
:40404000FFF7C6FF281CFFF73DFE20780B4AC300181A800013689C4660441060FFF724FF0122074B1A70074800F038F938BDC046E06200005E080020E4080020E8080020D6
:404080006008002019480000074B1A687F210A40064802431A60064A13680B40802109040B4313607047C046C0010B4000008301C4010B40F0B5474680B482B0071C0E1C85
:4040C00090462C4A13785B012B49CB185B680193402333701078C0B2284B1978C9B2FFF79FFFFFF7D1FF4025FFF7D0FE244A00E0013A244B1B7A5BB2002B01DA002AF7D14B
:40410000214B1B681C88BC4202D23378AB4333706D0833782B4333700198FFF7D3FD002DE2D1144B1B785B01134A9858134B1978CA00531A9B00C018144B1860FFF716FF58
:404140000022134B1A70FFF7EDFC0198391C221CFFF700FD43461A7833789A4201D242461370094B1B6832785A7202B004BC9046F0BDC0465F080020E06200005E08002020
:4041800033330000A8080020E4080020E808002060080020F0B54F4680B484B0051C89464301354AD3185F68012303AA137038888340181C01384843642100F0E1FE01906A
:4041C000EAB22E4B1A702E4800F088F83C1C0A3400222C4B1A7000260AE00198211C03AAFFF768FF0643274A13780133DBB213706B01214AD318234A12785B7E9342ECD8DD
:4042000003AB1B7801335B08BB7200221D4B1A7021E06B01184AD3189A681A4B1B789C00E41864001419184B1C60637AB87A83420AD31B1AD8B260724B4658436330642123
:4042400000F09EFE607201E0002363720D4A13780133DBB213706B01074AD318094A12785B7E9342D5D80022064B1A70301C04B004BC9146F0BDC046E06200005F080020F1
:40428000194800005E080020E4080020014B98667047C0460000002010B5041C00F0B5FA044A1168044B0B40A4051C43146000F0B0FA10BD08E400E0FFFF3FFF8022D200A0
:4042C000014B1A607047C04600E100E08022D200014B1A607047C04680E100E010B5041CFFF7F4FF201CFFF7D1FF0320FFF7D4FFFFF7E4FF10BDC046024A1168024B0B407D
:404300001360704700000740FFFFFFBF034B18688023DB05184000D001207047000007401F2318401E3B8340181C014B1860704700E100E01F2318401E3B8340181C014B5C
:404340001860704780E100E01F2318401E3B8340181C014B1860704780E200E001BE704738B5041C0D1C0F2802D90020FFF7F6FFA400034B9C4664442068256038BDC046D9
:404380004000002070B5041C0E1E032E02D90020FFF7E4FF0F2C02D90020FFF7DFFF03252540ED00063500F030FAA408A400074B9C46644423680322AA409343AE40351C73
:4043C0001D43256000F025FA70BDC04600E400E010B5041C06E0084B586800F00DFA074B9C46644480231B029C42F4D8024B9868604300F001FA10BD600100200080FFFF10
:4044000030B583B000F0DCF8002848D000F0FDF9041C244B1B6807221A409200131C1833214A12681207920FD3401A1C1F4B19681F4B19401F4B53438020C0018446634471
:40444000DB0B013B5B055B0D0B43A02149031943192A02D8184A13430BE0184BD31818781A3A174B9B5CC318FF2B00D9FF239B050B430E4A1360134D2B680193302000F0D0
:4044800089FA114A13688021C9050B4313601420FFF79EFF019B2B60201C00F0BAF903B030BDC046080F0340280003400800074000F800C040420F000000D43FCDF1FF0FC4
:4044C000346300003000104000000740F0B583B0041E182C0BD01C2809D0202807D0242805D0282803D02C2801D0302849D100F08CF90190FFF70AFF002803D0FFF7FCFE3E
:40450000012600E00026214A136807218B4313601F4BE3181B78DBB21E4A13601E4A13688B4313601D4803687F229343191C1C4BE3181B7813400B430360322000F05CF96F
:40454000182C16D9114F3B680725AB431A1C231C1C3B9B082B4013433B60322000F04CF93A68AA43231C183B9B082C1C1C4014433C60012E01D1FFF743FF019800F049F93A
:4045800002E00020FFF7EAFE03B0F0BD080F0340CDF1FF0F0C0F0340100F0340180F0340B4F1FF0F08B500F030F9044A136804218B43136030BF00F02CF908BD10ED00E00D
:4045C000034B1B68002B01DA012000E00020704700000740014A024B1A6070476588EDAC3800034008B50720FFF79AFE08BDC04608B500F01DF808BD08B5044A1368802110
:4046000009060B431360FFF7EDFF08BD0000084008B5064B1B78002B04D1FFF7E9FF0122024B1A70FFF7E8FF08BDC0466408002010B500241B4B1C601B4A1C4B1A601C4B96
:404640001C4A13601C4A14601C491D4A11601D4A13601D4B1C600720FFF76CFE07200321FFF790FE07201949FFF77AFE184B1C60184B1C604C22FF32174B1A60174B1C6028
:40468000174B1C60174B1C603C3AFF3A164B1A70164B1C70164B1C60164B1C60164B1C7010BDC0460000084077080040600008400701008000030840040308401000FE005E
:4046C000100308400002084004020840E9490000C80E0840880E0840480F0840080F0840C80F0840880F0840EC08002004090020F0080020F408002010090020014B187813
:40470000C0B270470409002010B50720FFF712FE064A14780F231C4013780D218B4313700720FFF7FDFD201C10BDC0460409002010B50720FFF7FEFD064B1C780F229443A0
:40474000197820320A401A700720FFF7E9FD201C10BDC0460409002038B5002810D00D1C041C0720FFF7E6FD064B1C60064B1D600023064A1360064A13600720FFF7D0FDD7
:4047800038BDC04600090020FC080020F00800200809002038B500280ED00D1C041C0720FFF7C8FD054B1C60054B1D600022054B1A600720FFF7B4FD38BDC0460C090020C7
:4047C000F8080020F40800200022014B1A607047F00800200022014B1A607047F408002004490A68FB231A408000F73B1840104308607047000404400230800803D0013052
:404800000238FCD1C046C0467047EFF3108072B6704780F31088704783225200134B1A60134B1B785B01134AD3185B68124A12681204120C198801238B40013B9A4206D2EA
:404840000E4B19680E4B1B785B00CA5205E00B4A11680B4A127852008B520A4BDA880132DA80094A99680A409A607047F0000B405F080020E0620000D0000B40E40800207C
:4048800030630000A80800207FFFFEFF38B5374B1A78374C52011059364A1578E9004A1B9200801883214900334A11601B785B01E3185B68314A12681204120C19880123DF
:4048C0008B40013B9A4206D22D4B19682D4B1B785B00CA5205E02A4A11682A4A127852008B52FFF743FB214B1A78214952018A1850681B785B01CB189B7D1E4A1278013B22
:4049000093421BD91B4C23780133DBB22370174D2B785B01CB189968227893009B185B00CB18174A1360FFF7CDF92878C0B22178C9B2FFF709FBFFF723FA15E000220D4BC1
:404940001A70114A114B91680B409360104A1278012A02D1FEF7CCFF06E00B4A80218B439360D3880133D38038BDC0465F080020E06200005E080020F0000B40D0000B40FE
:40498000E408002030630000A8080020FFFFFEFF5C08002038B5041CFFF737FF051C102C05D8104A136803218B43136016E0202C07D80C490B6803229343023A13430B607B
:4049C0000CE0302C07D807490B6803229343013A13430B6002E00020FFF7C0FC281CFFF718FF38BD3000104010B5CF4B1B68002B00D09847CD4B1B68DB0702D50022CC4B93
:404A00001A60CC4B1B789B061FD4CB4B1A680223FF331A4219D0C74B1B78DB0709D5C74B1A7802218A431A70197809220A431A7008E0C24B1A7820218A431A701978902212
:404A40000A431A700022BB4B1A70BA4B1B789B0600D567E1B74B1B78DB0600D44CE1B64B1B689B073ED50222B54B1A60B54A13681F211940136880221202134000D001237E
:404A8000CB18B14A1278D2B29A4205D9AB4A117804230B43137006E0AB4A12789B1AAB490A68D31A0B60A94B1A68A94B1A600023A84A1360A44A1370A74B1A6880214902C5
:404AC0000A431A601968A54A0A401A609B4B1A7802218A431A70197801220A431A701022944B1A70944B1B681B0737D50822944B1A609B4B1B689B040CD414E0994B1A684E
:404B0000994909688A1899490968C9B211701A6801321A60964B1B68DB06EFD1904A1168944B0B401360944B1B689B0604D5834A117840230B4313700022904B1A60904A56
:404B40008D4B1A607D4B1A7820218A431A70197810220A431A70774B10221A70764B1B685B0646D50122874B1A60874B1B68DB060FD50F32774B1A60754B1A68734B1A6099
:404B80006E4A117802230B4313701222694B1A7024E07E4B1B68734A12689B1A072B03D80422764B1A6011E0082B06D16C4A1368A02109020B43136008E0694A1368802132
:404BC00089010B43136008226C4B1A605B4A117820230B4313701122564B1A706C4A584B1A606C4A116808230B43136001226A4B1A606A4B1B681B072AD5644B1B68594A01
:404C00001068181A0838082802D9002408200EE001240CE0534B1A68534909688A1853490968C9B211701A6801321A6001380028F0D1002C08D04A4A1368802109020B43FE
:404C4000136000224D4B1A6008224B4B1A6024E0524B1B685B0720D5444B1B68414A11684A4A126891420DD201214B4A11603D4A11683D4800684118DBB20B7013680133DD
:404C8000136007E00222444B1A602C4A117840230B4313700422384B1A60414B1B68DB0620D43FE0294B1A683E4B1B689A420CD2264B1A683C4909688A181278D2B23B493B
:404CC0000A601A6801321A600CE0FF22374B1A601D4B1B78DBB20A2B04D81B4A13780133DBB21370174B1B681F221340082BD9D10F3A2F4B1A6015E02E4A13685B005B080C
:404D0000136010210B4B1970154B186819490140196018682849014019601368802109060B43136010BDC046680800208C0E0840880E0840EC0800204C0F08400409002056
:404D4000400F0840080208401009002008090020F0080020880F084004020840FFFFFEFF60000840F40800200C0900204003084008030840FF5FFFFFC00F0840C80F084037
:404D8000ED0F0000800E084064000840F8080020FF0F0000480F08406C000840CC0F08408C0F0840FC0800200009002040020840800F084000000840FFFCFFFF70B5041CBA
:404DC000FA26036980881D78E37BB60058431349704300F0D5F875436188684300F0D0F8051C2088311C684300F0CAF8A3890C49584300F0C5F8013063691022082809D88F
:404E00000822042806D80422022803D801D1187001E001221A70281C70BDC046F049020000E1F50538B5041C63698089197800F0A7F8051C60880304181A23691978A38812
:404E4000594300F09DF8A37B1149DD40684300F097F8E3880A21584300F092F800230D4AA16810258A425B410222D31A62325343984203D9013DEDB24008F9E74B2364219E
:404E8000584300F07DF8A4692080281C38BDC046A0860100A761000010B50024A34200D00C880088131C800080B2824200D2031C9AB2A24200D2231C9AB20B805308FF2BEA
:404EC00001D9FF2300E0DBB28B70CB70D308FF2B00D9FF230B7110BD8B0813800F2393720023C90851809080D0801081D3727047937A30B594885B00041B9080DBB2002C6A
:404F000001DB937202E00133937264420F23957A1D40538895729C4203D2012B03D9013B00E0013353800F2D05D0002D03D053889D00AC4204D90023D0801081D3721DE0D7
:404F4000D488844201D9D08003E01489844200D21081D07A092802D80130D0720EE01089D488001B80B2834204D989088B4203D9013B00E0013353805388138030BD0000EA
:404F8000002243088B4274D303098B425FD3030A8B4244D3030B8B4228D3030C8B420DD3FF22090212BA030C8B4202D31212090265D0030B8B4219D300E0090AC30B8B4280
:404FC00001D3CB03C01A5241830B8B4201D38B03C01A5241430B8B4201D34B03C01A5241030B8B4201D30B03C01A5241C30A8B4201D3CB02C01A5241830A8B4201D38B0241
:40500000C01A5241430A8B4201D34B02C01A5241030A8B4201D30B02C01A5241CDD2C3098B4201D3CB01C01A524183098B4201D38B01C01A524143098B4201D34B01C01AB5
:40504000524103098B4201D30B01C01A5241C3088B4201D3CB00C01A524183088B4201D38B00C01A524143088B4201D34B00C01A5241411A00D20146524110467047FFE711
:4050800001B5002000F00CF802BDC0460029F7D003B5FFF775FF0EBC4243891A1847C0467047C046002B15D1002A13D1002906DB01DC002806D00020C043410802E0802148
:4050C0000906002007B4024801A14018029003BDD1FFFFFF03B4684601B5029800F006F8019B9E4602B00CBC7047C046F0B583B0161C1F1C0090019100F058F8041C0D1C18
:40510000221C2B1C301C391C00F026F8009A019B121A8B410899201C0A604B60291C03B0F0BDC046F0B5141C83B01D1C0090019100F034F9221C2B1C061C0F1C00F00CF82A
:40514000009A019B121A8B410899301C0A604B60391C03B0F0BDC046F0B54F46464605042D0C2C1CC0B41704160C3F0C9946030C7C4375435F4373437D19260CAD199C46CB
:40518000AF4203D980235B029846C4444B465143434324042E0C240C2D0466442C1959188919201C0CBC90469946F0BDF0B544465F4656464D46F0B41C1C85B0002900DA4F
:4051C000A9E00F1C0021061C8846101C191C002C00DA97E0341C3D1C82468946B94273D870D04946504600F085F98346391C301C00F080F95B46181A031C8346203B9C46E8
:4052000000D59CE00023002251460092019363469940019151468140019B0091BB4200D983E000D17EE0009A019B341C3D1CA41A9D416346002B00DA9AE000260027029692
:40524000039701369E400396012686400296002800D171E00099019AD30799464B464E081E435708002301220CE0AF4201D1A6420AD8A41BBD4124196D410138A4185D4189
:40528000002806D0AF42F0D9013824196D410028F8D12022029E039F5B46524236196F4199185AD4281CC8402C1C5B46DC40002968DB041C8C40231C59468840021CB61A4D
:4052C0009F4103E0B0428CD90026002741464B1E9941002300910193009A019B002554429D41331C6340181C3B1C6B40191C009B019CC018614105B03CBC90469946A2460D
:40530000AB46F0BD4346DB430C1C9846131C00215842A1415EE7002746428F4101214942884652E7B14200D87DE70026002702960397002800D08DE7029E039FC6E7202194
:405340005346091ACB400022191C0023009201934B4683400B4301935CE75A4620239B1A2A1C9A40201C131C5A46D04018439BE720260027331A0026029603970127DF4044
:40538000039761E75B4620215D46C91A031CAC40CB40191C231C0B438EE7C046F0B545464E465746E0B4041C82B00D1C914698468B4262D85FD04146484600F09BF8291C18
:4053C000061C201C00F096F82023311A5B428A46C81865D44B4683401F1C4B468B401E1CAF4258D855D0A41BBD41002800DA77E00022002300920193013282400192012325
:405400008B40009300293CD0FB079846404672087B080243012600270CE0AB4201D1A2420AD8A41A9D4124196D410139A4197D41002906D0AB42F0D9013924196D41002933
:40544000F8D120220098019953465242001969419E183AD42F1CF7405346DD40002E29DB3C1CB440231C5446A7403A1C801A99410090019105E082429DD9002300240093E0
:4054800001940098019902B01CBC90469946A246F0BDA342A7D90022002300920193B1E720224B46521AD3401A1C43468B401F1C174392E7534620245646E41A3B1CB5403C
:4054C000E3401C1C2B1C2343CDE7524620239B1A2A1C9A40271C131C5246D7401F43BBE720230022581A0023009201930132C240019284E710B5002903D100F007F82030C7
:4055000002E0081C00F002F810BDC0461C2101231B04984201D3000C10391B0A984201D3000A08391B09984201D30009043902A2105C40187047C0460403020201010101BB
:405540000000000000000000014B18687047C046D40100200E4B70B500251E1C0D4CE41AA410A54204D0AB00F35898470135F8E700F0EEFE084B00251E1C084CE41AA4108C
:40558000A54204D0AB00F35898470135F8E770BD5C6300005C6300005C63000064630000002310B5934203D0CC5CC4540133F9E710BD031C8218934202D019700133FAE766
:4055C0007047021C10B51378002B01D00132FAE7CC5CD4540133002CFAD110BD021CC9B21378002B03D08B4204D00132F8E7181C002900D1101C70470023C25C0133002AA9
:40560000FBD1581E704710B50378021C002B05D10978181C00290FD00FE001321378002B08D00023C85C002806D0D45C8442F4D10133F7E7181C00E0101C10BD0000000086
:405640006CFBFF7F010000009400D34B00820000FF00FF00FFFF00FF7F00FF00000000000008320864089608C808FA082C095E098F09C009F109220A520A820AB10AE00AC9
:405680000F0B3D0B6B0B980BC50BF10B1C0C470C710C9A0CC30CEB0C120D390D5F0D830DA70DCA0DED0D0E0E2E0E4E0E6C0E8A0EA60EC10EDC0EF50E0D0F240F3A0F4F0F2D
:4056C000630F760F870F980FA70FB50FC20FCD0FD80FE10FE90FF00FF50FF90FFD0FFE0FFF0FFE0FFD0FF90FF50FF00FE90FE10FD80FCD0FC20FB50FA70F980F870F760F72
:40570000630F4F0F3A0F240F0D0FF50EDC0EC10EA60E8A0E6C0E4E0E2E0E0E0EED0DCA0DA70D830D5F0D390D120DEB0CC30C9A0C710C470C1C0CF10BC50B980B6B0B3D0B54
:405740000F0BE00AB10A820A520A220AF109C0098F095E092C09FA08C8089608640832080008CD079B07690737070507D306A10670063F060E06DD05AD057D054E051F0535
:40578000F004C204940467043A040E04E303B8038E0365033C031403ED02C602A0027C02580235021202F101D101B1019301750159013E0123010A01F200DB00C500B000E6
:4057C0009C0089007800670058004A003D00320027001E0016000F000A0006000200010000000100020006000A000F0016001E00270032003D004A00580067007800890021
:405800009C00B000C500DB00F2000A0123013E01590175019301B101D101F1011202350258027C02A002C602ED0214033C0365038E03B803E3030E043A0467049404C204BD
:40584000F0041F054E057D05AD05DD050E063F067006A106D3060507370769079B07CD077374617274696E670000000073746F7070696E67000000006669726D77617265EB
:4058800000000000696E76616C696420616E696D6174696F6E2069640000000073656C6563746564000000007374617274656400736C6F77206272656174686572000000C2
:4058C000666173742062726561746865720000006C6566742D7269676874000032206C656473000072656420696E74656E73697479000000677265656E20696E74656E7399
:4059000069747900626C756520696E74656E7369747900007265642D776869746520696E74656E7369747900677265656E2D77686974652020696E74656E7369747900004C
:40594000626C75652D77686974652020696E74656E73697479000000616C6C20636F6C6F727300007261696E626F7720636F6C6F727300003420666978207768697465207F
:405980004C4544732061742066756C6C20696E74656E73697479000042250000D8250000F6240000582600001C2500001E2A0000822A0000E62A0000B42B00006E2600001C
:4059C0007826000078260000962700008A280000000000008C5C0000705E000001000000905E00009C5E000002000000B45E0000C05E000004000000E45E0000E05B0000AA
:405A000003000000EC5E0000F05E000005000000FC5E0000045F000006000000285F0000345F000007000000505F0000585F000008000000305E00007C5F0000010000000A
:405A400054600000FC600000000000007C600000186100000100000054600000D4600000000000007C600000E860000001000000546000005C600000000000007C60000067
:405A80008460000002000000A4600000B060000000000000346100003C610000010000005C6100006461000002000000846100008C610000030000009C610000A46100005E
:405AC00000000000B8610000C061000001000000DC610000E461000002000000006200001062000000000000945F00009C5F000001000000AC5F0000BC5F000002000000FC
:405B0000DC5F0000EC5F0000030000000C600000186000000400000034600000406000004C5E0000505E0000585E0000605E0000685E00007B226576656E74223A22616C24
:405B400061726D222C202274797065223A220000222C2022736F75726365223A22000000222C20226465736372697074696F6E223A220000227D00007B226576656E742244
:405B80003A22616E696D6174696F6E222C20226E616D65223A220000222C2022616374696F6E223A22000000646F776E00000000757000007B226576656E74223A227075CF
:405BC000736820627574746F6E222C20226964223A000000222C20227374617465223A22000000007B226576656E74223A22666C6173682067656F6D65747279222C2022BF
:405C0000636865636B73756D223A00002C2022666972737420726F77223A00002C20226C61737420726F77223A0000002C202273697A65223A0000007D0000007B226576DB
:405C4000656E74223A22627574746F6E222C20226964223A000000002C2022616374696F6E223A220000000063616E27742066696E6420636F6D6D6120696E20636F6D6D22
:405C8000616E64004649584D45210000616E696D6174696F6E000000756E737570706F7274656420616E696D6174696F6E20616374696F6E00000000756E737570706F7284
:405CC0007465642073656E736F7220616374696F6E000000626F6F746C6F616465722069732064697361626C65640000756E737570706F7274656420626F6F746C6F616453
:405D0000657220616374696F6E00000063616E2774207061727365207265642066726F6D2052474220636F6C6F72000063616E277420706172736520677265656E2066724C
:405D40006F6D2052474220636F6C6F720000000063616E27742070617273656420677265656E2066726F6D2052474220636F6C6F7200000063616E2774207061727365203A
:405D80004C454420696E64657820636F6C6F720063616E2774207061727365204C454420696E646578000000696E76616C6964206C656420696E64657800000063616E2795
:405DC00074207061727365204C454420737472697020636F6D6D616E64000000756E737570706F72746564206C656420616374696F6E0000756E737570706F727465642009
:405E000074656C656D6574727920616374696F6E00000000756E737570706F7274656420747261636B657220616374696F6E000076657273696F6E00756E737570706F72E4
:405E400074656420636F6D6D616E64006C6F6700696E666F000000007761726E696E67006572726F72000000666174616C0000007365742074686520616E696D6174696FB1
:405E80006E20706172616D657465727300000000626F6F746C6F6164657200006A756D7020696E20626F6F6C6F61646572206D6F6465000063617073656E73650000000054
:405EC0007365742F676574207468652063617073656E736520636F6E66696775726174696F6E000068656C70000000006C656400736574206C6564287329000073656E7380
:405F00006F720000656E61626C652F64697361626C652073656E736F72732074656C656D657472696573000074656C656D65747279000000656E61626C652F6469736162B2
:405F40006C652074656C656D6574726965730000747261636B6572007365742F6765742074686520747261636B657220636F6E66696775726174696F6E0000006765742081
:405F80007468652061637475616C2076657273696F6E0000636C656172000000636C65617220616C6C206C656473000073657420636F6C6F72206C656674000073657420EF
:405FC00074686520636F6C6F72206F6620746865206C656674204C454400000073657420636F6C6F72207269676874007365742074686520636F6C6F72206F662074686500
:40600000207269676874204C4544000073657420776869746500000073657420746865207768697465204C454420696E74656E736974790073657420737472697000000018
:4060400073657420746865204C454420737472697000000064697361626C650064697361626C652066696E67657220747261636B6572206F6E204C4544730000656E6162E2
:406080006C650000656E61626C652066696E67657220747261636B6572206F6E204C45447300000073657420627574746F6E000073657420746865206E756D626572206FAF
:4060C00066206C6F676963616C20627574746F6E7300000064697361626C652074656C656D65747269657300656E61626C652074656C656D657472696573000064697361AE
:40610000626C652073656E736F72732074656C656D65747269657300656E61626C652073656E736F72732074656C656D65747269657300006175746F0000000073657420C0
:40614000616E696D6174696F6E20696E206175746F6D61746963206D6F6465006D616E75616C000073657420616E696D6174696F6E20696E206D616E75616C206D6F6465B8
:406180000000000073746F700000000073746F7020616E696D6174696F6E0000726573756D650000726573756D6520616E696D6174696F6E00000000737461727400000043
:4061C000656E74657220696E20626F6F746C6F61646572206D6F6465000000006578697400000000657869742066726F6D20626F6F746C6F61646572206D6F646500000022
:4062000067657420666C6173682067656F00000067657420666C6173682067656F6D6574727900002E2E00001C2E00000A2E0000F82D0000E62D0000D42D0000C22D000095
:40624000B02D00009E2D00008C2D00007A2D0000682D0000562D0000442D0000322D0000202D00000E2D0000FC2C0000EA2C0000D82C0000C62C0000B42C0000A22C0000C4
:40628000902C0000696E76616C69642073746172742D656E642063686172616374657228732900006661696C656420746F20657865637574652074686520636F6D6D616E81
:4062C0006400000065786563757465640000000042543000302E3037000000002000000014630000C2080020D408002044080020540800200100010001010000480800207F
:406300000C00640028280A031E6420040000A00000000000000002400800044000000440040004400F000000010000000000000000000000EEDBC9B9AA9B8E82766B6056E9
:406340004D443B332C241D17100A040043000000F8B5C046F8BC08BC9E467047891900003D320000F8B5C046F8BC08BC9E467047611900008863000090000020480100003E
:40638000400700000000000000000000018080808000060007000101010002000100800000010000511F0000B0580000010100006D1F0000C058000002000000291C00009C
:4063C000D0580000030000006D1C00001859000004000000C51D0000DC58000005000000D51A0000E458000006000000111B0000F4580000070000004D1B000004590000E4
:4064000008000000ED1C00001459000009000000351D0000285900000A0000007D1D0000405900000B000000C1190000585900000C000000891B0000645900000D000000B5
:40644000A91A00007459000000000000D06200000100000002000004010000000000E02EC05D00001800000000366E0100000000000000000000000000000000000000006A
:406480000000000000000000000000004C6300000000000000000000000000000000000000000000000000000000000000000000000000000000000000000000000000002D
:4064C0000000000000000000000000007401002000000000000000000000000000000000000000000000000000000000000000000000000000000000000000000000000007
:40650000000000000000000000000000000000000000000000000000000000000000000000000000000000000000000000000000000000000000000000000000000000005B
:40654000000000000000000000000000000000000000000000000000000000000000000000000000000000000000000000000000000000000000000000000000000000001B
:4065800000000000000000000000000000000000000000000000000000000000000000000000000000000000000000000000000000000000000000000000000000000000DB
:4065C000000000000000000000000000000000000000000000000000000000000000000000000000000000000000000000000000000000000000000000000000000000009B
:407FC000AE111800002F000000004D00000000000000000000000000000000000000000000000000000000000000000000000000000000000000000000000000000000002E
:0200000490303A
:02000000BCF34F
:0200000490402A
:200000000000000000000000000000000000000000000000000000000000000000000000E0
:0200000490501A
:0C0000000002190711A900011926CE9C6E
:0200000490600A
:0100000001FE
:00000001FF