:400000000010002011000000391500003915000008B502F09FFD01F097FAC04610B5134C12232360182002F007FDFE221202104B1A60104B104A1A60002210490A60104990
:400040001960C82040010F4908600F4919600F4B1A6040320E4B1A6001320E4B1A6001320D4B1A601123236010BDC04630001040000301400000014040FF00800403014093
:4000800041FF00800803014042FF00802800034008010140040101400001014008B572B6F02212051A4B1A601A4A1B4B1A6099221A4B1A6073231A4A1360C0214903194A6E
:4000C0001160194A13601933184A1360184A1360893B184A1360D8210904174A1160174A1360023B164A13601649174A1160174A13600222164B1A602F32164B1A60233AD1
:40010000154B1A60FFF78AFF01F082FA08BDC046000002400FEE000000030240000402400000044008000440180004400001044018010440000204400802044018020440E4
:4001400000030440860D0000080304401803044000040440080404401804044008B5054B054803331B1A062B03D9044B002B00D0984708BD200100202001002000000000BD
:400180000648074908B5091A8910CB0F5918491003D0044B002B00D0984708BD20010020200100200000000010B5074C2378002B09D1FFF7D3FF054B002B02D0044800E048
:4001C00000BF0123237010BD20010020000000009C39000008B5094B002B03D00848094900E000BF08480368002B02D1FFF7C8FF08BD064B002BF9D09847F7E70000000019
:400200009C39000024010020880000200000000038B5041E10DB134D0C35013D201C0A2103F036FB30312970201C0A2103F04AFA041EF2D1281C13E00A4D0C35013D201CD2
:400240000A2103F025FB3023591A2970201C0A2103F038FA041EF1D1013D2D232B70281C38BDC0463C01002010B500E001300278104B1B689B185B781B07F7D42D2A02D1E1
:400280000130012405E02B2A02D10130002400E0002400230278303A092A05D89900CB185B009B180130F5E7002C01D0584200E0181C10BDB800002038B5041C002511E061
:4002C0006B005B199B00094AD3185968201C03F04AFB002805D06B005D19AD00034B585D03E00135052DEBDD062038BD2C3A000038B5041C002513E06B005B199B000A4AFC
:40030000D318D96C201C03F02EFB002807D06B005D19AD00044B5D194823E85C03E00135022DE9DD032038BD2C3A000038B5041C002513E06B005B199B000A4AD318196F42
:40034000201C03F010FB002807D06B005D19AD00044B5D196C23E85C03E00135032DE9DD042038BD2C3A000038B5041C002512E06B005B199B000A4AD318596A201C03F0C1
:40038000F2FA002806D06B005D19AD00044B5D19287F03E00135082DEADD092038BDC046AC3A000038B5041C002512E06B005B199B000A4AD318D968201C03F0D4FA0028F7
:4003C00006D06B005D19AD00044B5D19287A03E00135042DEADD052038BDC0462C3B000008B502F013FE08BDF0B5474680B4C8B080460E1C019203AF3A1C224B443313CBEA
:4004000013C211CB11C208AC201C00218022520003F07FFA1C49231C0A1C23CA23C323CA23C31188198092789A7043469B00D959201C03F076FA201C03F08EFA20181349D1
:400440000E2203F05DFA201C311C03F06AFA201C03F082FA20180E49132203F051FA201C019903F05EFA201C03F076FA20180949032203F045FA201CFFF7B2FF48B004BC39
:400480009046F0BD2C3B00009C3B0000B83B0000C83B0000DC3B0000F0B5C1B0061C0D1C6C46684600218022520003F032FA17496B460A1C83CA83C383CA83C3116819602A
:4004C0009188998092799A71700080198000104B1818416A684603F024FA684603F03CFA20180C490E2203F00BFA6846291C03F018FA684603F030FA20180749032203F047
:40050000FFF96846FFF76CFF41B0F0BDE03B0000AC3A0000003C0000DC3B0000F0B5C1B0061C0D1C6C46684600218022520003F0F0F914496B460A1C83CA83C383CA83C3B6
:4005400012781A70301CFFF763FE011C684603F0E8F9684603F000FA20180B490D2203F0CFF96846291C03F0DCF9684603F0F4F920180649032203F0C3F96846FFF730FF9D
:4005800041B0F0BD103C00002C3C0000DC3B000008B5C28D674B1205110D1A8A120B12030A431A82828D1205110D5A8A120B12030A435A82428D1205110D9A8A120B120343
:4005C0000A439A82028D1205110DDA8A120B12030A43DA82C28C1205110D1A8B120B12030A431A83828C1205110D5A8B120B12030A435A83428C1205110D9A8B120B12036D
:400600000A439A83028C1205110DDA8B120B12030A43DA83C28B1205110D1A8C120B12030A431A84828B1205110D5A8C120B12030A435A84428B1205110D9A8C120B120328
:400640000A439A84028B1205110DDA8C120B12030A43DA84C28A1205110D1A8D120B12030A431A85828A1205110D5A8D120B12030A435A85428A1205110D9A8D120B1203E4
:400680000A439A85028A1205110DDA8D120B12030A43DA85C2891205110D1A8E120B12030A431A8682891205110D5A8E120B12030A435A8642891205110D9A8E120B1203A0
:4006C0000A439A8602891205110DDA8E120B12030A43DA86C2881205110D1A8F120B12030A431A8782881205110D5A8F120B12030A435A8742881205110D9A8F120B12035C
:400700000A439A8702881205110DDA8F120B12030A43DA871033181C182102F095FA012002F09EFB012002F0F3F9002002F098FB08BDC0463C01002008B5162801D880B294
:4007400000E01720172800D9E8E08000744B1B589F46744A09050B0D118A090B090319431182CDE06F4A09050B0D518A090B090319435182C4E06B4A09050B0D918A090BF9
:40078000090319439182BBE0664A09050B0DD18A090B09031943D182B2E0624A09050B0D118B090B090319431183A9E05D4A09050B0D518B090B090319435183A0E0594A6E
:4007C00009050B0D918B090B09031943918397E0544A09050B0DD18B090B09031943D1838EE0504A09050B0D118C090B09031943118485E04B4A09050B0D518C090B0903C7
:40080000194351847CE0474A09050B0D918C090B09031943918473E0424A09050B0DD18C090B09031943D1846AE03E4A09050B0D118D090B09031943118561E0394A090519
:400840000B0D518D090B09031943518558E0354A09050B0D918D090B0903194391854FE0304A09050B0DD18D090B09031943D18546E02C4A09050B0D118E090B09031943C7
:4008800011863DE0274A09050B0D518E090B09031943518634E0234A09050B0D918E090B0903194391862BE01E4A09050B0DD18E090B09031943D18622E01A4A09050B0D0B
:4008C000118F090B09031943118719E0154A09050B0D518F090B09031943518710E0114A09050B0D918F090B09031943918707E00C4A09050B0DD18F090B09031943D187D6
:4009000008481030182102F09FF9012002F0A8FA012002F0FDF8002002F0A2FA08BDC046A03900003C010020F8B50D1C504384B2601C80B2821896B24F08C0B2391CFFF7B5
:40094000FBFEF0B2391CFFF7F7FE0234A4B205E0E0B2291CFFF7F0FE0134A4B2B442F7D3F8BDC046F8B51E4D2C886420211C02F0A9FE86B20F20211C02F0A4FE87B26C88DF
:40098000AB889C422AD0AC80201C311C02F00AFE85B2002C22D0124AD088A8421ED00E2D1CDC137A002B13D0012F09D900213A1CFFF7BAFF281C0B493A1CFFF7B5FF07E017
:4009C000C0B20021FFF7B8FEE8B20649FFF7B4FE034BDD80281C0449FFF7A0FDF8BDC0468C000020FF0F00003C3C0000F8B53F4C4027E15B1520FFF79FFE4226A15B16202E
:400A0000FFF79AFE4425615B1720FFF795FEE15BC94389B21220FFF78FFEA15BC94389B21320FFF789FE615BC94389B21420FFF783FE2F4B5B7A002B2DD040232B4AD35AEE
:400A40002C4A934203D90022294B5A724DE0422226498A5A27498A420AD9244A0133FF3340215352002302315352023153523CE044231E49CB5A1F498B4207D91B4B803201
:400A800042215A520021442299522EE04033442216498B5229E04023144AD35A002B03D10122134B5A7220E0422210498A5A002A0AD10A1C013BFF3B402153520E4B02317B
:400AC00053520231535210E044230849CB5A002B07D10B1C803A42215A5207494422995203E0403B442201498B52F8BD3C0100208C000020FE0F0000FF0F000010B5094C3A
:400B00000620211CFFF718FE0720211CFFF714FE0820211CFFF710FE0920211CFFF70CFE10BDC046FF0F000010B50D4C1520211CFFF702FE16200021FFF7FEFD1720002104
:400B4000FFF7FAFD1220211CFFF7F6FD13200021FFF7F2FD14200021FFF7EEFD10BDC046FF0F000010B515200021FFF7E5FD0B4C1620211CFFF7E0FD17200021FFF7DCFD29
:400B800012200021FFF7D8FD1320211CFFF7D4FD14200021FFF7D0FD10BDC046FF0F000010B515200021FFF7C7FD16200021FFF7C3FD094C1720211CFFF7BEFD1220002138
:400BC000FFF7BAFD13200021FFF7B6FD1420211CFFF7B2FD10BDC046FF0F000070B5264948228B5A581C88529B0644D14A23CA5A224853009B18195CC3185A7889189A7897
:400C00008B18002B03D100214A331B4AD1521B4E194D4A242B5B5A00D318F15C1520FFF78BFD2B5B5A00D318F15C1220FFF784FD2B5B5A00D318F31859781620FFF77CFDD7
:400C40002B5B5A00D318F31859781320FFF774FD2B5B5A00D318F31899781720FFF76CFD2B5B5A00D318F31899781420FFF764FD2B5B01332B5370BD3C010020843B0000C3
:400C800070B50E4E4C25745B201C0A2102F010FDC9B20134745300290FD1094CA079FFF74BFDE088013080B20F2102F001FD88B2E080C0B20349FFF73FFD70BD3C010020E2
:400CC0008C000020FF0F000010B5002406E0E0B24E23114AD15AFFF72FFD01340E2CF6DD0E4BDB7A002B0BD00B494E228B5A01339BB28B52FE2B0ED90022084BDA720AE008
:400D000005494E228B5A013B9BB28B52002B02D14D3A024BDA7210BD3C0100208C00002008B50E4A101C10300023136143608360C360036143618361C361036243628362F6
:400D4000C362182101F080FF012002F089F8012001F0DEFE002002F083F808BD3C010020F0B58FB0041C2C2102F0E8FD002806D10230211CCB4AFFF737FB0020C8E2451C76
:400D8000FFF79AFA052800D9BCE28000C64B1B589F460220211CC54AFFF726FB0020B7E263001B199B00C24AD31859689A680020FFF71AFB013400E00024052CF0DD00246C
:400DC0000AE063001B199B00BA4AD3185A6A0020B949FFF709FB0134082CF2DD012097E2281C2C2102F0AAFD002806D10230211CB24AFFF7F9FA00208AE201303A2102F0AF
:400E00009DFD002806D10230211CAC4AFFF7ECFA00207DE2451C281CFFF788FA01280BD0002804D002280CD0032810D015E00122A34B1A7301206BE20022A14B1A7301206E
:400E400066E2012150239F4AD154012060E2002150239C4AD15401205AE2281CFFF784FA092803D0974B5865012051E20220211C924AFFF7B9FA00204AE2281CFFF792FA83
:400E8000061E042E00D9D8E180008F4B1B589F46FFF746FF01203BE2281C2C2102F04EFD002806D10230211C844AFFF79DFA00202EE201303A2102F041FD002806D102306B
:400EC000211C824AFFF790FA002021E201303A2102F034FD002806D10230211C7B4AFFF783FA002014E2451C281C2C2102F026FD002806D10230211C744AFFF775FA002023
:400F000006E200230370471C281CFFF7ADF90190381C3A2102F012FD002806D10230211C6B4AFFF761FA0020F2E1471C381C2C2102F004FD002806D10230211C654AFFF73E
:400F400053FA0020E4E100230370451C381CFFF78BF9071C281C3A2102F0F0FC002806D10230211C5A4AFFF73FFA0020D0E10130FFF77AF9041C012E0ED16B4699881520F9
:400F8000FFF7DAFBB9B21620FFF7D6FBA1B21720FFF7D2FB0120BBE16B4699881220FFF7CBFBB9B21320FFF7C7FBA1B21420FFF7C3FB0120ACE1281C2C2102F0BFFC00288F
:400FC00006D10230211C3D4AFFF70EFA00209FE101303A2102F0B2FC002806D10230211C3D4AFFF701FA002092E101303A2102F0A5FC002806D10230211C384AFFF7F4F9EF
:40100000002085E1461C301C2C2102F097FC002806D10230211C314AFFF7E6F9002077E100230370451C301CFFF71EF9061E0E2E06D90220211C2A4AFFF7D6F9002067E1E5
:40104000281C3A2102F07AFC002806D10230211C1F4AFFF7C9F900205AE10130FFF704F9011CF0B289B2FFF767FB012050E1281C2C2102F063FC002806D10230211C194A04
:40108000FFF7B2F9002043E101302C2102F056FC002829D10230211C124AFFF7A5F9002036E1C046483C0000003A0000643C00002C3A0000AC3A00006C3C0000783C0000C5
:4010C0008C0000203C010020183A0000983C0000B83C0000DC3C0000003D00001C3D0000343D0000483D000001303A2102F026FC002806D10230211C864AFFF775F90020C7
:4011000006E10023029303930493059306930793089309930A930B930C930D930130222102F00CFC002806D10230211C794AFFF75BF90020ECE0451C281CFFF795F802ABBD
:401140005885281C2D2102F0F9FB002806D10230211C704AFFF748F90020D9E0451C281CFFF782F802AB9885281C2D2102F0E6FB002806D10230211C664AFFF735F900203C
:40118000C6E0451C281CFFF76FF802ABD885002614E0281C2D2102F0D1FB002806D10230211C5C4AFFF720F90020B1E0451C281CFFF75AF8730002AA985201360E2EE8DD11
:4011C000281C2D2102F0BAFB002806D10230211C504AFFF709F900209AE0451C281CFFF743F802AB9884281C2D2102F0A7FB002806D10230211C474AFFF7F6F8002087E0ED
:40120000451C281CFFF730F802ABD884281C2D2102F094FB002806D10230211C3D4AFFF7E3F8002074E00130FFF71EF802AB1885181CFFF7ADF901206AE00220211C364AF4
:40124000FFF7D2F8002063E0281C2C2102F076FB002806D10230211C304AFFF7C5F8002056E001303A2102F069FB002806D10230211C2A4AFFF7B8F8002049E0451C281C0E
:40128000FFF736F8012804D0002807D002280AD02AE00022224B1A72012039E00122204B1A72012034E0281C2C2102F047FB002806D10230211C194AFFF796F8002027E01B
:4012C00001303A2102F03AFB002806D10230211C124AFFF789F800201AE00130FEF7C4FF0F4B1880012013E00220211C0B4AFFF77BF800200CE001200A490B4AFFF774F89D
:40130000012005E00220211C084AFFF76DF800200FB0F0BD483D0000683D0000803D00008C0000209C3D0000A43D0000AC3D000071B5FFB001F03EFC002001F013FC002099
:4013400001F08EFD012001F0E3FB62B6FFF7E8FC01F0AEFD00F07AF900F0ACFC684600218022920002F0D5FA0026012500F06AFC0028FBD100F092F9002000F02FFB80B237
:40138000464B5880464B984206D1444B9A88444B9A4203D0002402E0002400E00124E4B2002C25D0002D15D13C4B1B7B002B11D03A4BD8883B49FFF7B1F83B4D6B6D581C95
:4013C000092102F065FA6965FFF7AAFC686D3749FFF762F85023344AD35C002B1CD1536D5A00D3189B00324AD3181B6A984713E0002D0FD0FFF794FC284BD8882949FFF700
:401400008DF85023284AD35C002B03D1506D2949FFF742F8FFF7A6FA01F0E2FDC0B2031C203B5F2B36D8731C6A4690557D2803D08022920093422CD16B461B787B2B07D167
:40144000684602F089FA01386B461B5C7D2B05D002206946184AFEF7C7FF12E000236A461354501CFFF77CFC002805D102300021124AFEF7B9FF04E000200021104AFEF7A9
:40148000B3FF684600218022920002F042FA002600E01E1C00F00EFC251C67E78C000020FFFF0000C03D00003C010020C43D0000AC3A0000D03D0000DC3D0000FC3D000036
:4014C0001C3E000070B5194E5825745B201C052102F0EEF8C9B201347453002924D1FFF71FFC134CA07B134D291CFFF725F9207C291CFFF721F9A37C002B09D00C4AD389E1
:40150000013B9BB2D381118A0131118293740BE0074AD3890133D381138A013B9BB21382073B59424B41937470BDC0463C0100208C000020FF0F000008B502F0B5F903680A
:401540000C2B00D1FEE7FEE770B50F4E0F4D13E029686B68AC68002202E001C901C30432A242FAD1E868002202E0002102C304328242FAD11035013E002EE9D102F09AF9E9
:40158000FFF7D6FEFEE7C04601000000F443000008B500230AE0032B03D89A000949505800E009489900094A885001331F2BF2D9FEF774FD0022064B1A6080229205054BBD
:4015C0001A6008BD0000000039150000000000208000002008ED00E00B4B1B68002803D080221206134301E05B005B08064A1360064B1B68002802D02022134301E02022FA
:401600009343024A13607047002002402800034008B51122024B1A600120FFF7DDFF08BDC0020B4008B5084B1B78002B06D100F0A1F900F0EFF90122034B1A7000F052F8D9
:4016400000F01CFC08BDC0469601002038B5FFF7E9FF051E02D100F06FFB051C002D02D100F028FB051C002D12D101F0E6FC041C07E001F057FA201C01F0E3FC01F0DDFC6E
:40168000041C00F0DFFA0028F3D1201C01F0D9FC00F024FA00F008FA281C38BD70B50F4E0024002515E06B0902339B000C4AD3185A681F232B40DA40131CDB0707D5301C13
:4016C00000F070F8041C281C311C00F021F928360135002DE7D0201C70BDC0465C4100006002002030B500230BE01A48191D890000220A509A1C9200821801214942516001
:401700000133002BF1D0144A01231FE05568107E0B1C08335B000F4CE31800249C80831E012B11D81369002B01D0E87918705468002307E0181C08304000201801256D42D4
:4017400045800133002BF5D028320B1C591E002BDCD130BD600200205C41000010B582B0041C131C428868460280228A081C694601F0A4FE6B461B8863806B469B782371C3
:401780006B46DB7863716B461B79A37102B010BD0B884A889B1A0022CA8002799A4200DACB807047F0B55F4656464D46E0B482B08246037E062B02D10122934601E0002235
:4017C00093465246D26891465246946856680093176A00250023019321E04846211C009A00F01EFA2088318A3A1C01F093FE301C391C2A1CFFF7B2FF0C37301C211C009A88
:4018000000F0B0F90190301C211CFFF7C1FF0E345B46002B02D102339C46E14401355346DB8AAB42D9D8019802B01CBC91469A46A346F0BDF0B5474680B482B08446CB8A29
:401840008A684D68086980466046002803D16C88A879201802E06C88A879201A0024012609E0D388984201D3002300E0331C1C430E3276003B1C5F1E002BF2D1002C0BD0FD
:4018800043461B78002B02D0013B4246137043461B78002B04D104E0EB794246137000E06446002C23D00E1C6B88AA799A1ACF8A8868391C00F012FF002822D0337E022B25
:4018C0001FD1F16901A83A1C00F056FF00220BE0530002A98C466344043B1988131C08335B00EB18598001329042F1D809E0002007E0031C08335B00EB18012252425A804E
:4019000001300028F5D0201C02B004BC9046F0BD38B5041C0A7E031C08335B001448C3189D88931E012B04D8281CFFF783FF051C02E0002000F0C8FF231C08335B000C4A38
:40194000D3189D8063091F2214401E3AA240141C002D06D1064904339B005A58A2435A5005E0034A04339B0099580C439C5038BD6002002038B5164D281C0021C02201F05F
:40198000C8FF144B2B80B0235B006B80573BFF3BEB82093B2B76104C281C1A30211C3431142201F0ADFF221C0C3401230CE0A168E38A04E013780B7301320E31031C581EC8
:4019C000002BF7D128342B1C5D1E002BEFD138BD60020020C8C6FFFF50410000002810D183001B18DB00094AD31824331B78023B012B08D883001818C00010180369588A63
:401A000002E0034800E002487047C04650410000FFFF00000023024A9380024A13607047600200202C020020C9B2062902D08318002119715300195AC31859808218002342
:401A40001372704770B50D4A85002B18DB00D3189C68CB00591A490064182818C0001018067E012305E0201C311C2A1CFFF7DCFF2B1C5D1E002BF6D170BDC0465C41000040
:401A800038B5051C83001B18DB00064AD318DB8A04E0281C211CFFF7D5FF231C5C1E002BF7D138BD5C41000010B5012303E0201CFFF7E6FF231C5C1E002BF8D110BDC04617
:401AC00030B5012306E0D3B2062B02D063005D5A1D52231C5C1E002BF5D130BDF0B5474680B401232CE0B3009B19DB00174AD3185A689046DB8A1FE0B3009B19DB00134A90
:401B0000D318E900491B49009A685718D968081C6A00521992001C6AA4181A7E062A01D068000818391CFFF7CBFF38884346198A221C01F0E3FC2B1C5D1E002BDCD1331C8C
:401B40005E1E002BCFD104BC9046F0BD5C4100009840031C534380204000801A41435818000A7047F0B583B0071C0E1C0192012333E06300985BF3185988884205D3421A53
:401B8000331900251D72012301E00A1A0023002B11D17B7993420ED233191B7A3A7A934205D3301C0199221CFFF73EFF14E032190133137210E06B461B79062B0CD0090245
:401BC00035192B79194301220823FFF7C1FF020A6300F3185A802871231C5C1E002BC8D1002003B0F0BDC046F0B583B0061C0F1C019201230EE06B461B79062B09D0650025
:401C0000E85BA95B80220023FFF7A2FF80B2A853E853231C5C1E002BEDD103B0F0BDC04608B5FFF7E1FF08BD024A1168024B0B401360704700020B40FFFFF8FD06230B73CB
:401C40007047C046024B9B68802018407047C0466002002010B50F4B9B68DB030FD400280FD1430902339B000A4AD3185A681F230340DA40131CDB0705D4012404E0112451
:401C800002E0012400E00024002C01D100F0B6FB201C10BD6002002008B5054B9B68DB0303D400F029FB002000E0112008BDC0466002002010B50C4B9B681B0612D400244E
:401CC000012040420BE0201CFFF7C4FF002805D10022064B1A70FFF7DFFF04E00134002CF1D000E0112010BD60020020300200207047C046074A084B1A6001380002074B72
:401D00001860054B1B68002BFBDB054A024B1A607047C04640000040000001400003014040FF0080034A13681B0B1B03013818431060704700020B40F0B5474680B488B00E
:401D400001ACFA239B0023803B4B638096235B01A3805523E373394B197E394801F022FCA0810022374B5A70FFF75EFF002398460024002532E0A3001B19DB00324AD318EA
:401D80005E680C23338001AFB889304901F00AFCF072201C552100F01DFC331C0A333B6101337B61381C01F01BFB8046284B984200D9062501AB9B89214A934205D8F37AF9
:401DC000012B0AD80223F37207E0224A934204D8F37A072B01D80823F3720134002CCAD00122184B5A70013201AB9A7300241CE0A3001B19DB00144AD3185F683B1C0A3392
:401E000001AE05930133069343460393FB89F3803B1C10330793201C552100F0DBFB0543301C01F011FB38800134002CE0D0281C08B004BC9046F0BDE507000060020020C5
:401E4000C05D0000300200205C410000DC050000870D010080BB000010B5002409E0A3001B19DB00044AD3185968201CFFF7E6FE0134002CF3D010BD5C41000008B5FFF7D0
:401E8000EBFF00F09BF8002008BDC04670B5002516E0AB005B19DB000B4A9E58002406E0E000001B8000301800F076FA0134AB005B19DB00044AD3189B7DA342F0D80135B5
:401EC000002DE6D070BDC0465C41000010B50F4B1B68702293431C1C0D4B197E0D4801F061FB0D4B984204D820232343074A13600BE0084B984204D830232343034A136074
:401F000003E040232343014A136010BDA00000206002002000366E01001BB700034A044B1A60C1225204034B1A60704700008301C0010B40C4010B40064A136806490B43DB
:401F40001360064A064B1A60C1225204054B1A607047C046A8020B400100001000008301C0010B40C4010B4070B50D1C161C04880123A3401C1C013CA00000194000642167
:401F800001F010FB01302B18A34200D9231C854201D3281A00E00020864203D39E4203D9062002E0062000E0002070BD01390843014B18607047C04600020B4010B5FFF714
:401FC00065FF0024284B1C60284B1C601022284B1A60284B1C60284B1C60284B1C60284B1C60284A1460284B1C6028490868284B0340C020C00003430B6026490B68802061
:40200000400103430B600121234B196023490B68234803430B6080235B0422490B602248224908601360224A224B1A60FFF776FF214B187EFFF75EFEFFF748FF1F4B1B68E6
:402040001F4A13431F4A1360482000F0EDFF0F221D4B1A601D4B1C60053A1D4B1A60C02212031C4B1A6010BDF4000B40B4020B40C0020B4020030B4084010B4088020B4064
:4020800080020B4084020B4080010B4000040240FFF0FFFF94020B40A0020B40A8020B4001000010A4020B404112000088010B400000030190020B4060020020A000002074
:4020C0000010008000000B4000030B40F0010B4010030B4004020B4038B5041C00F0ADFF0A490B687F25AB43094A1278A418A47A23430B6007490B68AB43074C2468A218F9
:40210000127B13430B6000F09CFF38BDC0010B40B0420000C4010B402003002008B5021C01238B40581E002A02D0111C01F03AFA024B1B78012B00D1800808BD3102002075
:4021400008B50A4B1B789A00D318DB00084AD3185B68D97A074B1B78012B03D10648FFF725FF02E0081CFFF7DDFD08BD330200205C410000310200200000060208B5031CF6
:40218000C07A19881A7BFFF7C9FF0004000C014B186008BD14030B4010B50A2000F080FB0124324B1C60182000F03EFF304A314B1A600022304B1A600632304B1A60304BEA
:4021C0001C60802252042F4B1A602F4B1C60832252002E4B1A60033AFF3A2D4B1A60013A2C4B1A60F0235B0000E0013B274A1268520701D4002BF8D1002B02D10822254BD4
:402200001A6000241B4B1C601B4B1C60832252001E4B1A600A2000F04DFB0A2000F036FB164B1C60164B1C60164B1C605022164B1A604F3A184B1A600C4B1C60174A1368BC
:40224000802149040B4313600222114B1A60F0235B0000E0013B124A1268520701D0002BF8D1104A0B4B1A6010BDC04680010B4001010100B0020B40B4020B4088020B4098
:4022800080020B4084020B40F0010B40F0000B40F8000B4040030B408C010B4000020B4000000B400103000008B5044A044B91680B439360FFF770FF08BDC046600200207E
:4022C0008000010070B5041C857E067E00F0B5FE23681B680F22B24093431A1C0423B3401343666832680721A9408A4332602268136000F0A6FE70BDF8B5174D2B78174C94
:402300009A00D318DB00E3185868154E002333702B789A00D318DB00E3189F683178CA00531A5B00FB180F4A1360FFF7D5FE2B789A00D318DB0018593178CA00531A9B0082
:40234000C018094B1860FFF7BDFF084800F07CFAFFF7AAFFF8BDC046330200205C410000320200202003002024030020C130000008B583001818C000054BC058CB00591A60
:4023800089004018034B1860FFF79CFF08BDC0465C4100002403002038B5041C007EA57E21680B680F22824093430B6000F045FE61680B680722AA4093431A1C0623AB40B6
:4023C00013430B6000F03DFEA1680B68607E0122824093430B6038BD08B5064B1B78012B06D1054B1868FFF7D7FF0022014B1A7008BDC046340200202403002070B5041C97
:40240000104D83001B18DB00EB185E68FFF7E4FFE4B20D490C700B789A00D318DB005A590A4B1A600A4A7F2390689843031C906009780B439360301CFFF7A0FEFFF780FE51
:4024400070BDC0465C41000033020020240300206002002070B583001B18DB00124AD3185D68C9B2114C21709E682178CA00531A5B00F3180E4A1360FFF7C0FF281CFFF74D
:402480002BFE20780B4AC300181A800013689C4660441060FFF716FF0122074B1A70074800F0D2F970BDC0465C41000032020020200300202403002034020020493000008F
:4024C000074B1A687F210A40064802431A60064A13680B40802109040B4313607047C046C0010B4000008301C4010B40F0B5474680B482B0071C0E1C90462E4A13789900D8
:40250000CB18DB002C49CB185B680193402333701078C0B2294B1978C9B2FFF79BFFFFF7CFFF4025FFF7C0FE254A00E0013A254B1B7A5BB2002B01DA002AF7D1224B1B68BD
:402540001C88BC4202D23378AB4333706D0833782B4333700198FFF7BFFD002DE2D1154B1B789A00D318DB00134A9858134B1978CA00531A9B00C018144B1860FFF70CFF3C
:402580000022134B1A70FFF7D7FC0198391C221CFFF7EAFC43461A7833789A4201D242461370094B1B6832781A7302B004BC9046F0BDC046330200205C4100003202002071
:4025C0003333000060020020200300202403002034020020F0B54F4680B484B0051C894683001B18DB00384AD3185F68012303AA137038888340181C01384843642100F078
:40260000D1FF0190EAB2314B1A70314800F01CF93C1C0A3400222F4B1A7000260AE00198211C03AAFFF762FF06432A4A13780133DBB21370AB005B19DB00234AD318254A26
:4026400012785B7E9342EAD803AB1B7801335B08BB7200221F4B1A7023E0AB005B19DB00194AD3189A681B4B1C78E3001C1B64001419194B1C60237BB87A83420AD31B1ACC
:40268000D8B220734B4658436330642100F08AFF207301E0002323730E4A13780133DBB21370AB005B19DB00074AD318094A12785B7E9342D1D80022064B1A70301C04B085
:4026C00004BC9146F0BDC0465C41000033020020493000003202002020030020F0B50024244B1C70041C002600230BE0E588954206D9AE4204D21F4E3371012737702E1C63
:402700000E3401338B42F1D31A4B1C78002C2FD01D1C1A79D3009B1A5B00C618F6886E81002A0ED1CB00591A49000E394118CB882B810132D3009A1A52008018C388AB812A
:4027400016E001398A4207D10E3BC318DA88094B1A81C2889A810BE00E3BC318DB8805490B810132D3009A1A52008218D3888B81201CF0BD38020020F0B5474680B482B077
:4027800080460F1C019200262CE01A4B9B191C79002C07D173009B195B00164AD31800221A810AE0019B013B9C4206D173009B195B00104AD31800229A817500AB195B0018
:4027C0000C4AD3189A891989501A5B89C9185118784300F077FF7C4300197F30000A434658530136034B1878B042CED802B004BC9046F0BD38020020014B98667047C04652
:402800000000002010B5041C00F017FC044A1168044B0B40A4051C43146000F012FC10BD08E400E0FFFF3FFF8022D200014B1A607047C04600E100E08022D200014B1A60EE
:402840007047C04680E100E010B5041CFFF7F4FF201CFFF7D1FF0320FFF7D4FFFFF7E4FF10BDC046024A1168024B0B401360704700000740FFFFFFBF034B18688023DB0517
:40288000184000D001207047000007401F2318401E3B8340181C014B1860704700E100E01F2318401E3B8340181C014B1860704780E100E01F2318401E3B8340181C014BCF
:4028C0001860704780E200E001BE704738B5041C0D1C0F2802D90020FFF7F6FFA400034B9C4664442068256038BDC0464000002070B5041C0E1E032E02D90020FFF7E4FF44
:402900000F2C02D90020FFF7DFFF03252540ED00063500F092FBA408A400074B9C46644423680322AA409343AE40351C1D43256000F087FB70BDC04600E400E010B5041C4D
:4029400006E0084B586800F06FFB074B9C46644480231B029C42F4D8024B9868604300F063FB10BDA40000200080FFFF30B583B000F0E6F8002848D000F05FFB041C244B72
:402980001B6807221A409200131C1833214A12681207920FD3401A1C1F4B19681F4B19401F4B53438020C00184466344DB0B013B5B055B0D0B43A02149031943192A02D8DF
:4029C000184A13430BE0184BD31818781A3A174B9B5CC318FF2B00D9FF239B050B430E4A1360134D2B680193302000F0F7FB114A13688021C9050B4313601420FFF79EFF6A
:402A0000019B2B60201C00F01CFB03B030BDC046080F0340280003400800074000F800C040420F000000D43FCDF1FF0FB44200003000104000000740F0B583B0041E182C4F
:402A40000BD01C2809D0202807D0242805D0282803D02C2801D0302849D100F0EEFA0190FFF70AFF002803D0FFF7FCFE012600E00026214A136807218B4313601F4BE31830
:402A80001B78DBB21E4A13601E4A13688B4313601D4803687F229343191C1C4BE3181B7813400B430360322000F0BEFA182C16D9114F3B680725AB431A1C231C1C3B9B08C9
:402AC0002B4013433B60322000F0AEFA3A68AA43231C183B9B082C1C1C4014433C60012E01D1FFF743FF019800F0ABFA02E00020FFF7EAFE03B0F0BD080F0340CDF1FF0F68
:402B00000C0F0340100F0340180F0340B4F1FF0F08B5034B1B7B584300F086FA08BDC046A400002008B500F088FA044A136804218B43136030BF00F084FA08BD10ED00E020
:402B4000034B1B68002B01DA012000E00020704700000740014A024B1A6070476588EDAC3800034004490A68BF231A4080017F3B18401043086070470002044008B508206A
:402B8000FFF784FE08BDC04608B500F06BF808BD08B500F089F808BD08B5054A1368802109060B431360FFF7E9FFFFF7EDFF08BD0000094008B5064B1B78002B04D1FFF7AD
:402BC000E7FF0122024B1A70FFF7E6FF08BDC0464802002010B5154B1A68154B1B689A4208D1144B1B681F221340082B02D0124B18601AE00D4B1A680132182A00D100221A
:402C00000B4B1B689A42FBD002230C490B6080B254000B49605205490A600A4A1268134203D1084A11680B43136010BD64030020280300200802094040020940800F094013
:402C400070030020880F094070B5061C0D1C002404E06300985BFFF7BDFF0134AC42F8D370BDC046054A1368F02109050B431360034B1A88034B1A607047C04600000240DF
:402C800050020020880F094005490A68054B13408006C02212051040184308607047C04620000940FFFFFFF310B51D4A1D4B1A601D4A1E4B1A601E4B1E4A136007211E4A8B
:402CC00011601E4A136000241D4B1C600820FFF7E7FD08200321FFF70BFE08201949FFF7F5FD194B1C60194B1C60194B1C60194B1C600422184B1A60184B1C601A68184B7A
:402D00001A800020FFF7C0FF164B1C60164B1C60164B1C70164B1C60164B1C6010BDC046070000010000094001000080200009400B01008000030940040309400002094042
:402D400004020940792D0000880E0940C80E0940480F0940080F0940C80F0940880F0940500200206C030020680300202C030020640300202803002008B5284B1B68002BD5
:402D800000D09847264B1B685B071ED5254B1B680133192B00D10023234A1268934205D1224B1B682022224B1A7007E01F4A126892B258001F4942521A4A13601E4B1B68DC
:402DC000DB06E3D104221D4B1A601D4B1B689B0722D51C4B1A681C4B1B689A4214D01A4B1B680133182B00D100235900174A8A5A92B217490A60144A1360164B1B681F222A
:402E00001340082BE5D104E0134A136802218B4313600222114B1A6008BDC0464C020020CC0F09406C03002068030020400309402C0300203003002008030940C00F09402B
:402E40008C0F09406403002028030020700300204002094008020940880F0940800F0940044A11687F230B40C001C0B2184310607047C0460002044008B50720FFF706FDE1
:402E800008BDC04608B500F099F808BD08B500F01FF808BD08B5054A1368802109060B431360FFF7E9FFFFF7EDFF08BD0000084008B5064B1B78002B04D1FFF7E7FF012256
:402EC000024B1A70FFF7E6FF08BDC0465402002038B5204A204B1A600024204B1C60204A204B1A60204B214A13600721204A1160204A14600639204A1160204A1360204BBD
:402F00001C6004251F4B1D600720FFF7C9FC07200321FFF7EDFC07201B49FFF7D7FC1B4B1C601B4B1C601B4B1C601B4B1C601B4B1D601B4B1C601A681A4B1A801A4B1C60F6
:402F40001A4B1C601A4B1C701A4B1C601A4B1C6038BDC0460F08000200000840400008400102000048000840070000800003084004030840100308404400084000020840F4
:402F80000402084050000840FD320000880E0840C80E0840480F0840080F0840C80F0840880F08405C020020A8030020A403002030040020AC030020A003002005490B684D
:402FC000F0229343603A13430B60034B1A88034B1A607047000402405C020020880F084008B500F03FF9002802D000F021F900E00020054B1A68D8239B001A4203D01A1CC6
:40300000014B1A60002008BDC00F084038B5051C002402E000F03AF90134285D0028F9D138BDC046000000000230800803D001300238FCD1C046C0467047EFF3108072B6CE
:40304000704780F31088704783225200144B1A60144B1B789A00D318DB00134AD3185B68124A12681204120C198801238B40013B9A4206D20E4B19680E4B1B785B00CA52E3
:4030800005E00B4A11680B4A127852008B520A4BDA880132DA80094A99680A409A607047F0000B40330200205C410000D0000B4020030020B0420000600200207FFFFEFF42
:4030C00070B53C4B1A783C4C91008A18D20010593A4A1578E9004A1B9200801883214900374A11601A7893009B18DB00E3185B68344A12681204120C198801238B40013BCB
:403100009A4206D2304B1968304B1B785B00CA5205E02D4A11682D4A127852008B52FFF73BF9244B1A78244990008218D2008A1850681A7893009B18DB00CB189B7D1F4A50
:403140001278013B93421DD91C4C23780133DBB22370184D2B789A00D318DB00CB189E682178CA00531A5B00F318174A1360FEF7B3FF2878C0B22178C9B2FFF7F9F8FFF762
:403180000BF815E000220D4B1A70114A114B91680B409360104A1278012A02D1FEF7A8FD06E00B4A80218B439360D3880133D38070BDC046330200205C41000032020020B1
:4031C000F0000B40D0000B4020030020B042000060020020FFFFFEFF3002002038B5041CFFF72BFF051C102C05D8104A136803218B43136016E0202C07D80C490B680322C6
:403200009343023A13430B600CE0302C07D807490B6803229343013A13430B6002E00020FFF752FB281CFFF70CFF38BD30001040094B1A68094B1B689A420BD0074B1B68A2
:403240000133812B00D10023054AD05CC0B2034A136000E000207047A8030020A403002034040020074B1B68074A1268934203D3054A1068181A04E0034A10681B1A813356
:40328000181C7047A8030020A4030020144B1A68144B1B689A4208D1134B1B681F221340102B02D0114B186019E00D4B1A680132802A00D100220B4B1B689A42FBD002237B
:4032C0000B490B60C0B20B49885405490A600A4A1268134203D1084A11680B4313607047AC030020A00300200802084040020840800F0840B0030020880F084008B5274B55
:403300001B68002B00D09847254B1B685B071DD5244B1B680133812B00D10023224A1268934205D1214B1B682022214B1A7006E01E4A1268D2B21F49CA541A4A13601E4B59
:403340001B68DB06E4D104221C4B1A601C4B1B689B0721D51B4B1A681B4B1B689A4213D0194B1B680133802B00D10023174AD25CD2B217490A60144A1360164B1B681F228E
:403380001340102BE6D104E0134A136802218B4313600222114B1A6008BDC04658020020CC0F0840A8030020A403002040030840300400203404002008030840C00F084013
:4033C0008C0F0840AC030020A0030020B00300204002084008020840880F0840800F084070B5041CFA26036980881D78E37BB60058431349704300F0D5F8754361886843BE
:4034000000F0D0F8051C2088311C684300F0CAF8A3890C49584300F0C5F8013063691022082809D80822042806D80422022803D801D1187001E001221A70281C70BDC0469A
:40344000F049020000E1F50538B5041C63698089197800F0A7F8051C60880304181A23691978A388594300F09DF8A37B1149DD40684300F097F8E3880A21584300F092F81F
:4034800000230D4AA16810258A425B410222D31A62325343984203D9013DEDB24008F9E74B236421584300F07DF8A4692080281C38BDC046A0860100A761000010B50024FF
:4034C000A34200D00C880088131C800080B2824200D2031C9AB2A24200D2231C9AB20B805308FF2B01D9FF2300E0DBB28B70CB70D308FF2B00D9FF230B7110BD8B081380BA
:403500000F2393720023C90851809080D0801081D3727047937A30B594885B00041B9080DBB2002C01DB937202E00133937264420F23957A1D40538895729C4203D2012B50
:4035400003D9013B00E0013353800F2D05D0002D03D053889D00AC4204D90023D0801081D3721DE0D488844201D9D08003E01489844200D21081D07A092802D80130D072F5
:403580000EE01089D488001B80B2834204D989088B4203D9013B00E0013353805388138030BD0000002243088B4274D303098B425FD3030A8B4244D3030B8B4228D3030C1F
:4035C0008B420DD3FF22090212BA030C8B4202D31212090265D0030B8B4219D300E0090AC30B8B4201D3CB03C01A5241830B8B4201D38B03C01A5241430B8B4201D34B0346
:40360000C01A5241030B8B4201D30B03C01A5241C30A8B4201D3CB02C01A5241830A8B4201D38B02C01A5241430A8B4201D34B02C01A5241030A8B4201D30B02C01A524153
:40364000CDD2C3098B4201D3CB01C01A524183098B4201D38B01C01A524143098B4201D34B01C01A524103098B4201D30B01C01A5241C3088B4201D3CB00C01A52418308E4
:403680008B4201D38B00C01A524143088B4201D34B00C01A5241411A00D20146524110467047FFE701B5002000F0FCF802BDC0460029F7D003B5FFF775FF0EBC4243891A50
:4036C0001847C04603460B437FD4002243088B4274D303098B425FD3030A8B4244D3030B8B4228D3030C8B420DD3FF22090212BA030C8B4202D31212090265D0030B8B4284
:4037000019D300E0090AC30B8B4201D3CB03C01A5241830B8B4201D38B03C01A5241430B8B4201D34B03C01A5241030B8B4201D30B03C01A5241C30A8B4201D3CB02C01AED
:403740005241830A8B4201D38B02C01A5241430A8B4201D34B02C01A5241030A8B4201D30B02C01A5241CDD2C3098B4201D3CB01C01A524183098B4201D38B01C01A524153
:4037800043098B4201D34B01C01A524103098B4201D30B01C01A5241C3088B4201D3CB00C01A524183088B4201D38B00C01A524143088B4201D34B00C01A5241411A00D2A4
:4037C00001465241104670475DE0CA0F00D04942031000D34042534000229C4603098B422DD3030A8B4212D3FC22890112BA030A8B420CD3890192118B4208D389019211AB
:403800008B4204D389013AD0921100E08909C3098B4201D3CB01C01A524183098B4201D38B01C01A524143098B4201D34B01C01A524103098B4201D30B01C01A5241C308D8
:403840008B4201D3CB00C01A524183088B4201D38B00C01A5241D9D243088B4201D34B00C01A5241411A00D20146634652415B10104601D34042002B00D54942704763464A
:403880005B1000D3404201B5002000F00BF802BD0029F8D003B5FFF715FF0EBC4243891A1847C0467047C046014B18687047C0461C0100200E4B70B500251E1C0D4CE41AFF
:4038C000A410A54204D0AB00F35898470135F8E700F07EFD084B00251E1C084CE41AA410A54204D0AB00F35898470135F8E770BDDC430000DC430000DC430000E4430000F6
:40390000002310B5934203D0CC5CC4540133F9E710BD031C8218934202D019700133FAE77047021C10B51378002B01D00132FAE7CC5CD4540133002CFAD110BD021CC9B2C2
:403940001378002B03D08B4204D00132F8E7181C002900D1101C70470023C25C0133002AFBD1581E704710B50378021C002B05D10978181C00290FD00FE001321378002B6E
:4039800008D00023C85C002806D0D45C8442F4D10133F7E7181C00E0101C10BD00000000F0080000DE080000CC080000BA080000A808000096080000840800007208000048
:4039C000600800004E0800003C0800002A0800001808000006080000F4070000E2070000D0070000BE070000AC0700009A07000088070000760700006407000052070000C1
:403A0000E00D0000920D00007A0E0000B80D000048120000F6120000900E0000980E0000980E0000B60F00006E100000000000006C3C00004C3E0000010000006C3E000041
:403A4000783E0000030000009C3E0000383C000002000000A43E0000A83E000004000000B43E0000BC3E0000050000009C3D0000E03E000001000000B83F0000C03F000092
:403A800000000000E03F0000E83F00000200000008400000144000000000000038400000404000000100000060400000684000000200000088400000904000000300000044
:403AC000A0400000A840000000000000810C0000BC40000001000000C90C0000C840000002000000C5140000D840000003000000290B0000E040000004000000650B0000D9
:403B0000F040000005000000A10B00000041000006000000ED0900001041000007000000DD0B00001C41000008000000FD0A00002C41000000000000F83E0000003F0000D9
:403B400001000000103F0000203F000002000000403F0000503F000003000000703F00007C3F000004000000983F0000A43F0000283E00002C3E0000343E00003C3E00009F
:403B8000443E00009400D34B00820000FF00FF00FFFF00FF7F00FF00000000007B226576656E74223A22616C61726D222C202274797065223A220000222C2022736F757263
:403BC0006365223A22000000222C20226465736372697074696F6E223A220000227D00007B226576656E74223A22616E696D6174696F6E222C20226E616D65223A22000082
:403C0000222C2022616374696F6E223A220000007B226576656E74223A22627574746F6E222C20226964223A000000002C2022616374696F6E223A2200000000706F736941
:403C400074696F6E0000000063616E27742066696E6420636F6D6D6120696E20636F6D6D616E64004649584D45210000616E696D6174696F6E000000756E737570706F72F3
:403C800074656420616E696D6174696F6E20616374696F6E0000000063616E2774207061727365207265642066726F6D2052474220636F6C6F72000063616E27742070611A
:403CC00072736520677265656E2066726F6D2052474220636F6C6F720000000063616E27742070617273656420677265656E2066726F6D2052474220636F6C6F7200000090
:403D000063616E2774207061727365204C454420696E64657820636F6C6F720063616E2774207061727365204C454420696E646578000000696E76616C6964206C6564207E
:403D4000696E64657800000063616E2774207061727365204C454420737472697020636F6D6D616E64000000756E737570706F72746564206C656420616374696F6E000021
:403D8000756E737570706F7274656420747261636B657220616374696F6E000076657273696F6E00302E303200000000756E737570706F7274656420636F6D6D616E640002
:403DC000757000007374617274696E670000000073746F7070696E6700000000696E76616C69642073746172742D656E642063686172616374657228732900006661696C38
:403E0000656420746F20657865637574652074686520636F6D6D616E640000006578656375746564000000006C6F6700696E666F000000007761726E696E67006572726F50
:403E400072000000666174616C0000007365742074686520616E696D6174696F6E20706172616D65746572730000000063617073656E7365000000007365742F67657420BA
:403E80007468652063617073656E736520636F6E66696775726174696F6E000068656C70000000006C656400736574206C65642873290000747261636B6572007365742F0D
:403EC0006765742074686520747261636B657220636F6E66696775726174696F6E000000676574207468652061637475616C2076657273696F6E0000636C65617200000015
:403F0000636C65617220616C6C206C656473000073657420636F6C6F72206C65667400007365742074686520636F6C6F72206F6620746865206C656674204C454400000001
:403F400073657420636F6C6F72207269676874007365742074686520636F6C6F72206F6620746865207269676874204C45440000736574207768697465000000736574200A
:403F8000746865207768697465204C454420696E74656E736974790073657420737472697000000073657420746865204C454420737472697000000064697361626C65001D
:403FC00064697361626C652066696E67657220747261636B6572206F6E204C4544730000656E61626C650000656E61626C652066696E67657220747261636B6572206F6E6F
:40400000204C45447300000073657420627574746F6E000073657420746865206E756D626572206F66206C6F676963616C20627574746F6E730000006175746F00000000E2
:4040400073657420616E696D6174696F6E20696E206175746F6D61746963206D6F6465006D616E75616C000073657420616E696D6174696F6E20696E206D616E75616C2012
:404080006D6F64650000000073746F700000000073746F7020616E696D6174696F6E0000726573756D650000726573756D6520616E696D6174696F6E000000006C65667442
:4040C0002D72696768740000776869746520696E74656E736974790032206C656473000072656420696E74656E73697479000000677265656E20696E74656E7369747900F9
:40410000626C756520696E74656E736974790000616C6C20636F6C6F727300007261696E626F7720636F6C6F727300003420666978207768697465204C45447320617420E8
:4041400066756C6C20696E74656E736974790000202020202020202020200000984100007A0200208E0200209C0100202802002001000A00020A64001C0B0000B0010020A6
:40418000980100200E00640028280A031E6420040000A0000000FFFF0004024008040440000404400404044000F00000080000000C03090000000240080004400000044027
:4041C000040004400F000000010000000000000000000240080004400000044004000440F000000002000000040103000000024008000440000004400400044000000F002A
:404200001000000010040C00000002400800044000000440040004400000F0002000000014050F0000010240080104400001044004010440000F00000400000008020600BB
:404240000001024008010440000104400401044000F00000080000000C03090000010240080104400001044004010440000000F0800000001C0715000002024008020440B8
:4042800000020440040204400F000000010000000000000000020240080204400002044004020440F0000000020000000401030000000000EEDBC9B9AA9B8E82766B60560B
:4042C0004D443B332C241D17100A0400202020202020202020282828282820202020202020202020202020202020202088101010101010101010101010101010040404046D
:404300000404040404041010101010101041414141414101010101010101010101010101010101010101011010101010104242424242420202020202020202020202020255
:4043400002020202020202101010102000000000000000000000000000000000000000000000000000000000000000000000000000000000000000000000000000000000CF
:4043800000000000000000000000000000000000000000000000000000000000000000000000000000000000000000000000000000000000000000000000000000000000FD
:4043C00000000000000000000000000043000000F8B5C046F8BC08BC9E467047D501000091150000F8B5C046F8BC08BC9E467047A90100000844000088000020980000003C
:404400009803000000000000000000000600FFFFFFFFFFFF01010101010006000700010002000004010000000000E02EC05D00001800000000366E01CB42000000000000D2
:4044400000000000000000000000000000000000000000000000000000000000CC43000000000000000000000000000000000000000000000000000000000000000000002D
:4044800000000000000000000000000000000000000000000000000000000000BC000020000000000000000000000000000000000000000000000000000000000000000020
:4044C00000000000000000000000000000000000000000000000000000000000000000000000000000000000000000000000000000000000000000000000000000000000BC
:40450000000000000000000000000000000000000000000000000000000000000000000000000000000000000000000000000000000000000000000000000000000000007B
:40454000000000000000000000000000000000000000000000000000000000000000000000000000000000000000000000000000000000000000000000000000000000003B
:4045800000000000000000000000000000000000000000000000000000000000000000000000000000000000000000000000000000000000000000000000000000000000FB
:0200000490303A
:02000000601C82
:0200000490402A
:200000000000000000000000000000000000000000000000000000000000000000000000E0
:0200000490501A
:0C0000000002190711A90001191C71C5AC
:0200000490600A
:0100000001FE
:00000001FF