:4000000000100020110000006D0100006D01000008B500F06DFF00F0F7F900F0AFF8C04610B50B4C12232360182000F0EBFEE0221201084B1A60084A084B1A600022084BB2
:400040001A604032074B1A601123236010BDC046300010400003014040FF008000000140280003400001014008B572B6EE22094B1A60EE221202084B1A600322074B1A6028
:400080002132074B1A60D8221201064B1A60FFF7C7FF08BD00010240000302400001044008010440080304400000000000000000000000000000000000000000000000005F
:4000C0000000000000000000000000000000000000000000000000000000000000000000000000000000000000000000000000000000000000000000000000000000000000
:4001000010B5064C2378002B07D1054B002B02D0044800E000BF0123237010BD18010020000000007416000008B5084B002B03D00748084900E000BF07480368002B00D188
:4001400008BD064B002BFBD09847F9E700000000741600001C010020900000200000000008B562B600F006FCFEE7C04608B501F03FFA03680C2B00D1FEE7FEE770B50F4EE5
:400180000F4D13E029686B68AC68002202E001C901C30432A242FAD1E868002202E0002102C304328242FAD11035013E002EE9D101F024FAFFF7D4FFFEE7C04601000000D2
:4001C0004817000008B500230AE0032B03D89A000C49505800E00C4899000C4A885001331F2BF2D9FFF740FF0022094B1A60094B1B68002B01D1074B1A6080229205064BA3
:400200001A6008BD000000006D01000000000020880000208000002008ED00E0002306E04218013A12789B189BB2013989B20029F6D1584280B2704730B5002307E01C18A1
:400240002478E4B2CD5CAC4205D101339BB29342F5D3002000E0022030BDC0460047C04608B58022024B1A6000F042FD08BDC04680000020F0B583B00D1C6B469E1DDA8058
:4002800001230B704870141CAA70130ACB70171DB9B2281CFFF7C2FFE855631D000AE854A31D1722EA540734A1B2281C321C962300F0B2FE03B0F0BD70B5051C0E1C141CF8
:4002C000002802D0002000F0D9FC002004E0013CAB191B5D1818C0B2002CF8D170BDC04608B50C2857D880003A4B1B589F46C9014942394B9C466144012351E0C901494251
:40030000364B9C46614404234AE0C9014942344B9C466144022343E0C9014942314B9C46614404233CE0C90149422F4B9C466144012335E0C90149422C4B9C466144012320
:400340002EE0C90149422A4B9C466144022327E0C9014942274B9C466144022320E0C9014942254B9C466144022319E0C9014942224B9C466144042312E0C9014942204BF3
:400380009C46614401230BE0C90149421D4B9C466144042304E0002000F070FC02230021012B02D10878C0B200E00020022B03D10A78487800021043042B0AD10A784B78BE
:4003C0001B021A4388780004031C1343C8780006184308BD78160000C07F0000C17F0000C57F0000C97F0000D07F0000D17F0000D67F0000D27F0000D47F0000D87F00001C
:40040000DC7F0000E07F000008B50D4B1B68DB0602D400220B4B1A600A4B1B68802B0ED10022084B1A6002200021FFF759FF002805D002200021FFF753FFFFF70FFF08BD8E
:40044000540003408000002070B5051C0320291CFFF746FF441CE4010420291CFFF740FF24180320291CFFF73BFF0130C0010023002608E001784A1ED2B2FD2A00D80126F7
:400480005B18DBB20130A042F4D35B42DCB20120291CFFF725FF844203D1002E03D1062002E0062000E0002070BDC046F0B55F4656464D464446F0B4B44CA544051C00F019
:4004C00059FD62B600239B4698460A240027002D01D1FF2300E02B1C52A896214900AC4A02AEB446624400F061FD002D01D0013CE4B2002C01D00028E9D1002800D025E2D2
:40050000A34B02AA944663441B88062B24D952AA1278012A22D152A9CA78120289780A43171C111C07329A421AD896235B009A4218D87A1D52AB9E5C3202381D1E5C16435B
:4005400006315B5C172B0FD181B252A8FFF766FEB0420BD100260AE0042608E0042606E0032604E0032602E0042600E00826002E00D08BE152AB1A7991465A78131C313B56
:40058000D9B2142900D956E18B008249CB589F464346012B00D07BE1012F00D07BE14B46002B00D07AE14846FFF74EFF002800D077E14B46D9014942774B9C46614453A886
:4005C000382201F041F85622B9E14346012B00D06AE1002F00D06AE10020FFF735FF4342434152AA13710122A9E14346012B00D060E1032F02D0832F00D05EE152AA937938
:400600001B02527913439A46032F08D0FA1E07A84821FF3102AB9C46614401F015F84B46002B00D04CE118025044C0015346FF2B00D90A26002E00D045E107A98022FFF7A0
:40064000FBFD061C00227AE14346012B00D03CE1012F00D03CE14B46002B00D03BE14F4B1B681B68DA0BD2B2914502D15B041B0E05E0914501D9002301E080235B0052AAAF
:4006800013711B0A5371FF2393710023D371042255E1342A0DD14346012B00D01EE1032F00D01EE107A800214C3200F0D6FF80239B464346012B00D016E1022F00D816E110
:4006C00007A85844FA1E4821FF3102AB9C46614400F0BAFF3B1C5B449BB2832B00D009E152AA93791B02527913439B46FF2B00D90A26002E00D003E14B461802584480B2C1
:40070000264B1B681A68D3099BB2520601D001339BB2984200D2F6E007A900F0D9F9002800D00A2600239B468027002207E14346012B00D108E10426002200E14346012B4E
:4007400000D0E6E05B46DB1996225200934200D9E2E007A8584453A93A1C00F075FF5B46DB199BB29B460022E9E0002F00D0D6E004AA0B4B03CB03C253AA04AB03CB03C29A
:4007800000239B46013398460822D8E084FDFFFF6E020000AC160000C07F000094000020001700004346012B00D0BBE0032F00D0BBE052AA93791B02527913439A464B4612
:4007C00019025144C9015346FF2B00D90A26002E00D0ADE000208022FFF76EFD01904B461B0253449BB24A46002A10D1FF2B0ED105200021FFF774FD019B1B1ADBB2994654
:4008000006200021FFF76CFD4B461B1AD8B2424252AB1A71012292E00020FFF715FE002802D18022514B1A6000F0BCFB00F060FA0426002283E04E4B1B68002B7AD041468D
:4008400001297AD102A90A704F8053AA039200210491059104AE069202A8311C9847B2882623FF339A4203D953AB0699994207D0069B002B01D1002A05D1049BDEB25EE04A
:400880000E2600225BE00E26002258E0002256E00426002253E00426002250E00C2600224DE00C2600224AE00426002247E00426002244E00426002241E0042600223EE00D
:4008C000092600223BE0002239E00426002236E00426002233E00426002230E0042600222DE0042600222AE00426002227E00426002224E000239B468027032600221EE0EE
:40090000802700221BE000239B4680270A26002215E00426002212E0032600220FE0042600220CE00426002209E00426002206E0002204E00526002201E005260022301C1D
:4009400052A9FFF797FC01E000239B46002D00D1BDE54346012B00D1B9E59F239B009D443CBC90469946A246AB46F0BD800000203401002038B50020FFF766FD002801D085
:40098000062400E00024154D2B681A68C03A0020C021FFF791FC6B681B78C01AC0B24042C0B2834204D10D4B1B681B68002B02D1002000F063F90A4B1B68402B01D0002CCC
:4009C00005D00022064B1A600020FFF76FFD6420FFF76CFDFFF744FC38BDC046940000208000002082B00F4B00930F4B01930F4B6A461A600E490F4A1160C0461B681B0FE6
:400A00000F2B04D1094B1B68FF20184008E0074B1B681B0F0A2B02D0044B186800E0002002B07047B6E90000380100200800104016000080040010400C4B0D4A1A600D497B
:400A40000D4A1160C0461B681B0F0F2B04D1074B1B68FF20184008E0044B1B681B0F0A2B02D0024B186800E00020704708001040B6E80000150000800400104082B00F4BC6
:400A800000930F4B01930F4B6A461A600E490F4A1160C0461B681B0F0F2B04D1094B1B68FF20184008E0074B1B681B0F0A2B02D0044B186800E0002002B07047B6EA00003A
:400AC0003801002008001040170000800400104030B5A5B0002323932293FF2860D800295ED0041C02A8802200F0AEFD2F4B00937F2301932E4B6A461A602E492E4A11608F
:400B0000C0461B681B0F0F2B04D1294B1B68FF22134008E0264B1B681B0F0A2B02D0244B1B6800E000232393239B002B3AD100F0F0F9051CFFF756FF2290229B002B02D12A
:400B4000FFF77AFF2390239B002B1FD11B4B0093009B200418430090154B6A461A601849154A1160C0461B681B0F0F2B04D1104B1B68FF22134008E00D4B1B681B0F0A2BE6
:400B800002D00B4B1B6800E000232393229B002B02D1FFF773FF2290281C00F0BEF901E004232393239825B030BDC046B6D70000080010400400008004001040B6D8000085
:400BC0000500008038B5041C00F0A3F9051C102C05D8104A136803218B43136016E0202C07D80C490B6803229343023A13430B600CE0302C07D807490B6803229343013A62
:400C000013430B6002E0002000F038F8281C00F084F938BD30001040024A1168024B0B401360704700000740FFFFFFBF034B18688023DB05184000D0012070470000074089
:400C40001F2318401E3B8340181C014B1860704700E100E01F2318401E3B8340181C014B1860704780E100E01F2318401E3B8340181C014B1860704780E200E001BE70478B
:400C800038B5041C0D1C0F2802D90020FFF7F6FFA400034B9C4664442068256038BDC0464000002070B5041C0E1E032E02D90020FFF7E4FF0F2C02D90020FFF7DFFF032555
:400CC0002540ED00063500F024F9A408A400074B9C46644423680322AA409343AE40351C1D43256000F019F970BDC04600E400E0034A13681B041B0C02490B4313607047D0
:400D00000CED00E00400FA0510B5041C06E0084B586800F0F5F8074B9C46644480231B029C42F4D8024B9868604300F0E9F810BD9C0000200080FFFF30B583B000F0CEF840
:400D4000002848D000F0E5F8041C244B1B6807221A409200131C1833214A12681207920FD3401A1C1F4B19681F4B19401F4B53438020C00184466344DB0B013B5B055B0D73
:400D80000B43A02149031943192A02D8184A13430BE0184BD31818781A3A174B9B5CC318FF2B00D9FF239B050B430E4A1360134D2B6801933020FFF705FF114A1368802130
:400DC000C9050B4313601420FFF79EFF019B2B60201C00F0A2F803B030BDC046080F0340280003400800074000F800C040420F000000D43FCDF1FF0F08170000300010402F
:400E000000000740F0B583B0041E182C0BD01C2809D0202807D0242805D0282803D02C2801D0302849D100F074F80190FFF7FEFE002803D0FFF7F0FE012600E00026214AE5
:400E4000136807218B4313601F4BE3181B78DBB21E4A13601E4A13688B4313601D4803687F229343191C1C4BE3181B7813400B430360322000F044F8182C16D9114F3B68E1
:400E80000725AB431A1C231C1C3B9B082B4013433B60322000F034F83A68AA43231C183B9B082C1C1C4014433C60012E01D1FFF743FF019800F031F802E00020FFF7DEFEC5
:400EC00003B0F0BD080F0340CDF1FF0F0C0F0340100F0340180F0340B4F1FF0F034B1B68002B01DA012000E00020704700000740014A024B1A6070476588EDAC38000340CF
:400F00000230800803D001300238FCD1C046C0467047EFF3108072B6704780F3108870470F4B1B685B0619D50E4B1B68DB060BD50D4B1B68002B11D00C4A136000230C4A24
:400F40001360094A136009E0094B1A68074B1B689A4203D0054B1A68054B1A607047C0464C0F08406400084050010020E8010020DC01002010B5094C201D402100F082F8B4
:400F8000201C4430002100F05FF8054800F0D4F80023236000F0AAF810BDC04650010020210F000008B500F0B1F808BDF8B5071C0E1C151C002825D0002925D09C00E4184B
:400FC00064001BE0114B1B78DB0613D5104B1A682A8000220D490A701A602B881A1CB34200D9321C92B2381C0A49043100F02CFB00200AE00120FFF787FE013C002CE1D1EA
:40100000102002E0012000E00120F8BDF0010020E00100205001002038B5031C0C1C00280CD000290CD01180064D281C4430191C221C00F009FB2C60002002E0012000E075
:40104000012038BD5001002038B5002810D00D1C041C0720FFF7FEFD064B1C60064B1D600023064A1360064A13600720FFF7E8FD38BDC046EC010020E8010020DC0100203F
:40108000F401002038B500280ED00D1C041C0720FFF7E0FD054B1C60054B1D600022054B1A600720FFF7CCFD38BDC046F8010020E4010020E001002008B50720FFF7C0FDC9
:4010C00008BDC04608B500F0A3F808BD08B500F039F808BD08B5044A1368802109060B431360FFF7E9FF08BD0000084008B5064B1B78002B04D1FFF7E9FF0122024B1A701A
:40110000FFF7E8FF08BDC046D401002008B50720FFF7A0FDFFF7D6FF054A13685B005B0813600022034B1A600720FFF79DFD08BD00000840880F0840014B58607047C04687
:40114000D401002010B500241B4B1C601B4A1C4B1A601C4B1C4A13601C4A14601C491D4A11601D4A13601D4B1C600720FFF772FD07200321FFF796FD07201949FFF780FDF8
:40118000184B1C60184B1C604C22FF32174B1A60174B1C60174B1C60174B1C603C3AFF3A164B1A70164B1C70164B1C60164B1C60164B1C7010BDC046000008407708004054
:4011C000600008400701008000030840040308401000FE001003084000020840040208401D120000C80E0840880E0840480F0840080F0840C80F0840880F0840FD010020DF
:40120000F0010020DC010020E0010020FC0100201022014B1A707047FD01002010B5CF4B1B68002B00D09847CD4B1B68DB0702D50022CC4B1A60CC4B1B789B061FD4CB4B0E
:401240001A680223FF331A4219D0C74B1B78DB0709D5C74B1A7802218A431A70197809220A431A7008E0C24B1A7820218A431A70197890220A431A700022BB4B1A70BA4B4A
:401280001B789B0600D567E1B74B1B78DB0600D44CE1B64B1B689B073ED50222B54B1A60B54A13681F211940136880221202134000D00123CB18B14A1278D2B29A4205D95E
:4012C000AB4A117804230B43137006E0AB4A12789B1AAB490A68D31A0B60A94B1A68A94B1A600023A84A1360A44A1370A74B1A68802149020A431A601968A54A0A401A6068
:401300009B4B1A7802218A431A70197801220A431A701022944B1A70944B1B681B0737D50822944B1A609B4B1B689B040CD414E0994B1A68994909688A1899490968C9B27D
:4013400011701A6801321A60964B1B68DB06EFD1904A1168944B0B401360944B1B689B0604D5834A117840230B4313700022904B1A60904A8D4B1A607D4B1A7820218A4357
:401380001A70197810220A431A70774B10221A70764B1B685B0646D50122874B1A60874B1B68DB060FD50F32774B1A60754B1A68734B1A606E4A117802230B4313701222E0
:4013C000694B1A7024E07E4B1B68734A12689B1A072B03D80422764B1A6011E0082B06D16C4A1368A02109020B43136008E0694A1368802189010B43136008226C4B1A60EF
:401400005B4A117820230B4313701122564B1A706C4A584B1A606C4A116808230B43136001226A4B1A606A4B1B681B072AD5644B1B68594A1068181A0838082802D9002485
:4014400008200EE001240CE0534B1A68534909688A1853490968C9B211701A6801321A6001380028F0D1002C08D04A4A1368802109020B43136000224D4B1A6008224B4BA8
:401480001A6024E0524B1B685B0720D5444B1B68414A11684A4A126891420DD201214B4A11603D4A11683D4800684118DBB20B7013680133136007E00222444B1A602C4A3F
:4014C000117840230B4313700422384B1A60414B1B68DB0620D43FE0294B1A683E4B1B689A420CD2264B1A683C4909688A181278D2B23B490A601A6801321A600CE0FF228A
:40150000374B1A601D4B1B78DBB20A2B04D81B4A13780133DBB21370174B1B681F221340082BD9D10F3A2F4B1A6015E02E4A13685B005B08136010210B4B1970154B186846
:4015400019490140196018682849014019601368802109060B43136010BDC046D80100208C0E0840880E0840FD0100204C0F0840F0010020400F084008020840FC01002054
:40158000F4010020DC010020880F084004020840FFFFFEFF60000840E0010020F80100204003084008030840FF5FFFFFC00F0840C80F0840ED0F0000800E08406400084041
:4015C000E4010020FF0F0000480F08406C000840CC0F08408C0F0840E8010020EC01002040020840800F084000000840FFFCFFFF014B18687047C046100100200E4B70B58F
:4016000000251E1C0D4CE41AA410A54204D0AB00F35898470135F8E700F084F8084B00251E1C084CE41AA410A54204D0AB00F35898470135F8E770BD301700003017000017
:401640003017000038170000002310B5934203D0CC5CC4540133F9E710BD031C8218934202D019700133FAE77047000000180000740000000000000096030000EE02000059
:40168000FC0200000A03000018030000260300003403000050030000420300005E0300006C0300007A03000088030000CA0500004806000036080000920600002E0700000C
:4016C000360800003C0700006A07000092060000A407000018080000900500003608000036080000360800003608000036080000360800003608000036080000EA05000021
:40170000A9110B1900320101EEDBC9B9AA9B8E82766B60564D443B332C241D17100A040043000000F8B5C046F8BC08BC9E46704729010000C5010000F8B5C046F8BC08BC9B
:401740009E46704701010000581700009000002088000000E8000000000000006C16000070160000010000000000E02EC05D00001800000000366E0100000000000000004C
:4017800000000000000000000000000000000000000000000000000020170000000000000000000000000000000000000000000000000000000000000000000000000000F2
:4017C000000000000000000000000000000000000000000000000000B000002000000000000000000000000000000000000000000000000000000000000000000000000019
:4018000000000000000000000000000000000000000000000000000000000000000000000000000000000000000000000000000000000000000000000000000000000000A8
:401840000000000000000000000000000000000000000000000000000000000000000000000000000000000000000000000000000000000000000000000000000000000068
:401880000000000000000000000000000000000000000000000000000000000000000000000000000000000000000000000000000000000000000000000000000000000028
:4018C00000000000000000000000000000000000000000000000000000000000000000000000000000000000000000000000000000000000000000000000000000000000E8
:407FC0000000000000000000000000000000000000000000010000000000000000000000000000000000000000000000000000000000000000000000000000000000000080
:0200000490303A
:02000000334883
:0200000490402A
:200000000000000000000000000000000000000000000000000000000000000000000000E0
:0200000490501A
:0C0000000002190B11A90001191244F1B3
:0200000490600A
:0100000001FE
:00000001FF