:4000000000100020110000006D0100006D01000008B500F06DFF00F0F7F900F0AFF8C04610B50B4C12232360182000F0EBFEE0221201084B1A60084A084B1A600022084BB2
:400040001A604032074B1A601123236010BDC046300010400003014040FF008000000140280003400001014008B572B6EE22094B1A60EE221202084B1A600322074B1A6028
:400080002132074B1A60D8221201064B1A60FFF7C7FF08BD00010240000302400001044008010440080304400000000000000000000000000000000000000000000000005F
:4000C0000000000000000000000000000000000000000000000000000000000000000000000000000000000000000000000000000000000000000000000000000000000000
:4001000010B5064C2378002B07D1054B002B02D0044800E000BF0123237010BD18010020000000007416000008B5084B002B03D00748084900E000BF07480368002B00D188
:4001400008BD064B002BFBD09847F9E700000000741600001C010020900000200000000008B562B600F006FCFEE7C04608B501F03FFA03680C2B00D1FEE7FEE770B50F4EE5
:400180000F4D13E029686B68AC68002202E001C901C30432A242FAD1E868002202E0002102C304328242FAD11035013E002EE9D101F024FAFFF7D4FFFEE7C04601000000D2
:4001C0004817000008B500230AE0032B03D89A000C49505800E00C4899000C4A885001331F2BF2D9FFF740FF0022094B1A60094B1B68002B01D1074B1A6080229205064BA3
:400200001A6008BD000000006D01000000000020880000208000002008ED00E0002306E04218013A12789B189BB2013989B20029F6D1584280B2704730B5002307E01C18A1
:400240002478E4B2CD5CAC4205D101339BB29342F5D3002000E0022030BDC0460047C04608B58022024B1A6000F042FD08BDC04680000020F0B583B00D1C6B469E1DDA8058
:4002800001230B704870141CAA70130ACB70171DB9B2281CFFF7C2FFE855631D000AE854A31D1722EA540734A1B2281C321C962300F0B2FE03B0F0BD70B5051C0E1C141CF8
:4002C000002802D0002000F0D9FC002004E0013CAB191B5D1818C0B2002CF8D170BDC04608B50C2857D880003A4B1B589F46C9014942394B9C466144012351E0C901494251
:40030000364B9C46614404234AE0C9014942344B9C466144022343E0C9014942314B9C46614404233CE0C90149422F4B9C466144012335E0C90149422C4B9C466144012320
:400340002EE0C90149422A4B9C466144022327E0C9014942274B9C466144022320E0C9014942254B9C466144022319E0C9014942224B9C466144042312E0C9014942204BF3
:400380009C46614401230BE0C90149421D4B9C466144042304E0002000F070FC02230021012B02D10878C0B200E00020022B03D10A78487800021043042B0AD10A784B78BE
:4003C0001B021A4388780004031C1343C8780006184308BD78160000C07F0000C17F0000C57F0000C97F0000D07F0000D17F0000D67F0000D27F0000D47F0000D87F00001C
:40040000DC7F0000E07F000008B50D4B1B68DB0602D400220B4B1A600A4B1B68802B0ED10022084B1A6002200021FFF759FF002805D002200021FFF753FFFFF70FFF08BD8E
:40044000540003408000002070B5051C0320291CFFF746FF441CE4010420291CFFF740FF24180320291CFFF73BFF0130C0010023002608E001784A1ED2B2FD2A00D80126F7
:400480005B18DBB20130A042F4D35B42DCB20120291CFFF725FF844203D1002E03D1062002E0062000E0002070BDC046F0B55F4656464D464446F0B4B44CA544051C00F019
:4004C00059FD62B600239B4698460A240027002D01D1FF2300E02B1C52A896214900AC4A02AEB446624400F061FD002D01D0013CE4B2002C01D00028E9D1002800D025E2D2
:40050000A34B02AA944663441B88062B24D952AA1278012A22D152A9CA78120289780A43171C111C07329A421AD896235B009A4218D87A1D52AB9E5C3202381D1E5C16435B
:4005400006315B5C172B0FD181B252A8FFF766FEB0420BD100260AE0042608E0042606E0032604E0032602E0042600E00826002E00D08BE152AB1A7991465A78131C313B56
:40058000D9B2142900D956E18B008249CB589F464346012B00D07BE1012F00D07BE14B46002B00D07AE14846FFF74EFF002800D077E14B46D9014942774B9C46614453A886
:4005C000382201F041F85622B9E14346012B00D06AE1002F00D06AE10020FFF735FF4342434152AA13710122A9E14346012B00D060E1032F02D0832F00D05EE152AA937938
:400600001B02527913439A46032F08D0FA1E07A84821FF3102AB9C46614401F015F84B46002B00D04CE118025044C0015346FF2B00D90A26002E00D045E107A98022FFF7A0
:40064000FBFD061C00227AE14346012B00D03CE1012F00D03CE14B46002B00D03BE14F4B1B681B68DA0BD2B2914502D15B041B0E05E0914501D9002301E080235B0052AAAF
:4006800013711B0A5371FF2393710023D371042255E1342A0DD14346012B00D01EE1032F00D01EE107A800214C3200F0D6FF80239B464346012B00D016E1022F00D816E110
:4006C00007A85844FA1E4821FF3102AB9C46614400F0BAFF3B1C5B449BB2832B00D009E152AA93791B02527913439B46FF2B00D90A26002E00D003E14B461802584480B2C1
:40070000264B1B681A68D3099BB2520601D001339BB2984200D2F6E007A900F0D9F9002800D00A2600239B468027002207E14346012B00D108E10426002200E14346012B4E
:4007400000D0E6E05B46DB1996225200934200D9E2E007A8584453A93A1C00F075FF5B46DB199BB29B460022E9E0002F00D0D6E004AA0B4B03CB03C253AA04AB03CB03C29A
:4007800000239B46013398460822D8E084FDFFFF6E020000AC160000C07F000094000020001700004346012B00D0BBE0032F00D0BBE052AA93791B02527913439A464B4612
:4007C00019025144C9015346FF2B00D90A26002E00D0ADE000208022FFF76EFD01904B461B0253449BB24A46002A10D1FF2B0ED105200021FFF774FD019B1B1ADBB2994654
:4008000006200021FFF76CFD4B461B1AD8B2424252AB1A71012292E00020FFF715FE002802D18022514B1A6000F0BCFB00F060FA0426002283E04E4B1B68002B7AD041468D
:4008400001297AD102A90A704F8053AA039200210491059104AE069202A8311C9847B2882623FF339A4203D953AB0699994207D0069B002B01D1002A05D1049BDEB25EE04A
:400880000E2600225BE00E26002258E0002256E00426002253E00426002250E00C2600224DE00C2600224AE00426002247E00426002244E00426002241E0042600223EE00D
:4008C000092600223BE0002239E00426002236E00426002233E00426002230E0042600222DE0042600222AE00426002227E00426002224E000239B468027032600221EE0EE
:40090000802700221BE000239B4680270A26002215E00426002212E0032600220FE0042600220CE00426002209E00426002206E0002204E00526002201E005260022301C1D
:4009400052A9FFF797FC01E000239B46002D00D1BDE54346012B00D1B9E59F239B009D443CBC90469946A246AB46F0BD800000203401002038B50020FFF766FD002801D085
:40098000062400E00024154D2B681A68C03A0020C021FFF791FC6B681B78C01AC0B24042C0B2834204D10D4B1B681B68002B02D1002000F063F90A4B1B68402B01D0002CCC
:4009C00005D00022064B1A600020FFF76FFD6420FFF76CFDFFF744FC38BDC046940000208000002082B00F4B00930F4B01930F4B6A461A600E490F4A1160C0461B681B0FE6
:400A00000F2B04D1094B1B68FF20184008E0074B1B681B0F0A2B02D0044B186800E0002002B07047B6E90000380100200800104016000080040010400C4B0D4A1A600D497B
:400A40000D4A1160C0461B681B0F0F2B04D1074B1B68FF20184008E0044B1B681B0F0A2B02D0024B186800E00020704708001040B6E80000150000800400104082B00F4BC6
:400A800000930F4B01930F4B6A461A600E490F4A1160C0461B681B0F0F2B04D1094B1B68FF20184008E0074B1B681B0F0A2B02D0044B186800E0002002B07047B6EA00003A
:400AC0003801002008001040170000800400104030B5A5B0002323932293FF2860D800295ED0041C02A8802200F0AEFD2F4B00937F2301932E4B6A461A602E492E4A11608F
:400B0000C0461B681B0F0F2B04D1294B1B68FF22134008E0264B1B681B0F0A2B02D0244B1B6800E000232393239B002B3AD100F0F0F9051CFFF756FF2290229B002B02D12A
:400B4000FFF77AFF2390239B002B1FD11B4B0093009B200418430090154B6A461A601849154A1160C0461B681B0F0F2B04D1104B1B68FF22134008E00D4B1B681B0F0A2BE6
:400B800002D00B4B1B6800E000232393229B002B02D1FFF773FF2290281C00F0BEF901E004232393239825B030BDC046B6D70000080010400400008004001040B6D8000085
:400BC0000500008038B5041C00F0A3F9051C102C05D8104A136803218B43136016E0202C07D80C490B6803229343023A13430B600CE0302C07D807490B6803229343013A62
:400C000013430B6002E0002000F038F8281C00F084F938BD30001040024A1168024B0B401360704700000740FFFFFFBF034B18688023DB05184000D0012070470000074089
:400C40001F2318401E3B8340181C014B1860704700E100E01F2318401E3B8340181C014B1860704780E100E01F2318401E3B8340181C014B1860704780E200E001BE70478B
:400C800038B5041C0D1C0F2802D90020FFF7F6FFA400034B9C4664442068256038BDC0464000002070B5041C0E1E032E02D90020FFF7E4FF0F2C02D90020FFF7DFFF032555
:400CC0002540ED00063500F024F9A408A400074B9C46644423680322AA409343AE40351C1D43256000F019F970BDC04600E400E0034A13681B041B0C02490B4313607047D0
:400D00000CED00E00400FA0510B5041C06E0084B586800F0F5F8074B9C46644480231B029C42F4D8024B9868604300F0E9F810BD9C0000200080FFFF30B583B000F0CEF840
:400D4000002848D000F0E5F8041C244B1B6807221A409200131C1833214A12681207920FD3401A1C1F4B19681F4B19401F4B53438020C00184466344DB0B013B5B055B0D73
:400D80000B43A02149031943192A02D8184A13430BE0184BD31818781A3A174B9B5CC318FF2B00D9FF239B050B430E4A1360134D2B6801933020FFF705FF114A1368802130
:400DC000C9050B4313601420FFF79EFF019B2B60201C00F0A2F803B030BDC046080F0340280003400800074000F800C040420F000000D43FCDF1FF0F08170000300010402F
:400E000000000740F0B583B0041E182C0BD01C2809D0202807D0242805D0282803D02C2801D0302849D100F074F80190FFF7FEFE002803D0FFF7F0FE012600E00026214AE5
:400E4000136807218B4313601F4BE3181B78DBB21E4A13601E4A13688B4313601D4803687F229343191C1C4BE3181B7813400B430360322000F044F8182C16D9114F3B68E1
:400E80000725AB431A1C231C1C3B9B082B4013433B60322000F034F83A68AA43231C183B9B082C1C1C4014433C60012E01D1FFF743FF019800F031F802E00020FFF7DEFEC5
:400EC00003B0F0BD080F0340CDF1FF0F0C0F0340100F0340180F0340B4F1FF0F034B1B68002B01DA012000E00020704700000740014A024B1A6070476588EDAC38000340CF
:400F00000230800803D001300238FCD1C046C0467047EFF3108072B6704780F3108870470F4B1B685B0619D50E4B1B68DB060BD50D4B1B68002B11D00C4A136000230C4A24
:400F40001360094A136009E0094B1A68074B1B689A4203D0054B1A68054B1A607047C0464C0F08406400084050010020E8010020DC01002010B5094C201D402100F082F8B4
:400F8000201C4430002100F05FF8054800F0D4F80023236000F0AAF810BDC04650010020210F000008B500F0B1F808BDF8B5071C0E1C151C002825D0002925D09C00E4184B
:400FC00064001BE0114B1B78DB0613D5104B1A682A8000220D490A701A602B881A1CB34200D9321C92B2381C0A49043100F02CFB00200AE00120FFF787FE013C002CE1D1EA
:40100000102002E0012000E00120F8BDF0010020E00100205001002038B5031C0C1C00280CD000290CD01180064D281C4430191C221C00F009FB2C60002002E0012000E075
:40104000012038BD5001002038B5002810D00D1C041C0720FFF7FEFD064B1C60064B1D600023064A1360064A13600720FFF7E8FD38BDC046EC010020E8010020DC0100203F
:40108000F401002038B500280ED00D1C041C0720FFF7E0FD054B1C60054B1D600022054B1A600720FFF7CCFD38BDC046F8010020E4010020E001002008B50720FFF7C0FDC9
:4010C00008BDC04608B500F0A3F808BD08B500F039F808BD08B5044A1368802109060B431360FFF7E9FF08BD0000084008B5064B1B78002B04D1FFF7E9FF0122024B1A701A
:40110000FFF7E8FF08BDC046D401002008B50720FFF7A0FDFFF7D6FF054A13685B005B0813600022034B1A600720FFF79DFD08BD00000840880F0840014B58607047C04687
:40114000D401002010B500241B4B1C601B4A1C4B1A601C4B1C4A13601C4A14601C491D4A11601D4A13601D4B1C600720FFF772FD07200321FFF796FD07201949FFF780FDF8
:40118000184B1C60184B1C604C22FF32174B1A60174B1C60174B1C60174B1C603C3AFF3A164B1A70164B1C70164B1C60164B1C60164B1C7010BDC046000008407708004054
:4011C000600008400701008000030840040308401000FE001003084000020840040208401D120000C80E0840880E0840480F0840080F0840C80F0840880F0840FD010020DF
:40120000F0010020DC010020E0010020FC0100201022014B1A707047FD01002010B5CF4B1B68002B00D09847CD4B1B68DB0702D50022CC4B1A60CC4B1B789B061FD4CB4B0E
:401240001A680223FF331A4219D0C74B1B78DB0709D5C74B1A7802218A431A70197809220A431A7008E0C24B1A7820218A431A70197890220A431A700022BB4B1A70BA4B4A
:401280001B789B0600D567E1B74B1B78DB0600D44CE1B64B1B689B073ED50222B54B1A60B54A13681F211940136880221202134000D00123CB18B14A1278D2B29A4205D95E
:4012C000AB4A117804230B43137006E0AB4A12789B1AAB490A68D31A0B60A94B1A68A94B1A600023A84A1360A44A1370A74B1A68802149020A431A601968A54A0A401A6068
:401300009B4B1A7802218A431A70197801220A431A701022944B1A70944B1B681B0737D50822944B1A609B4B1B689B040CD414E0994B1A68994909688A1899490968C9B27D
:4013400011701A6801321A60964B1B68DB06EFD1904A1168944B0B401360944B1B689B0604D5834A117840230B4313700022904B1A60904A8D4B1A607D4B1A7820218A4357
:401380001A70197810220A431A70774B10221A70764B1B685B0646D50122874B1A60874B1B68DB060FD50F32774B1A60754B1A68734B1A606E4A117802230B4313701222E0
:4013C000694B1A7024E07E4B1B68734A12689B1A072B03D80422764B1A6011E0082B06D16C4A1368A02109020B43136008E0694A1368802189010B43136008226C4B1A60EF
:401400005B4A117820230B4313701122564B1A706C4A584B1A606C4A116808230B43136001226A4B1A606A4B1B681B072AD5644B1B68594A1068181A0838082802D9002485
:4014400008200EE001240CE0534B1A68534909688A1853490968C9B211701A6801321A6001380028F0D1002C08D04A4A1368802109020B43136000224D4B1A6008224B4BA8
:401480001A6024E0524B1B685B0720D5444B1B68414A11684A4A126891420DD201214B4A11603D4A11683D4800684118DBB20B7013680133136007E00222444B1A602C4A3F
:4014C000117840230B4313700422384B1A60414B1B68DB0620D43FE0294B1A683E4B1B689A420CD2264B1A683C4909688A181278D2B23B490A601A6801321A600CE0FF228A
:40150000374B1A601D4B1B78DBB20A2B04D81B4A13780133DBB21370174B1B681F221340082BD9D10F3A2F4B1A6015E02E4A13685B005B08136010210B4B1970154B186846
:4015400019490140196018682849014019601368802109060B43136010BDC046D80100208C0E0840880E0840FD0100204C0F0840F0010020400F084008020840FC01002054
:40158000F4010020DC010020880F084004020840FFFFFEFF60000840E0010020F80100204003084008030840FF5FFFFFC00F0840C80F0840ED0F0000800E08406400084041
:4015C000E4010020FF0F0000480F08406C000840CC0F08408C0F0840E8010020EC01002040020840800F084000000840FFFCFFFF014B18687047C046100100200E4B70B58F
:4016000000251E1C0D4CE41AA410A54204D0AB00F35898470135F8E700F084F8084B00251E1C084CE41AA410A54204D0AB00F35898470135F8E770BD301700003017000017
:401640003017000038170000002310B5934203D0CC5CC4540133F9E710BD031C8218934202D019700133FAE77047000000180000740000000000000096030000EE02000059
:40168000FC0200000A03000018030000260300003403000050030000420300005E0300006C0300007A03000088030000CA0500004806000036080000920600002E0700000C
:4016C000360800003C0700006A07000092060000A407000018080000900500003608000036080000360800003608000036080000360800003608000036080000EA05000021
:40170000A9110B1900320101EEDBC9B9AA9B8E82766B60564D443B332C241D17100A040043000000F8B5C046F8BC08BC9E46704729010000C5010000F8B5C046F8BC08BC9B
:401740009E46704701010000581700009000002088000000E8000000000000006C16000070160000010000000000E02EC05D00001800000000366E0100000000000000004C
:4017800000000000000000000000000000000000000000000000000020170000000000000000000000000000000000000000000000000000000000000000000000000000F2
:4017C000000000000000000000000000000000000000000000000000B000002000000000000000000000000000000000000000000000000000000000000000000000000019
:401800000010002011180000B1370000B137000008B5034B83F3088804F0B2F801F0D0FF0010002010B5144C12232360182004F023F880225200114B1A60114B114A1A60C1
:40184000FE210902104A1160104A1A60E02109010F4A11600F4A1A6000220F4B1A6041320E4B1A60013A0E4B1A6002320D4B1A601123236010BDC046300010400403014055
:401880000000014041FF00800003014040FF00800803014042FF0080280003400C010140080101400001014008B572B6CC22D204174B1A60EE22174B1A60EE221202164BDC
:4018C0001A602F22154B1A605032154B1A601032144B1A606B3A144B1A606832134B1A605E32134B1A60DA3A124B1A60DC32124B1A60D8221201114B1A600622104B1A60C4
:401900000832104B1A60FFF78DFF01F0C5FF08BD00000240000102400003024000000440180004400001044008010440180104400002044008020440180204400803044002
:40194000080404401804044010B5064C2378002B07D1054B002B02D0044800E000BF0123237010BD1802002000000000F46B000008B5084B002B03D00748084900E000BF60
:4019800007480368002B00D108BD064B002BFBD09847F9E700000000F46B00001C020020900000200000000010B50C1C052844D88000284B1B589F460120002100F06EFF39
:4019C0000220211C00F06AFF0320002100F066FF3FE00320002100F061FF0420211C00F05DFF0520002100F059FF32E00520002100F054FF0620211C00F050FF0720002123
:401A000000F04CFF25E00720002100F047FF0820211C00F043FF0920002100F03FFF18E00920002100F03AFF0A20211C00F036FF0B20002100F032FF0BE00B20002100F04E
:401A40002DFF0C20211C00F029FF0D20002100F025FF10BD006C000010B5244B984211D199420FD00C1C00F0A1FF011C9620800004F002FD011C201C04F06EFC01301C4B27
:401A800018802FE0502903D80122194B1A8029E00B1C783B3C2B03D80222154B1A8021E00B1CDC3B3C2B03D80322114B1A8019E00B1C413BFF3B3C2B03D804220C4B1A80FC
:401AC00010E00B1CA53BFF3B3C2B03D80522084B1A8007E0074B9C466144502902D80622034B1A80024B188810BDC046FFFF000034020020F8FDFFFF08B5074B984208D86C
:401B0000272804D9282104F027FC80B202E0012000E00F2008BDC0467F02000070B5061C0D1C00F043FF011C0F2004F0A5FC84B200F030FF002820D0012C10D9301C311CEA
:401B4000FFF78AFF0021221CFFF72EFF281C291CFFF782FF0B49221CFFF726FF0DE0301CFFF7CAFFC0B2002100F098FE281CFFF7C3FFC0B2034900F091FE281CFFF7BCFF78
:401B800070BDC046FF0F000010B504F026F8041C002003F0FDFE0020002100F011FF201C04F01FF810BDC04670B590B068460021402204F0DAFF002416E00D4EE500A85DC2
:401BC00002F002F975196B7898420BD0084DE600705D02F0F9F8C2B2AB195A70705D596801F04CF90134E4B2062CE6D910B070BD94000020F0B55F464E464546E0B484B093
:401C000062B600F07FFE01F097FD01F069FE00230393774B994698460027012401F09EFD00282DD000F0BEFF002802D1013001F079F901F09FFD051C03787B2B06D104F037
:401C4000B7FF0138281803787D2B05D002206949694A00F0BBFF11E000230370681C01F0DDF9002805D102300021644A00F0AEFF04E000200021624A00F0A8FF01F074FDD4
:401C8000002C06D000F0D0FB002802D0012000F027FC02F087FA0028C0D101F04FFE1128BCD0FFF781FF002002F0B8F8061C85B24F4B9D4203D1984503D0002402E0002452
:401CC00000E00124E4B2002C3CD0002F32D100F061FE002802D0002000F0F0FD494B9946382753234A46D3553104090C4046FFF7B3FE4B46DA5D4346009343492B1C01F07A
:401D00001DF900F085FB002810D000F0B3FB013080B20E2104F0A6FB8BB20393D8B200F0AFFB10239946324B984603E0102399462F4B984600F078FB002854D0002000F0E0
:401D4000CFFB50E0002F27D03104090C4046FFF783FE0290FFF718FF2A4B9B463827DA5D43460093029829492B1C01F0E7F85B46DA5D43460093029825492B1C01F0DEF828
:401D800000F052FB002807D0002000F097FD6B46187B204900F076FF154B9D4222D0454520D0984507D0454501D9522100E04C213823144AD1543604360C4046311CFFF78B
:401DC000ADFE071E4F450DD04046311CFFF744FE38230C4AD25C434600930D492B1C01F0ADF8B946A84602F035FA271C16E7C046FFFF000008730000186C0000386C000074
:401E0000586C000094000020646C0000686C0000706C00007C6C000010B5354C2188152000F03CFD6188162000F038FDA188172000F034FD2188C94389B2122000F02EFD73
:401E40006188C94389B2132000F028FDA188C94389B2142000F022FD264B1B78002B24D0234B1B88244A934203D90022214B1A703CE01F4A528820498A4207D91C4A0133BE
:401E8000FF3313800023538093802FE0184B9B8819498B4205D9164B80325A8000229A8024E04033124A938020E0114B1B88002B03D101220F4B1A7018E00D4A5288002A4B
:401EC00007D10B4A013BFF3B13800C4B538093800CE0074B9B88002B05D1054B803A5A80064A9A8002E0403B014A938010BDC04636020020D0000020FE0F0000FF0F0000CE
:401F000010B5094C0620211C00F0C8FC0720211C00F0C4FC0820211C00F0C0FC0920211C00F0BCFC10BDC046FF0F000010B50D4C1520211C00F0B2FC1620002100F0AEFC3D
:401F40001720002100F0AAFC1220211C00F0A6FC1320002100F0A2FC1420002100F09EFC10BDC046FF0F000010B51520002100F095FC0B4C1620211C00F090FC1720002196
:401F800000F08CFC1220002100F088FC1320211C00F084FC1420002100F080FC10BDC046FF0F000010B51520002100F077FC1620002100F073FC094C1720211C00F06EFC09
:401FC0001220002100F06AFC1320002100F066FC1420211C00F062FC10BDC046FF0F000038B5254AD38801339BB2D3809B0641D11289224853009B18195CC3185A788918E6
:402000009A788B18002B02D100221B4B1A811B4D194C23895A00D318E95C152000F03EFC23895A00D318E95C122000F037FC23895A00D318EB185978162000F02FFC23891B
:402040005A00D318EB185978132000F027FC23895A00D318EB189978172000F01FFC23895A00D318EB189978142000F017FC23890133238138BDC04636020020A46C000097
:4020800010B50E4B5889013080B258810D2104F0E9F989B200290FD1084C207B00F0FEFBA089013080B20F2104F0DCF988B2A081C0B2034900F0F2FB10BDC046360200201F
:4020C000FF0F000010B5002409E0E0B2194B9B7B5B00194AD318198B00F0E0FB0134062CF3DD072409E0E0B2144B5B785B00124AD318198B00F0D2FB01340E2CF3DD0D4A34
:40210000937B013393730D4A5378013353700C4C1520211C00F0C2FB1620211C00F0BEFB1220211C00F0BAFB1320211C00F0B6FB10BDC04636020020A46C0000D00000205B
:40214000FF0F000038B50E4AD37B591CD1730D4C5B00E318188B00F0BDFB0B4DAB785B00E318198B152000F099FBAB785A1CAA705B00E318198B152000F090FB38BDC04685
:4021800036020020A46C0000D000002038B50E4A137C591C11740D4C5B00E318188B00F099FB0B4DEB785B00E318198B162000F075FBEB785A1CEA705B00E318198B162075
:4021C00000F06CFB38BDC04636020020A46C0000D000002038B50E4A537C591C51740D4C5B00E318188B00F075FB0B4D2B795B00E318198B172000F051FB2B795A1C2A7117
:402200005B00E318198B172000F048FB38BDC04636020020A46C0000D000002038B5324B588A013080B25882142104F01BF989B2002958D1002000F04DFB2C4CA0792C4D32
:40224000291C00F02BFB207A291C00F027FBA37A002B09D0254AD388013B9BB2D38011890131118193723EE0204AD3880133D3801389013B9BB21381073B59424B41DBB2CF
:402280009372002B2FD0184C207D0130C0B2032104F0E8F82175002000F028FB237D012B0ED0002B02D0022B14D01CE0104C1520211C00F0F3FA1220211C00F0EFFA12E0F1
:4022C0000B4C1620211C00F0E9FA1320211C00F0E5FA08E0064C1720211C00F0DFFA1420211C00F0DBFA38BD36020020D0000020FF0F000038B5011C284B188B013080B287
:402300001883002904D004F0ADF889B2002943D1234B9B89002B17D0204B9B7EC02B29D11F4AD2890D2A03D900221D4B9A8121E01B490A8A013292B20A820132CA81887CED
:40234000164A90768B7415E0154B9B7CC02B11D1134A128A012A02D1114B9A810AE01049CA89013A92B2CA81013A0A820B4A907E937688740A4C207C084B9A7E511C9976E9
:40238000084D5200AA18118BA37C5A1CA2745B00EB181A8B00F086FA38BDC04636020020D0000020A46C000008B5054B5B7D002B01D0102000E00420FFF79CFF08BDC04636
:4023C000D000002008B52123044AD35C002B01D0022000E00020FFF78DFF08BDD000002070B50A4A440023189B00D3181D1C1E7D0E705E7D14354E70AD788D70DB698B6017
:4024000020188000101883694B6070BDD0000020014BD87E7047C04636020020014BD8767047C04636020020014B187F7047C0463602002010B5041C0A4B587F0D280ED87E
:40244000002C01D0084900E0084900F01BFC054B5B7F5A00D3189B00054AD3189C75014B1C7710BD36020020BC6E00007C6C0000D0000020014B587F7047C0463602002043
:4024800010B5041E0D2C05D903200F490F4A00F09DFB17E043001B189B000D4AD3189B7D002B09D00B4900F0EDFB63001B199B00074AD31800229A75074B5C77201C0749E0
:4024C00000F0E0FB10BDC046C86E0000D46E0000D00000207C6C000036020020EC6E000008B5154B5A7F0D2A24D853009B189B001249CB185B7D83421CD153009B189B0009
:40250000CB189B7D002B0CD1101C0D4900F0BAFB094B5B7F5A00D3189B00084AD31801229A75054B5B7F5A00D3189B00034AD3189B69984708BDC04636020020D0000020BC
:40254000F86E0000162801D880B200E01720172800D9DAE080006D4B1B589F466C4A09050B0D9189090B090319439181CDE0684A09050B0DD189090B09031943D181C4E05E
:40258000634A09050B0D118A090B090319431182BBE05F4A09050B0D518A090B090319435182B2E05A4A09050B0D918A090B090319439182A9E0564A09050B0DD18A090B46
:4025C00009031943D182A0E0514A09050B0D118B090B09031943118397E04D4A09050B0D518B090B0903194351838EE0484A09050B0D918B090B09031943918385E0444A0E
:4026000009050B0DD18B090B09031943D1837CE03F4A09050B0D118C090B09031943118473E03B4A09050B0D518C090B0903194351846AE0364A09050B0D918C090B090336
:402640001943918461E0324A09050B0DD18C090B09031943D18458E02D4A09050B0D118D090B0903194311854FE0294A09050B0D518D090B09031943518546E0244A0905B9
:402680000B0D918D090B0903194391853DE0204A09050B0DD18D090B09031943D18534E01B4A09050B0D118E090B0903194311862BE0174A09050B0D518E090B0903194337
:4026C000518622E0124A09050B0D918E090B09031943918619E00E4A09050B0DD18E090B09031943D18610E0094A09050B0D118F090B09031943118707E0054A09050B0DAB
:40270000518F090B0903194351877047E86F0000A4090020C28D604B1205110D9A89120B12030A439A81828D1205110DDA89120B12030A43DA81428D1205110D1A8A120B58
:4027400012030A431A82028D1205110D5A8A120B12030A435A82C28C1205110D9A8A120B12030A439A82828C1205110DDA8A120B12030A43DA82428C1205110D1A8B120BCF
:4027800012030A431A83028C1205110D5A8B120B12030A435A83C28B1205110D9A8B120B12030A439A83828B1205110DDA8B120B12030A43DA83428B1205110D1A8C120B8B
:4027C00012030A431A84028B1205110D5A8C120B12030A435A84C28A1205110D9A8C120B12030A439A84828A1205110DDA8C120B12030A43DA84428A1205110D1A8D120B47
:4028000012030A431A85028A1205110D5A8D120B12030A435A85C2891205110D9A8D120B12030A439A8582891205110DDA8D120B12030A43DA8542891205110D1A8E120B02
:4028400012030A431A8602891205110D5A8E120B12030A435A86C2881205110D9A8E120B12030A439A8682881205110DDA8E120B12030A43DA8642881205110D1A8F120BBE
:4028800012030A431A8702881205110D5A8F120B12030A435A877047A409002008B5FFF751FE08BD38B5041C151CFFF74BFE0134E0B2291CFFF746FE38BDC04638B5051CF6
:4028C000002404E0E0B2291CFFF73CFE0134172CF8DD38BD38B5051C002404E0E0B2291CFFF730FE01340E2CF8DD38BD38B5051C0F2404E0E0B2291CFFF724FE0134172CB1
:40290000F8DD38BD7047C04610B500E001300378202BFBD02D2B02D10130012405E02B2B02D10130002400E0002400230278303A092A05D89900CB185B009B180130F5E713
:40294000002C01D0584200E0181C10BDF8B50E1C041C0D1C0E4F1537013F201C291C0A22002303F07BFE30323A70201C291C0A22002303F073FE041C0D1C0B1C0343EBD1E8
:40298000002E02DA013F2D333B70381CF8BDC04658020020014B18787047C0468C010020014B18707047C0468C010020062070477047C046014B9869D9697047580200205B
:4029C000014B9861D961704758020020004870474870000038B5041C002511E06B005B199B00094AD3185968201C04F0E8F8002805D06B005D19AD00034B585D03E001351D
:402A0000082DEBDD092038BD8870000038B5041C002513E06B005B199B000A4AD318196F201C04F0CCF8002807D06B005D19AD00044B5D196C23E85C03E00135012DE9DDF7
:402A4000022038BD8870000038B5041C002512E06B005B199B000A4AD3189968201C04F0AEF8002806D06B005D19AD00044B5D19287903E00135012DEADD022038BDC04676
:402A80000871000038B5041C002512E06B005B199B000A4AD318196A201C04F090F8002806D06B005D19AD00044B5D19287F03E00135022DEADD032038BDC04608710000E7
:402AC00038B5041C002513E06B005B199B000A4AD318596C201C04F072F8002807D06B005D19AD00044B5D194023E85C03E00135032DE9DD042038BD0871000030B585B0E5
:402B0000051C00240DE0E0B201A9FFF769FC0399281C04F054F8002802D001AB187803E001340D2CEFDD0E2005B030BD38B5041C002513E06B005B199B000A4AD318596FE3
:402B4000201C04F03CF8002807D06B005D19AD00044B5D197023E85C03E00135022DE9DD032038BD0871000038B5041C002512E06B005B199B000A4AD3189969201C04F01A
:402B80001EF8002806D06B005D19AD00044B5D19287D03E00135042DEADD052038BDC04688710000014B18787047C0467802002010B5041CFFF7F6FF002806D002F05CFD93
:402BC000201C00F0DBFD02F04FFD10BDF0B5474680B488B080460E1C019203AF3A1C234B503313CB13C211CB11C2214C0434201C00218022920003F0B8FF1E49231C0A1C9E
:402C000023CA23C323CA23C31188198092789A7043469B00D959201C03F0AFFF201C03F0C7FF201814490E2203F096FF201C311C03F0A3FF201C03F0BBFF20180F49132267
:402C400003F08AFF201C019903F097FF201C03F0AFFF20180A49032203F07EFF201CFFF7A7FF08B004BC9046F0BDC0468871000078020020EC7100000872000018720000AF
:402C80002C72000070B584B00D1C01A9FFF7A8FB184C0434201C00218022920003F065FF1549231C0A1C43CA43C343CA43C3116819609188998092799A710399201C03F03F
:402CC0005CFF201C03F074FF20180C490E2203F043FF201C291C03F050FF201C03F068FF20180749032203F037FF201CFFF760FF04B070BD78020020307200005072000046
:402D00002C720000F0B557464E464546E0B4504BDB8A9846002693E04E4C0434201C00218022920003F021FF4B49231C0A1C23CA23C323CA23C312781A70301C0021FFF7FD
:402D400005FE011C201C03F018FF201C03F030FF20184249092203F0FFFE414B9946B500AF197F004F44B0239A46BA44534658880021FFF7EBFD011C201C03F0FEFE201C0A
:402D800003F016FF201837490E2203F0E5FE534698880021FFF7DAFD011C201C03F0EDFE201C03F005FF20182F49152203F0D4FE534698790021FFF7C9FD011C201C03F0BD
:402DC000DCFE201C03F0F4FE201828490A2203F0C3FE534618890021FFF7B8FD011C201C03F0CBFE201C03F0E3FE20182049142203F0B2FEB837B8780021FFF7A7FD011CB3
:402E0000201C03F0BAFE201C03F0D2FE201819490A2203F0A1FEF8780021FFF797FD011C201C03F0AAFE201C03F0C2FE20181249032203F091FE201CFFF7BAFE0136B6B293
:402E4000464500D268E71CBC90469946A246F0BD5C79000078020020607200007C720000E00900208872000098720000B0720000BC720000D07200002C720000F8B5071C48
:402E80000D1C161C204C0434201C00218022920003F06BFE201C03F08BFE20181B491E2203F05AFE381C0021FFF750FD011C201C03F063FE201C03F07BFE201814490B2278
:402EC00003F04AFE201C291C03F057FE201C03F06FFE20180F490D2203F03EFE002E01D00D4900E00D49084C0434201C03F045FE201C03F05DFE20180949032203F02CFE65
:402F0000201CFFF755FEF8BD78020020DC72000044720000FC720000686C0000646C00002C720000014B18707047C04678020020014B18797047C04678040020F0B591B0C2
:402F4000051C0E1CFFF736FD02F02AFD2B48043000218022920003F008FE68460021402203F003FE264BDB8A1F1C3F2B00D93F27BFB200240EE00020211C00F037FF0028C2
:402F800003D031236A46135502E030236A4613550134A4B2BC42EED3184C04341949231C0A1C83CA83C383CA83C312781A70E917281CFFF7CBFC011C201C03F0DEFD201C3A
:402FC00003F0F6FD201810490D2203F0C5FD201C311C03F0D2FD201C03F0EAFD20180B49032203F0B9FD201CFFF7E2FDFFF7A0FF002801D0FFF786FE11B0F0BD780200209A
:403000005C79000064730000807300002C720000014B18717047C04678040020F0B593B0041C2C2103F0B6FD002806D10230211CC94AFFF7CBFD002077E3451CFFF7CAFC54
:40304000082800D96BE38000C44B1B589F460220211CC34AFFF7BAFD002066E363001B199B00C04AD31859689A680020FFF7AEFD013400E00024082CF0DD002409E0E0B20C
:403080000FA9FFF7ADF9119A0020B749FFF79EFD01340D2CF3DD012047E3281C2C2103F079FD002806D10230211CB04AFFF78EFD00203AE301303A2103F06CFD002806D1D0
:4030C0000230211CA94AFFF781FD00202DE3451C281CFFF7F5FC01280BD0002804D002280CD003280FD013E00120FFF797F901201BE30020FFF792F9012016E30020FFF7A4
:4031000099F9012011E30120FFF794F901200CE3281CFFF7F3FC0E2803D0FFF7B1F9012003E30220211C914AFFF750FD0020FCE2281C2C2103F02EFD002806D10230211CC3
:403140008B4AFFF743FD0020EFE201303A2103F021FD002806D10230211C854AFFF736FD0020E2E20130FFF7E1FC01280BD0002802D002280ED014E00320211C7D4AFFF751
:4031800025FD0120D1E20320211C7A4AFFF71EFD0120CAE20320211C764AFFF717FD0120C3E20220211C744AFFF710FD0020BCE2281CFFF7D9FC061E042E00D9D4E18000D6
:4031C0006E4B1B589F460020FFF778FB0120ACE2281C2C2103F0DEFC002806D10230211C624AFFF7F3FC00209FE201303A2103F0D1FC002806D10230211C614AFFF7E6FC4B
:40320000002092E201303A2103F0C4FC002806D10230211C5A4AFFF7D9FC002085E2451C281C2C2103F0B6FC002806D10230211C534AFFF7CBFC002077E200230370471C86
:40324000281CFFF761FB0190381C3A2103F0A2FC002806D10230211C4A4AFFF7B7FC002063E2471C381C2C2103F094FC002806D10230211C444AFFF7A9FC002055E200233F
:403280000370451C381CFFF73FFB071C281C3A2103F080FC002806D10230211C394AFFF795FC002041E20130FFF72EFB041C012E0ED16B4699881520FFF7F0FAB9B21620C4
:4032C000FFF7ECFAA1B21720FFF7E8FA01202CE26B4699881220FFF7E1FAB9B21320FFF7DDFAA1B21420FFF7D9FA01201DE2281C2C2103F04FFC002806D10230211C1B4A0F
:40330000FFF764FC002010E201303A2103F042FC002806D10230211C1C4AFFF757FC002003E201303A2103F035FC002806D10230211C174AFFF74AFC0020F6E1461C301CE6
:403340002C2103F027FC002824D10230211C104AFFF73CFC0020E8E19073000050700000AC73000088700000B4730000C0730000E0730000FC73000014740000747000008B
:403380003474000054740000787400009C740000B874000000230370451C301CFFF7B4FA061E0E2E06D90220211CD14AFFF70EFC0020BAE1281C3A2103F0ECFB002806D1A2
:4033C0000230211CCB4AFFF701FC0020ADE10130FFF79AFA011CF0B289B2FFF75FFA0120A3E1281C2C2103F0D5FB002806D10230211CC14AFFF7EAFB002096E101302C2142
:4034000003F0C8FB002806D10230211CBA4AFFF7DDFB002089E101303A2103F0BBFB002806D10230211CB44AFFF7D0FB00207CE100230393049305930693079308930993DB
:403440000A930B930C930D930E930130222103F0A1FB002806D10230211CA74AFFF7B6FB002062E1451C281CFFF74EFA03AB5885281C2D2103F08EFB002806D10230211CDB
:403480009D4AFFF7A3FB00204FE1451C281CFFF73BFA03AB9885281C2D2103F07BFB002806D10230211C944AFFF790FB00203CE1451C281CFFF728FA03ABD885002614E0BF
:4034C000281C2D2103F066FB002806D10230211C894AFFF77BFB002027E1451C281CFFF713FA720003ABD05201360E2EE8DD281C2D2103F04FFB002806D10230211C7E4AEA
:40350000FFF764FB002010E1451C281CFFF7FCF903AB9884281C2D2103F03CFB002806D10230211C744AFFF751FB0020FDE0451C281CFFF7E9F903ABD884281C2D2103F098
:4035400029FB002806D10230211C6B4AFFF73EFB0020EAE00130FFF7D7F903AB1885181CFFF7D8F80120E0E00220211C634AFFF72DFB0020D9E0281C2C2103F00BFB002819
:4035800006D10230211C5E4AFFF720FB0020CCE001303A2103F0FEFA002806D10230211C574AFFF713FB0020BFE00130FFF72EFA002806D0012809D10020FFF729FD01204A
:4035C000B3E00120FFF724FD0120AEE00220211C4B4AFFF7FBFA0020A7E0281C2C2103F0D9FA002806D10230211C464AFFF7EEFA00209AE001303A2103F0CCFA002806D1BA
:403600000230211C3F4AFFF7E1FA00208DE00130FFF71AFA002806D0012809D10020FFF781FC012081E00120FFF77CFC01207CE00220211C334AFFF7C9FA002075E0281C89
:403640002C2103F0A7FA002806D10230211C2E4AFFF7BCFA002068E001303A2103F09AFA002806D10230211C274AFFF7AFFA00205BE0451C281CFFF705FA012804D00028C4
:4036800007D002280AD02BE00020FFF789F901204BE00120FFF784F9012046E0281C2C2103F078FA002806D10230211C164AFFF78DFA002039E001303A2103F06BFA0028DF
:4036C00006D10230211C104AFFF780FA00202CE00130FFF719F980B2FFF76AF9012024E00220211C084AFFF771FA00201DE0C046D074000054740000E47400000475000093
:40370000E07300001C7500003C750000FFF75EF9021C01200649FFF759FA012005E00220211C044AFFF752FA002013B0F0BDC046587500006075000010B58024A400054849
:40374000211C02F0FBF90448211C02F015FA02F051F910BD800400208006002008B502F0BFF9C006C00F08BD08B502F025FA02F0D1F908BD004870478006002010B5041CAF
:4037800003F016FA021C0948211C03F0E5F9012002F00EF902F0A4F9C307FBD502F006FA02F0A4F9002002F003F910BD8004002008B503F0A5F903680C2B00D1FEE7FEE7BB
:4037C00070B50F4E0F4D13E029686B68AC68002202E001C901C30432A242FAD1E868002202E0002102C304328242FAD11035013E002EE9D103F08AF9FEF7FCF9FEE7C04653
:40380000010000006C7D000008B500230AE0032B03D89A000C49505800E00C4899000C4A885001331F2BF2D9FEF73EF80022094B1A60094B1B68002B01D1074B1A60802293
:403840009205064B1A6008BD00180000B137000000000020880000208000002008ED00E00B4B1B68002803D080221206134301E05B005B08064A1360064B1B68002802D0D0
:403880002022134301E020229343024A13607047002002402800034008B580225201044B1A601122034B1A600120FFF7D9FF08BD94020B40C0020B4008B5084B1B78002B4E
:4038C00006D100F049FA00F0C3FA0122034B1A7000F06AF800F0C8FE08BDC0468008002038B5FFF7E9FF051E02D100F009FE051C002D02D100F0F6FD051C002D02D100F0CE
:40390000A9FC051C002D12D102F067F9041C07E002F01EF8201C02F064F902F05EF9041C00F040FC0028F3D1201C02F05AF900F0EFFA00F0D3FA281C38BDC04670B5184E63
:403940000024002528E06B0902339B00154AD3185A681F232B40DA40131CDB071AD5737E012B02D0022B09D011E0301C00F0AAF8041C281C311C00F0B9F90BE0301C00F0A1
:403980007DF8041C281C311C00F016F902E0002001F0BAFE2C360135072DD4D9201C70BD5C790000E009002070B500230BE01F48191D890000220A509A1C9200821801219E
:4039C000494251600133002BF1D0194C082328E06668227E154B5B1900211975012A04D0002A1CD0032A08D919E02069002816D0F179E28A03F0B9F811E02369002B01D03C
:403A0000F2791A706168002307E01A1C083252008A180120404250800133002BF5D02C342B1C5D1E002BD3D170BDC046E00900205C79000010B582B0041C131C4288684603
:403A40000280228A081C694602F012FC6B461B8863806B469B7823716B46DB7863716B461B79A37102B010BD0B884A889B1A0022CA8002799A4200DACB807047F0B583B075
:403A8000C7688468C38A4668027E00920022019211E0381C211C009A00F0ECFA301C211C009A00F081FA0190301C211CFFF7DCFF0A3402372B1C5D1E002BEAD1019803B053
:403AC000F0BDC046F0B55F4656464D46E0B482B08246037E062B02D10122934601E0002293465246D26891465246946856680093576A00250023019321E04846211C009A1E
:403B000000F0B8FA2088318A3A1C02F0DDFB301C391C2A1CFFF78EFF0C37301C211C009A00F042FA0190301C211CFFF79DFF0A345B46002B02D102339C46E14401355346D0
:403B4000DB8AAB42D9D8019802B01CBC91469A46A346F0BDF0B5CA8A8D684F680B69012125E00C1C044003D17E88BA79B21802E07A88BE79921BEE88B24201D3002200E047
:403B80000A1CA24202D01E78013E1E70A24202D01C78002C07D188431043002A01D1FA7900E001221A7049000A3501336246541EA446002AD5D1F0BD38B5041C0A7E134B2E
:403BC0001B181D7D012A04D1281CFFF7C3FF051C02E0002001F098FD0C4B1B191D7563091F2214401E3AA240141C002D06D1074904339B005A58A2435A5005E0034A0433FB
:403C00009B0099580C439C5038BDC046E0090020F0B5474680B482B08446CB8A8A684D68086980466046002803D16C88A879201802E06C88A879201A0024012609E0D38875
:403C4000984201D3002300E0331C1C430A3276003B1C5F1E002BF2D1002C0BD043461B78002B02D0013B4246137043461B78002B04D104E0EB794246137000E06446002CE5
:403C800023D00E1C6B88AA799A1ACF8A8868391C01F00CF9002822D0337E022B1FD1316A01A83A1C01F050F900220BE0530002A98C466344043B1988131C08335B00EB18A1
:403CC000598001329042F1D809E0002007E0031C08335B00EB18012252425A8001300028F5D0201C02B004BC9046F0BD38B5041C0A7E184B1B181D7D012A04D0002A0CD0CB
:403D0000032A05D909E0281CFFF724FF051C07E0281CFFF77DFF051C02E0002001F0F4FC0C4B1B191D7563091F2214401E3AA240141C002D06D1074904339B005A58A2432B
:403D40005A5005E0034A04339B0099580C439C5038BDC046E009002038B5174C201C0021A222520002F001FF144B2380B0235B006380593BFF3BA383073BA377E377201CB7
:403D800020300F497031922202F0E6FE0D490C1C103408230CE0A268E38A04E00B78537201310A32031C581E002BF7D12C342B1C5D1E002BEFD138BDE009002090530000D0
:403DC0004C7A00004C79000007280BD81F220240012393401A1C430904339B0002495858104000E000207047E009002007280DD82C234343074AD318DB8C8B4208D9064BC2
:403E00001818037D01208840184002E0002000E0002070474C790000E009002007280ED82C234343084AD31828331B78023B012B07D82C23584310184369588A02E00348E0
:403E400000E002487047C0464C790000FFFF00000023024A9380024A13607047E009002064090020C9B2062902D08318002119715300195AC31859808218002313727047D5
:403E800070B52C2358430A4B18188B005918490083685C18067E012305E0201C311C2A1CFFF7E0FF2B1C5D1E002BF6D170BDC0465C79000038B5051C2C234343064AD318BF
:403EC000DB8A04E0281C211CFFF7DAFF231C5C1E002BF7D138BDC0465C79000010B5082303E0201CFFF7E6FF231C5C1E002BF8D110BDC04630B5012306E0D3B2062B02D0CC
:403F000063005D5A1D52231C5C1E002BF5D130BDF0B5474680B4082333E02C237B431C4AD3185A689046DB8A27E02C237B43184AD318B400A41964009A6894466444D96867
:403F4000081C7500AD19AD005A6A944665441A7E062A01D070000818211CFFF7CBFF2C237B430B4AD3185B7E012B05D120884346198A2A1C02F09CF9331C5E1E002BD4D164
:403F80003B1C5F1E002BC8D104BC9046F0BDC0465C7900009840031C534380204000801A41435818000A7047F0B583B0071C0E1C019201233BE06300985BF318598888428C
:403FC00005D3431A321900251572012201E00B1A0022002A11D17D799D420ED233191B7A3A7A934205D3301C0199221CFFF73AFF1CE032190133137218E03D799D4204D291
:404000007D799D4212D9002A10D16B461B79062B0CD0090235192B79194302220823FFF7B9FF020A6300F3185A802871231C5C1E002BC0D1002003B0F0BDC046F0B583B04D
:40404000061C0F1C019201230EE06B461B79062B09D06500E85BA95B80220023FFF79AFF80B2A853E853231C5C1E002BEDD103B0F0BDC04608B5FFF7E1FF08BD024A116872
:40408000024B0B401360704700020B40FFFFF8FD06230B737047C04608B5064A1368F0218B431360044A1368EF398B43136000F083FD08BD00040240A8020B4008B5064B10
:4040C0001968064A0A401A601968054A0A401A6001F060FA08BDC04600040240FFF0FFFFFF0FFFFF70B50E1C0C8801F09BFA051E9F2D09D9FF235B009C4205D9201C284922
:4041000002F0B0F900291FD09F2D07D9FE2C05D9201CFF2102F0A6F9002917D09F2D07D97E2C05D9201C7F2102F09CF900290FD09F2D0FD93E2C0FD9201C3F2102F092F95D
:4041400000290BD000240AE0042408E0032406E0022404E0002402E0002400E00124631E032B01D8102000E00020002C10D0002810D064235843291C02F0EEF8002301E0C8
:40418000013340000928FBD90A2804D9013B02E0002300E00023DBB21B012343337370BDFF010000024B9B68802018407047C046E009002010B5174B9B68DB030FD4072829
:4041C0000FD8430902339B00124AD3185A681F230340DA40131CDB0705D4012404E0112402E0012400E00024002C10D12C234343094AD3185B7E022B02D101F0DDF906E03B
:40420000012B02D100F0EAFC01E001246442201C10BDC046E00900205C79000008B50B4B9B68DB030DD40A4B1B78012B05D0022B09D101F0FDF8002007E000F055FC0020FD
:4042400003E0112001E00120404208BDE00900206809002010B50F4B9B681B0618D400240120404211E0201CFFF7A4FF00280BD1062C03D80122084B5A7002E00022064BE5
:404280005A70FFF7CBFF04E00134072CEBD900E0112010BDE00900206809002070B52C2358432E4BC458CB00591A89006418267EA57E206803680F21B1408B430360052ACA
:4042C0004BD89200264B9B589F4601F086FC61680B680722AA4093430622AA40151C1D430D6001F07EFCA1680B68607E0122824093430B6031E001F070FC61680B6807225A
:40430000AA4093430B6001F06CFCA1680B68607E0122824093430B601FE0201C00F0CAFB1BE0226811680423B3401E1C0E431660626811680623AB401D1C0D4315600CE02F
:40434000226811680623B3401E1C0E43166061680B680722AA4093430B6070BD5C790000107D000010B5124B1B7883421ED0041C012B02D1FFF790FE03E0022B01D1FFF71B
:404380009DFE012C05D100F015FA0122084B1A700CE0022C05D100F001FF0222044B1A7004E0032C02D00022014B1A7010BDC0466809002030B500200D4B16E019680A68FC
:4043C0001C69A2430A605C6822689D7E0721A9408A43111C0622AA400A43226099680A685C69A2430A601C3301300F28E6D930BD507B000010B5174A93780133DBB29370EA
:404400009078C0B2FFF7D6FE041E09D1114B9B78072B02D100220F4B5A70FFF7FFFE15E00C4B9B78072B0AD10B4A7933916899430B021B0A040623439360002406E006495F
:404440008B681B021B0A020613438B60002CD2D110BDC04668090020E009002008B501F013F908BD074A084B1A6001380002074B1860054B1B68002BFBDB054A024B1A60F6
:404480007047C04640000040000001400003014040FF0080034A13681B0B1B03013818431060704700020B4070B5072801D8002500E00125002D11D1041C2C234343084AB9
:4044C000D3185E7E022E02D1282100F03BFF012E04D1201C552100F069FC051C281C70BD5C79000038B50024002504E0201CFFF7DBFF05430134072CF8D9281C38BDC04627
:40450000F0B5474680B488B001ACFA239B002380414B638096235B01A3805523E3733F4B997F3F4801F018FFA08100F043F900223C4BDA70FFF7A2FD00239846002600240F
:4045400037E02C237343384AD3185B7E012B2FD12B337343D3185F680C233B8001ADA889324901F0F9FEF872301C552100F01EFC3B1C0A332B6101336B61281C01F00AFE28
:4045800080462B4B984200D9062401AB9B89244A934205D8FB7A012B0AD80223FB7207E0244A934204D8FB7A072B01D80823FB720136072EC5D901221A4BDA70013201AB04
:4045C0009A73002621E02C237343174AD3185B7E012B19D12B337343D3185D682B1C0A3301AF05930133069343460393EB89FB802B1C10330793301C552100F0D7FB0443ED
:40460000381C01F0FBFD28800136072EDBD9201C08B004BC9046F0BDE5070000E0090020C05D0000680900205C790000DC050000870D010080BB000010B500240FE02C23EE
:404640006343084AD31859685B7E012B03D1201CFFF71EFD02E0201CFFF744FD0134072CEDD910BD5C79000008B5FFF7E5FFFFF7A1FE0020FFF776FE002008BD70B5002566
:404680001AE02C236B430E4AD3185B7E012B12D12B336B439E58002406E0E000001B8000301800F069FA01342C236B43044AD3189B7DA342F1D80135072DE2D970BDC0462D
:4046C0005C79000010B50F4B1B68702293431C1C0D4B997F0D4801F03FFE0D4B984204D820232343074A13600BE0084B984204D830232343034A136003E040232343014AD1
:40470000136010BD90010020E009002000366E01001BB700034A044B1A60C1225204034B1A60704700008301C0010B40C4010B40064A136806490B431360064A064B1A60A4
:40474000C1225204054B1A607047C046A8020B400100001000008301C0010B40C4010B4070B50D1C161C04880123A3401C1C013CA00000194000642101F0EEFD01302B187D
:40478000A34200D9231C854201D3281A00E00020864203D39E4203D9062002E0062000E0002070BD01390843014B18607047C04600020B4010B5FFF761FF0024284B1C60E9
:4047C000284B1C60284B1C60284B1C60284B1C60284B1C60284B1C6028490C60284B1C6028480368F0229343903A13430360264A1368802040010343136080225200234B26
:404800001A60234A136823480343136080235B04214A13602148224A10600B60214A224B1A60FFF777FF214B987FFFF71BFEFFF749FF1F4B1B681F4A13431F4A13604820E4
:4048400001F0C2F90F221D4B1A601D4B1C60053A1C4B1A60C02212031B4B1A6010BDC046F4000B40B4020B40C0020B4020030B4084010B4088020B4080020B4084020B40CD
:4048800080010B400004024094020B40A0020B40A8020B4001000010A4020B404112000088010B400000030190020B40E0090020900100200010008000000B4000030B4036
:4048C000F0010B4010030B4004020B4038B5041C01F083F90A490B687F25AB43094A1278A418A47A23430B6007490B68AB43074C2468A218527A13430B6001F072F938BD4B
:40490000C0010B40287D0000C4010B40240B002008B5021C01238B40581E002A02D0111C01F01AFD024B1B78012B00D1800808BD6B09002008B50A4B1B782C225343094A5C
:40494000D3185B68D97A084B1B78012B03D10748FFF728FF02E0081CFFF79CFD08BDC0466A0900205C7900006B0900200000060208B5031CC07A19881A7BFFF7C9FF000472
:40498000000C014B186008BD14030B4010B50A2000F0A6FE0124324B1C60182001F014F90023304A1360304A136006222F4B1A60FA322F4B1A60802252042E4B1A602E4B8C
:4049C0001C60832252002D4B1A60033AFF3A2C4B1A60013A2B4B1A60F0235B0000E0013B264A1268520701D4002BF8D1002B02D10822244B1A6000241A4B1C601A4B1C6033
:404A0000832252001D4B1A600A2000F073FE0A2000F05CFE154B1C60154B1C60154B1C605022154B1A604F3A174B1A600C4B1C60164A1368802149040B4313600222104B7D
:404A40001A60F0235B0000E0013B114A1268520701D0002BF8D10F4A0A4B1A6010BDC04680010B40B0020B40B4020B4088020B4080020B4084020B40F0010B40F0000B4090
:404A8000F8000B4040030B408C010B4000020B4000000B400103000008B5044A044B91680B439360FFF772FF08BDC046E00900208000010070B5041C857E067E01F08DF81F
:404AC00023681B680F22B24093431A1C0423B3401343666832680721A9408A4332602268136001F07EF870BDF8B5144F3B78144D2C267343EB185868124C002323703B78EA
:404B00007343EB189968227893009B185B00CB180D4A1360FFF7DAFE3B785E4370592178CA00531A9B00C018084B1860FFF7C2FF074800F0A9FDFFF7AFFFF8BD6A09002052
:404B40005C79000070090020240B0020280B0020615C000008B52C235843054BC058CB00591A89004018034B1860FFF7A3FF08BD5C790000280B002038B5041C007EA57E41
:404B800021680B680F22824093430B6001F025F861680B680722AA4093431A1C0623AB4013430B6001F01DF8A1680B68607E0122824093430B6038BD08B5064B1B78012B3F
:404BC00006D1054B1868FFF7D7FF0022014B1A7008BDC04674090020280B0020F8B5041C104E2C273B1C4343F3185D680120FFF7B9FBFFF7E1FFE4B20B490C700B787B431C
:404C00009A590A4B1A600A4A7F2390689843031C906009780B439360281CFFF7A9FEFFF789FEF8BD5C7900006A090020280B0020E009002038B52C234343124AD3185D6873
:404C4000C9B2114C21709968227893009B185B00CB180E4A1360FFF7C1FF281CFFF736FE20780B4AC300181A800013689C4660441060FFF71FFF0122064B1A70064800F09A
:404C800003FD38BD5C79000070090020240B0020280B002074090020E95B0000074B1A687F210A40064802431A60064A13680B40802109040B4313607047C046C0010B40F5
:404CC00000008301C4010B40F0B5474680B482B0071C0E1C90462D4A13782C214B432C49CB185B680193402333701078C0B2294B1978C9B2FFF79EFFFFF7D0FF4025FFF7A6
:404D0000CBFE254A00E0013A244B1B7A5BB2002B01DA002AF7D1224B1B681C88BC4202D23378AB4333706D0833782B4333700198FFF7CCFD002DE2D1144B1B782C22534336
:404D4000134A9858134B1978CA00531A9B00C018144B1860FFF710FF0022134B1A70FFF7E7FC0198391C221CFFF7FAFC43461A7833789A4201D242461370094B1B68327875
:404D80005A7202B004BC9046F0BDC0466A0900205C7900007009002033330000E0090020240B0020280B002074090020F0B54F4680B484B0051C89462C234343364AD318AB
:404DC0005F68012303AA137038888340181C01384843642101F0C0FA0190EAB22F4B1A702F4800F051FC3C1C0A3400222D4B1A7000260AE00198211C03AAFFF765FF064318
:404E0000284A13780133DBB213702C236B43224AD318244A12789B7E9342EBD803AB1B7801335B08BB7200221E4B1A7022E02C236B43194AD3189A681A4B1B789C00E4183B
:404E400064001419184B1C60637AB87A83420AD31B1AD8B260724B4658436330642101F07BFA607201E0002363720E4A13780133DBB213702C236B43074AD318094A1278EE
:404E80009B7E9342D3D80022064B1A70301C04B004BC9146F0BDC0465C7900006A090020E95B000070090020240B0020F0B50024244B1C70041C002600230BE0E588954222
:404EC00006D9AE4204D21F4E3371012737702E1C0A3401338B42F1D31A4B1C78002C2FD01D1C1B799A00D21852008618F6886E81002B0ED18A00511849000A394118C988DB
:404F0000298101339900CB185B00C318DB88AB8116E001398B4207D10A3A8218D288094B1A81C2889A810BE00A3A8218D188054A118101339900CB185B00C318DB88938191
:404F4000201CF0BD78090020F0B5474680B482B080460F1C019200262CE01A4B9B191C79002C07D173009B195B00164AD31800221A810AE0019B013B9C4206D173009B197F
:404F80005B00104AD31800229A817500AB195B000C4AD3189A891989501A5B89C9185118784301F069FA7C4300197F30000A434658530136034B1878B042CED802B004BCEF
:404FC0009046F0BD78090020C37A0288981E504380B2704708B5344B1A68344B1B78D3185B7A334A1343334A13600022324B5A80324A334B1A600122324B1A601123324A8A
:40500000136080214904314A1160314A13600622304B1A60304A314B1A60314A314B1A60314A324B1A60F0235B0000E0013B2F4A1268D20701D5002BF8D12C4B1B68DB07C9
:4050400003D5C2229200294B1A60294BD97F294801F082F9284B984204D9264B984203D8302302E0202300E04023244A1343144A1360234A234B1A60002312490B60124912
:405080000B6012490B6023201149086011490B6012490B6013490B60832149001A4B1960124B1A6008BDC046240B0020287D0000800E4301C0010B408809002020100480C4
:4050C00000000B4080010B4080020B4084020B40C0020B4088020B4001010100B0020B4010100000B4020B400303000040030B40E009002000366E01001BB70000100C8048
:40510000010300008C010B40F0000B4008B50A2000F0E6FA83225200154B1A60154B1A6892B2154B5A80154A11685A888A1892B25A805A88198893B28B4203D90E4A138892
:405140009BB253800E4B1B6898470E4B9B681B0609D40D4A0D4B1A60C02292000C4B1A600C4A0D4B1A600A2000F0B0FA08BDC046F0000B40D0000B4088090020D4000B40AF
:4051800094010020E00900202010048000000B408C010B40800E4301C0010B4010B583225200414B1A600023404A13600221404A1160404A1360404A13604049404A1160FE
:4051C000C02189003F4A11603F49404A1160404A13604049404A11605021404A1160404A1360404A1360404A1360404A1360404A136040490A688020400102430A6032210C
:405200003D4A1160802149043C4A11603C490A688020400502430A603A4A13603A4A136023213A4A11601439394A11600B39394A1160394A1360394A1360C2229200384B81
:405240001A6000F0CAFC374C2268374B1340236000F0C7FC00F0C1FC2268344B1340236000F0BFFC00F0B9FC314C2268314B1340C022D2001343236000F0B3FC00F0ADFC6F
:4052800022682D4B1340C022D2011343236000F0A8FC2A4BD87FFFF7E5F8FFF78BF82848FFF7DCF810BDC046F0000B40F4000B40F8000B4080010B4084010B40411F1E007B
:4052C00088010B408C010B40800E4301C0010B40C4010B40AA000500F0010B4000020B4004020B4080020B4084020B4088020B4090020B4094020B40A0020B40A4020B407C
:40530000A8020B40B0020B40B4020B40C0020B4000030B4010030B4014030B4020030B4040030B40080404403FFEFFFFFFF1FFFF00040240FFF0FFFFFF0FFFFFE0090020A2
:405340000D510000F0B583B001900F1C2C264643244B9E19B36800937068FFF735FE224B188018887843642100F0F6FF041C737E022B34D12A33019A53431A4AD3189A7E89
:40538000DF7E5743009B002205E000211980403159720A330132BA42F7D32026402500E01E1C0198FEF706FFFEF738FF0F4B1B7A5BB2002BFADB009B00210AE01A88A2427C
:4053C00002D95A7AAA435A725A7A32435A720A330131B942F2D37308DBB2351EE0D103B0F0BDC0465C79000088090020E009002010B541680A68847E0623A34013430B6051
:4054000001680A68007E0423834013430B6010BD10B541680B68847E0722A24093430B6001680A68007E0623834013430B6010BD10B5104B1B68104A99681160DA7E0F4C77
:40544000A280987EE0801A68A260C300181A80001018E060FFF7CCFFA068FFF7D9FF084A084B1A60084A802391680B439360FFF7B1FD10BD6C090020240B00208809002048
:40548000C954000094010020E00900200268136801698B431360704710B50268136801698B43136041680B68847E0722A24093431A1C0623A34013430B6082681368416964
:4054C0008B43136010BDC04610B52C4B19682C4B1B782C4C228860885B00121A5A52E068FFF7D4FFA388013B9BB2A380002B0CD0244BD8681C30D860FFF77AFF1F4A13681F
:405500000A331360FFF766FD37E01E4AD388013B9BB2D380002B1DD0141C9068FFF7BCFFA0681C30A060FFF773FF174B1A68D37EA3801068E060937EDA00D31A9B00C018A4
:40554000E060FFF755FF0D4A13680A331360FFF741FD12E00B4B9868FFF79EFF0B4B1B78002B02D0FEF746FF07E0094BDA880132DA80802299689143996010BD240B00203A
:40558000287D0000880900206C09002069090020E009002010B5074B1B8A002B08D0054CE068FFF773FFA068FFF776FF0023238210BDC0468809002038B5041C0220FEF7C2
:4055C000D1FEFFF7E7FFE2B20F4B1A702C2060430E4BC0180E4B18604568EC7A2A880D4B1A60281CFFF7F0FC0B4B18802A7B013C2405230D14041C43084B1C60084BD87FC1
:40560000FEF730FF38BDC0466A0900205C7900006C09002014030B408809002000020B40E00900202C235843024B18184368D87A7047C0465C790000014B98667047C046E8
:405640000000002010B5041C00F0C7FA044A1168044B0B40A4051C43146000F0C2FA10BD08E400E0FFFF3FFF8022D200014B1A607047C04600E100E08022D200014B1A6024
:405680007047C04680E100E010B5041CFFF7F4FF201CFFF7D1FF0320FFF7D4FFFFF7E4FF10BDC046024A1168024B0B401360704700000740FFFFFFBF034B18688023DB05A9
:4056C000184000D001207047000007401F2318401E3B8340181C014B1860704700E100E01F2318401E3B8340181C014B1860704780E100E01F2318401E3B8340181C014B61
:405700001860704780E200E001BE704738B5041C0D1C0F2802D90020FFF7F6FFA400034B9C4664442068256038BDC0464000002070B5041C0E1E032E02D90020FFF7E4FFD5
:405740000F2C02D90020FFF7DFFF03252540ED00063500F042FAA408A400074B9C46644423680322AA409343AE40351C1D43256000F037FA70BDC04600E400E010B5041C81
:4057800006E0084B586800F01FFA074B9C46644480231B029C42F4D8024B9868604300F013FA10BD9C0100200080FFFF30B583B000F0DCF8002848D000F00FFA041C244B08
:4057C0001B6807221A409200131C1833214A12681207920FD3401A1C1F4B19681F4B19401F4B53438020C00184466344DB0B013B5B055B0D0B43A02149031943192A02D871
:40580000184A13430BE0184BD31818781A3A174B9B5CC318FF2B00D9FF239B050B430E4A1360134D2B680193302000F09FFA114A13688021C9050B4313601420FFF79EFF54
:40584000019B2B60201C00F0CCF903B030BDC046080F0340280003400800074000F800C040420F000000D43FCDF1FF0F2C7D00003000104000000740F0B583B0041E182C80
:405880000BD01C2809D0202807D0242805D0282803D02C2801D0302849D100F09EF90190FFF70AFF002803D0FFF7FCFE012600E00026214A136807218B4313601F4BE31813
:4058C0001B78DBB21E4A13601E4A13688B4313601D4803687F229343191C1C4BE3181B7813400B430360322000F06EF9182C16D9114F3B680725AB431A1C231C1C3B9B08AC
:405900002B4013433B60322000F05EF93A68AA43231C183B9B082C1C1C4014433C60012E01D1FFF743FF019800F05BF902E00020FFF7EAFE03B0F0BD080F0340CDF1FF0F9B
:405940000C0F0340100F0340180F0340B4F1FF0F08B500F042F9044A136804218B43136030BF00F03EF908BD10ED00E0034B1B68002B01DA012000E0002070470000074085
:40598000014A024B1A6070476588EDAC380003400004000C014B18607047C04608010640024B18680004000C7047C04608010640031C04490868FE2202400120184010434A
:4059C000086070470004044008B50720FFF77EFE08BDC04608B500F01DF808BD08B5044A1368802109060B431360FFF7EDFF08BD0000084008B5064B1B78002B04D1FFF71B
:405A0000E9FF0122024B1A70FFF7E8FF08BDC0469C09002010B500241B4B1C601B4A1C4B1A601C4B1C4A13601C4A14601C491D4A11601D4A13601D4B1C600720FFF750FE86
:405A400007200321FFF774FE07201949FFF75EFE184B1C60184B1C604C22FF32174B1A60174B1C60174B1C60174B1C603C3AFF3A164B1A70164B1C70164B1C60164B1C6084
:405A8000164B1C7010BDC0460000084077080040600008400701008000030840040308401000FE00100308400002084004020840C15D0000C80E0840880E0840480F08409B
:405AC000080F0840C80F0840880F08402C0B0020440B0020300B0020340B0020500B0020014B1878C0B27047440B002010B50720FFF7F6FD064A14780F231C4013780D21E2
:405B00008B4313700720FFF7E1FD201C10BDC046440B002010B50720FFF7E2FD064B1C780F229443197820320A401A700720FFF7CDFD201C10BDC046440B002038B50028BC
:405B400010D00D1C041C0720FFF7CAFD064B1C60064B1D600023064A1360064A13600720FFF7B4FD38BDC046400B00203C0B0020300B0020480B002038B500280ED00D1C4F
:405B8000041C0720FFF7ACFD054B1C60054B1D600022054B1A600720FFF798FD38BDC0464C0B0020380B0020340B00200022014B1A607047300B00200022014B1A607047FB
:405BC000340B0020000000000230800803D001300238FCD1C046C0467047EFF3108072B6704780F31088704783225200144B1A60144B1B78DA3A5343134AD3185B68134AD7
:405C000012681204120C198801238B40013B9A4206D20F4B19680F4B1B785B00CA5205E00B4A11680B4A127852008B520A4BDA880132DA80094A99680A409A607047C0469D
:405C4000F0000B406A0900205C790000D0000B40240B0020287D0000E00900207FFFFEFF70B5384D2A78384C2C235A431059374A1678F1008A1B9200801883214900344A8F
:405C800011602A785343E3185B68324A12681204120C198801238B40013B9A4206D22E4B19682E4B1B785B00CA5205E02A4A11682A4A127852008B52FEF75EFF214C2278FE
:405CC00021492C235A438A18506822785343CB189B7D1E4A1278013B93421CD91B4C23780133DBB22370174D2B782C225343CB189968227893009B185B00CB18164A1360BB
:405D0000FEF7E4FD2878C0B22178C9B2FEF722FFFEF73CFE15E000220C4B1A70104A114B91680B409360104A1278012A02D1FEF761FB06E00A4A80218B439360D3880133DF
:405D4000D38070BD6A0900205C79000070090020F0000B40D0000B40240B0020287D0000E0090020FFFFFEFF6909002038B5041CFFF733FF051C102C05D8104A136803215A
:405D80008B43136016E0202C07D80C490B6803229343023A13430B600CE0302C07D807490B6803229343013A13430B6002E00020FFF7AAFC281CFFF714FF38BD3000104080
:405DC00010B5CF4B1B68002B00D09847CD4B1B68DB0702D50022CC4B1A60CC4B1B789B061FD4CB4B1A680223FF331A4219D0C74B1B78DB0709D5C74B1A7802218A431A706B
:405E0000197809220A431A7008E0C24B1A7820218A431A70197890220A431A700022BB4B1A70BA4B1B789B0600D567E1B74B1B78DB0600D44CE1B64B1B689B073ED50222BA
:405E4000B54B1A60B54A13681F211940136880221202134000D00123CB18B14A1278D2B29A4205D9AB4A117804230B43137006E0AB4A12789B1AAB490A68D31A0B60A94B35
:405E80001A68A94B1A600023A84A1360A44A1370A74B1A68802149020A431A601968A54A0A401A609B4B1A7802218A431A70197801220A431A701022944B1A70944B1B6824
:405EC0001B0737D50822944B1A609B4B1B689B040CD414E0994B1A68994909688A1899490968C9B211701A6801321A60964B1B68DB06EFD1904A1168944B0B401360944B68
:405F00001B689B0604D5834A117840230B4313700022904B1A60904A8D4B1A607D4B1A7820218A431A70197810220A431A70774B10221A70764B1B685B0646D50122874B78
:405F40001A60874B1B68DB060FD50F32774B1A60754B1A68734B1A606E4A117802230B4313701222694B1A7024E07E4B1B68734A12689B1A072B03D80422764B1A6011E052
:405F8000082B06D16C4A1368A02109020B43136008E0694A1368802189010B43136008226C4B1A605B4A117820230B4313701122564B1A706C4A584B1A606C4A11680823EF
:405FC0000B43136001226A4B1A606A4B1B681B072AD5644B1B68594A1068181A0838082802D9002408200EE001240CE0534B1A68534909688A1853490968C9B211701A68C6
:4060000001321A6001380028F0D1002C08D04A4A1368802109020B43136000224D4B1A6008224B4B1A6024E0524B1B685B0720D5444B1B68414A11684A4A126891420DD252
:4060400001214B4A11603D4A11683D4800684118DBB20B7013680133136007E00222444B1A602C4A117840230B4313700422384B1A60414B1B68DB0620D43FE0294B1A6825
:406080003E4B1B689A420CD2264B1A683C4909688A181278D2B23B490A601A6801321A600CE0FF22374B1A601D4B1B78DBB20A2B04D81B4A13780133DBB21370174B1B68A9
:4060C0001F221340082BD9D10F3A2F4B1A6015E02E4A13685B005B08136010210B4B1970154B186819490140196018682849014019601368802109060B43136010BDC04663
:40610000A00900208C0E0840880E08402C0B00204C0F0840440B0020400F084008020840500B0020480B0020300B0020880F084004020840FFFFFEFF60000840340B00200C
:406140004C0B00204003084008030840FF5FFFFFC00F0840C80F0840ED0F0000800E084064000840380B0020FF0F0000480F08406C000840CC0F08408C0F08403C0B002089
:40618000400B002040020840800F084000000840FFFCFFFF70B5041CFA26036980881D78E37BB60058431349704300F0D5F875436188684300F0D0F8051C2088311C684324
:4061C00000F0CAF8A3890C49584300F0C5F8013063691022082809D80822042806D80422022803D801D1187001E001221A70281C70BDC046F049020000E1F50538B5041C03
:4062000063698089197800F0A7F8051C60880304181A23691978A388594300F09DF8A37B1149DD40684300F097F8E3880A21584300F092F800230D4AA16810258A425B4134
:406240000222D31A62325343984203D9013DEDB24008F9E74B236421584300F07DF8A4692080281C38BDC046A0860100A761000010B50024A34200D00C880088131C8000B1
:4062800080B2824200D2031C9AB2A24200D2231C9AB20B805308FF2B01D9FF2300E0DBB28B70CB70D308FF2B00D9FF230B7110BD8B0813800F2393720023C9085180908040
:4062C000D0801081D3727047937A30B594885B00041B9080DBB2002C01DB937202E00133937264420F23957A1D40538895729C4203D2012B03D9013B00E0013353800F2D34
:4063000005D0002D03D053889D00AC4204D90023D0801081D3721DE0D488844201D9D08003E01489844200D21081D07A092802D80130D0720EE01089D488001B80B283424D
:4063400004D989088B4203D9013B00E0013353805388138030BD0000002243088B4274D303098B425FD3030A8B4244D3030B8B4228D3030C8B420DD3FF22090212BA030C72
:406380008B4202D31212090265D0030B8B4219D300E0090AC30B8B4201D3CB03C01A5241830B8B4201D38B03C01A5241430B8B4201D34B03C01A5241030B8B4201D30B03E2
:4063C000C01A5241C30A8B4201D3CB02C01A5241830A8B4201D38B02C01A5241430A8B4201D34B02C01A5241030A8B4201D30B02C01A5241CDD2C3098B4201D3CB01C01ADE
:40640000524183098B4201D38B01C01A524143098B4201D34B01C01A524103098B4201D30B01C01A5241C3088B4201D3CB00C01A524183088B4201D38B00C01A52414308C4
:406440008B4201D34B00C01A5241411A00D20146524110467047FFE701B5002000F0FCF802BDC0460029F7D003B5FFF775FF0EBC4243891A1847C04603460B437FD40022D5
:4064800043088B4274D303098B425FD3030A8B4244D3030B8B4228D3030C8B420DD3FF22090212BA030C8B4202D31212090265D0030B8B4219D300E0090AC30B8B4201D3B9
:4064C000CB03C01A5241830B8B4201D38B03C01A5241430B8B4201D34B03C01A5241030B8B4201D30B03C01A5241C30A8B4201D3CB02C01A5241830A8B4201D38B02C01A26
:406500005241430A8B4201D34B02C01A5241030A8B4201D30B02C01A5241CDD2C3098B4201D3CB01C01A524183098B4201D38B01C01A524143098B4201D34B01C01A5241E7
:4065400003098B4201D30B01C01A5241C3088B4201D3CB00C01A524183088B4201D38B00C01A524143088B4201D34B00C01A5241411A00D201465241104670475DE0CA0F5F
:4065800000D04942031000D34042534000229C4603098B422DD3030A8B4212D3FC22890112BA030A8B420CD3890192118B4208D3890192118B4204D389013AD0921100E0FF
:4065C0008909C3098B4201D3CB01C01A524183098B4201D38B01C01A524143098B4201D34B01C01A524103098B4201D30B01C01A5241C3088B4201D3CB00C01A5241830842
:406600008B4201D38B00C01A5241D9D243088B4201D34B00C01A5241411A00D20146634652415B10104601D34042002B00D54942704763465B1000D3404201B5002000F03A
:406640000BF802BD0029F8D003B5FFF715FF0EBC4243891A1847C0467047C046002B15D1002A13D1002906DB01DC002806D00020C043410802E080210906002007B402486A
:4066800001A14018029003BDD1FFFFFF03B4684601B5029800F006F8019B9E4602B00CBC7047C046F0B583B0161C1F1C0090019100F058F8041C0D1C221C2B1C301C391C50
:4066C00000F026F8009A019B121A8B410899201C0A604B60291C03B0F0BDC046F0B5141C83B01D1C0090019100F034F9221C2B1C061C0F1C00F00CF8009A019B121A8B414D
:406700000899301C0A604B60391C03B0F0BDC046F0B54F46464605042D0C2C1CC0B41704160C3F0C9946030C7C4375435F4373437D19260CAD199C46AF4203D980235B0256
:406740009846C4444B465143434324042E0C240C2D0466442C1959188919201C0CBC90469946F0BDF0B544465F4656464D46F0B41C1C85B0002900DAA9E00F1C0021061C4F
:406780008846101C191C002C00DA97E0341C3D1C82468946B94273D870D04946504600F085F98346391C301C00F080F95B46181A031C8346203B9C4600D59CE00023002273
:4067C00051460092019363469940019151468140019B0091BB4200D983E000D17EE0009A019B341C3D1CA41A9D416346002B00DA9AE0002600270296039701369E4003960B
:40680000012686400296002800D171E00099019AD30799464B464E081E435708002301220CE0AF4201D1A6420AD8A41BBD4124196D410138A4185D41002806D0AF42F0D943
:40684000013824196D410028F8D12022029E039F5B46524236196F4199185AD4281CC8402C1C5B46DC40002968DB041C8C40231C59468840021CB61A9F4103E0B0428CD915
:406880000026002741464B1E9941002300910193009A019B002554429D41331C6340181C3B1C6B40191C009B019CC018614105B03CBC90469946A246AB46F0BD4346DB430C
:4068C0000C1C9846131C00215842A1415EE7002746428F4101214942884652E7B14200D87DE70026002702960397002800D08DE7029E039FC6E720215346091ACB4000221B
:40690000191C0023009201934B4683400B4301935CE75A4620239B1A2A1C9A40201C131C5A46D04018439BE720260027331A0026029603970127DF40039761E75B46202193
:406940005D46C91A031CAC40CB40191C231C0B438EE7C046F0B545464E465746E0B4041C82B00D1C914698468B4262D85FD04146484600F09BF8291C061C201C00F096F82A
:406980002023311A5B428A46C81865D44B4683401F1C4B468B401E1CAF4258D855D0A41BBD41002800DA77E0002200230092019301328240019201238B40009300293CD098
:4069C000FB079846404672087B080243012600270CE0AB4201D1A2420AD8A41A9D4124196D410139A4197D41002906D0AB42F0D9013924196D410029F8D1202200980199B4
:406A000053465242001969419E183AD42F1CF7405346DD40002E29DB3C1CB440231C5446A7403A1C801A99410090019105E082429DD900230024009301940098019902B0CE
:406A40001CBC90469946A246F0BDA342A7D90022002300920193B1E720224B46521AD3401A1C43468B401F1C174392E7534620245646E41A3B1CB540E3401C1C2B1C2343D7
:406A8000CDE7524620239B1A2A1C9A40271C131C5246D7401F43BBE720230022581A0023009201930132C240019284E710B5002903D100F007F8203002E0081C00F002F809
:406AC00010BDC0461C2101231B04984201D3000C10391B0A984201D3000A08391B09984201D30009043902A2105C40187047C04604030202010101010000000000000000D6
:406B0000014B18687047C046100200200E4B70B500251E1C0D4CE41AA410A54204D0AB00F35898470135F8E701F00EF9084B00251E1C084CE41AA410A54204D0AB00F358AC
:406B400098470135F8E770BD547D0000547D0000547D00005C7D0000002310B5934203D0CC5CC4540133F9E710BD031C8218934202D019700133FAE77047021C10B51378D4
:406B8000002B01D00132FAE7CC5CD4540133002CFAD110BD021CC9B21378002B03D08B4204D00132F8E7181C002900D1101C70470023C25C0133002AFBD1581E704710B53A
:406BC0000378021C002B05D10978181C00290FD00FE001321378002B08D00023C85C002806D0D45C8442F4D10133F7E7181C00E0101C10BD000000006CFBFF7F0100000089
:406C00003A1A0000B8190000D2190000EC190000061A0000201A0000696E76616C69642073746172742D656E642063686172616374657228732900006661696C65642074C2
:406C40006F20657865637574652074686520636F6D6D616E6400000065786563757465640000000075700000646F776E00000000706F736974696F6E0000000073746F7003
:406C800070696E6700000000425430004254310042543300425434004254350042543600425438009400D34B00820000FF00FF00FFFF00FF7F00FF000000000000083208B2
:406CC00064089608C808FA082C095E098F09C009F109220A520A820AB10AE00A0F0B3D0B6B0B980BC50BF10B1C0C470C710C9A0CC30CEB0C120D390D5F0D830DA70DCA0D71
:406D0000ED0D0E0E2E0E4E0E6C0E8A0EA60EC10EDC0EF50E0D0F240F3A0F4F0F630F760F870F980FA70FB50FC20FCD0FD80FE10FE90FF00FF50FF90FFD0FFE0FFF0FFE0FC4
:406D4000FD0FF90FF50FF00FE90FE10FD80FCD0FC20FB50FA70F980F870F760F630F4F0F3A0F240F0D0FF50EDC0EC10EA60E8A0E6C0E4E0E2E0E0E0EED0DCA0DA70D830D91
:406D80005F0D390D120DEB0CC30C9A0C710C470C1C0CF10BC50B980B6B0B3D0B0F0BE00AB10A820A520A220AF109C0098F095E092C09FA08C8089608640832080008CD07B5
:406DC0009B07690737070507D306A10670063F060E06DD05AD057D054E051F05F004C204940467043A040E04E303B8038E0365033C031403ED02C602A0027C0258023502F6
:406E00001202F101D101B1019301750159013E0123010A01F200DB00C500B0009C0089007800670058004A003D00320027001E0016000F000A000600020001000000010021
:406E4000020006000A000F0016001E00270032003D004A0058006700780089009C00B000C500DB00F2000A0123013E01590175019301B101D101F1011202350258027C02D4
:406E8000A002C602ED0214033C0365038E03B803E3030E043A0467049404C204F0041F054E057D05AD05DD050E063F067006A106D3060507370769079B07CD0773746172B6
:406EC00074696E67000000006669726D7761726500000000696E76616C696420616E696D6174696F6E2069640000000073656C65637465640000000073746172746564008F
:406F0000736C6F77206272656174686572000000666173742062726561746865720000006C6566742D7269676874000032206C656473000072656420696E74656E7369744B
:406F400079000000677265656E20696E74656E7369747900626C756520696E74656E7369747900007265642D776869746520696E74656E7369747900677265656E2D776824
:406F80006974652020696E74656E736974790000626C75652D77686974652020696E74656E73697479000000616C6C20636F6C6F727300007261696E626F7720636F6C6FA1
:406FC000727300003420666978207768697465204C4544732061742066756C6C20696E74656E736974790000FA260000E8260000D6260000C4260000B2260000A0260000E7
:407000008E2600007C2600006A2600005826000046260000342600002226000010260000FE250000EC250000DA250000C8250000B6250000A4250000922500008025000088
:407040006E2500005C250000302E3037000000009A300000303100004E300000B03100007430000076350000DA3500003E3600000C370000C6310000D0310000D03100009F
:40708000EE320000E233000000000000B47300009875000001000000B8750000C475000002000000DC750000E8750000040000000C760000087300000300000014760000C2
:4070C0001876000005000000247600002C76000006000000507600005C7600000700000078760000807600000800000058750000A4760000010000007C77000024780000B9
:4071000000000000A477000040780000010000007C770000FC77000000000000A477000010780000010000007C7700008477000000000000A4770000AC7700000200000043
:40714000CC770000D8770000000000005C7800006478000001000000847800008C78000002000000AC780000B478000003000000C4780000CC78000000000000E07800009F
:40718000E878000001000000047900000C79000002000000287900003879000000000000BC760000C476000001000000D4760000E4760000020000000477000014770000FF
:4071C000030000003477000040770000040000005C7700006877000074750000787500008075000088750000907500007B226576656E74223A22616C61726D222C20227459
:40720000797065223A220000222C2022736F75726365223A22000000222C20226465736372697074696F6E223A220000227D00007B226576656E74223A22616E696D6174DB
