:400000000010002011000000990100009901000008B501F0E7FA00F0C1F8C04610B50B4C12232360182001F059FAFE221202084B1A60084A084B1A600022084B1A6040323C
:40004000074B1A601123236010BDC046300010400003014040FF008000000140280003400801014008B572B6EE2212020D4B1A6004220D4B1A607D32FF320C4B1A604023CA
:400080000B4A13600B4A1360D82212010A4B1A6002230A4A13600A4A1360FFF7BFFF00F0E1F808BD00030240000104400801044000020440180204400803044000040440CD
:4000C00018040440000000000000000000000000000000000000000000000000000000000000000000000000000000000000000000000000000000000000000000000000A0
:4001000010B5064C2378002B07D1054B002B02D0044800E000BF0123237010BDA000002000000000141B000008B5084B002B03D00748084900E000BF07480368002B00D15C
:4001400008BD064B002BFBD09847F9E700000000141B0000A4000020880000200000000008B562B600F0A4F800F01AFB00F0E0FA0028FBD100F0C4F80020002100F0F0F92F
:40018000002803D0012000F073F802E0002000F06FF800F005FBE9E7FEE7C04670B50F4E0F4D13E029686B68AC68002202E001C901C30432A242FAD1E868002202E000218F
:4001C00002C304328242FAD11035013E002EE9D101F068FCFFF7C4FFFEE7C04601000000AC1B000008B500230AE0032B03D89A000949505800E009489900094A88500133B8
:400200001F2BF2D9FFF72EFF0022064B1A6080229205054B1A6008BD0000000099010000000000208000002008ED00E00B4B1B68002803D080221206134301E05B005B081F
:40024000064A1360064B1B68002802D02022134301E020229343024A13607047002002402800034008B50120FFF7E0FF08BDC04604490A68FB231A408000F73B1840104307
:40028000086070470001044008B5084B1B78002B06D100F031F900F07BF90122034B1A7000F050F800F0E2FB08BDC046BC00002038B5FFF7E9FF051E02D100F03BFB051C08
:4002C000002D02D100F06CFA051C002D16D101F04CF8041C07E001F06DF9201C01F049F801F043F8041C00F023FA0028F3D1201C01F03FF800F056F900F0B0F9281C38BDB8
:4003000038B50E4D002414E0630902339B000C4AD3185A681F232340DA40131CDB0706D5281C00F061F8201C291C00F0B9F820350134002CE8D0002038BDC0461C1B000004
:40034000E400002070B500230BE01348191D890000220A509A1C920082180121494251600133002BF1D00D4C012310E06668227E094B5B1900211975012A06D1206900284B
:4003800003D0F179E28A01F0BCFB20342B1C5D1E002BEBD170BDC046E40000201C1B000010B582B0041C131C428868460280228A081C694601F074FA6B461B8863806B467B
:4003C0009B7823716B46DB7863716B461B79A37102B010BD0B884A889B1A0022CA8002799A4200DACB807047F0B54F4680B482B0814684684668037E0193C769002515E08D
:400400002088318A3A1C01F073FA301C391C2A1CFFF7C6FF0C37301C211C019A00F034F9301C211CFFF7D6FF0A3401354B46DB8AAB42E5D802B004BC9146F0BDF0B5CA8A28
:400440008D684F680B69012125E00C1C044003D17E88BA79B21802E07A88BE79921BEE88B24201D3002200E00A1CA24202D01E78013E1E70A24202D01C78002C07D1884392
:400480001043002A01D1FA7900E001221A7049000A3501336246541EA446002AD5D1F0BD38B5041C0A7E134B1B181D7D012A04D1281CFFF7C3FF051C02E0002000F08EFF54
:4004C0000C4B1B191D7563091F2214401E3AA240141C002D06D1074904339B005A58A2435A5005E0034A04339B0099580C439C5038BDC046E400002038B5164D281C002129
:400500003C2201F0FEFA144B2B80B0235B006B80593BFF3BEB82073B2B76104C281C1A30211C2431122201F0E3FA221C043401230CE0A168E38A04E013784B7101320A3120
:40054000031C581E002BF7D120342B1C5D1E002BEFD138BDE4000020B6EBFFFF181B000000280CD14301084AD3185B8B8B4208D9064B1818037D01208840184002E00020C9
:4005800000E000207047C046181B0000E40000200023024A9380024A13607047E4000020D0000020F8B501231AE06B010E4AD3185E68DB8A10E06B010B4AD3189F68A00073
:4005C00000194000DA6961000B199B00D218385A318A01F081F9231C5C1E002BEBD12B1C5D1E002BE1D1F8BD1C1B0000C9B2062902D08318002119715300195AC318598036
:40060000821800231372704770B54001094B18188B005918490083685C18067E012305E0201C311C2A1CFFF7E1FF2B1C5D1E002BF6D170BD1C1B000038B5051C4301064A47
:40064000D318DB8A04E0281C211CFFF7DDFF231C5C1E002BF7D138BD1C1B000010B5012303E0201CFFF7E8FF231C5C1E002BF8D110BDC0469840031C534380204000801AAF
:4006800041435818000A7047F0B583B0071C0E1C019201233BE06300985BF3185988884205D3431A321900251572012201E00B1A0022002A11D17D799D420ED233191B7A69
:4006C0003A7A934205D3301C0199221CFFF78EFF1CE032190133137218E03D799D4204D27D799D4212D9002A10D16B461B79062B0CD0090235192B79194301220823FFF7D5
:40070000B9FF020A6300F3185A802871231C5C1E002BC0D1002003B0F0BDC046024A1168024B0B401360704700020B40FFFFF8FD024B187A7F2398437047C046E400002035
:4007400010B50F4B9B68DB030FD400280FD1430902339B000A4AD3185A681F230340DA40131CDB0705D4012404E0112402E0012400E00024002C01D100F078FC201C10BD34
:40078000E400002008B5054B9B68DB0303D400F049FB002000E0112008BDC046E400002010B50C4B9B681B0612D40024012040420BE0201CFFF7C4FF002805D10022064BFE
:4007C0001A70FFF7DFFF04E00134002CF1D000E0112010BDE4000020D40000207047C046074A084B1A6001380002074B1860054B1B68002BFBDB054A024B1A607047C04638
:4008000040000040000001400003014040FF0080034A13681B0B1B03013818431060704700020B40F8B50D1C00F014FA061C3D4B1C7E298800F0E6F9071C7443A02C2BD99E
:40084000394B984206D9394901F020F9002901D1642E23D8FF235B009F4207D9381C344901F014F9002901D15A2E19D87E2F07D9381C7F2101F00AF9002901D1462E11D8D9
:400880003E2F11D9381C3F2101F000F900290DD13C2E0DD800240CE000240AE0042408E0032406E0022404E0002402E0002400E00124002C04D12988301C00F06DF9041C05
:4008C000032C0CD002D8002C03D106E0042C02D003E0032304E0052302E0002300E00423002C18D0002B18D09900C9184900301C01F046F882B2FF2A02D9120A082302E044
:40090000FF2002400023520802E00133DBB25208002AFAD102E0002300E000231B0123432B73F8BDE4000020FE030000FF030000FF010000F0B5474680B488B001ACFA239B
:400940009B002380394B638096235B01A3805523E373374B197E374801F012F8A081002500275BE06B01344AD3185C68FFF7D6FEE38901AEF380231C103307930C232380B2
:40098000B0892E4900F0FCFFE07200222C4B5A70281C552100F02EFC231C0A33336101337361301C00F00EFF8046264B984200D9062701AB9B891F4A934205D8E37A012B27
:4009C0000AD80223E37207E01F4A934204D8E37A072B01D80823E3720122194B5A7001AE0223B373281C211CFFF71CFF281C552100F000FC07434346B360301C00F016FFF8
:400A00002080281C211CFFF70DFF237B002B04D1281C552100F0EEFB07430135002DA1D0381C08B004BC9046F0BDC04655080000E4000020C05D00001C1B0000DC05000059
:400A4000D4000020870D010080BB000010B5002407E06301044AD3185968201CFFF7E2FE0134002CF5D010BD1C1B000008B5FFF7EDFF00F061FA002008BDC04610B50F4B54
:400A80001B68702293431C1C0D4B197E0D4800F077FF0D4B984204D820232343074A13600BE0084B984204D830232343034A136003E040232343014A136010BD8C0000209E
:400AC000E400002000366E01001BB700034A044B1A60C1225204034B1A60704700008301C0010B40C4010B4001390843014B18607047C04600020B4070B50D1C161C0488AE
:400B00000123A3401C1C013CA00000194000642100F036FF01302B18A34200D9231C854201D3281A00E00020864203D39E4203D9062002E0062000E0002070BD074B1A68BF
:400B40007F210A40064802431A60064A13680B40802109040B4313607047C046C0010B4000008301C4010B40064A136806490B431360064A064B1A60C1225204054B1A60A3
:400B80007047C046A8020B400100001000008301C0010B40C4010B400203121A01238B40191C01398A4205D30302181A814203D9052002E0062000E00020C0B27047C0466D
:400BC00038B5041C00F0D1FB0A490B687F25AB43094A1278A418A47A23430B6007490B68AB43074C2468A218527913430B6000F0C0FB38BDC0010B406C1B0000C4010B4033
:400C00002001002038B5041C0E4B1B785B010E4AD3185D6801238B40181C0138002C02D0211C00F0ADFE094B1B78012B09D1084B1B7E5C432B7B053B012B02D8A02C00D8DC
:400C4000800838BDD70000201C1B0000D5000020E40000204001024B18184368D87A70471C1B000008B50E4B1B785B010D4AD3185B68D97A187B431F012B04D80004802326
:400C80009B04184300E00004074B1B78012B02D1FFF72AFF02E0081CFFF7BAFD08BDC046D70000201C1B0000D500002008B5031CC07A1988FFF7A6FF0004000C014B18608C
:400CC00008BDC04614030B4010B50A2000F072FB0124324B1C60182000F03EFB0023304A1360304A136006222F4B1A60FA322F4B1A60802252042E4B1A602E4B1C6083223E
:400D000052002D4B1A60033AFF3A2C4B1A60013A2B4B1A60F0235B0000E0013B264A1268520701D4002BF8D1002B02D10822244B1A6000241A4B1C601A4B1C608322520059
:400D40001D4B1A600A2000F03FFB0A2000F028FB154B1C60154B1C60154B1C605022154B1A604F3A174B1A600C4B1C60164A1368802149040B4313600222104B1A60F02352
:400D80005B0000E0013B114A1268520701D0002BF8D10F4A0A4B1A6010BDC04680010B40B0020B40B4020B4088020B4080020B4084020B40F0010B40F0000B40F8000B40D7
:400DC00040030B408C010B4000020B4000000B400103000008B5044A044B91680B439360FFF772FF08BDC046E40000208000010070B5041C857E067E00F0B7FA23681B682B
:400E00000F22B24093431A1C0423B3401343666832680721A9408A4332602268136000F0A8FA70BD70B5144E3378144D5B01EB185868134C0023237033785B01EB189968AD
:400E4000227893009B185B00CB180E4A1360FFF7B7FE33785B0158592178CA00531A9B00C018094B1860FFF7C3FF084800F066FAFFF7B0FF70BDC046D70000201C1B0000B9
:400E8000D600002020010020D80000206916000008B54001054BC058CB00591A89004018034B1860FFF7A4FF08BDC0461C1B0000D800002038B5041C007EA57E21680B68FC
:400EC0000F22824093430B6000F04FFA61680B680722AA4093431A1C0623AB4013430B6000F047FAA1680B68607E0122824093430B6038BD38B5002516E06B010C4A9A58F3
:400F00000C4B1A60002408E0E3001B1B9B00094A1068C018FFF7CEFF01346B01044AD3189B7DA342F0D80135002DE6D038BDC0461C1B0000D800002010B5FFF7DBFF00241F
:400F4000284B1C60284B1C60284B1C60284B1C60284B1C60284B1C60284B1C6028490C60284B1C6028480368F0229343903A13430360264A136880204001034313608022AF
:400F80005200234B1A60234A136823480343136080235B04214A13602148224A10600B60214A224B1A60FFF791FD214B187EFFF717FCFFF763FD1F4B1B681F4A13431F4A0F
:400FC0001360482000F0C8F90F221D4B1A601D4B1C600B3A1C4B1A60C02212031B4B1A6010BDC046F4000B40B4020B40C0020B4020030B4084010B4088020B4080020B4071
:4010000084020B4080010B400004024094020B40A0020B40A8020B4001000010A4020B404111000088010B400000030190020B40E40000208C0000200010008000000B4076
:4010400000030B40F0010B4010030B4004020B4010B5054B1B79012B05D1034C2068FFF729FF0023237110BDD800002070B5041C0E4E4301F3185D68FFF7EAFFE4B20C499C
:401080000C700B785B019A590A4B1A600A4A7F2390689843031C906009780B439360281CFFF704FEFFF7DEFD70BDC0461C1B0000D7000020D8000020E400002038B54301DE
:4010C000114AD3185D68C9B2104C21709968227893009B185B00CB180D4A1360FFF7C6FF281CFFF76DFD20780A4CC300181A800023689C4660442060FFF77AFE012323711B
:40110000054800F01BF938BD1C1B0000D600002020010020D8000020F5150000F0B5474680B482B0071C0E1C90462B4A13785B012A49CB185B680193402333701078C0B235
:40114000274B1978C9B2FFF7B9FFFFF7F7FC4025FFF740FE234A00E0013A234B1B7A5BB2002B01DA002AF7D1204B1B681C88BC4202D23378AB4333706D0833782B43337060
:401180000198FFF71DFD002DE2D1134B1B785B01124A9858124B1978CA00531A9B00C018134D2860FFF786FE00232B71FFF7DCFC0198391C221CFFF79FFC43461A78337803
:4011C0009A4201D242461370084B1B6832785A7102B004BC9046F0BDD70000201C1B0000D600002033330000E400002020010020D8000020F0B54F4680B484B0051C89469C
:401200004301354AD3185F68012303AA137038888340181C01384843642100F0B1FB0190EAB22E4B1A702E4800F088F83C1C0A3400222C4B1A7000260AE00198211C03AAE7
:40124000FFF76CFF0643274A13780133DBB213706B01214AD318234A12785B7E9342ECD803AB1B7801335B08BB7200221D4B1A7021E06B01184AD3189A681A4B1B789C00F0
:40128000E41864001419184B1C606379B87A83420AD31B1AD8B260714B4658436330642100F06EFB607101E0002363710D4A13780133DBB213706B01074AD318094A127891
:4012C0005B7E9342D5D80022064B1A70301C04B004BC9146F0BDC0461C1B0000D7000020F5150000D600002020010020014B98667047C0460000002010B5041C00F035F8B4
:40130000044A1168044B0B40A4051C43146000F030F810BD08E400E0FFFF3FFF8022D200014B1A607047C04600E100E08022D200014B1A607047C04680E100E010B5041C0E
:40134000FFF7F4FF201CFFF7D1FF0320FFF7D4FFFFF7E4FF10BDC0460230800803D001300238FCD1C046C0467047EFF3108072B6704780F310887047024A1168024B0B40F2
:401380001360704700000740FFFFFFBF034B18688023DB05184000D001207047000007401F2318401E3B8340181C014B1860704700E100E01F2318401E3B8340181C014B0C
:4013C0001860704780E100E01F2318401E3B8340181C014B1860704780E200E001BE704710B5041C06E0084B1868FFF7B5FF074B9C46644480231B029C42F4D8024B5868C5
:401400006043FFF7A9FF10BD900000200080FFFF30B583B000F0DCF8002848D0FFF7A5FF041C244B1B6807221A409200131C1833214A12681207920FD3401A1C1F4B196846
:401440001F4B19401F4B53438020C00184466344DB0B013B5B055B0D0B43A02149031943192A02D8184A13430BE0184BD31818781A3A174B9B5CC318FF2B00D9FF239B054B
:401480000B430E4A1360134D2B680193302000F06FF9114A13688021C9050B4313601420FFF79EFF019B2B60201CFFF762FF03B030BDC046080F03402800034008000740A3
:4014C00000F800C040420F000000D43FCDF1FF0F701B00003000104000000740F0B583B0041E182C0BD01C2809D0202807D0242805D0282803D02C2801D0302849D1FFF74C
:4015000034FF0190FFF742FF002803D0FFF734FF012600E00026214A136807218B4313601F4BE3181B78DBB21E4A13601E4A13688B4313601D4803687F229343191C1C4BA9
:40154000E3181B7813400B4303603220FFF704FF182C16D9114F3B680725AB431A1C231C1C3B9B082B4013433B603220FFF7F4FE3A68AA43231C183B9B082C1C1C4014437A
:401580003C60012E01D1FFF743FF0198FFF7F1FE02E00020FFF722FF03B0F0BD080F0340CDF1FF0F0C0F0340100F0340180F0340B4F1FF0F08B5FFF7D8FE044A13680421E5
:4015C0008B43136030BFFFF7D4FE08BD10ED00E0034B1B68002B01DA012000E00020704700000740014A024B1A6070476588EDAC3800034083225200134B1A60134B1B78D1
:401600005B01134AD3185B68124A12681204120C198801238B40013B9A4206D20E4B19680E4B1B785B00CA5205E00B4A11680B4A127852008B520A4BDA880132DA80094A24
:4016400099680A409A607047F0000B40D70000201C1B0000D0000B40200100206C1B0000E40000207FFFFEFF38B5374B1A78374C52011059364A1578E9004A1B92008018DE
:4016800083214900334A11601B785B01E3185B68314A12681204120C198801238B40013B9A4206D22D4B19682D4B1B785B00CA5205E02A4A11682A4A127852008B52FFF789
:4016C000F9FB214B1A78214952018A1850681B785B01CB189B7D1E4A1278013B93421BD91B4C23780133DBB22370174D2B785B01CB189968227893009B185B00CB18174AE4
:401700001360FFF75DFA2878C0B22178C9B2FFF7BFFBFFF7D9FA15E000220D4B1A70114A114B91680B409360104A1278012A02D1FFF754F806E00B4A80218B439360D38847
:401740000133D38038BDC046D70000201C1B0000D6000020F0000B40D0000B40200100206C1B0000E4000020FFFFFEFFD400002038B5041CFFF7F9FD051C102C05D8104A25
:40178000136803218B43136016E0202C07D80C490B6803229343023A13430B600CE0302C07D807490B6803229343013A13430B6002E00020FFF712FE281CFFF7DAFD38BD79
:4017C0003000104070B5041CFA26036980881D78E37BB60058431349704300F0D1F875436188684300F0CCF8051C2088311C684300F0C6F8A3890C49584300F0C1F801301F
:4018000063691022082809D80822042806D80422022803D801D1187001E001221A70281C70BDC046F049020000E1F50538B5041C63698089197800F0A3F8051C60880304B7
:40184000181A23691978A388594300F099F8A37B1149DD40684300F093F8E3880A21584300F08EF800230D4AA16810258A425B410222D31A62325343984203D9013DEDB281
:401880004008F9E74B236421584300F079F8A4692080281C38BDC046A0860100A761000010B50C4C002B00D00B8823800388101C9B009BB29A4200D2181C228883B29A426C
:4018C00000D208805A08D2B2DB088A70CA700B7110BDC046E00000208B0813800F2393720023C90851809080D0801081D3727047937A30B594885B00041B9080DBB2002CE2
:4019000001DB937202E00133937264420F23957A1D40538895729C4203D2012B03D9013B00E0013353800F2D05D0002D03D053889D00AC4204D90023D0801081D3721DE00D
:40194000D488844201D9D08003E01489844200D21081D07A092802D80130D0720EE01089D488001B80B2834204D989088B4203D9013B00E0013353805388138030BD000020
:40198000002243088B4274D303098B425FD3030A8B4244D3030B8B4228D3030C8B420DD3FF22090212BA030C8B4202D31212090265D0030B8B4219D300E0090AC30B8B42B6
:4019C00001D3CB03C01A5241830B8B4201D38B03C01A5241430B8B4201D34B03C01A5241030B8B4201D30B03C01A5241C30A8B4201D3CB02C01A5241830A8B4201D38B0277
:401A0000C01A5241430A8B4201D34B02C01A5241030A8B4201D30B02C01A5241CDD2C3098B4201D3CB01C01A524183098B4201D38B01C01A524143098B4201D34B01C01AEB
:401A4000524103098B4201D30B01C01A5241C3088B4201D3CB00C01A524183088B4201D38B00C01A524143088B4201D34B00C01A5241411A00D20146524110467047FFE747
:401A800001B5002000F00CF802BDC0460029F7D003B5FFF775FF0EBC4243891A1847C0467047C0460E4B70B500251E1C0D4CE41AA410A54204D0AB00F35898470135F8E7E4
:401AC00000F062F8084B00251E1C084CE41AA410A54204D0AB00F35898470135F8E770BD941B0000941B0000941B00009C1B0000002310B5934203D0CC5CC4540133F9E76A
:401B000010BD031C8218934202D019700133FAE7704700000000000020000000501B0000FE0000201001002000000000CC0000200100010001010000C00000200C00640009
:401B400028280A031E6420040000E80300000000000202400802044000020440040204400000000F400000001806120000000000EEDBC9B9AA9B8E82766B60564D443B33A0
:401B80002C241D17100A0400F8B5C046F8BC08BC9E46704729010000E5010000F8B5C046F8BC08BC9E46704701010000C01B000088000020180000008800000000000000C2
:401BC00000000000020000040000E02EC05D00001800000000366E0100000000000000000000000000000000000000000000000000000000000000000000000000000000F7
:401C000000000000000000000000000000000000000000000000000000000000000000000000000000000000000000000000000000000000000000000000000000000000A4
:401C40000000000000000000000000000000000000000000000000000000000000000000000000000000000000000000000000000000000000000000000000000000000064
:401C80000000000000000000000000000000000000000000000000000000000000000000000000000000000000000000000000000000000000000000000000000000000024
:401CC00000000000000000000000000000000000000000000000000000000000000000000000000000000000000000000000000000000000000000000000000000000000E4
:0200000490303A
:02000000EFFD12
:0200000490402A
:200000000000000000000000000000000000000000000000000000000000000000000000E0
:0200000490501A
:0C0000000002190711A90001191001A647
:0200000490600A
:0100000001FE
:00000001FF