:400000000010002011000000050300000503000008B501F03FFF00F07DF9C04608B51222114B1A60302001F0A7FEFE2212020F4B1A600F4B0F4A1A6000220F490A600F49F9
:400040001960E82040010E4908600E4919600E4B1A6040320D4B1A6001320D4B1A6001320C4B1A6008BDC04630001040000301400000014040FF00800403014041FF008078
:400080000803014042FF00802800034008010140040101400001014008B572B6F0221205194B1A60194A1A4B1A60EE22194B1A607323194A1360C0214903184A1160184A0C
:4000C00013601933174A1360174A1360893B174A1360D8210904164A1160164A1360012215490A6015481649086016490A60164A13602422154B1A60183A154B1A60FFF76A
:400100008DFF00F06BF908BD000002400FEE00000003024000040240000004400800044018000440000104401801044000020440080204401802044000030440860D0000F6
:40014000080304401803044000040440080404401804044010B5064C2378002B07D1054B002B02D0044800E000BF0123237010BD08010020000000000429000008B5084B02
:40018000002B03D00748084900E000BF07480368002B00D108BD064B002BFBD09847F9E700000000042900000C010020880000200000000010B52D4B1C88201C0A2102F045
:4001C000E1F92B4B1870002306E05A0028498A18918891860133DBB2172BF6D9254B9C421ED10022214B1A80002306E05A0020498A18918891860133DBB2172BF6D91C4876
:400200003430182101F0C0FE012001F0C9FF012001F01EFE002001F0C3FF012001F018FE124B1B88144A128893421DD0124A1380002B19D00E48027816239B1A5B00C318BE
:400240009A8E0E490A439A863430182101F09CFE012001F0A5FF012001F0FAFD002001F09FFF012001F0F4FD10BDC0465002002024010020FFFF000052020020FF0F0000EF
:4002800008B501F037FE002001F00CFE002001F087FF012001F0DCFD62B617480430182101F072FE012001F07BFF012001F0D0FD002001F075FF012001F0CAFD00F0AEF81A
:4002C000C020C0210D4A00F01BF900F0E9FA00F08FFE00F055FE0028FBD100F009FB002000F0A6FC064B1880FFF764FF00F0C6FC00F07EFEEDE7C0462401002068020020AC
:400300005002002008B502F0BFFA03680C2B00D1FEE7FEE770B50F4E0F4D13E029686B68AC68002202E001C901C30432A242FAD1E868002202E0002102C304328242FAD1E7
:400340001035013E002EE9D102F0A4FAFFF798FFFEE7C04601000000C42A000008B500230AE0032B03D89A000949505800E009489900094A885001331F2BF2D9FFF78CFEF5
:400380000022064B1A6080229205054B1A6008BD0000000005030000000000208000002008ED00E00B4B1B68002803D080221206134301E05B005B08064A1360064B1B68D1
:4003C000002802D02022134301E020229343024A13607047002002402800034008B51122024B1A600120FFF7DDFF08BDC0020B4008B5072001F0EAFB08BDC04608B500F081
:400400001DF808BD08B5044A1368802109060B431360FFF7EDFF08BD0000084008B5064B1B78002B04D1FFF7E9FF0122024B1A70FFF7E8FF08BDC0468801002010B5002449
:400440001A4B1C601A4A1B4B1A601B4B1B4A13601B4A14601B491C4A11601C4A13601C4B1C60072001F0BCFB0720032101F0E0FB0720184901F0CAFB174B1C60174B1C6069
:400480005222FF32164B1A60164B1C60164B1C60164B1C60503AFF3A154B1A70154B1C70154B1C80154B1C8010BDC0460000084000080040600008400701008000030840B6
:4004C000040308401000FE0010030840000208400402084031050000C80E0840880E0840480F0840080F0840C80F0840880F0840580200205C020020560200205402002098
:4005000070B5061C0D1C141E0BD0072001F068FB044B1C60044B1E80044B1D80072001F055FB70BD60020020640200205A02002070B5B24B1B68002B00D09847B04B1C88E8
:40054000B04B1D68B04B1E680223FF331D4236D0AE4A13685B005B081360AD4B1A7820218A431A70197810220A431A70A94B1B68DB060BD4A24B1A88A74B1B889A420AD04D
:40058000A34A117808230B43137004E0A04A117802230B431370A14A1168A14B0B4013600023A04A13609B4A136002229E4B1A70964A1368802109060B4313601AE1F3063F
:4005C00002D50022994B1A600A23334200D1A3E0974B1B685B0769D5964B1A68924B1B78012B04D0002B22D0022B16D057E0924B1B88002B0DD00121904B1960904B1B6813
:400600001B19D2B21A7001348B4A1388013B138048E00222894B1A6044E00121874B1960D2B2854B1A8000227F4B1A703AE0824B1B881B021A43834B1B8893422BD9012105
:400640007E4B1960804B1B88934202D99B1A9BB200E0002378490B80072B03D80121724B197014E0082B09D16C490B68A020000203430B6000216B4B196008E067490B685D
:400680008020800103430B600821664B1960624B1A80141C06E00222684B1A6002E0002001F0B2FA0422694B1A6035E05B4B1B689B0431D5B3070DD5654B1B681F21194029
:4006C000564A1068564B03401360012014E00821012011E0584B1988083989B219800829F5D8002008E0564B1B681B19514A1268D2B21A70013401390029F4D1002808D103
:40070000464A1368802109020B4313600022454B1A600C224D4B1A60B3074AD5EB0615D50023404A13603B4A13603B4B1B88A34201D1022300E00A232B40354A11780B4336
:4007400020218B4313700222374B1A706B062ED52F4A117820230B4313702F4B1B881C1C3C4A1268D20612D5364A1288D31A324A1380394B1A68802149020A431A601968C9
:40078000364A0A401A601022224B1A6002E00422244B1A600122324B1A603249194B196031490868102303430B60244B1A60154B1D60154B1B685B071CD51F4B1B88002B77
:4007C0000CD01F4B1B681B191B78DBB2274A13600134194A1388013B138002E0FF22234B1A60234B1B681F221340082BE5D10F3A204B1A60024B1C8070BDC0468C010020A6
:4008000056020020400F0840000E0840000008405C020020880F08405402002060000840FF5FFFFFC80F084058020020880E0840CC0F084040030840900100206C000840AA
:4008400060020020640200205A020020C00F0840080308406400084004020840FFFFFEFF800E0840FF0F0000480F08404002084008020840800F084008B5084B1B78002B91
:4008800006D100F0A1F900F0EFF90122034B1A7000F052F800F090FC08BDC0469201002038B5FFF7E9FF051E02D100F0E3FB051C002D02D100F09CFB051C002D12D101F077
:4008C00084FC041C07E001F0CDFA201C01F081FC01F07BFC041C00F053FB0028F3D1201C01F077FC00F098FA00F07CFA281C38BD70B50F4E0024002515E06B0902339B0098
:400900000C4AD3185A681F232B40DA40131CDB0707D5301C00F070F8041C281C311C00F021F928360135002DE7D0201C70BDC046142900006802002030B500230BE01A489E
:40094000191D890000220A509A1C920082180121494251600133002BF1D0144A01231FE05568107E0B1C08335B000F4CE31800249C80831E012B11D81369002B01D0E8792E
:4009800018705468002307E0181C08304000201801256D4245800133002BF5D028320B1C591E002BDCD130BD680200201429000010B582B0041C131C428868460280228AD7
:4009C000081C694601F06AFD6B461B8863806B469B7823716B46DB7863716B461B79A37102B010BD0B884A889B1A0022CA8002799A4200DACB807047F0B55F4656464D465B
:400A0000E0B482B08246037E062B02D10122934601E0002293465246D26891465246946856680093176A00250023019321E04846211C009A00F092FA2088318A3A1C01F054
:400A400059FD301C391C2A1CFFF7B2FF0C37301C211C009A00F024FA0190301C211CFFF7C1FF0E345B46002B02D102339C46E14401355346DB8AAB42D9D8019802B01CBC3C
:400A800091469A46A346F0BDF0B5474680B482B08446CB8A8A684D68086980466046002803D16C88A879201802E06C88A879201A0024012609E0D388984201D3002300E0F4
:400AC000331C1C430E3276003B1C5F1E002BF2D1002C0BD043461B78002B02D0013B4246137043461B78002B04D104E0EB794246137000E06446002C23D00E1C6B88AA7911
:400B00009A1ACF8A8868391C00F088FF002822D0337E022B1FD1F16901A83A1C00F0CCFF00220BE0530002A98C466344043B1988131C08335B00EB18598001329042F1D81D
:400B400009E0002007E0031C08335B00EB18012252425A8001300028F5D0201C02B004BC9046F0BD38B5041C0A7E031C08335B001448C3189D88931E012B04D8281CFFF754
:400B800083FF051C02E0002001F03EF8231C08335B000C4AD3189D8063091F2214401E3AA240141C002D06D1064904339B005A58A2435A5005E0034A04339B0099580C4321
:400BC0009C5038BD6802002038B5164D281C0021C02201F08EFE144B2B80E0235B006B80B73BFF3BEB82093B2B76104C281C1A30211C3431142201F073FE221C0C340123DF
:400C00000CE0A168E38A04E013780B7301320E31031C581E002BF7D128342B1C5D1E002BEFD138BD6802002048F1FFFF08290000002810D183001B18DB00094AD31824334C
:400C40001B78023B012B08D883001818C00010180369588A02E0034800E002487047C04608290000FFFF00000023024A9380024A13607047680200202802002038B500258E
:400C80000022344B9C88E4B2052C1AD8A3003249CB589F460122314B1A6012E000222F4B1A6001320DE0FFF7FBFD00222B4B1A600125013205E00222284B1A60013A00E0E5
:400CC0000122002A0FD001F080FA224B9B88DBB2A34205D11F4A918880231B020B43938001F077FA00221D4B1B68012BC9D0022B2ED1184AB833D35CDBB2BB21515CC9B275
:400D0000002B25D19A00D218D20015488218D28A8A421DD90F48C288BC24005B92B2824216D09A00D318DB000D4AD3189C68CB00591A4900641801F048FA064BDA8892B28A
:400D4000BC215A52228892B202315A5201F041FA281C38BD68020020682A00002802002014290000C9B2062902D08318002119715300195AC31859808218002313727047E0
:400D800070B50D4A85002B18DB00D3189C68CB00591A490064182818C0001018067E012305E0201C311C2A1CFFF7DCFF2B1C5D1E002BF6D170BDC0461429000038B5051C9B
:400DC00083001B18DB00064AD318DB8A04E0281C211CFFF7D5FF231C5C1E002BF7D138BD1429000010B5012303E0201CFFF7E6FF231C5C1E002BF8D110BDC04630B5012349
:400E000006E0D3B2062B02D063005D5A1D52231C5C1E002BF5D130BDF0B5474680B401232CE0B3009B19DB00174AD3185A689046DB8A1FE0B3009B19DB00134AD318E90091
:400E4000491B49009A685718D968081C6A00521992001C6AA4181A7E062A01D068000818391CFFF7CBFF38884346198A221C01F035FB2B1C5D1E002BDCD1331C5E1E002B35
:400E8000CFD104BC9046F0BD142900009840031C534380204000801A41435818000A7047F0B583B0071C0E1C0192012333E06300985BF3185988884205D3421A33190025B6
:400EC0001D72012301E00A1A0023002B11D17B7993420ED233191B7A3A7A934205D3301C0199221CFFF73EFF14E032190133137210E06B461B79062B0CD0090235192B7991
:400F0000194301220823FFF7C1FF020A6300F3185A802871231C5C1E002BC8D1002003B0F0BDC046F0B583B0061C0F1C019201230EE06B461B79062B09D06500E85BA95B9C
:400F400080220023FFF7A2FF80B2A853E853231C5C1E002BEDD103B0F0BDC04608B5FFF7E1FF08BD024A1168024B0B401360704700020B40FFFFF8FD06230B737047C04622
:400F8000024B9B68802018407047C0466802002010B50F4B9B68DB030FD400280FD1430902339B000A4AD3185A681F230340DA40131CDB0705D4012404E0112402E00124CC
:400FC00000E00024002C01D100F0B8FB201C10BD6802002008B5054B9B68DB0303D400F02BFB002000E0112008BDC0466802002010B50C4B9B681B0612D40024012040426B
:401000000BE0201CFFF7C4FF002805D10022064B1A70FFF7DFFF04E00134002CF1D000E0112010BD680200202C0200207047C046074A084B1A6001380002074B1860054B15
:401040001B68002BFBDB054A024B1A607047C04640000040000001400003014040FF0080034A13681B0B1B03013818431060704700020B40F0B5474680B488B001ACFA23D9
:401080009B0023803B4B638096235B01A3805523E373394B197E394801F074FAA0810022374B5A70FFF75EFF002398460024002532E0A3001B19DB00324AD3185E680C233C
:4010C000338001AFB889304901F05CFAF072201C552100F01FFC331C0A333B6101337B61381C01F06DF98046284B984200D9062501AB9B89264A934205D8F37A012B0AD806
:401100000223F37207E01D4A934204D8F37A072B01D80823F3720134002CCAD00122184B5A70013201AB9A7300241CE0A3001B19DB00144AD3185F683B1C0A3301AE05932A
:401140000133069343460393FB89F3803B1C10330793201C552100F0DDFB0543301C01F063F938800134002CE0D0281C08B004BC9046F0BDE50700006802002080BB000044
:401180002C02002014290000DC050000870D0100C05D000010B5002409E0A3001B19DB00044AD3185968201CFFF7E6FE0134002CF3D010BD1429000008B5FFF7EBFF00F0C2
:4011C0009DF8002008BDC04670B5002516E0AB005B19DB000B4A9E58002406E0E000001B8000301800F078FA0134AB005B19DB00044AD3189B7DA342F0D80135002DE6D075
:4012000070BDC0461429000010B50F4B1B68702293431C1C0D4B197E0D4801F0B3F90D4B984204D820232343074A13600BE00A4B984204D830232343034A136003E04023EB
:401240002343014A136010BD8C00002068020020006CDC02001BB70000366E01034A044B1A60C1225204034B1A60704700008301C0010B40C4010B40064A136806490B43B0
:401280001360064A064B1A60C1225204054B1A607047C046A8020B400100001000008301C0010B40C4010B4070B50D1C161C04880123A3401C1C013CA00000194000642134
:4012C00001F060F901302B18A34200D9231C854201D3281A00E00020864203D39E4203D9062002E0062000E0002070BD01390843014B18607047C04600020B4010B5FFF793
:4013000063FF0024284B1C60284B1C601022284B1A60284B1C60284B1C60284B1C60284B1C60284A1460284B1C6028490868284B0340C020C00003430B6026490B6880202F
:40134000400103430B600121234B196023490B68234803430B6080235B0422490B602248224908601360224A224B1A60FFF776FF214B187EFFF75CFEFFF746FF1F4B1B68B7
:401380001F4A13431F4A1360902000F015FF0F221D4B1A601D4B1C60053A1D4B1A60C02212031C4B1A6010BDF4000B40B4020B40C0020B4020030B4084010B4088020B40C1
:4013C00080020B4084020B4080010B4000040240FFF0FFFF94020B40A0020B40A8020B4001000010A4020B404112000088010B400000030190020B40680200208C0000204D
:401400000010008000000B4000030B40F0010B4010030B4004020B4038B5041C00F0D5FE0A490B687F25AB43094A1278A418A47A23430B6007490B68AB43074C2468A2189E
:40144000127B13430B6000F0C4FE38BDC0010B40802A0000C4010B402803002008B5021C01238B40581E002A02D0111C01F08AF8024B1B78012B00D1800808BD2D02002011
:4014800008B50A4B1B789A00D318DB00084AD3185B68D97A074B1B78012B03D10648FFF725FF02E0081CFFF7DBFD08BD2F020020142900002D0200200000060208B5031C2D
:4014C000C07A19881A7BFFF7C9FF0004000C014B186008BD14030B4010B50A2000F080FB0124324B1C60302000F066FE304A314B1A600022304B1A600632304B1A60304B78
:401500001C60802252042F4B1A602F4B1C60832252002E4B1A60033AFF3A2D4B1A60013A2C4B1A60F0239B0000E0013B274A1268520701D4002BF8D1002B02D10822254B60
:401540001A6000241B4B1C601B4B1C60832252001E4B1A600A2000F04DFB0A2000F036FB164B1C60164B1C60164B1C605022164B1A604F3A184B1A600C4B1C60174A136889
:40158000802149040B4313600222114B1A60F0239B0000E0013B124A1268520701D0002BF8D1104A0B4B1A6010BDC04680010B4001010100B0020B40B4020B4088020B4025
:4015C00080020B4084020B40F0010B40F0000B40F8000B4040030B408C010B4000020B4000000B400103000008B5044A044B91680B439360FFF770FF08BDC0466802002043
:401600008000010070B5041C857E067E00F0DDFD23681B680F22B24093431A1C0423B3401343666832680721A9408A4332602268136000F0CEFD70BDF8B5174D2B78174C12
:401640009A00D318DB00E3185868154E002333702B789A00D318DB00E3189F683178CA00531A5B00FB180F4A1360FFF7D5FE2B789A00D318DB0018593178CA00531A9B004F
:40168000C018094B1860FFF7BDFF084800F07CFAFFF7AAFFF8BDC0462F020020142900002E020020280300202C0300205122000008B583001818C000054BC058CB00591A03
:4016C00089004018034B1860FFF79CFF08BDC046142900002C03002038B5041C007EA57E21680B680F22824093430B6000F06DFD61680B680722AA4093431A1C0623AB40B4
:4017000013430B6000F065FDA1680B68607E0122824093430B6038BD08B5064B1B78012B06D1054B1868FFF7D7FF0022014B1A7008BDC046300200202C03002070B5041C38
:40174000104D83001B18DB00EB185E68FFF7E4FFE4B20D490C700B789A00D318DB005A590A4B1A600A4A7F2390689843031C906009780B439360301CFFF7A0FEFFF780FE1E
:4017800070BDC046142900002F0200202C0300206802002070B583001B18DB00124AD3185D68C9B2114C21709E682178CA00531A5B00F3180E4A1360FFF7C0FF281CFFF76E
:4017C0002BFE20780B4AC300181A800013689C4660441060FFF716FF0122074B1A70074800F0D2F970BDC046142900002E020020280300202C03002030020020D921000033
:40180000074B1A687F210A40064802431A60064A13680B40802109040B4313607047C046C0010B4000008301C4010B40F0B5474680B482B0071C0E1C90462E4A13789900A4
:40184000CB18DB002C49CB185B680193402333701078C0B2294B1978C9B2FFF79BFFFFF7CFFF4025FFF7C0FE254A00E0013A254B1B7A5BB2002B01DA002AF7D1224B1B688A
:401880001C88BC4202D23378AB4333706D0833782B4333700198FFF7BFFD002DE2D1154B1B789A00D318DB00134A9858134B1978CA00531A9B00C018144B1860FFF70CFF09
:4018C0000022134B1A70FFF7D7FC0198391C221CFFF7EAFC43461A7833789A4201D242461370094B1B6832781A7302B004BC9046F0BDC0462F020020142900002E020020A6
:401900003333000068020020280300202C03002030020020F0B54F4680B484B0051C894683001B18DB00384AD3185F68012303AA137038888340181C01384843642100F030
:4019400021FE0190EAB2314B1A70314800F01CF93C1C0A3400222F4B1A7000260AE00198211C03AAFFF762FF06432A4A13780133DBB21370AB005B19DB00234AD318254AA4
:4019800012785B7E9342EAD803AB1B7801335B08BB7200221F4B1A7023E0AB005B19DB00194AD3189A681B4B1C78E3001C1B64001419194B1C60237BB87A83420AD31B1A99
:4019C000D8B220734B4658436330642100F0DAFD207301E0002323730E4A13780133DBB21370AB005B19DB00074AD318094A12785B7E9342D1D80022064B1A70301C04B004
:401A000004BC9146F0BDC046142900002F020020D92100002E02002028030020F0B50024244B1C70041C002600230BE0E588954206D9AE4204D21F4E3371012737702E1C0E
:401A40000E3401338B42F1D31A4B1C78002C2FD01D1C1A79D3009B1A5B00C618F6886E81002A0ED1CB00591A49000E394118CB882B810132D3009A1A52008018C388AB81F7
:401A800016E001398A4207D10E3BC318DA88094B1A81C2889A810BE00E3BC318DB8805490B810132D3009A1A52008218D3888B81201CF0BD34020020F0B5474680B482B048
:401AC00080460F1C019200262CE01A4B9B191C79002C07D173009B195B00164AD31800221A810AE0019B013B9C4206D173009B195B00104AD31800229A817500AB195B00E5
:401B00000C4AD3189A891989501A5B89C9185118784300F0C7FD7C4300197F30000A434658530136034B1878B042CED802B004BC9046F0BD34020020014B98667047C046D4
:401B40000000002010B5041C00F03FFB044A1168044B0B40A4051C43146000F03AFB10BD08E400E0FFFF3FFF8022D200014B1A607047C04600E100E08022D200014B1A606D
:401B80007047C04680E100E010B5041CFFF7F4FF201CFFF7D1FF0320FFF7D4FFFFF7E4FF10BDC046024A1168024B0B401360704700000740FFFFFFBF034B18688023DB05E4
:401BC000184000D001207047000007401F2318401E3B8340181C014B1860704700E100E01F2318401E3B8340181C014B1860704780E100E01F2318401E3B8340181C014B9C
:401C00001860704780E200E001BE704738B5041C0D1C0F2802D90020FFF7F6FFA400034B9C4664442068256038BDC0464000002070B5041C0E1E032E02D90020FFF7E4FF10
:401C40000F2C02D90020FFF7DFFF03252540ED00063500F0BAFAA408A400074B9C46644423680322AA409343AE40351C1D43256000F0AFFA70BDC04600E400E010B5041CCC
:401C800006E0084B586800F097FA074B9C46644480231B029C42F4D8024B9868604300F08BFA10BD900000200080FFFF30B583B000F0E6F8002848D000F087FA041C244BDE
:401CC0001B6807221A409200131C1833214A12681207920FD3401A1C1F4B19681F4B19401F4B53438020C00184466344DB0B013B5B055B0D0B43A02149031943192A02D8AC
:401D0000184A13430BE0184BD31818781A3A174B9B5CC318FF2B00D9FF239B050B430E4A1360134D2B680193302000F01FFB114A13688021C9050B4313601420FFF79EFF0E
:401D4000019B2B60201C00F044FA03B030BDC046080F0340280003400800074000F800C040420F000000D43FCDF1FF0F842A00003000104000000740F0B583B0041E182C3D
:401D80000BD01C2809D0202807D0242805D0282803D02C2801D0302849D100F016FA0190FFF70AFF002803D0FFF7FCFE012600E00026214A136807218B4313601F4BE318D5
:401DC0001B78DBB21E4A13601E4A13688B4313601D4803687F229343191C1C4BE3181B7813400B430360322000F0E6F9182C16D9114F3B680725AB431A1C231C1C3B9B086F
:401E00002B4013433B60322000F0D6F93A68AA43231C183B9B082C1C1C4014433C60012E01D1FFF743FF019800F0D3F902E00020FFF7EAFE03B0F0BD080F0340CDF1FF0FE6
:401E40000C0F0340100F0340180F0340B4F1FF0F08B5034B1B7B584300F0AEF908BDC0469000002008B500F0B0F9044A136804218B43136030BF00F0ACF908BD10ED00E08C
:401E8000034B1B68002B01DA012000E00020704700000740014A024B1A6070476588EDAC3800034004490A68BF231A4080017F3B18401043086070470002044008B5082037
:401EC000FFF784FE08BDC04608B500F06BF808BD08B500F089F808BD08B5054A1368802109060B431360FFF7E9FFFFF7EDFF08BD0000094008B5064B1B78002B04D1FFF77A
:401F0000E7FF0122024B1A70FFF7E6FF08BDC0464402002010B5154B1A68154B1B689A4208D1144B1B681F221340082B02D0124B18601AE00D4B1A680132182A00D10022EA
:401F40000B4B1B689A42FBD002230C490B6080B254000B49605205490A600A4A1268134203D1084A11680B43136010BD6C030020300300200802094040020940800F0940D0
:401F800078030020880F094070B5061C0D1C002404E06300985BFFF7BDFF0134AC42F8D370BDC046054A1368F02109050B431360034B1A88034B1A607047C04600000240A4
:401FC0004C020020880F094005490A68054B13408006C02212051040184308607047C04620000940FFFFFFF310B51D4A1D4B1A601D4A1E4B1A601E4B1E4A136007211E4A5C
:4020000011601E4A136000241D4B1C600820FFF7E7FD08200321FFF70BFE08201949FFF7F5FD194B1C60194B1C60194B1C60194B1C600422184B1A60184B1C601A68184B46
:402040001A800020FFF7C0FF164B1C60164B1C60164B1C70164B1C60164B1C6010BDC046070000010000094001000080200009400B0100800003094004030940000209400F
:4020800004020940B9200000880E0940C80E0940480F0940080F0940C80F0940880F09404C0200207403002070030020340300206C0300203003002008B5284B1B68002B4B
:4020C00000D09847264B1B685B071ED5254B1B680133192B00D10023234A1268934205D1224B1B682022224B1A7007E01F4A126892B258001F4942521A4A13601E4B1B68A9
:40210000DB06E3D104221D4B1A601D4B1B689B0722D51C4B1A681C4B1B689A4214D01A4B1B680133182B00D100235900174A8A5A92B217490A60144A1360164B1B681F22F6
:402140001340082BE5D104E0134A136802218B4313600222114B1A6008BDC04648020020CC0F0940740300207003002040030940340300203803002008030940C00F0940DC
:402180008C0F09406C03002030030020780300204002094008020940880F0940800F0940044A11687F230B40C001C0B2184310607047C046000204400230800803D00130B5
:4021C0000238FCD1C046C0467047EFF3108072B6704780F31088704783225200144B1A60144B1B789A00D318DB00134AD3185B68124A12681204120C198801238B40013BFF
:402200009A4206D20E4B19680E4B1B785B00CA5205E00B4A11680B4A127852008B520A4BDA880132DA80094A99680A409A607047F0000B402F02002014290000D0000B4075
:4022400028030020802A0000680200207FFFFEFF70B53C4B1A783C4C91008A18D20010593A4A1578E9004A1B9200801883214900374A11601A7893009B18DB00E3185B6857
:40228000344A12681204120C198801238B40013B9A4206D2304B1968304B1B785B00CA5205E02D4A11682D4A127852008B52FFF713FA244B1A78244990008218D2008A18DD
:4022C00050681A7893009B18DB00CB189B7D1F4A1278013B93421DD91C4C23780133DBB22370184D2B789A00D318DB00CB189E682178CA00531A5B00F318174A1360FFF7D6
:402300008BF82878C0B22178C9B2FFF7D1F9FFF7E3F815E000220D4B1A70114A114B91680B409360104A1278012A02D1FEF77EFE06E00B4A80218B439360D3880133D380AA
:4023400070BDC0462F020020142900002E020020F0000B40D0000B4028030020802A000068020020FFFFFEFF2C02002038B5041CFFF72BFF051C102C05D8104A13680321CE
:402380008B43136016E0202C07D80C490B6803229343023A13430B600CE0302C07D807490B6803229343013A13430B6002E00020FFF72AFC281CFFF70CFF38BD3000104042
:4023C00070B5041CFA26036980881D78E37BB60058431349704300F0D5F875436188684300F0D0F8051C2088311C684300F0CAF8A3890C49584300F0C5F801306369102285
:40240000082809D80822042806D80422022803D801D1187001E001221A70281C70BDC046F049020000E1F50538B5041C63698089197800F0A7F8051C60880304181A2369E7
:402440001978A388594300F09DF8A37B1149DD40684300F097F8E3880A21584300F092F800230D4AA16810258A425B410222D31A62325343984203D9013DEDB24008F9E7FF
:402480004B236421584300F07DF8A4692080281C38BDC046A0860100A761000010B50024A34200D00C880088131C800080B2824200D2031C9AB2A24200D2231C9AB20B80A6
:4024C0005308FF2B01D9FF2300E0DBB28B70CB70D308FF2B00D9FF230B7110BD8B0813800F2393720023C90851809080D0801081D3727047937A30B594885B00041B9080C8
:40250000DBB2002C01DB937202E00133937264420F23957A1D40538895729C4203D2012B03D9013B00E0013353800F2D05D0002D03D053889D00AC4204D90023D08010818A
:40254000D3721DE0D488844201D9D08003E01489844200D21081D07A092802D80130D0720EE01089D488001B80B2834204D989088B4203D9013B00E00133538053881380BF
:4025800030BD0000002243088B4274D303098B425FD3030A8B4244D3030B8B4228D3030C8B420DD3FF22090212BA030C8B4202D31212090265D0030B8B4219D300E0090A58
:4025C000C30B8B4201D3CB03C01A5241830B8B4201D38B03C01A5241430B8B4201D34B03C01A5241030B8B4201D30B03C01A5241C30A8B4201D3CB02C01A5241830A8B4231
:4026000001D38B02C01A5241430A8B4201D34B02C01A5241030A8B4201D30B02C01A5241CDD2C3098B4201D3CB01C01A524183098B4201D38B01C01A524143098B4201D3A4
:402640004B01C01A524103098B4201D30B01C01A5241C3088B4201D3CB00C01A524183088B4201D38B00C01A524143088B4201D34B00C01A5241411A00D2014652411046B2
:402680007047FFE701B5002000F0FCF802BDC0460029F7D003B5FFF775FF0EBC4243891A1847C04603460B437FD4002243088B4274D303098B425FD3030A8B4244D3030B20
:4026C0008B4228D3030C8B420DD3FF22090212BA030C8B4202D31212090265D0030B8B4219D300E0090AC30B8B4201D3CB03C01A5241830B8B4201D38B03C01A5241430B6D
:402700008B4201D34B03C01A5241030B8B4201D30B03C01A5241C30A8B4201D3CB02C01A5241830A8B4201D38B02C01A5241430A8B4201D34B02C01A5241030A8B4201D3ED
:402740000B02C01A5241CDD2C3098B4201D3CB01C01A524183098B4201D38B01C01A524143098B4201D34B01C01A524103098B4201D30B01C01A5241C3088B4201D3CB0071
:40278000C01A524183088B4201D38B00C01A524143088B4201D34B00C01A5241411A00D201465241104670475DE0CA0F00D04942031000D34042534000229C4603098B4287
:4027C0002DD3030A8B4212D3FC22890112BA030A8B420CD3890192118B4208D3890192118B4204D389013AD0921100E08909C3098B4201D3CB01C01A524183098B4201D3CB
:402800008B01C01A524143098B4201D34B01C01A524103098B4201D30B01C01A5241C3088B4201D3CB00C01A524183088B4201D38B00C01A5241D9D243088B4201D34B0029
:40284000C01A5241411A00D20146634652415B10104601D34042002B00D54942704763465B1000D3404201B5002000F00BF802BD0029F8D003B5FFF715FF0EBC4243891A4C
:402880001847C0467047C046014B18687047C046040100200E4B70B500251E1C0D4CE41AA410A54204D0AB00F35898470135F8E700F0F6F8084B00251E1C084CE41AA41025
:4028C000A54204D0AB00F35898470135F8E770BDAC2A0000AC2A0000AC2A0000B42A0000002310B5934203D0CC5CC4540133F9E710BD031C8218934202D019700133FAE7F7
:402900007047000000000000202020202020202020200000502900008202002096020020980100202402002001000A00020A64001C0B0000AC010020940100200C00640038
:4029400028280A031E6420040000A0000000FFFF0004024008040440000404400404044000F00000080000000C030900000002400800044000000440040004400F00000053
:40298000010000000000000000000240080004400000044004000440F000000002000000040103000000024008000440000004400400044000000F001000000010040C00A9
:4029C000000002400800044000000440040004400000F0002000000014050F0000010240080104400001044004010440000F000004000000080206000001024008010440B4
:402A0000000104400401044000F00000080000000C03090000010240080104400001044004010440000000F0800000001C0715000002024008020440000204400402044010
:402A40000F000000010000000000000000020240080204400002044004020440F00000000200000004010300C20C0000940C00009C0C0000A60C0000B60C0000C00C0000D4
:402A800000000000EEDBC9B9AA9B8E82766B60564D443B332C241D17100A040043000000F8B5C046F8BC08BC9E4670477D0100005D030000F8B5C046F8BC08BC9E46704791
:402AC00055010000D82A00008800002080000000A0020000000000000000000002000004010000000000C05D80BB000030000000006CDC02000000000000000000000000DB
:402B000000000000000000000000000000000000000000009C2A000000000000000000000000000000000000000000000000000000000000000000000000000000000000CF
:402B40000000000000000000000000000000000000000000A40000200000000000000000000000000000000000000000000000000000000000000000000000000000000091
:402B80000000000000000000000000000000000000000000000000000000000000000000000000000000000000000000000000000000000000000000000000000000000015
:402BC00000000000000000000000000000000000000000000000000000000000000000000000000000000000000000000000000000000000000000000000000000000000D5
:402C00000000000000000000000000000000000000000000000000000000000000000000000000000000000000000000000000000000000000000000000000000000000094
:402C40000000000000000000000000000000000000000000000000000000000000000000000000000000000000000000000000000000000000000000000000000000000054
:0200000490303A
:0200000041AF0E
:0200000490402A
:200000000000000000000000000000000000000000000000000000000000000000000000E0
:0200000490501A
:0C0000000002190711A90001191453583F
:0200000490600A
:0100000001FE
:00000001FF