:400000000010002011000000090300000903000080B500AF00F082F980B500AF124B124A12688021C9020A431A60182000F002FC0D4B0D4A12680D490A401A600C4B0D4AB7
:400040001A600D4B10221A600C4B802212061A60054B00221A600A4B0A4A1A600A4B00221A60BD4680BDC04600010B40FFFFFBFF04010B40060000800C02024008010B4073
:40008000000002400E0000800C020B4080B582B000AF72B6FB1D00221A7023E0FB1D1A78131C5B009B185B00334A9B183B603B681A78597809020A43997809040A43DB78E9
:4000C0001B061343191C3B681A795B791B0213439BB2081C191C00F09FF9FB1D1A78FB1D01321A70FB1D1B78012BD7D9234B244A1A60244B992212041A60234B9922120454
:400100001A60224B992212041A60214A204B1B78DBB202210B43DBB213701E4A1D4B1B78DBB23C218B43DBB214210B43DBB21370174A174B1B78DBB216210B43DBB2137063
:40014000154B0C221A60154BD82212011A60144B40221A60134BC02252031A60124B03221A60124B124A1A60FFF756FF00F064F9BD4602B080BDC0465C1100000C000140CD
:40018000EEEE000000500F4010500F4030500F4000700F4001700F40000004400800044000010440080104400003044008030440A46D000010B5064C2378002B07D1054BF9
:4001C000002B02D0044800E000BF0123237010BD48010020000000005811000008B5084B002B03D00748084900E000BF07480368002B00D108BD064B002BFBD09847F9E7F3
:4002000000000000581100004C010020C80000200000000090B583B000AFFB1DFF221A70012000F00DF9012000F030F9012000F053F91F4B181C032100F098FA1D4B181C88
:40024000032100F0B9FA00F085F962B600F044FA021C102313401FD000F0CEFA031E032B0FD1144B1B78012B0BD1124B9B78172B07D1104B5B78FC1D181C00F01DF8031C66
:40028000237000F0CDFA00F051FA094BFA1D12785A70FB1DFF221A7000F01EFA021C0123134003D000F0B2FA00F020FACEE7C046CC0000206C01002080B584B000AF7860FD
:4002C0000F23FB1800221A707B68DBB201221340DBB2181C00F0B4F87B68022213405B08DBB2181C00F0D2F87B68042213409B08DBB2181C00F0F0F80F23FB181B78181CEE
:40030000BD4604B080BDC04680B500AF00F0F0FE031C1B680C2B00D1FEE7FEE780B586B000AF224B7B61224B3B61204B7B6135E03B691B68FB603B695B68BB603B699B681A
:400340003B6000237B600CE0FB681A68BB681A60BB680433BB60FB680433FB607B6804337B607A683B689A42EED13B69DB683B6000237B6008E0BB6800221A60BB68043376
:40038000BB607B6804337B607A683B689A42F2D13B6910333B617B69013B7B617B69002BC6D100F0ABFEFFF735FFFEE701000000C011000080B582B000AF00237B600FE067
:4003C0007B68032B04D8104B7A689200D35800E00E4B0F4A796889008B507B6801337B607B682F2BECD9FFF751FE0A4B00221A608023DB058022D205126801210A431A60B6
:40040000BD4602B080BDC046000000000903000000000020C000002080B582B000AF786039607A683B68101C00211A1C00F08CFEBD4602B080BDC04680B500AFBD4680BD93
:4004400080B584B000AF021CFB1D1A700E4B1B68DAB20F23FB1840218A431A70FB1D1B789B01DBB240221340D9B20F23FB180F22BA1812780A431A70034B0F22BA181278A7
:400480001A60BD4604B080BD0001044080B584B000AF021CFB1D1A700E4B1B68DAB20F23FB1804218A431A70FB1D1B789B00DBB204221340D9B20F23FB180F22BA181278DF
:4004C0000A431A70034B0F22BA1812781A60BD4604B080BD0000044080B584B000AF021CFB1D1A700E4B1B68DAB20F23FB1808218A431A70FB1D1B78DB00DBB20822134003
:40050000D9B20F23FB180F22BA1812780A431A70034B0F22BA1812781A60BD4604B080BD0000044080B500AF00F05AF8BD4680BD80B500AF064B064A1268802109060A4398
:400540001A6000F019F800F01FF8BD4680BDC0460000074080B500AF064B1B78002B04D1FFF7E0FF034B01221A70FFF7E1FFBD4680BDC0466401002080B500AF0B2000F034
:40058000C9FABD4680BDC04680B500AFBD4680BD80B500AF0E4B1A6880235B00134012D00C4B1A688023DB0113400CD1084B084A126809490A401A60054B054A12688021A5
:4005C00049000A431A60054B02221A60BD4680BD0000074060000740FFFEFFFF6C00074080B500AF254B254A12680C210A431A60234B00221A60234B234A1A60234B244AB5
:400600001A60244B00221A60234B244A1A60244B1F4A1A60234B00221A600B2000F08EFA0B20032100F022FA1F4B0B20191C00F0F7F91E4B00221A601D4B00221A601D4B6A
:400640004C22FF321A601C4B00221A601B4B00221A601B4B00221A601A4B10221A701A4B00221A70194B00221A60194B00221A60184B00221A70BD4680BDC046700007401C
:40068000000007406000074077080040000307400701008004030740100307401000FE000002074004020740C90B0000C80E0740880E0740480F0740080F0740C80F074087
:4006C000880F07406F0100208401002070010020740100209001002080B500AF024B1B78DBB2181CBD4680BD8401002080B582B000AF0B2000F022FA0B4B1B78DBB21A1CAD
:400700000F2313407B60084B1B78DBB20D229343DAB2054B1A700B2000F0FCF97B68181CBD4602B080BDC0468401002080B582B000AF0B2000F002FA0B4B1B78DBB21A1CDE
:40074000F02313407B60084B1B78DBB22F221340DAB2054B1A700B2000F0DCF97B68181CBD4602B080BDC0468401002080B582B000AF786039607B68002B11D00B2000F086
:40078000DDF9094B7A681A60084B3A681A60084B00221A60074B00221A600B2000F0BAF9BD4602B080BDC046800100207C010020700100208801002080B582B000AF78603B
:4007C00039607B68002B0ED00B2000F0B7F9074B7A681A60064B3A681A60064B00221A600B2000F097F9BD4602B080BD8C010020780100207401002080B500AF024B1B6875
:40080000181CBD4680BDC0467401002080B500AF024B00221A60BD4680BDC0467001002080B500AF024B00221A60BD4680BDC0467401002090B585B000AF78600C23FC1819
:4008400000F0B8F9031C23707B68022B00D8B4E07B68302B00D9B0E05E4B1B78DBB21A1E7B689A420AD35C4A0F23FB1812781A705A4A0E23FB1812781A703FE0584B1B7815
:40088000DBB21A1E7B689A420AD3564A0F23FB1812781A70544A0E23FB1812781A702DE0524B1B78DBB21A1E7B689A420AD3504A0F23FB1812781A704E4A0E23FB181278F1
:4008C0001A701BE04C4B1B78DBB21A1E7B689A420AD34A4A0F23FB1812781A70484A0E23FB1812781A7009E0464A0F23FB1812781A70454A0E23FB1812781A707B68DA1E7D
:400900000B23FB1841498A5C1A700B23FB181B782F2B0DD97B682A2B0AD93D4B19221A60052000F03DF90D23FB1819221A7007E0374B1B68DAB20D23FB183F210A401A70CE
:400940000B23FA180D23FB1812781B789A4208D22F4B7A68033A2D498A5C1A60052000F01FF97B68284A9A180A23FB1812781A70284B0A22BA1812781A60274B0F22BA1840
:4009800012781A60254B0E22BA1812781A60052000F0F2F80B23FA180D23FB1812781B789A4209D91A4B7A68033A18498A5C1A60052000F0F5F803E002E0002000F0D2F87A
:4009C0000C23FB181B78181C00F0F8F8BD4605B090BDC046C0F1FF0FC1F1FF0FC2F1FF0FC3F1FF0FC4F1FF0FC5F1FF0FC6F1FF0FC7F1FF0FC8F1FF0FC9F1FF0FCAF1FF0F97
:400A0000CBF1FF0FCCF1FF0FCDF1FF0F681100002CFF0B4028FF0B401CFF0B4020FF0B4080B584B000AF021C3960FB1D1A7080239B05FB60FB1D1B781F2B02D9002000F035
:400A400091F8FB1D1B7810339B00FA68D3181B68BB60FB1D1B7810339B00FA68D3183A681A60BB68181CBD4604B080BD90B587B000AF021CFB1D1A70BB1D0A1C1A70BB1DF1
:400A80001B78032B02D9002000F06CF8FB1D1B781F2B02D9002000F065F8FB1D1B7803221340DB0006337B611323FC1800F082F8031C2370FB1D1B789B08DBB29B00144A9C
:400AC000944663441B68FB607B6903229A40131CDA43FB681340FB60BB1D1A787B699A40131CFA681343FB60FB1D1B789B08DBB29B00074A94466344FA681A601323FB1880
:400B00001B78181C00F05AF8BD4607B090BDC04600E400E080B582B000AF021CFB1D1A70054BFA1D12781F210A40012191400A1C1A60BD4602B080BD00E100E080B582B0DD
:400B400000AF021CFB1D1A70054BFA1D12781F210A40012191400A1C1A60BD4602B080BD80E100E080B582B000AF021CFB1D1A7001BEBD4602B080BD80B582B000AF021C0A
:400B8000BB1D1A80BB1D1B88044A12785343181C00F006F8BD4602B080BDC046D80000200230800804D0C0460138FDD1C046C046C0467047EFF3108072B6704780F3108808
:400BC0007047C046C046C04680B582B000AF00233B60DA4B1B68002B02D0D84B1B689847D74B1B680122134002D0D64B00221A60D54B1B78DBB220221340DBB2002B32D1F4
:400C0000D24B1A680223FF3313402CD0CE4B1B78DBB201221340DBB2002B10D0CC4B1B78DBB202229343DAB2C94B1A70C84B1B78DBB209221343DAB2C54B1A7010E0C44BF4
:400C40001B78DBB220229343DAB2C14B1A70C04B1B78DBB2702252421343DAB2BC4B1A70B94B00221A70B84B1B78DBB220221340DBB2002B00D00AE2B34B1B78DBB210222A
:400C80001340DBB2002B00D1D3E1B04B1B680222134056D0AF4B02221A60AF4B1B680F221A40AD4B196880231B020B4001D0012300E00023D3187B60A84B1B78DBB21A1E5C
:400CC0007B689A4208D9A24B1B78DBB204221343DAB29F4B1A700AE0A04B1B78DBB21A1C7B689A1A9E4B1B689A1A9D4B1A609C4B1A689C4B1A609C4B00221A60974B002236
:400D00001A709A4B994A1268802149020A431A60964B964A126896490A401A608C4B1B78DBB202229343DAB2894B1A70884B1B78DBB201221343DAB2854B1A70824B10222A
:400D40001A70824B1B680822134048D0814B08221A60884B1A6880239B01134019D00DE0854B1A68854B1B68D218854B1B68DBB21370824B1B685A1C804B1A60814B1B688B
:400D80000F221340ECD17B4B7A4A12687E490A401A607E4B1B682022134007D06C4B1B78DBB240221343DAB2694B1A70784B00221A60764B774A1A60654B1B78DBB22022E5
:400DC0009343DAB2624B1A70614B1B78DBB210221343DAB25E4B1A705B4B10221A705B4B1B68402213404DD06B4B01221A606B4B1B681022134012D05B4B10221A60594B01
:400E00001A68574B1A60524B1B78DBB202221343DAB24F4B1A704C4B12221A702CE0604B1A68564B1B68D31A7B607B68072B03D8574B04221A6014E07B68082B07D14D4B07
:400E40004C4A1268A02109020A431A6009E0494B484A1268802189010A431A604C4B08221A603B4B1B78DBB220221343DAB2384B1A70354B11221A70364B4A4A1A604A4BE1
:400E800001221A60494B1B680822134036D0444B1A683A4B1B68D31A083B7B607B68082B04D908237B6000233B6001E001233B6010E0314B1A68314B1B68D218304B1B68AB
:400EC000DBB213702D4B1B685A1C2C4B1A607B68013B7B607B68002BEBD13B68002B09D0244B244A1268802109020A431A60284B00221A60254B08221A6066E02B4B1B68E9
:400F00000422134061D01E4B1B687B601B4B1A68234B1B689A424BD2234B01221A60164B1A68164B1B68D3187A68D2B21A70134B1B685A1C114B1A6044E0C04668010020E1
:400F40008C0E0740880E07406F0100204C0F074084010020400F074008020740900100208801002070010020880F074004020740FFFFFEFF600007408C01002074010020FB
:400F80004003074008030740FF5FFFFFC00F0740C80F0740ED0F0000800E07406400074078010020FF0F00006C000740CC0F0740FFF7EEFA374B1B78DBB240221343DAB209
:400FC000344B1A70344B04221A60344B1B68102213405CD023E0324B1A68324B1B689A420ED2314A314B19682D4B1B68CB181B78DBB213602A4B1B685A1C294B1A600EE025
:40100000294BFF221A602A4B1B78DBB20A2B06D8274B1B78DBB20133DAB2254B1A70254B1B680F221340082BD5D1234B10221A602DE0224B214A1268520052081A60204B53
:4010400010221A701F4B1F4A12681F490A401A601C4B1C4A12681D490A401A601C4B00221A601C4B00221A60134B1B4A1A600A4B1A4A1A601A4B1B4A1A601B4B1B4A1A60CB
:401080000E4B0E4A1268802109060A431A60BD4602B080BD84010020C00F07408C0F0740880100207C01002040020740800100209001002008020740800F07400000074070
:4010C0006F01002060000740FF5FFFFFFFFCFFFFC80F0740880F0740ED0F0000F3070000400F0740FF0F0000000F074017030000014B18687047C046440100200E4B70B5F2
:4011000000251E1C0D4CE41AA410A54204D0AB00F35898470135F8E700F040F8084B00251E1C084CE41AA410A54204D0AB00F35898470135F8E770BDA8110000A81100007C
:40114000A8110000B0110000031C8218934202D019700133FAE770470000000000300F40000400400F400004030405060708090A0B0C0E0F101112131415161718191B1CBE
:401180001D1E1F2021222325262728292A2B2E2F303132333435000043000000F8B5C046F8BC08BC9E467047DD010000B5030000F8B5C046F8BC08BC9E467047B501000090
:4011C000D0110000C800002080000000500000000000000001FF170000366E01C05D0000180000000000E02E01000000000000000000000000000000000000000000000056
:401200000000000000000000000000009811000000000000000000000000000000000000000000000000000000000000000000000000000000000000000000000000000005
:40124000000000000000000000000000E40000200000000000000000000000000000000000000000000000000000000000000000000000000000000000000000000000006A
:40128000000000000000000000000000000000000000000000000000000000000000000000000000000000000000000000000000000000000000000000000000000000002E
:4012C00000000000000000000000000000000000000000000000000000000000000000000000000000000000000000000000000000000000000000000000000000000000EE
:4013000000000000000000000000000000000000000000000000000000000000000000000000000000000000000000000000000000000000000000000000000000000000AD
:40134000000000000000000000000000000000000000000000000000000000000000000000000000000000000000000000000000000000000000000000000000000000006D
:0200000490303A
:02000000D7DF48
:0200000490402A
:200000000000000000000000000000000000000000000000000000000000000000000000E0
:0200000490501A
:0C000000000204C81193110104CDE97244
:0200000490600A
:0100000001FE
:00000001FF