:400000000010002011000000A5010000A501000008B500F01BFA00F0CDF8C04638B5134C23688022D20213432360182000F082FE22680F4B134023600E4A0F4B1A601022D0
:400040000E4B1A60802212060D4B1A60002525600C4A0D4B1A6009200C4900F005FE092000F0E2FD0A4B1D6038BDC04600010B40FFFFFBFF0600008004010B4008020240B3
:4000800008010B400200008000000240450F00000C020B4010B572B6002410E01D4863001A195200821891881B195B001A5AC31858880004104300F0CDF80134E4B2012CB8
:4000C000ECD9EE221202144B1A60EE22134B1A6099221204124B1A60124B197802220A431A70114802783C218A4328390A430270197816220A431A70D82212010B4B1A602B
:4001000003220B4B1A6021320A4B1A60FFF786FF10BDC046F41700000C0001401000014030500F4000700F4001700F4008030440000404400804044010B5064C2378002B9F
:4001400007D1054B002B02D0044800E000BF0123237010BD5801002000000000F017000008B5084B002B03D00748084900E000BF07480368002B00D108BD064B002BFBD05C
:400180009847F9E700000000F01700005C010020D00000200000000008B562B600F00CFCFEE7C04608B501F0E1FA03680C2B00D1FEE7FEE770B50F4E0F4D13E029686B6859
:4001C000AC68002202E001C901C30432A242FAD1E868002202E0002102C304328242FAD11035013E002EE9D101F0C6FAFFF7D4FFFEE7C04601000000E818000008B50023C3
:400200000AE0032B03D89A000D49505800E00D4899000D4A885001332F2BF2D9FFF73AFF00220A4B1A600A4B1B68002B01D1084B1A608022D205116801230B43136008BD7F
:4002400000000000A501000000000020C8000020C000002008B50A1C002101F0BCFA08BD002306E04218013A12789B189BB2013989B20029F6D1584280B2704730B5002368
:4002800007E01C182478E4B2CD5CAC4205D101339BB29342F5D3002000E0022030BDC0460047C04608B58022024B1A6000F014FD08BDC046C0000020F0B583B00D1C6B4600
:4002C0009E1DDA8001230B704870141CAA70130ACB70171DB9B2281CFFF7C2FFE855631D000AE854A31D1722EA540734A1B2281C321C962300F0F4FE03B0F0BD70B5051CBB
:400300000E1C141C002802D0002000F0ABFC002004E0013CAB191B5D1818C0B2002CF8D170BDC04608B50C2857D880003A4B1B589F46C9014942394B9C466144012351E039
:40034000C9014942364B9C46614404234AE0C9014942344B9C466144022343E0C9014942314B9C46614404233CE0C90149422F4B9C466144012335E0C90149422C4B9C4654
:40038000614401232EE0C90149422A4B9C466144022327E0C9014942274B9C466144022320E0C9014942254B9C466144022319E0C9014942224B9C466144042312E0C901E0
:4003C0004942204B9C46614401230BE0C90149421D4B9C466144042304E0002000F042FC02230021012B02D10878C0B200E00020022B03D10A78487800021043042B0AD1FB
:400400000A784B781B021A4388780004031C1343C8780006184308BD00180000C07F0000C17F0000C57F0000C97F0000D07F0000D17F0000D67F0000D27F0000D47F000063
:40044000D87F0000DC7F0000E07F000008B50D4B1B68DB0602D400220B4B1A600A4B1B68802B0ED10022084B1A6002200021FFF759FF002805D002200021FFF753FFFFF7CA
:400480000FFF08BD00030B40C000002070B5051C0320291CFFF746FF441CE4010420291CFFF740FF24180320291CFFF73BFF0130C0010023002608E001784A1ED2B2FD2AEC
:4004C00000D801265B18DBB20130A042F4D35B42DCB20120291CFFF725FF844203D1002E03D1062002E0062000E0002070BDC046F0B55F4656464D464446F0B4B44CA544EB
:40050000051C00F09BFD62B600239B4698460A240027002D01D1FF2300E02B1C52A896214900AC4A02AEB446624400F0A3FD002D01D0013CE4B2002C01D00028E9D10028D3
:4005400000D025E2A34B02AA944663441B88062B24D952AA1278012A22D152A9CA78120289780A43171C111C07329A421AD896235B009A4218D87A1D52AB9E5C3202381D17
:400580001E5C164306315B5C172B0FD181B252A8FFF766FEB0420BD100260AE0042608E0042606E0032604E0032602E0042600E00826002E00D08BE152AB1A7991465A78DE
:4005C000131C313BD9B2142900D956E18B008249CB589F464346012B00D07BE1012F00D07BE14B46002B00D07AE14846FFF74EFF002800D077E14B46D9014942774B9C464B
:40060000614453A8382201F0DDF85622B9E14346012B00D06AE1002F00D06AE10020FFF735FF4342434152AA13710122A9E14346012B00D060E1032F02D0832F00D05EE1C3
:4006400052AA93791B02527913439A46032F08D0FA1E07A84821FF3102AB9C46614401F0B1F84B46002B00D04CE118025044C0015346FF2B00D90A26002E00D045E107A954
:400680008022FFF7FBFD061C00227AE14346012B00D03CE1012F00D03CE14B46002B00D03BE14F4B1B681B68DA0BD2B2914502D15B041B0E05E0914501D9002301E080232E
:4006C0005B0052AA13711B0A5371FF2393710023D371042255E1342A0DD14346012B00D01EE1032F00D01EE107A800214C3201F072F880239B464346012B00D016E1022FB2
:4007000000D816E107A85844FA1E4821FF3102AB9C46614401F056F83B1C5B449BB2832B00D009E152AA93791B02527913439B46FF2B00D90A26002E00D003E14B461802E9
:40074000584480B2264B1B681A68D3099BB2520601D001339BB2984200D2F6E007A900F077F9002800D00A2600239B468027002207E14346012B00D108E10426002200E157
:400780004346012B00D0E6E05B46DB1996225200934200D9E2E007A8584453A93A1C01F011F85B46DB199BB29B460022E9E0002F00D0D6E004AA0B4B03CB03C253AA04ABA2
:4007C00003CB03C200239B46013398460822D8E084FDFFFF6E02000034180000C07F0000D4000020881800004346012B00D0BBE0032F00D0BBE052AA93791B02527913435D
:400800009A464B4619025144C9015346FF2B00D90A26002E00D0ADE000208022FFF76EFD01904B461B0253449BB24A46002A10D1FF2B0ED105200021FFF774FD019B1B1A0E
:40084000DBB2994606200021FFF76CFD4B461B1AD8B2424252AB1A71012292E00020FFF715FE002802D18022514B1A6000F0FEFB00F032FA0426002283E04E4B1B68002B9E
:400880007AD0414601297AD102A90A704F8053AA039200210491059104AE069202A8311C9847B2882623FF339A4203D953AB0699994207D0069B002B01D1002A05D1049B07
:4008C000DEB25EE00E2600225BE00E26002258E0002256E00426002253E00426002250E00C2600224DE00C2600224AE00426002247E00426002244E00426002241E004263F
:4009000000223EE0092600223BE0002239E00426002236E00426002233E00426002230E0042600222DE0042600222AE00426002227E00426002224E000239B46802703268D
:4009400000221EE0802700221BE000239B4680270A26002215E00426002212E0032600220FE0042600220CE00426002209E00426002206E0002204E00526002201E005262B
:400980000022301C52A9FFF797FC01E000239B46002D00D1BDE54346012B00D1B9E59F239B009D443CBC90469946A246AB46F0BDC00000207401002038B50020FFF766FD50
:4009C000002801D0062400E00024154D2B681A68C03A0020C021FFF791FC6B681B78C01AC0B24042C0B2834204D10D4B1B681B68002B02D1002000F035F90A4B1B68402BBE
:400A000001D0002C05D00022064B1A600020FFF76FFD6420FFF76CFDFFF744FC38BDC046D4000020C0000020024B1A68024B1A600020704708010B4078010020024B1A6864
:400A4000024B1A60002070477801002008010B40F0B5A7B0002325932493FF2800D9CDE0002900D1CAE0051C04A8802200F0AAFE022300200021002408E09A0002AE92595E
:400A8000002A02D0891810431C1C0133212BF4D9002903D1002803D1002602E0002600E00126002E06D0A30002AA9F58002202A95A5000E00027544B02937F230393534BC1
:400AC00002AA1A605249534A1160C0461B681B0F0F2B04D14D4B1B68FF22134008E04B4B1B681B0F0A2B02D0484B1B6800E000232593259B002B00D082E000F04BFB0190EF
:400B0000FFF792FF2490259B002B1FD1424B0293029A2B04134302933C4B02AA1A603F493C4A1160C0461B681B0F0F2B04D1374B1B68FF22134008E0344B1B681B0F0A2B17
:400B400002D0324B1B6800E000232593259B002B4AD1002E48D004A80021802200F03BFEA40002ABE750284B02937F230393274B02AA1A602649274A1160C0461B681B0FA0
:400B80000F2B04D1214B1B68FF22134008E01F4B1B681B0F0A2B02D01C4B1B6800E000232593259B002B1FD11D4B0293029B2D041D430295154B02AA1A601A49154A1160C2
:400BC000C0461B681B0F0F2B04D1104B1B68FF22134008E00D4B1B681B0F0A2B02D00B4B1B6800E000232593249B002B02D1FFF725FF2490019800F0D1FA01E004232593BA
:400C0000259827B0F0BDC046B6D70000080000400400008004000040B6D8000005000080B6D90000060000801F2318401E3B8340181C014B1860704700E100E01F231840E8
:400C40001E3B8340181C014B1860704780E100E01F2318401E3B8340181C014B1860704780E200E001BE704738B5041C0D1C1F2802D90020FFF7F6FFA400034B9C4664446C
:400C80002068256038BDC0464000002070B5041C0E1E032E02D90020FFF7E4FF1F2C02D90020FFF7DFFF03252540ED00063500F071FAA408A400074B9C4664442368032250
:400CC000AA409343AE40351C1D43256000F066FA70BDC04600E400E0034A13681B041B0C02490B43136070470CED00E00400FA0510B5041C06E0084B586800F041FA074BC1
:400D00009C46644480231B029C42F4D8024B9868604300F035FA10BDDC0000200080FFFF08B5034B1B7B584300F02AFA08BDC046DC000020F0B557464E46C0B483B0041CB5
:400D400000F028FA0190E71E2D2F74D83F4B1B78DBB2A34208D33E4B1B78DBB29A463D4B1B78DBB2994631E03B4B1B78DBB2A34208D33A4B1B78DBB29A46394B1B78DBB209
:400D8000994623E0374B1B78DBB2A34208D3364B1B78DBB29A46354B1B78DBB2994615E0334B1B78DBB2A34208D3324B1B78DBB29A46314B1B78DBB2994607E02F4B1B78B0
:400DC000DBB29A462E4B1B78DBB299462D4BDE5D2F2E09D92A2C07D919222B4B1A60052000F0CEF9192503E0274B1D683F231D40AE4206D2234BDA5D234B1A60052000F09E
:400E0000BFF91F4B9C4664442378DBB21F4A13601F4B52461A601F4B4A461A600520FFF77FFFAE420AD9174BDA5D174B1A60052000F0A6F902E00020FFF714FF019800F0E9
:400E4000ADF903B00CBC91469A46F0BDC0F1FF0FC1F1FF0FC2F1FF0FC3F1FF0FC4F1FF0FC5F1FF0FC6F1FF0FC7F1FF0FC8F1FF0FC9F1FF0FCAF1FF0FCBF1FF0FCCF1FF0FEC
:400E8000CDF1FF0F901800002CFF0B4028FF0B401CFF0B4020FF0B40034B1868C0231B02184000D00120704700010B4008B500F071F9044A1368C02109020B43136000F06F
:400EC0006DF908BD00010B4010B500F063F908490A68084B1A408024E40122430A600A6813408022120213430B6000F057F910BD00010B40FF3FFFFF70B5061C00F04AF957
:400F0000041CFFF7C9FF002803D0FFF7DDFF012500E000250848331C0340084A106808490840184310601368012D01D1FFF7BEFF201C00F033F970BD0404040010020B40AF
:400F4000FBFBFBFF10B5244B1B685B0715D5234B1B685B070ED5224BD969042001401F4C22688A432260DA698243DA611B69002B00D098470420FFF7BFFF174B1B685B0532
:400F800018D5164B1B685B0510D5154BD9698022D2001140114802688A430260D969114A0A40DA615B69002B00D098478020C000FFF7A2FF084B1B685B030CD5074B1B6821
:400FC0005B0304D5064B9B69002B00D098478020C002FFF791FF10BD10020B40F00000207C010020FFFBFFFF0F4B1B685B0619D50E4B1B68DB060BD50D4B1B68002B11D024
:401000000C4A136000230C4A1360094A136009E0094B1A68074B1B689A4203D0054B1A68054B1A607047C0464C0F0640640006409C010020440200202802002010B5094CC7
:40104000201D402100F082F8201C4430002100F05FF8054800F0E8F80023236000F0BEF810BDC0469C010020E90F000008B500F0C5F808BDF8B5071C0E1C151C002825D0E8
:40108000002925D09C00E41864001BE0114B1B78DB0613D5104B1A682A8000220D490A701A602B881A1CB34200D9321C92B2381C0A49043100F086FB00200AE00120FFF7B9
:4010C00017FE013C002CE1D1102002E0012000E00120F8BD2D0200203C0200209C01002038B5031C0C1C00280CD000290CD01180064D281C4430191C221C00F063FB2C6047
:40110000002002E0012000E0012038BD9C01002038B5002810D00D1C041C0A20FFF78EFD064B1C60064B1D600023064A1360064A13600A20FFF778FD38BDC04634020020C6
:4011400044020020280200203802002038B500280ED00D1C041C0A20FFF770FD054B1C60054B1D600022054B1A600A20FFF75CFD38BDC04640020020300200203C02002091
:401180000230800804D0C0460138FDD1C046C046C0467047EFF3108072B6704780F310887047C046C046C04608B50A20FFF73CFD08BDC04608B500F0C7F808BD08B500F0E7
:4011C00057F808BD08B5044A1368802109060B431360FFF7E9FF08BD0000064008B5064B1B78002B04D1FFF7E9FF0122024B1A70FFF7E8FF08BDC0462002002008B50A20B1
:40120000FFF71CFDFFF7D6FF054A13685B005B0813600022034B1A600A20FFF719FD08BD00000640880F0640014B58607047C046200200200A4B1B68DB050DD5094B1B685D
:401240005B0409D4064B1968074A0A401A601A68802149000A431A600222044B1A6070470000064060000640FFFEFFFF6C00064010B51E4A11680C230B43136000241C4BBA
:401280001C601C4A1C4B1A601C4B1D4A13601D4A14601D491D4A11601D4A13601D4B1C600A20FFF7CBFC0A200321FFF7EFFC0A201949FFF7D9FC194B1C60194B1C604C22B8
:4012C000FF32184B1A60184B1C60184B1C60184B1C603C3AFF3A174B1A70174B1C70174B1C60174B1C60174B1C7010BD7000064000000640C708004060000640070100800A
:4013000000030640040306401000FE0010030640000206400402064055130000C80E0640880E0640480F0640080F0640C80F0640880F0640480200202D02002028020020C5
:401340003C0200202C0200201022014B1A7070474802002010B5C04B1B68002B00D09847BE4B1B68DB0702D50022BD4B1A60BD4B1B789B061FD4BC4B1A680223FF331A4217
:4013800019D0B84B1B78DB0709D5B84B1A7802218A431A70197809220A431A7008E0B34B1A7820218A431A70197890220A431A700022AC4B1A70AB4B1B789B0600D5B6E1E9
:4013C000A84B1B78DB0600D48AE1A74B1B689B073ED50222A64B1A60A64A13680F211940136880221202134000D00123CB18A24A1278D2B29A4205D99C4A117804230B43A7
:40140000137006E09C4A12789B1A9C490A68D31A0B609A4B1A689A4B1A600023994A1360954A1370984B1A68802149020A431A601968964A0A401A608C4B1A7802218A4338
:401440001A70197801220A431A701022854B1A70854B1B681B0737D50822854B1A608C4B1B689B040CD414E08A4B1A688A4909688A188A490968C9B211701A6801321A605D
:40148000874B1B681B07EFD1814A1168854B0B401360854B1B689B0604D5744A117840230B4313700022814B1A60814A7E4B1A606E4B1A7820218A431A70197810220A4372
:4014C0001A70684B10221A70674B1B685B0641D50122784B1A60784B1B68DB060FD50F32684B1A60664B1A68644B1A605F4A117802230B43137012225A4B1A7024E06F4BC9
:401500001B68644A12689B1A072B03D80422674B1A6011E0082B06D15D4A1368A02109020B43136008E05A4A1368802189010B43136008225D4B1A604C4A117820230B4353
:4015400013701122474B1A705D4A494B1A6001225C4B1A605C4B1B681B072AD5574B1B684C4A1068181A0838082802D9002408200EE001240CE0474B1A68474909688A18A3
:4015800046490968C9B211701A6801321A6001380028F0D1002C08D03D4A1368802109020B4313600022414B1A6008223E4B1A6023E0454B1B685B071FD5384B1B68354A25
:4015C00011683E4A126891420DD201213D4A1160304A1168304800684118DBB20B7013680133136006E0FFF725FE204A117840230B43137004222C4B1A60344B1B68DB062E
:4016000020D494E01D4B1A68314B1B689A420CD21A4B1A682F4909688A181278D2B22E490A601A6801321A600CE0FF222A4B1A60114B1B78DBB20A2B04D80F4A137801336E
:40164000DBB213700B4B1B680F221340082BD9D10132224B1A606AE0240200208C0E0640880E0640480200204C0F06402D020020400F0640080206402C02002038020020D3
:4016800028020020880F064004020640FFFFFEFF600006403C020020400200204003064008030640FF5FFFFFC00F0640C80F0640ED0F0000800E0640640006403002002022
:4016C000FF0F00006C000640CC0F06408C0F0640440200203402002040020640800F0640134A13685B005B0813601021114B1970114B1868114901401960186810490140E6
:40170000196000230F490B600F490B600F49104B19601049104B19601049114B19601149114B19601368802109060B43136010BD000006404802002060000640FF5FFFFF66
:40174000FFFCFFFFC80F0640880F0640ED0F0000800F0640F3070000C00F0640FF0F0000400F064017030000000F0640014B18687047C046540100200E4B70B500251E1CA9
:401780000D4CE41AA410A54204D0AB00F35898470135F8E700F096F8084B00251E1C084CE41AA410A54204D0AB00F35898470135F8E770BDD0180000D0180000D0180000B9
:4017C000D8180000002310B5934203D0CC5CC4540133F9E710BD031C8218934202D019700133FAE77047000080190000FC0000000000000000300F40000400400F400004E8
:40180000DA03000032030000400300004E0300005C0300006A030000780300009403000086030000A2030000B0030000BE030000CC0300000E0600008C0600007A0800008B
:40184000D6060000720700007A08000080070000AE070000D6060000E80700005C080000D40500007A0800007A0800007A0800007A0800007A0800007A0800007A080000BF
:401880007A0800002E0600009311C80411320101030405060708090A0B0C0E0F101112131415161718191B1C1D1E1F2021222325262728292A2B2E2F3031323334350000CD
:4018C00043000000F8B5C046F8BC08BC9E46704761010000FD010000F8B5C046F8BC08BC9E46704739010000F8180000D000002088000000F800000000000000E817000000
:40190000EC170000010000000000E02EC05D00001800000000366E01040404000000000000000000000000000000000000000000000000000000000000000000C0180000D7
:40194000000000000000000000000000000000000000000000000000000000000000000000000000000000000000000000000000000000000000000000000000F400002053
:401980000010002091190000691B0000691B000008B5024B83F3088800F0EEF80010002038B5134C23688022D20213432360182000F090F922680F4B134023600E4A0F4BEC
:4019C0001A6010220E4B1A60802212060D4B1A60002525600C4A0D4B1A6009200C4900F037F9092000F01EF90A4B1D6038BDC04600010B40FFFFFBFF0600008004010B4055
:401A00000802024008010B400200008000000240E51E00000C020B4010B572B6002410E01D4863001A195200821891881B195B001A5AC31858880004104300F0EDF80134C6
:401A4000E4B2012CECD9EE221202144B1A60EE22134B1A6099221204124B1A60124B197802220A431A70114802783C218A4328390A430270197816220A431A70D82212019E
:401A80000B4B1A6003220B4B1A6021320A4B1A60FFF786FF10BDC046902600000C0001401000014030500F4000700F4001700F4008030440000404400804044010B5064C51
:401AC0002378002B07D1054B002B02D0044800E000BF0123237010BD50010020000000008C26000008B5084B002B03D00748084900E000BF07480368002B00D108BD064B50
:401B0000002BFBD09847F9E7000000008C26000054010020D00000200000000008B562B60F48802100F00EFB0E48802100F028FB00F040FA00F0D8FAC306FBD500F040FB59
:401B400000F0ECFA06480749802200F08DFD00F0CBFAC307FBD500F02DFB00F0CBFAE9E76C010020EC01002008B500F051FD03680C2B00D1FEE7FEE770B50F4E0F4D13E046
:401B800029686B68AC68002202E001C901C30432A242FAD1E868002202E0002102C304328242FAD11035013E002EE9D100F036FDFFF7B4FFFEE7C04601000000F4260000F9
:401BC00008B500230AE0032B03D89A000D49505800E00D4899000D4A885001332F2BF2D9FFF71AFF00220A4B1A600A4B1B68002B01D1084B1A608022D205116801230B431E
:401C0000136008BD80190000691B000000000020C8000020C000002008B50A1C002100F02CFD08BD1F2318401E3B8340181C014B1860704700E100E01F2318401E3B8340A9
:401C4000181C014B1860704780E100E001BE704738B5041C0D1C1F2802D90020FFF7F6FFA400034B9C4664442068256038BDC0464000002070B5041C0E1E032E02D900201A
:401C8000FFF7E4FF1F2C02D90020FFF7DFFF03252540ED00063500F0A5FAA408A400074B9C46644423680322AA409343AE40351C1D43256000F09AFA70BDC04600E400E0B2
:401CC00008B5034B1B7B584300F082FA08BDC046D4000020F0B557464E46C0B483B0041C00F080FA0190E71E2D2F74D83F4B1B78DBB2A34208D33E4B1B78DBB29A463D4BBD
:401D00001B78DBB2994631E03B4B1B78DBB2A34208D33A4B1B78DBB29A46394B1B78DBB2994623E0374B1B78DBB2A34208D3364B1B78DBB29A46354B1B78DBB2994615E0CB
:401D4000334B1B78DBB2A34208D3324B1B78DBB29A46314B1B78DBB2994607E02F4B1B78DBB29A462E4B1B78DBB299462D4BDE5D2F2E09D92A2C07D919222B4B1A600520BC
:401D800000F026FA192503E0274B1D683F231D40AE4206D2234BDA5D234B1A60052000F017FA1F4B9C4664442378DBB21F4A13601F4B52461A601F4B4A461A600520FFF7BE
:401DC0007FFFAE420AD9174BDA5D174B1A60052000F0FEF902E00020FFF738FF019800F005FA03B00CBC91469A46F0BDC0F1FF0FC1F1FF0FC2F1FF0FC3F1FF0FC4F1FF0FB6
:401E0000C5F1FF0FC6F1FF0FC7F1FF0FC8F1FF0FC9F1FF0FCAF1FF0FCBF1FF0FCCF1FF0FCDF1FF0F9C2600002CFF0B4028FF0B401CFF0B4020FF0B40034B1868C0231B0252
:401E4000184000D00120704700010B4008B500F0C9F9044A1368C02109020B43136000F0C5F908BD00010B4010B500F0BBF908490A68084B1A408024E40122430A600A68CF
:401E800013408022120213430B6000F0AFF910BD00010B40FF3FFFFF70B5061C00F0A2F9041CFFF7C9FF002803D0FFF7DDFF012500E000250848331C0340084A10680849C6
:401EC0000840184310601368012D01D1FFF7BEFF201C00F08BF970BD0404040010020B40FBFBFBFF10B5244B1B685B0715D5234B1B685B070ED5224BD969042001401F4CB3
:401F000022688A432260DA698243DA611B69002B00D098470420FFF7BFFF174B1B685B0518D5164B1B685B0510D5154BD9698022D2001140114802688A430260D969114AFE
:401F40000A40DA615B69002B00D098478020C000FFF7A2FF084B1B685B030CD5074B1B685B0304D5064B9B69002B00D098478020C002FFF791FF10BD10020B40E8000020DD
:401F80006C020020FFFBFFFF08B50A20FFF74AFE08BDC04608B500F03BF808BD08B5044A1368802109060B431360FFF7EDFF08BD0000064008B5064B1B78002B04D1FFF78B
:401FC000E9FF0122024B1A70FFF7E8FF08BDC0468C0200200A4B1B68DB050DD5094B1B685B0409D4064B1968074A0A401A601A68802149000A431A600222044B1A6070473E
:402000000000064060000640FFFEFFFF6C00064010B51E4A11680C230B43136000241C4B1C601C4A1C4B1A601C4B1D4A13601D4A14601D491D4A11601D4A13601D4B1C600B
:402040000A20FFF7F9FD0A200321FFF713FE0A201949FFF7FDFD194B1C60194B1C604C22FF32184B1A60184B1C60184B1C60184B1C603C3AFF3A174B1A70174B1C70174BB5
:402080001C60174B1C60174B1C7010BD7000064000000640C7080040600006400701008000030640040306401000FE00100306400002064004020640F9210000C80E06400B
:4020C000880E0640480F0640080F0640C80F0640880F064094020020AC020020980200209C020020B8020020014B1878C0B27047AC02002010B50A20FFF79EFD064A14780B
:402100000F231C4013780D218B4313700A20FFF789FD201C10BDC046AC02002010B50A20FFF78AFD064B1C780F229443197820320A401A700A20FFF775FD201C10BDC046D3
:40214000AC02002038B5002810D00D1C041C0A20FFF772FD064B1C60064B1D600023064A1360064A13600A20FFF75CFD38BDC046A8020020A402002098020020B0020020F0
:4021800038B500280ED00D1C041C0A20FFF754FD054B1C60054B1D600022054B1A600A20FFF740FD38BDC046B4020020A00200209C0200200022014B1A60704798020020E6
:4021C0000022014B1A6070479C020020000000000230800804D0C0460138FDD1C046C046C0467047EFF3108072B6704780F310887047C046C046C04610B5C04B1B68002B7B
:4022000000D09847BE4B1B68DB0702D50022BD4B1A60BD4B1B789B061FD4BC4B1A680223FF331A4219D0B84B1B78DB0709D5B84B1A7802218A431A70197809220A431A70BA
:4022400008E0B34B1A7820218A431A70197890220A431A700022AC4B1A70AB4B1B789B0600D5B6E1A84B1B78DB0600D48AE1A74B1B689B073ED50222A64B1A60A64A136831
:402280000F211940136880221202134000D00123CB18A24A1278D2B29A4205D99C4A117804230B43137006E09C4A12789B1A9C490A68D31A0B609A4B1A689A4B1A6000237C
:4022C000994A1360954A1370984B1A68802149020A431A601968964A0A401A608C4B1A7802218A431A70197801220A431A701022854B1A70854B1B681B0737D50822854B74
:402300001A608C4B1B689B040CD414E08A4B1A688A4909688A188A490968C9B211701A6801321A60874B1B681B07EFD1814A1168854B0B401360854B1B689B0604D5744A16
:40234000117840230B4313700022814B1A60814A7E4B1A606E4B1A7820218A431A70197810220A431A70684B10221A70674B1B685B0641D50122784B1A60784B1B68DB060B
:402380000FD50F32684B1A60664B1A68644B1A605F4A117802230B43137012225A4B1A7024E06F4B1B68644A12689B1A072B03D80422674B1A6011E0082B06D15D4A13684A
:4023C000A02109020B43136008E05A4A1368802189010B43136008225D4B1A604C4A117820230B4313701122474B1A705D4A494B1A6001225C4B1A605C4B1B681B072AD54B
:40240000574B1B684C4A1068181A0838082802D9002408200EE001240CE0474B1A68474909688A1846490968C9B211701A6801321A6001380028F0D1002C08D03D4A136897
:40244000802109020B4313600022414B1A6008223E4B1A6023E0454B1B685B071FD5384B1B68354A11683E4A126891420DD201213D4A1160304A1168304800684118DBB2A9
:402480000B7013680133136006E0FFF7A3FD204A117840230B43137004222C4B1A60344B1B68DB0620D494E01D4B1A68314B1B689A420CD21A4B1A682F4909688A181278DB
:4024C000D2B22E490A601A6801321A600CE0FF222A4B1A60114B1B78DBB20A2B04D80F4A13780133DBB213700B4B1B680F221340082BD9D10132224B1A606AE09002002047
:402500008C0E0640880E0640940200204C0F0640AC020020400F064008020640B8020020B002002098020020880F064004020640FFFFFEFF600006409C020020B402002011
:402540004003064008030640FF5FFFFFC00F0640C80F0640ED0F0000800E064064000640A0020020FF0F00006C000640CC0F06408C0F0640A4020020A802002040020640DD
:40258000800F0640134A13685B005B0813601021114B1970114B1868114901401960186810490140196000230F490B600F490B600F49104B19601049104B19601049114BED
:4025C00019601149114B19601368802109060B43136010BD000006409402002060000640FF5FFFFFFFFCFFFFC80F0640880F0640ED0F0000800F0640F3070000C00F0640A9
:40260000FF0F0000400F064017030000000F0640014B18687047C0464C0100200E4B70B500251E1C0D4CE41AA410A54204D0AB00F35898470135F8E700F04AF8084B00255B
:402640001E1C084CE41AA410A54204D0AB00F35898470135F8E770BDDC260000DC260000DC260000E4260000002310B5934203D0CC5CC4540133F9E710BD031C82189342F9
:4026800002D019700133FAE7704700000000000000300F40000400400F400004030405060708090A0B0C0E0F101112131415161718191B1C1D1E1F202122232526272829CE
:4026C0002A2B2E2F303132333435000043000000F8B5C046F8BC08BC9E467047E51A0000C11B0000F8B5C046F8BC08BC9E467047BD1A000008270000D000002080000000D9
:40270000700100000000000000000000010000000000E02EC05D00001800000000366E01040404000000000000000000000000000000000000000000000000000000000033
:4027400000000000CC260000000000000000000000000000000000000000000000000000000000000000000000000000000000000000000000000000000000000000000067
:4027800000000000EC00002000000000000000000000000000000000000000000000000000000000000000000000000000000000000000000000000000000000000000000D
:4027C00000000000000000000000000000000000000000000000000000000000000000000000000000000000000000000000000000000000000000000000000000000000D9
:402800000000000000000000000000000000000000000000000000000000000000000000000000000000000000000000000000000000000000000000000000000000000098
:402840000000000000000000000000000000000000000000000000000000000000000000000000000000000000000000000000000000000000000000000000000000000058
:402880000000000000000000000000000000000000000000000000000000000000000000000000000000000000000000000000000000000000000000000000000000000018
:407FC000619119000032000000800E0000000000000000000000000000000000000000000000000000000000000000000000000000000000000000000000000000000000B6
:0200000490303A
:020000003EAF11
:0200000490402A
:200000000000000000000000000000000000000000000000000000000000000000000000E0
:0200000490501A
:0C000000000204C81193110104D4504206
:0200000490600A
:0100000001FE
:00000001FF